:100000000C94AD000C94CF1F0C94A11F0C94111FE5
:100010000C94811E0C94D61D0C94D5000C94D50024
:100020000C94D5000C94D5000C94D5000C94D500FC
:100030000C94D5000C94D5000C94D5000C94D500EC
:100040000C948C1D0C94D5000C945A1D0C94341DEA
:100050000C94D5000C94D5000C94D5000C94D500CC
:100060000C94D5000C94D50000010203040506078A
:100070000001020304050001020304050000000062
:10008000250028002B000000000023002600290086
:100090000000000800020100000304070000000047
:1000A000000000006E6F726D616C0074616D7065B0
:1000B000726564006E6F4D6F74696F6E006D6F7462
:1000C000696F6E00737461742F617264312F746193
:1000D0006D7000737461742F617264312F6D6F7471
:1000E0000073746172742072656164004D515454E0
:1000F00000657468007374617274696E6700000053
:100100000000240027002A0001020408102040807B
:100110000102040810200102040810200404040451
:1001200004040404020202020202030303030303A1
:100130007761726E696E670063617574696F6E00D6
:10014000696E666F00636C6F7365006F70656E003B
:100150006F6E006F66660000482011241FBECFEF4F
:10016000D8E0DEBFCDBF11E0A0E0B1E0ECE7F0E504
:1001700002C005900D92AA3AB107D9F725E0AAEA84
:10018000B1E001C01D92A83CB207E1F710E0CDEA52
:10019000D0E004C02197FE010E94F427CC3AD10799
:1001A000C9F70E9422210C943C280C940000CF93A4
:1001B000DF93EC01FA013296E60FF71FDC019D0197
:1001C0002C1B3D0BCF01861B970B4D91442311F047
:1001D0004193F5CFAC01421B530B640F751FFB011C
:1001E0003297308361507109FB012083DF91CF91F9
:1001F0000895FC01ED56FF4FDB0112964D915D9184
:100200006D917C91159742835383648375833896EF
:100210002BE537E0318320833297118210820895D5
:10022000AF92BF92CF92DF92EF92FF920F931F9304
:10023000CF93DF936C017B018B01040F151FEB0142
:100240005E01AE18BF08C017D10759F06991D601F9
:10025000ED91FC910190F081E02DC6010995892B6B
:1002600079F7C501DF91CF911F910F91FF90EF902A
:10027000DF90CF90BF90AF900895FC01538D448DD7
:10028000252F30E0842F90E0821B930B541710F041
:10029000CF96089501970895FC01918D828D98174E
:1002A00061F0A28DAE0FBF2FB11D5D968C91928D26
:1002B0009F5F9F73928F90E008958FEF9FEF089557
:1002C000FC01918D828D981731F0828DE80FF11D20
:1002D000858D90E008958FEF9FEF0895FC01918D3B
:1002E000228D892F90E0805C9F4F821B91098F7334
:1002F0009927089582EB94E00E946E0121E0892BFA
:1003000009F420E0822F089580E090E0892B29F005
:100310000E947A0181110C9400000895FC01A48DC3
:10032000A80FB92FB11DA35ABF4F2C91848D90E017
:1003300001968F739927848FA689B7892C93A089FA
:10034000B1898C91837080648C93938D848D981384
:1003500006C00288F389E02D80818F7D8083089517
:10036000EF92FF920F931F93CF93DF93EC0181E005
:10037000888F9B8D8C8D98131AC0E889F9898081AC
:1003800085FF15C09FB7F894EE89FF896083E889DF
:10039000F98980818370806480839FBF81E090E0D1
:1003A000DF91CF911F910F91FF90EF900895F62E5E
:1003B0000B8D10E00F5F1F4F0F731127E02E8C8DF8
:1003C0008E110CC00FB607FCFACFE889F98980813D
:1003D00085FFF5CFCE010E948E01F1CFEB8DEC0FA2
:1003E000FD2FF11DE35AFF4FF0829FB7F8940B8F5A
:1003F000EA89FB8980818062CFCFCF93DF93EC01C4
:10040000888D8823B9F0AA89BB89E889F9898C91FC
:1004100085FD03C0808186FD0DC00FB607FCF7CFB8
:100420008C9185FFF2CF808185FFEDCFCE010E94B8
:100430008E01E9CFDF91CF910895833081F028F4C8
:10044000813099F08230A9F008958730A9F0883082
:10045000C9F08430B1F4809180008F7D03C0809119
:1004600080008F7780938000089584B58F7784BD56
:10047000089584B58F7DFBCF8091B0008F778093F6
:10048000B00008958091B0008F7DF9CFCF93DF93B6
:10049000282F30E0F901E057FF4F8491F901E85F20
:1004A000FE4FD491F901E45EFE4FC491CC23A1F03C
:1004B00081110E941D02EC2FF0E0EE0FFF1FEA57A2
:1004C000FF4FA591B491EC91ED2381E090E009F408
:1004D00080E0DF91CF91089580E090E0FACF1F9304
:1004E000CF93DF93282F30E0F901E057FF4F84913D
:1004F000F901E85FFE4FD491F901E45EFE4FC4912B
:10050000CC23A9F0162F81110E941D02EC2FF0E0E0
:10051000EE0FFF1FE458FF4FA591B4918FB7F894E9
:10052000EC91111108C0D095DE23DC938FBFDF91D1
:10053000CF911F910895DE2BF8CFCF93DF9390E0FA
:10054000FC01E85FFE4F2491845E9E4FFC01849184
:100550008823D1F090E0880F991FFC01E250FF4FF3
:10056000A591B491FC01E458FF4FC591D49162303C
:1005700071F49FB7F8943C91822F809583238C93DC
:10058000E8812E2B28839FBFDF91CF9108958FB7ED
:10059000F894EC912E2B2C938FBFF6CF3FB7F894A5
:1005A0008091D5029091D602A091D702B091D80245
:1005B00026B5A89B05C02F3F19F00196A11DB11DBE
:1005C0003FBFBA2FA92F982F8827BC01CD01620FFA
:1005D000711D811D911D42E0660F771F881F991FB5
:1005E0004A95D1F708958F929F92AF92BF92CF9282
:1005F000DF92EF92FF924B015C010E94CE026B01F1
:100600007C010E94CE026C197D098E099F09683E0B
:10061000734081059105A8F321E0821A9108A10891
:10062000B10888EEC80E83E0D81EE11CF11C8114CD
:100630009104A104B10429F7FF90EF90DF90CF90CF
:10064000BF90AF909F908F9008952FB7F8946091CE
:10065000D1027091D2028091D3029091D4022FBF27
:100660000895A6EFB2E025E014969C911497981394
:100670000DC095E0899FF0011124EA50FD4F84815F
:1006800014968C931382128214820895992331F068
:10069000929FD0011124AA50BD4FE6CF0895882320
:1006A000A1F09091C403992381F08F3F29F48091A8
:1006B000C9039091CA03089595E0899FF001112420
:1006C000EA50FD4F82819381089590E080E0089583
:1006D0008EBD00000DB407FEFDCF8EB508950F93BB
:1006E0001F93CF93DF938C01EB0160E08AE00E94BF
:1006F0006F028AE30E9468030C0F1D1F0C171D0771
:1007000029F080E00E9468038993F8CF61E08AE0D5
:10071000DF91CF911F910F910C946F021F93CF9394
:10072000DF93182FC62FD42F60E08AE00E946F025B
:100730008C2F8F71812B0E9468038D2F0E9468037C
:1007400061E08AE0DF91CF911F910C946F02CF930B
:10075000DF93D82FD076909100019D17A1F0C82F7C
:1007600043E06FE180EA0E948E034C2F50E085E069
:10077000559547958A95E1F743706FE180E80E94AF
:100780008E03D0930001DF91CF9108951F93CF93F3
:10079000DF93C82F162FD72F0E94A703412F6C2F4E
:1007A00080E40E948E0361E06C0F4D2F80E4DF91A6
:1007B000CF911F910C948E03EF92FF920F931F9392
:1007C000CF93DF938B017A018F3F59F095E0899F9A
:1007D000E0011124CA50DD4F68817981600F711FDB
:1007E00010C06091C7037091C803600F711FC7EC00
:1007F000D3E0611588E0780778F36F5F7740C7EC46
:10080000D3E080E00E94C6038A819B81801B910B0C
:10081000E816F90608F4C701DF91CF911F910F91F7
:10082000FF90EF9008956091C5037091C603611524
:10083000710529F0615071098CE00C94C6036FEFCB
:1008400077E0FACFCF93DF93C82FD62F0E94A7036C
:100850004D2F6C2F80E4DF91CF910C948E03CF93BA
:10086000DF93D82FC62F60E08AE00E946F028C2FA2
:100870008F718D2B0E946803C7FF03C080E00E9428
:10088000680380E00E946803C82F61E08AE00E944C
:100890006F028C2FDF91CF910895CF93C82F0E94C4
:1008A000A7036C2F80E0CF910C942F04CF93DF939C
:1008B00061E184ED0E94220461E082ED0E94220445
:1008C000CFE0D0E08AEE0E944D0480FF0BC06AE0CA
:1008D00070E080E090E00E94F302219799F790E0A9
:1008E00080E00DC060E082ED0E94220488ED0E944D
:1008F0004D04C82F89ED0E944D04982F8C2FDF9155
:10090000CF910895CF93DF93EB01682F84ED0E9480
:100910002204BE0186ED0E94C603CFE0D0E08AEE3D
:100920000E944D0480FF08C06AE070E080E090E023
:100930000E94F302219799F7DF91CF910895CF9309
:10094000C62FBC0182E00E94C60360E08AE00E94DC
:100950006F028AE70E9468038C2F0E94680361E09F
:100960008AE0CF910C946F02CF93BC0180E00E948B
:10097000C60360E08AE00E946F028AE30E94680377
:1009800080E00E946803C82F61E08AE00E946F0245
:100990008C2FCF910895CF92DF92EF92FF920F9319
:1009A0001F93CF93DF936C018B014130510579F494
:1009B000CB010E94B404682FC601DF91CF911F9133
:1009C0000F91FF90EF90DF90CF900C949F04EA017D
:1009D000C60FD71F7E0181E0E81AF10880E10E946E
:1009E000C603B60184E10E94C6030115184048F40D
:1009F000E11488E0F80628F07E0181E0E81A88E03A
:100A0000F80AB70182E10E94C60340E16FE180EA83
:100A10000E948E0340E26FE180E80E948E036FE146
:100A200080E00E942F0485FF07C061E070E080E055
:100A300090E00E94F302F3CFDF91CF911F910F91CD
:100A4000FF90EF90DF90CF900895CF92DF92EF92DA
:100A5000FF920F931F93CF93DF938C016091F60267
:100A60007091F7026150784EC12C98E1D92EE6EFD3
:100A7000F2E020E0D0E0C0E045E03481CB01332358
:100A800041F0439FC00111248A509D4FDC018D919C
:100A90009C91E080F1808E199F090280F381E02D06
:100AA0008E1B9F0B8017910799F4B5E02B9FE001F7
:100AB0001124CA50DD4FEBEFF2E081E02281338157
:100AC000232B09F453C035968F5F8932B9F744C0A0
:100AD0000817190748F48C159D0530F4249FE00190
:100AE0001124CA50DD4F6C01311121C0209719F734
:100AF000C6EFD2E085E0D82E8C8128813981EA804A
:100B0000FB808823D9F0E20EF31E8D9DE0011124B5
:100B1000CA50DD4F68817981E616F70669F34A818C
:100B20005B81C7010E94CB04F982E882E5CF349F44
:100B3000F0011124EA50FD4F232F9FCF8091F60240
:100B40009091F702821B930B8E199F098150984E4A
:100B50008017910708F0AFCF80E0DF91CF911F9110
:100B60000F91FF90EF90DF90CF9008952881398109
:100B70004A815B81240F351F3183208313830283D5
:100B80009C8194838C83E9CF0F931F93DB01E42F27
:100B9000A80190E0EF3FE9F065E0E69FF001112445
:100BA000EA50FD4F60817181620F731F02C06F5F59
:100BB000774025E0289FF001299FF00D1124EA508D
:100BC000FD4F808191818A0F9B1F1F910F910C9483
:100BD000CB046091C7037091C803620F731F611546
:100BE000E8E07E0720F7E7ECF3E0DCCFCF92DF927E
:100BF000EF92FF920F931F93CF93DF936B018A01C4
:100C0000790195E0899FE0011124CA50DD4F688188
:100C100079816C0D7D1D82E00E94C6030A80DB8114
:100C2000C02DCC19DD09EC16FD0608F4E70160E0E3
:100C30008AE00E946F028AE70E9468037801EC0E46
:100C4000FD1EE016F10631F0F80181918F010E943E
:100C50006803F7CF61E08AE00E946F02CE01DF9166
:100C6000CF911F910F91FF90EF90DF90CF9008955B
:100C7000FB0141505109460F571FE417F50778F45F
:100C8000208130E0322F22276181260F311D820F13
:100C9000931F8217930708F401963296EECFE4175C
:100CA000F50751F4208130E0322F2227820F931F65
:100CB0008217930708F401960895CF92DF92EF927E
:100CC000FF920F931F93CF93DF9380917C0290E06C
:100CD000982F882720917D02820F911D7C0124E1AD
:100CE000E21AF10848E050E066E872E00E970E94D0
:100CF000380600919A02069506950C7310E0A8013B
:100D00006EE872E00E943806EC010E151F0508F02F
:100D100042C0A701401B510BB8016E5D7F4F80910F
:100D20004E020E94DC0301977C0160E08AE00E9491
:100D30006F028AE30E946803D12CC12CCE14DF0419
:100D4000B8F480E00E946803082F10E0102F0027FD
:100D500080E00E946803800F912F911DC80FD91F5A
:100D6000C817D90708F4219682E0C80ED11CE6CF37
:100D7000EC14FD0461F480E00E94680390E0982F79
:100D80008827C80FD91FC817D90708F4219661E032
:100D90008AE00E946F029C2F8D2FCD2B11F48FEFD4
:100DA0009FEFDF91CF911F910F91FF90EF90DF9018
:100DB000CF90089544E150E06AE772E090E080E06F
:100DC0000E943806009721F09827892798270895D0
:100DD0008FEF9FEF0895CF92DF92EF92FF920F93E4
:100DE0001F93CF93DF93C0914D02C1FF5EC020914E
:100DF0004C0230E04CE652E070E060E080914E0240
:100E00000E94F605CD7FC0934D02F0904E02809176
:100E1000C403882309F474C085E0F89EF00111240E
:100E2000EA50FD4FC081D1812197028113810C0FBF
:100E30001D1FCE010E94B404E82E882321F060E03B
:100E4000CE010E949F04BE0184E00E94C603B80147
:100E500086E00E94C6038AE0C82ED12C40E86FE1EC
:100E600080E80E948E0340E86FE180EA0E948E03D2
:100E70004AE06CE180EA0E948E0348E06FE180E87E
:100E80000E948E0304E610E08CE10E944D048A70FB
:100E900029F50115110521F1015011096AE070E0F1
:100EA00080E090E00E94F302EFCFC0916402D09105
:100EB0006502209721F410924E0280E029C0CE01F5
:100EC0000E94250580934E028823B9F39E014CE6CB
:100ED00052E070E060E00E94F60597CF012B51F4DC
:100EE00048E06FE180EA0E948E0381E0C81AD108D1
:100EF00009F0B4CFEE2021F06E2DCE010E949F04A8
:100F0000FF2019F08F2D0E94310310924E0281E0D4
:100F1000DF91CF911F910F91FF90EF90DF90CF90D5
:100F200008950F931F93CF93DF93EC018C010B5F18
:100F30001F4F899181110E943103FE013197108268
:100F4000C017D107B1F7DF91CF911F910F9108958D
:100F5000CF93DF93EC01888181110E943103FE0160
:100F6000CE01049621812193E817F907D9F71C8255
:100F7000DF91CF910895CF93DF93EC01E881F98160
:100F8000008CF18DE02D0995882339F08C859D85A5
:100F90000296DF91CF910C949107DF91CF91089544
:100FA0000F931F93CF93DF931F92CDB7DEB78C01C2
:100FB000DC01ED91FC91008CF18DE02D09958823E9
:100FC000D1F0D8011C96ED91FC918281882399F093
:100FD00041E050E070E060E00E94DC03BE016F5F22
:100FE0007F4F0E946F03898190E00F90DF91CF9136
:100FF0001F910F9108958FEF9FEFF7CFCF93DF935E
:101000001F92CDB7DEB7DC01ED91FC910288F38928
:10101000E02D41E050E0BE016F5F7F4F099518164B
:10102000190634F4898190E00F90DF91CF910895F3
:101030008FEF9FEFF9CF6F927F928F929F92AF9237
:10104000BF92CF92DF92EF92FF920F931F93CF93B5
:10105000DF938C014B01EA01DC01ED91FC91008CE6
:10106000F18DE02D0995882309F480C0D8011C96E4
:10107000ED91FC918281882309F47BC07E018EE191
:10108000682E5E01AE18BF08A80CB91CD8011C96CA
:10109000ED91FC91A70170E060E082810E94DC0389
:1010A0006C01B5010E946F03F801A484B584D501D9
:1010B00012967C90872D0E944F038C159D05E9F5B3
:1010C000E81AF90AC50102960E94A807F801A4854A
:1010D000B585EC916E9EF0011124E253FC4F818D99
:1010E00084FF09C011968C911197982F967019F46E
:1010F000886011968C93D8011C96ED91FC911D97F8
:10110000828181112EC0818182FF05C011821D96CE
:101110001C921E921C97CE018E199F09DF91CF91D0
:101120001F910F91FF90EF90DF90CF90BF90AF9005
:101130009F908F907F906F900895B5E07B9EF00117
:101140001124EA50FD4F808191818C0D9D1D91836A
:101150008083828193818C199D0993838283CE0140
:10116000DDCFE114F10409F08CCFF9CF8FEF9FEFC1
:10117000D5CF90E080E0D2CFEF92FF920F931F93F4
:10118000CF93DF93EC01E881F981008CF18DE02DA4
:1011900009958823E1F00C851D85780182E0E80E31
:1011A000F11C095F1F4FD0E0C0E0F70181917F0182
:1011B0000E944F03C80FD91FE016F106B1F7CE0108
:1011C000DF91CF911F910F91FF90EF900895D0E0A4
:1011D000C0E0F5CFFC01448555854115510551F01E
:1011E000FB01248535852115310521F081E0421769
:1011F000530709F080E00895DC011C96ED91FC9105
:10120000309731F08281811105C08181817008950C
:1012100080E0089581E0089590E080E00895DC0189
:10122000ED91FC91028CF38DE02D099591E08927D9
:101230000895CF93DF93FC01A481B581109721F429
:1012400080E0DF91CF910895EC01ED91FC91119731
:101250000688F789E02DCD01099581111EC0FE0198
:10126000E156FF4F80819181892B51F78DEF9FEFE0
:10127000918380838C819D81DC01ED91FC910680BE
:10128000F781E02D09958C819D81DC01ED91FC9128
:101290000488F589E02D0995D3CF81E0D2CFCF9294
:1012A000DF92EF92FF920F931F93CF93DF9300D0C3
:1012B00000D0CDB7DEB78C01F90180E0DE011196D8
:1012C0007D019E2F9F77EE0FEF2FEE1FFF0BF19505
:1012D000309709F09068D701A80FB11D9C938F5FDC
:1012E000309779F790E0FA01E81BF90B6483FA0173
:1012F000E81BF90B3596D701BD016E197F096817F8
:1013000079071CF46D916193F7CFFC013196D801F8
:1013100014968D919C917F01E20EF31EBA016E1B13
:101320007F0B6B5F7F4FDC01ED91FC910280F381BD
:10133000E02DA70109956C010E942503F801E857EB
:10134000FF4F608371838283938381E0EC14FD04FB
:1013500009F080E00F900F900F900F90DF91CF91E8
:101360001F910F91FF90EF90DF90CF900895EF9233
:10137000FF920F931F93CF93DF93EC018B017A01C0
:101380000E942503FE01E857FF4F6083718382832B
:1013900093838C819D81DC01ED91FC910280F3812E
:1013A000E02DA701B801DF91CF911F910F91FF9020
:1013B000EF9009941F93CF93DF93EC01162F0E94B7
:1013C0002503FE01E857FF4F608371838283938377
:1013D0008C819D81DC01ED91FC910190F081E02DEB
:1013E000612FDF91CF911F910994CF92DF92EF92FD
:1013F000FF920F931F93CF93DF93EC018B010E9419
:1014000025036B017C018C819D81DC01ED91FC91B8
:101410000084F185E02D0995892B69F40E9425034C
:101420006C197D098E099F0968397A4381059105F8
:1014300050F380E00CC08C819D81DC01ED91FC912A
:101440000284F385E02D0995F801808381E0DF9126
:10145000CF911F910F91FF90EF90DF90CF90089563
:101460002F923F924F925F926F927F928F929F92B4
:10147000AF92BF92CF92DF92EF92FF920F931F93A2
:10148000CF93DF9300D0CDB7DEB78C014B016C0159
:1014900026E0C20ED11CB6010E94F509811118C0C8
:1014A000F12CE12CC7010F900F90DF91CF911F918C
:1014B0000F91FF90EF90DF90CF90BF90AF909F90F3
:1014C0008F907F906F905F904F903F902F900895F6
:1014D000D8011696BC91BA8319821801E7E02E0E46
:1014E000311CEE24E394F12CB12CA12C412C512C75
:1014F00032014394BE016F5F7F4FC8010E94F5091E
:10150000882371F2B7016F5F7F4F8981F101819369
:101510001F01282F2F7730E0249DA001259D500D1D
:10152000349D500D1124A40EB51E27E0440C551C0B
:10153000661C771C2A95D1F787FD35C0FA81F07FAC
:10154000FA838FEF860FD4018C93F03309F043C0F8
:101550006C0D7D1DC8010E94F509882309F4A0CFF8
:10156000B7016E5F7F4F6C0D7D1DC8010E94F509AC
:10157000882309F495CFB7016D5F7F4FD401EC91BB
:10158000E00FF12FF11DC780D12CDC2CCC248085FD
:10159000C80ED11CF801868181FF03C0F2E0CF0E96
:1015A000D11C82E01BC07B016530710509F0A2CF20
:1015B000F801E156FF4F8FEF9FEF91838083D801B1
:1015C00014968D919C91DC01ED91FC910488F58934
:1015D000E02D099565CF80E0D12CC12C482E512CEF
:1015E0007B01461A570A18012DE9220E311C8EEF95
:1015F000682E77247A94C2018E0D9F1D8A159B0553
:1016000088F5BE016F5F7F4FC8010E94F5098823EE
:1016100009F446CFD1018D919C910097B1F0BA8128
:10162000B03399F4F4012081A301421B51099A01BE
:101630002E0D3F1DC216D30640F4DC01ED91FC9146
:101640000190F081E02D69810995B0E8EB16F10475
:1016500028F48981F801EE0DFF1D8683EFEFEE1A65
:10166000FE0AC9CFF801E356FF4F80819181892B93
:1016700009F018CFF1E8EF16F10408F011CF12CFFE
:101680008091AB01E091AA01F0E0EE0FFF1FED5158
:10169000FE4F0190F081E02D91E0811101C090E0BA
:1016A000818590FB80F981870895CF93DF93EC01CA
:1016B000FB01828193819B838A838CE491E09983EF
:1016C0008883848195819D838C8380E83696DE01B2
:1016D000169601900D928A95E1F7FB01EA57FF4FAC
:1016E00080819181FE01EA57FF4F91838083FB0146
:1016F000E857FF4F80819181A281B381FE01E857B5
:10170000FF4F80839183A283B383FB01E457FF4F94
:1017100080819181A281B381FE01E457FF4F8083D4
:101720009183A283B383FB01E057FF4F8081FE01C9
:10173000E057FF4F8083FB01EF56FF4F808191817F
:10174000FE01EF56FF4F9183808332968AE691E047
:1017500091838083DB01AD56BF4F12968D919D9191
:101760000D90BC91A02D82839383A483B583FB014C
:10177000E756FF4F80819181FE01E756FF4F91832D
:101780008083FB01E556FF4F80819181FE01E55684
:10179000FF4F91838083FB01E356FF4F808191814E
:1017A000FE01E356FF4F9183808361567F4FFB011B
:1017B00080819181C156DF4F99838883DF91CF91DA
:1017C0000895089590E080E00895CF92DF92EF921F
:1017D000FF920F931F93CF93DF93CDB7DEB7C25421
:1017E000D1090FB6F894DEBF0FBECDBF8C01FB014F
:1017F00082819381A481B58123968CAF9DAFAEAFDA
:10180000BFAF239721E023962FAF239723964CADAC
:101810005DAD6EAD7FAD23974BAB5CAB6DAB7EAB7F
:1018200089AF9AAFABAFBCAF8DA79EA7AFA7B8AB40
:1018300028AB4DA55EA56FA578A94FA358A769A7AA
:101840007AA72EAB4BA95CA96DA97EA949A35AA37F
:101850006BA37CA38B8F9C8FAD8FBE8F2AA74FA1CC
:1018600058A569A57AA54D8B5E8B6F8B788F2CA3BD
:1018700049A15AA16BA17CA14F87588B698B7A8BA8
:1018800089879A87AB87BC870E94250366507F4F64
:101890008F4F9F4F6093AE047093AF048093B0045A
:1018A0009093B1041092C8031092C7031092CA0318
:1018B0001092C903E8EFF2E08BECDF011D928A95EC
:1018C000E9F781E098E09093F7028093F60261E0F7
:1018D0008AE00E949D0261E08AE00E946F02FFB6EA
:1018E000F8948091C303811127C0E6E2F1E084916E
:1018F000E2E1F1E09491E82FF0E0EE0FFF1FE250FB
:10190000FF4FA591B491EC91E92321F461E08AE0C5
:101910000E946F0261E08AE00E949D028CB58061A6
:101920008CBD8CB580648CBD61E08DE00E949D0211
:1019300061E08BE00E949D028091C3038F5F8093E2
:10194000C303FFBE8CB58C7F8CBD8DB581608DBD12
:101950004FEF60E08FEF0E948E0362E070E080E066
:1019600090E00E94F30262E370E080E090E00E9469
:10197000F3021092C6031092C50380E1E82EF12C09
:101980006DE180E00E942F0481110BC0B1E0EB1AE1
:10199000F10839F06AE070E080E090E00E94F30224
:1019A000EFCF70E060E088E00E94C60370E060E086
:1019B0008CE00E94C6036FEF77E08AE00E94C603C6
:1019C00061EB88E30E9422046FE370E388E20E94E7
:1019D000C60369EF77EF80E30E94C6036DE070E015
:1019E00080EC0E94C60342E362EC80E80E948E0312
:1019F00062E17CE086EC0E94C60362E184EC0E9416
:101A000022046CED75E08AEC0E94C603F801608147
:101A100084EE0E942204D80111966C9185EE0E94FA
:101A20002204F801628182EE0E942204D8011396FA
:101A30006C9183EE0E942204F801648180EE0E9482
:101A40002204D80115966C9181EE0E94220460E078
:101A500071E080E10E9482048FE10E94A70340ECC4
:101A60006BE180E80E948E0344E06FE180E80E9411
:101A70008E0366E774E084E10E94820482E70E949C
:101A80004D048F3F09F48BC08093C403F80180811B
:101A90008093A80481818093A90482818093AA0401
:101AA00083818093AB0484818093AC04858180938F
:101AB000AD0410924704109246041092490410920B
:101AC000480410924B0410924A0410924D04109254
:101AD0004C041092E7031092050410922304109214
:101AE000410484E080934E0480E094E09093CD0321
:101AF0008093CC031092A7049BE024E08091A7047C
:101B0000883008F44FC04D895E898F8921E02A8B87
:101B1000CF84D888E988FA88CB82DC82ED82FE8285
:101B20006B857C85E985FA85F093F302E093F202F8
:101B30007093F5026093F4025093EF024093EE022B
:101B400090E091609093F1028093F0028FEF9FEF0D
:101B50009093EB028093EA028FEF90E09093ED0276
:101B60008093EC022E838B819C81AD81BE8180931A
:101B70005D0590935E05A0935F05B0936005CE5B15
:101B8000DF4F0FB6F894DEBF0FBECDBFDF91CF9110
:101B90001F910F91FF90EF90DF90CF9008951092DA
:101BA000C40374CF899FF0011124E15BFB4FDF0177
:101BB000322F1D923A95E9F78F5F8093A7049ECF4D
:101BC0008F929F92AF92BF92CF92DF92EF92FF924D
:101BD0000F931F93CF93DF937C01CB014A016901DF
:101BE000FB0101900020E9F73197E61BF70B20E39A
:101BF000D70116962C938F010C0D1D1D98012E5F99
:101C00003F4FF701379641E050E0622F6F77220F88
:101C1000232F221F330B31952115310509F0606800
:101C20004F5F5F4F61932115310579F7E7012696E4
:101C3000BE010E94D700F701A481B581ED91FC910E
:101C400011970280F381E02DAC01BE01CD01099511
:101C50005C01E401C80CD91CCC15DD0589F0D70165
:101C600014968D919C91FE016491DC01ED91FC91A3
:101C70000190F081E02D0995A80EB91E2196ECCFB8
:101C80000E942503F701E857FF4F60837183828329
:101C900093830C5F1F4F81E00A151B0509F080E05C
:101CA000DF91CF911F910F91FF90EF90DF90CF9038
:101CB000BF90AF909F908F900895FB0101900020FE
:101CC000E9F73197AF01461B570BDC01ED91FC9111
:101CD0000280F381E02D09948F929F92AF92BF9280
:101CE000EF92FF920F931F93CF93DF93CDB7DEB7A1
:101CF000A1970FB6F894DEBF0FBECDBF7C01FA01ED
:101D0000CB0119A2223008F42AE08E010F5D1F4F8B
:101D1000822E912CB12CA12CBF01A50194010E940F
:101D2000D227F901CA016A300CF5605DD8016E93C3
:101D30008D01232B242B252B79F790E080E0109741
:101D400021F0BD01C7010E945D0EA1960FB6F89467
:101D5000DEBF0FBECDBFDF91CF911F910F91FF90DE
:101D6000EF90BF90AF909F908F900895695CDECF09
:101D7000EF92FF920F931F93CF93DF938C017B0120
:101D8000D0E0C0E0F701EC0FFD1F6491662339F04D
:101D9000C8010E94B001892B11F02196F3CF6CE6A7
:101DA00071E0C8010E945D0E8C0F9D1FDF91CF91E5
:101DB0001F910F91FF90EF9008958F929F92AF9295
:101DC000BF92CF92DF92EF92FF920F931F93CF9328
:101DD000DF937C01EB016C0182E0C80ED11C47014E
:101DE000E5E08E0E911C10E000E0F60141916F01DC
:101DF00050E070E060E02AE0CE010E946C0E5C01D1
:101E0000E881F9810190F081E02D6EE2CE01099523
:101E10008A0D9B1D080F191FC814D90431F7F7014B
:101E2000458150E070E060E02AE0CE010E946C0E37
:101E3000800F911FDF91CF911F910F91FF90EF9035
:101E4000DF90CF90BF90AF909F908F900895AF920A
:101E5000BF92DF92EF92FF920F931F93CF93DF9386
:101E60007C01EB01D42E590184E0F70184831582B3
:101E700016821782108688E191E091838083842FF7
:101E80000E94460221E0019709F020E0F7018185D8
:101E900020FB80F920FB81F98187B386A286158714
:101EA0000487D686D08BC787CD2DD0E0FE01EE0FFC
:101EB000FF1FED51FE4FF182E08262E08D2D0E9406
:101EC0009D026FE671E082EB94E00E945D0E4D2D65
:101ED00050E070E060E02AE082EB94E00E946C0E3B
:101EE0006CE671E082EB94E00E945D0E8D2D0E9405
:101EF0004602FE01E85FFE4F8491FE01E45EFE4F64
:101F00009491923009F03CC02091E201282B20935B
:101F1000E2012091DF01282B2093DF01C859DF4F18
:101F2000FE01C4919230D1F5D0E0CC0FDD1FCF522D
:101F3000DE4F20E43BE039832883EAE8F0E0A59116
:101F4000B4919C919093D0012BE630E03093CF0177
:101F50002093CE0190916800916090936800A091C9
:101F6000CE01B091CF01EC918E2B8C93DF91CF916C
:101F70001F910F91FF90EF90DF90BF90AF90089569
:101F8000933009F044C02091E101282B2093E10116
:101F90002091DE01282B2093DE01C0CF9330D1F4B5
:101FA000D0E0CC0FDD1FCE53DE4F20E43BE0398381
:101FB0002883ECE8F0E0A591B4919C919093C10145
:101FC0002CE630E03093CF012093CE019091680051
:101FD0009260C3CF943009F0C2CFD0E0CC0FDD1FA8
:101FE000CF54DE4F20E43BE039832883EEE8F0E075
:101FF000A591B4919C919093B0012DE630E030937F
:10200000CF012093CE01909168009460A6CF9430C8
:1020100009F084CF2091E001282B2093E00120914A
:10202000DD01282B2093DD0179CF0E94FA27EF9262
:10203000FF920F931F93CF93DF93FC011092A7049D
:10204000CFE4D4E0DE0130E020E02830310569F44F
:1020500090E0983009F042C0109263021092620240
:102060001092A7042FE434E044C0CD018F54944073
:102070000D911C9111970115110561F112964D9169
:102080005C9113974115510529F1E080F1800E15FF
:102090001F0501F50281138140175107D9F42093E0
:1020A000A704DC01AD5ABB4F86E0FB0101900D9205
:1020B0008A95E1F78BE0829FF001839FF00D112458
:1020C000E15BFB4F1286DF91CF911F910F91FF9043
:1020D000EF9008952F5F3F4F1B96B7CF9E01488129
:1020E0005981452BB1F44A815B81452B91F4909342
:1020F000A70484E0D90101900D928A95E1F7D901F6
:10210000149686E0FB0101900D928A95E1F7F901A2
:10211000D9CF9F5F2B969DCFEF92FF920F931F9386
:10212000CF93DF9300D000D000D0CDB7DEB7409181
:102130008A0250918B024F3F540731F480918C02F8
:1021400090918D02019619F18091F2029091F30223
:102150006091EA027091EB029B0120953095282B4B
:10216000392B42175307A9F52091EC023091ED026B
:1021700020953095E091F402F091F5022E2B3F2B43
:10218000E0918C02F0918D02E217F30711F586E0E1
:10219000EAE1F1E0ACE6B2E001900D928A95E1F758
:1021A00086E0E8EAF4E0A2E7B2E001900D928A95B9
:1021B000E1F788E090E09093790280937802809133
:1021C0006402909165020E9690936502809364027A
:1021D000A5C08427952786239723892B99F42091DE
:1021E0008C0230918D028091F4029091F502822749
:1021F00093276091EC027091ED0286239723892B3F
:1022000009F499C08091EE029091EF0290936902D7
:10221000809368028091F0029091F10290936B029A
:1022200080936A02E0906802F090690200916A026D
:1022300010916B02EFE4F4E080E0883009F084C094
:102240008093A70446E050E06FEF70E08CE692E0E8
:102250000E94272886E0ECE8F2E0DF01282F1D929B
:102260002A95E9F7E8EAF4E0A2E7B2E0982F0190B6
:102270000D929A95E1F7E8EAF4E0A2E8B2E0982F2F
:1022800001900D929A95E1F7F0929302E0929202FA
:1022900010939502009394022091F2023091F30280
:1022A00030938902209388022091F4023091F50244
:1022B00030938B0220938A0220E031E03093810238
:1022C0002093800230937B0220937A0228E030E052
:1022D00030937D0220937C0280937E0294E0909361
:1022E0007F0228E036E0309379022093780222EAD8
:1022F00032E030936702209366022AE230E03093A6
:10230000650220936402BE016F5F7F4FDB011D9267
:102310008A95E9F788E692E00E94171026960FB694
:10232000F894DEBF0FBECDBFDF91CF911F910F910B
:10233000FF90EF90089550936902409368023093A4
:102340006B0220936A026ECF20813181E216F30680
:10235000E1F42281338102171307B9F494819111BA
:1023600003C09581992329F08093A704349686E0D1
:1023700011CF96819111F8CF97819111F5CF90856A
:102380009111F2CF91859111EFCF8F5F3B9655CF91
:10239000AF92BF92CF92DF92EF92FF920F931F9373
:1023A000CF93DF93E0906002F0906102F701C48D5B
:1023B000D58DD0905D02209781F5D6FC03C0F12C1D
:1023C000E12CC6C0E3E0F2E090E080E02181211141
:1023D0007CC042E1489F9001499F300D1124E901E2
:1023E000CD5FDD4FC7018E5C9340959587956FEE6D
:1023F0007EEE869FA001879F500D969F500D112461
:10240000488381E089832B5F3D4F81E1F90111927F
:102410008A95E9F7F701D58FC48FD1FE30C00091BE
:102420006402109165020115110549F189818670D8
:1024300031F55E01F2E0AF0EB11CC12CF5018191C6
:102440005F01811149C0C8010E942505F50131973E
:102450008083882309F440C020916602309167028E
:102460002C56324040914B0270E060E00E94C4055F
:10247000F4E0CF1204C0F701818D8061818F8981E2
:1024800083FF0AC0877F89838D2D826080935D02E0
:10249000F701818D8F7E818F10915D0214FD02C046
:1024A00017FF26C0CE0107960E9491078A818823D4
:1024B000E9F0F701848195819F838E83898184600F
:1024C0008983F701158E148E7ACF01967296843027
:1024D000910509F07BCF73CFC394F5E0CF12AECF57
:1024E00080914D028E7F80934D02C5CF1982E9CF36
:1024F00010FF04C0CE0107960E94A8071C7009F4C3
:1025000065C08F81882309F461C09885911144C00A
:10251000EC84FD84E114F10409F451CF95E0899F26
:10252000F0011124EA50FD4FF382E282C09066026E
:10253000D0906702F601EC56F2406F01E0934C0236
:10254000DD24C6018E0D9F1D009769F510924E0285
:102550006091660270916702F0925802E092570211
:102560001E141F0454F480915E0290915F0268175C
:10257000790719F0A7010E940C28F0926502E092F9
:102580006402DF91CF911F910F91FF90EF90DF9048
:10259000CF90BF90AF9008950E944F037C01892B8C
:1025A00009F40DCFC3CF0E94250580934E028823E6
:1025B00079F2870130E020E04F81B6010E94C40526
:1025C00080914D02826080934D02C2CF898181FF4C
:1025D000F6CE8F81811108C01982F701158E148EF5
:1025E00080E180935D02EBCEF701818D8061818F68
:1025F000E6CEAF92BF92CF92DF92EF92FF921F93FF
:10260000CF93DF93C0916002D091610222EA32E061
:10261000309367022093660230935F0220935E023C
:102620008330C9F4898D8F70833009F044C0888964
:102630009989892B09F03FC088E080935D020E9450
:10264000C81180915D0285FFDFC41092580210927C
:102650005702198E51C0823009F005C180915C0289
:102660008F5F80935C02811113C080915B028F5F4A
:1026700080935B0281110CC080915A028F5F80931E
:102680005A02811105C0809159028F5F80935902CF
:102690001092650210926402109258021092570232
:1026A000898D982F9D7F953059F48A8D8F5F8A8F01
:1026B000883709F4198E109265021092640254C191
:1026C0008823C9F328893989232B09F4C7C09A8D37
:1026D0002FEF290F2A8F9111EECF9B8D983031F07B
:1026E0002FEF280F223050F4953041F4198E80E8F6
:1026F00080935D020E94C81184E184C0392F953017
:1027000008F034E023E001C0220F3A95EAF72A8F5F
:102710009F5F9B8F8F70833009F47DC008F06AC083
:10272000813009F4D2C2823031F610929B0280913E
:102730009B02826080939B0282E08093A20294E0DD
:102740009093A3028093A4021092A5028CE290E0E1
:10275000909365028093640280E680939A02888554
:10276000809396028985809397028A858093980248
:102770008B85809399028C85809392028D858093BE
:1027800093028E85809394028F858093950286E0D4
:10279000809383028C819D8190938F0280938E021F
:1027A0008E819F8190939102809390028091F2029A
:1027B0009091F30290938702809386028091F402B5
:1027C0009091F50290938902809388028881998183
:1027D00090938B0280938A028A819B8190938D02D1
:1027E00080938C02898D84FF95C410929D02109273
:1027F0009C0280C1863029F0883019F0843009F0BD
:102800005ACF81E180939B0288E290E09093650229
:102810008093640221C084E080935D020E94C8110D
:1028200080915E0290915F029093670280936602AE
:102830008091570290915802892B09F416C4888917
:102840009989009709F411C4889690936502809342
:10285000640288E180939B0280E57FCF8F70833094
:1028600009F029CFE9CE80917A02853409F023CF8F
:10287000C0907C02D12CDC2CCC2480917D02C80E2F
:10288000D11C80916402909165028C159D0508F41D
:1028900012CFD0926502C0926402809180028F7341
:1028A00009F009CF10918102111105CFA090F20219
:1028B000B090F302A114B10431F48091F40290912C
:1028C000F502892BA1F080918A0290918B02A816C3
:1028D000B90609F0F0CE20918C0230918D028091E2
:1028E000F4029091F5022817390709F0E4CE0E940E
:1028F000DA06019609F0DFCE80918302863009F472
:1029000041C0813009F0D7CE80918E02883009F025
:10291000D2CE10928E028091900290919102873FC8
:102920002FEF920768F1099690939102809390029D
:10293000809186029091870290938B0280938A0205
:10294000809188029091890290938D0280938C02ED
:10295000B0928702A09286028091F4029091F502D3
:10296000909389028093880210925D02DF91CF914B
:102970001F91FF90EF90DF90CF90BF90AF900895A0
:102980000896D2CF0E945D06019609F094CE409140
:1029900090025091910260918E0270918F0280910D
:1029A000860290918702E0918802F0918902CEEC34
:1029B000D3E0298D2223A9F0AC81BD814A175B07A2
:1029C00081F4AE81BF816A177B0759F4A881B98170
:1029D0008A179B0731F4AA81BB81EA17FB0709F428
:1029E0007CC16E9624E0C832D20719F310F38091AF
:1029F0009B028F73823061F45093560240935502CC
:102A0000E6E4F4E080E0843009F0B2C080934E0444
:102A100080919B0282FD4FCE84E180939B0288E2ED
:102A200090E0909365028093640280E580939A021F
:102A300030919502809199028093950220919402A1
:102A4000809198028093940220939802909193022F
:102A500080919702809393029093970280919202C3
:102A600080934E0440919602409392028093960286
:102A70003F5F3093990231110DC02F5F2093980270
:102A8000211108C09F5F90939702911103C08F5F3F
:102A90008093960280918E0290918F0290935602BD
:102AA00080935502209190023091910230938F02D1
:102AB00020938E02909391028093900280918602DF
:102AC0009091870290938B0280938A028091880272
:102AD0009091890290938D0280938C02B09287022C
:102AE000A09286028091F4029091F502909389025F
:102AF0008093880280E480938202809164029091A6
:102B0000650290937C0280937D021092A102109244
:102B1000A00210929F0210929E020E945D06809574
:102B2000909590939F0280939E0285E480937A0211
:102B300010927B02109281021092800280914F02CB
:102B40009091500201969093500280934F0290937F
:102B50007E0280937F0210928502109284020E946E
:102B6000DA06809590959093850280938402FCCE3E
:102B7000219131918F5F4217530709F044CF109292
:102B80004E04EEECF3E090E080E0D0E0C0E0843072
:102B9000910531F484E080934E04209781F48BCD2D
:102BA0003E2F2F2FA18DA11163C080934E042EE1E3
:102BB000289FE001299FD00D1124C253DC4FD093F0
:102BC0006102C093600283E08A8F888F1E8A84E04E
:102BD0008F8B1B8E5D834C837F836E8380918602F7
:102BE00090918702998388838091880290918902CD
:102BF0009B838A8381E0898F809159028C878091A1
:102C00005A028D8780915B028E8780915C028F874C
:102C100081E090E0998B888B809195028B878091E1
:102C200094028A8780919302898780919202888793
:102C300081E090E00E94302080919A02982F907F4E
:102C4000913508F442C082958F708550990B880F9A
:102C5000991F880F991FE12FF0E0E817F9072CF46E
:102C6000E459FD4F36A9311112C010934E042DC006
:102C7000A73031F4209731F0B28DAA8DAB1710F048
:102C80003C2F2D2F01967E96C32FD22F80CF31302F
:102C900011F41F5FE0CF27A93230D9F42430C9F4F2
:102CA00010934E0480AD91AD892798278927909382
:102CB000560280935502813022E0920710F080E0A6
:102CC00092E09B8B8A8B9D8B8C8B80E180939B0207
:102CD0002ECD222351F2120FBECFD0936102C093AA
:102CE000600210925D0290919B0292FF07C0198EC4
:102CF00080E280935D020E94C811DDCC80919A022F
:102D000082958F70880F880F80934E04C81AD1085F
:102D1000760184E1E81AF108F0926502E09264021B
:102D20002F70223021F4892F8F738231D1F0E1147A
:102D3000F10419F4892F8370A1F039852A858B85D8
:102D40005091920248855413C0C14091930243139D
:102D5000BCC1309194023213B8C12091950228135E
:102D6000B4C194FF49C0688979896115710509F476
:102D700043C0CE010C960E94FD1F309196028091B7
:102D80005102381339C020919702809152022813C2
:102D900033C0909198028091530298132DC0809176
:102DA000990240915402841327C03C872D879E8747
:102DB0008F87988D8B8D811118C08E892A8D921BDB
:102DC000282F269526952695921B890F8E8B97FD89
:102DD00091952F89322F36953695231B920F9F8B15
:102DE000869586958695890F888F81E080935D0210
:102DF000888D8A8F198A188A298DE22FEF70E15009
:102E0000E83008F058CCF0E0E85FF84E0C94F42776
:102E10001017291793174818711882186518411848
:102E200080915D0280FF47CC83E0898F80E48093AE
:102E30005D02198A188AE114F10431F082E480936A
:102E40005D02C7010E943020109258021092570272
:102E5000F6CB80915D0280FF5FC080919B028F73F3
:102E6000823109F059C080919A02982F907F913554
:102E700098F182958F708550990B880F991F880F54
:102E8000991FE12FF0E0E817F9072CF4E459FD4F02
:102E900036A9311103C010934E041EC0313011F415
:102EA0001F5FEFCF27A9323099F5243089F51093B1
:102EB0004E0480AD91AD89279827892790935602BB
:102EC00080935502813022E0920710F080E092E07A
:102ED0009B8B8A8B9D8B8C8B83E0898F8091920258
:102EE0008887809193028987809194028A87809154
:102EF00095028B8781E090E00E94302082E48093ED
:102F00005D02198A188A10926502109264029CCFA1
:102F1000222309F2120FB5CF80E280935D020E9456
:102F2000C811198E75CD80919B0280FF20C024FDB1
:102F30001EC088899989892B09F0BDCBC6014397AA
:102F40000E94302080915D02982F906190935D02E5
:102F5000EF2819F0826180935D020E94C81181E020
:102F600090E0998B888B88E0898F1B8E4ACC85FFF7
:102F700014C08091A0029091A102982789279827D8
:102F8000AC014E555D4F5093670240936602E81ABC
:102F9000F90AF0926502E092640240916402509155
:102FA000650290915D024115510541F024FD06C076
:102FB000926090935D02CA010E94302080919C0231
:102FC000282F30E0322F222780919D02820F932FED
:102FD000911D90935602809355022C893D892817A4
:102FE000390710F0892B21F43093560220935502B3
:102FF00080915502909156029B8B8A8B80915D0245
:10300000837009F458CB20CF84FF0AC01092580275
:103010001092570281E090E0998B888B84E0A4CFD6
:10302000209157023091580221153105B9F080FFE7
:1030300002C0198A188A88899989009789F48A892F
:103040009B898217930720F490935802809357022C
:103050008091570290915802998B888B1B8EE0CB00
:103060009093580280935702F9CF80915D0281FFBF
:1030700022CB88E290E0909365028093640280E125
:10308000E9CB80915D0280FF16CB198E80E131CEB5
:10309000E114F10419F0C7010E94302080915D0213
:1030A000817090919B0290FF15C0882381F087E08A
:1030B000898F1A8E198A188A81E090E00E94302048
:1030C00080E180935D020E94C81180E19BCB86E085
:1030D000898FF2CF882399F085E0898F198A188A21
:1030E000EACAE114F10419F0C7010E94302080916E
:1030F0009B0280FF04C087E0898F1A8EDDCFEF2806
:1031000021F7D9CA80915D0280FFD5CA87E0898FF7
:103110001A8ED1CA82E080939C0210929D02EACC62
:103120008F929F92AF92BF92CF92DF92EF92FF92D7
:103130000F931F93CF93DF938091C403882309F4E7
:1031400020C1D0914B02D11151C089E30E944D049E
:10315000882309F449C06091C5037091C6036B01CF
:1031600026E0C20ED11CC11438E0D30628F06B0152
:1031700049EFC41A47E0D40A80E00E94C60360E029
:103180008AE30E942F04E82E60E08AE30E942F0465
:10319000F82EF092C603E092C50360E08AE30E9435
:1031A0002F04182F60E08AE30E942F04C82F60E0EC
:1031B0008AE30E942F04082F40E46EE180E80E9419
:1031C0008E0307FFEBC0E11458E0F50608F0E6C0F7
:1031D000D092C803C092C7039C2F812F049790936D
:1031E000CA038093C903DFEFD0934B02F0904B02E8
:1031F000FF2009F476C081E080934D028F2D0E945C
:103200004F03EC019093650280936402892B09F4CB
:10321000F2C042E650E070E060E08F2D0E94DC03D7
:103220006CE672E00E946F03C0907802D090790241
:1032300088E0C816D10409F0CCC0F0924E022E9757
:10324000D0936502C0936402209186023091870278
:10325000E091F202F091F302C9018E279F2740917D
:10326000EA025091EB0284239523892B49F5409182
:103270008802509189026091F4027091F502CA01AE
:1032800086279727A091EC02B091ED028A239B2319
:10329000892BB1F480918A0290918B02E817F9078B
:1032A00009F07FC080918C0290918D026817790798
:1032B00009F077C062E772E086E892E00E9417109A
:1032C00081E00E94F9128091640290916502892B3D
:1032D00021F00E948C100E94EB0680914D0280FD2F
:1032E0008AC00E9425036B017C018091AE049091FD
:1032F000AF04A091B004B091B10446015701881AFF
:10330000990AAA0ABB0ACEECD3E006E414E0D093F3
:103310006102C093600282E0B7FE14C0EC8DFD8DA7
:10332000309709F4FFC086859785A089B189A701E8
:103330009601281B390B4A0B5B0BDA01C901B7FD5B
:103340000DC083E00E94F9128091640290916502A1
:10335000892B21F00E948C100E94EB066E960C17B0
:103360001D07A9F6B7FC0DC03AEFC30ED11CE11C36
:10337000F11CC092AE04D092AF04E092B004F0927F
:10338000B104DF91CF911F910F91FF90EF90DF90EB
:10339000CF90BF90AF909F908F9008950E9413049C
:1033A00023CFEFE4F4E080E0883019F48093A704A1
:1033B00087CF608171812617370741F4628173815D
:1033C0004617570719F48093A70474CF8F5F3B9675
:1033D000EBCF28E0C21626E0D20669F4109265020F
:1033E00010926402AA9760F4809164029091650241
:1033F000892B09F070CF0E94130410924B0271CFF9
:103400008091800290918102811531E0930701F152
:103410008115924049F72091920230919302809158
:10342000F2029091F30228173907F1F620919402E5
:10343000309195028091F4029091F5022817390796
:1034400099F662E872E088E892E00E941710CCCF0B
:1034500000919202109193028091F2029091F302F6
:103460000817190709F6C0919402D091950280912E
:10347000F4029091F502C817D90709F0B5CF62E8B8
:1034800072E088E892E00E94171080E092E090934A
:1034900081028093800286E0E2E8F2E0ACE8B2E0EC
:1034A00001900D928A95E1F786E0E8EAF4E0A2E85F
:1034B000B2E001900D928A95E1F786E0E8EAF4E047
:1034C000A2E7B2E001900D928A95E1F786E0ECE880
:1034D000F2E0ACE6B2E001900D928A95E1F78091BE
:1034E0008802909189029093930280939202809136
:1034F0008A0290918B02909395028093940210938C
:10350000890200938802D0938B02C0938A02D092E2
:103510007902C09278028AE290E0909365028093EB
:10352000640262CF8E859F85A889B98900CFAF924A
:10353000BF92CF92DF92EF92FF920F931F93CF93A0
:103540008C015B017A016A010E9490180115110536
:1035500009F45AC0F8018181867009F055C0389687
:10356000C1E08191811133C0C150F801EC0FF11D10
:10357000878181110DC080E092E00E942505F8014D
:10358000EC0FF11D87838823F9F2F8011586148664
:10359000A7014C195D094A0D5B1DF801648575850D
:1035A0009601EC0FF11D87810E94F605C81AD90A11
:1035B000F80124853585820F931F958784871C1415
:1035C0001D0454F4C43009F4BFCFCF5FD4CFCF5F14
:1035D000C53039F6C4E0C9CF0E942503665F7F4F2E
:1035E0008F4F9F4FF80166877787808B918BC7013C
:1035F0008C199D09CF911F910F91FF90EF90DF9053
:10360000CF90BF90AF90089590E080E0F3CFFC01A1
:10361000848595850C94971ACF93DF931F92CDB72D
:10362000DEB7698341E050E0BE016F5F7F4FFC0170
:10363000848595850E94971A0F90DF91CF91089508
:10364000CF93DF93EC010E949018EC85FD853097B5
:1036500039F0818182FF08C081E09281911101C01F
:1036600080E0DF91CF91089581E0FBCFCF93DF938E
:10367000EC018C859D85009769F0FC012181222356
:1036800049F002960E949107EC85FD85818182FFB9
:1036900007C011821D861C86DF91CF910C94901873
:1036A00082608183F7CFCF92DF92EF92FF920F93E8
:1036B0001F93CF93DF938C01EB016A01DC01ED9145
:1036C000FC910488F589E02D0995EA80FB806C81E6
:1036D0007D815C2D4D2D8091CC039091CD03019681
:1036E0008115BDE79B0710F080E090E1382F292F6E
:1036F000EEECF3E0DF01C0E0C430D1F49093CD03F1
:103700008093CC0310924E0480E0D0E0C0E084307F
:10371000F1F480934E04209711F590E080E0DF9162
:10372000CF911F910F91FF90EF90DF90CF90089570
:103730005996DC915997DD2339F01496CD90DC90A1
:103740001597C216D30659F2CF5F5E96D5CFAE2F2E
:103750009F2FB18DB1113CC080934E04EF0182E0E8
:10376000898F809159028C8780915A028D87809130
:103770005B028E8780915C028F8780E092E09B8B5A
:103780008A8B9D8B8C8B81E090E0998B888B1B8E34
:103790008A8F83E0888F1E8A80E18F8B3D832C8304
:1037A0005F834E83F982E8827B836A83898D8F7081
:1037B00009F4B3CF0E949018898D8F708330B1F7D0
:1037C0008C8D9D8DF8019587848781E090E0A7CF4F
:1037D000B73031F4209731F0D28CBA8DBD1510F08E
:1037E000AC2F9D2F8F5F7E96CA2FD92F90CF5F92DF
:1037F0006F927F928F929F92AF92BF92CF92DF9201
:10380000EF92FF920F931F93CF93DF93CDB7DEB765
:10381000C15AD1090FB6F894DEBF0FBECDBF4C011F
:103820006B015A01E090D902F090DA02512C370175
:1038300086EE680E711CD3018C91581608F063C097
:10384000052D10E002591F4F000F111F0E0D1F1DF7
:10385000D801ED91FC91658176818BED92E00E941B
:10386000C22742E050E0B4010E942E28892B09F0C3
:1038700048C0F80180809180D401ED91FC91608076
:103880007180B701605E7F4FCE0101960E94550B9B
:1038900095E8E92E95E0F92E10E000E0F70160814F
:1038A00071818BED92E00E94C227A501BC01C60187
:1038B0000E94FF27892B51F5F801EE0FFF1FE00F43
:1038C000F11FEB57FA4F6281AE014F5F5F4FC401AA
:1038D000F3010995CF55DF4F0FB6F894DEBF0FBE49
:1038E000CDBFDF91CF911F910F91FF90EF90DF90AF
:1038F000CF90BF90AF909F908F907F906F905F9090
:103900000895539498CF912C812CB6CF0F5F1F4F01
:10391000F3E0EF0EF11C0730110509F0BFCF64E0B2
:10392000D3CFCF92DF92EF92FF920F931F93CF935B
:10393000DF93EC0199859170898586958170981740
:1039400009F453C08B010E942503CD80DE80EF80F7
:10395000F8849B01AC012C193D094E095F096901EE
:103960007A0135E6C316D104E104F104F0F16D8368
:103970007E838F83988765E871E082EB94E00E94F4
:103980005D0E6CE671E082EB94E00E945D0E99851D
:10399000898590FB81F989878985EF84F88880FF84
:1039A00020C00A84DB85C02DCE010E94C9276C018E
:1039B000B7018BED92E00E94C2277C01C8010E94F2
:1039C0001909882391F09601AE01B701C801DF9172
:1039D000CF911F910F91FF90EF90DF90CF900C94BB
:1039E000E00D0C84DD85C02DDFCFDF91CF911F91DD
:1039F0000F91FF90EF90DF90CF900895EF92FF929C
:103A00000F931F93CF93DF93CDB7DEB7C15AD10980
:103A10000FB6F894DEBF0FBECDBF8C017B01CE0187
:103A200001960E94550BBE016F5F7F4FC80109963A
:103A30000E94911CB701CE0101960E94550BBE0158
:103A40006F5F7F4FC8014A960E94911CCF55DF4F90
:103A50000FB6F894DEBF0FBECDBFDF91CF911F919F
:103A60000F91FF90EF9008951F920F920FB60F9253
:103A700011242F933F934F935F936F937F938F9373
:103A80009F93AF93BF93EF93FF9382EB94E00E94D9
:103A90008E01FF91EF91BF91AF919F918F917F9197
:103AA0006F915F914F913F912F910F900FBE0F90AB
:103AB0001F9018951F920F920FB60F9211242F93FB
:103AC0008F939F93EF93FF93E091C204F091C3040F
:103AD0008081E091C804F091C90482FD1BC09081EF
:103AE0008091CB048F5F8F732091CC04821741F0BB
:103AF000E091CB04F0E0EE54FB4F958F8093CB0424
:103B0000FF91EF919F918F912F910F900FBE0F908A
:103B10001F9018958081F4CF1F920F920FB60F92CD
:103B200011242F933F938F939F93AF93BF938091D3
:103B3000D1029091D202A091D302B091D4023091DF
:103B4000D00223E0230F2D3758F50196A11DB11D9A
:103B50002093D0028093D1029093D202A093D302FB
:103B6000B093D4028091D5029091D602A091D70251
:103B7000B091D8020196A11DB11D8093D5029093FA
:103B8000D602A093D702B093D802BF91AF919F9174
:103B90008F913F912F910F900FBE0F901F9018950E
:103BA00026E8230F0296A11DB11DD2CF1F920F92BE
:103BB0000FB60F9211242F933F934F935F936F9300
:103BC0007F938F939F93AF93BF93CF93DF93EF93A5
:103BD000FF93D9B19091B001C091E0012091DD0136
:103BE0008D2F80958223CD238C2B20916D00C92FA2
:103BF000CD27C223C823D093B001CC2309F46EC0D3
:103C0000C0FF0BC01092AA018D2F81708093AB0171
:103C1000E091B101F091B2010995C1FF0CC081E0C2
:103C20008093AA018D2F82708093AB01E091B30144
:103C3000F091B4010995C2FF0CC082E08093AA0103
:103C40008D2F84708093AB01E091B501F091B601A6
:103C50000995C3FF0CC083E08093AA018D2F887063
:103C60008093AB01E091B701F091B8010995C4FFD1
:103C70000CC084E08093AA018D2F80718093AB01EA
:103C8000E091B901F091BA010995C5FF0CC085E03A
:103C90008093AA018D2F80728093AB01E091BB01CC
:103CA000F091BC010995C6FF0CC086E08093AA0183
:103CB0008D2F80748093AB01E091BD01F091BE0126
:103CC0000995C7FF0BC087E08093AA01D078D093F5
:103CD000AB01E091BF01F091C0010995FF91EF9117
:103CE000DF91CF91BF91AF919F918F917F916F9114
:103CF0005F914F913F912F910F900FBE0F901F90AA
:103D000018951F920F920FB60F9211242F933F9385
:103D10004F935F936F937F938F939F93AF93BF93D3
:103D2000CF93DF93EF93FF93D6B19091C101C091F0
:103D3000E1012091DE018D2F80958223CD238C2BF4
:103D400020916C00C92FCD27C223C823D093C10175
:103D5000CC2309F453C0C0FF0CC08EE08093AA01AD
:103D60008D2F81708093AB01E091C201F091C3016E
:103D70000995C1FF0CC08FE08093AA018D2F82703E
:103D80008093AB01E091C401F091C5010995C2FF98
:103D90000CC080E18093AA018D2F84708093AB01C9
:103DA000E091C601F091C7010995C3FF0CC081E104
:103DB0008093AA018D2F88708093AB01E091C80198
:103DC000F091C9010995C4FF0CC082E18093AA015A
:103DD0008D2F80718093AB01E091CA01F091CB01EE
:103DE0000995C5FF0BC083E18093AA01D072D093DF
:103DF000AB01E091CC01F091CD010995FF91EF91DC
:103E0000DF91CF91BF91AF919F918F917F916F91F2
:103E10005F914F913F912F910F900FBE0F901F9088
:103E200018951F920F920FB60F9211242F933F9364
:103E30004F935F936F937F938F939F93AF93BF93B2
:103E4000CF93DF93EF93FF93D3B19091D001C091C3
:103E5000E2012091DF018D2F80958223CD238C2BD1
:103E600020916B00C92FCD27C223C823D093D00146
:103E7000CC2309F453C0C0FF0CC088E08093AA0192
:103E80008D2F81708093AB01E091D101F091D2012F
:103E90000995C1FF0CC089E08093AA018D2F827023
:103EA0008093AB01E091D301F091D4010995C2FF59
:103EB0000CC08AE08093AA018D2F84708093AB019F
:103EC000E091D501F091D6010995C3FF0CC08BE0BC
:103ED0008093AA018D2F88708093AB01E091D70168
:103EE000F091D8010995C4FF0CC08CE08093AA0121
:103EF0008D2F80718093AB01E091D901F091DA01AF
:103F00000995C5FF0BC08DE08093AA01D072D093B4
:103F1000AB01E091DB01F091DC010995FF91EF919C
:103F2000DF91CF91BF91AF919F918F917F916F91D1
:103F30005F914F913F912F910F900FBE0F901F9067
:103F400018951F920F920FB60F9211242F933F9343
:103F50004F935F936F937F938F939F93AF93BF9391
:103F6000EF93FF9383E08093AA0189B188708093D7
:103F7000AB01E091AE01F091AF010995FF91EF9196
:103F8000BF91AF919F918F917F916F915F914F9171
:103F90003F912F910F900FBE0F901F9018951F9279
:103FA0000F920FB60F9211242F933F934F935F936D
:103FB0006F937F938F939F93AF93BF93EF93FF93F1
:103FC00082E08093AA0189B184708093AB01E09173
:103FD000AC01F091AD010995FF91EF91BF91AF91C7
:103FE0009F918F917F916F915F914F913F912F9111
:103FF0000F900FBE0F901F901895FC013381360F64
:1040000030935402A72FBB2792819A0F90935302AB
:104010002181209352024081409351029A171B063E
:1040200048F481E0820F80935202811103C04F5FF8
:104030004093510277273617170688F49F5F9093B5
:10404000530291110CC0809152028F5F80935202F3
:10405000811105C0809151028F5F809351020895B4
:10406000CF93DF93C0916002D0916102BC01CE0179
:1040700008960E94FD1FE1E5F2E08081888781813A
:10408000898782818A8783818B87DF91CF91089589
:10409000E2EBF4E01382128288EE93E0A0E0B0E05D
:1040A00084839583A683B78388E591E09183808399
:1040B00085EC90E09587848784EC90E097878687ED
:1040C00080EC90E0918B808B81EC90E0938B828BE5
:1040D00082EC90E0958B848B86EC90E0978B868BBE
:1040E000118E128E138E148EEFE4F5E08AE691E0C5
:1040F000918380831282138214821582E5E5F5E0B4
:10410000918380831282138214821582E1E6F5E0A6
:10411000918380831282138214821582EBE5F5E08D
:10412000918380831282138214821582E7E6F5E080
:10413000918380831282138214821582EDE6F5E06A
:10414000918380831282138214821582E3E7F5E063
:10415000918380831282138214821582E9E7F5E04D
:10416000918380831282138214821582EFE7F5E037
:10417000918380831282138214821582E5E8F5E030
:1041800023E531E031832083128220E531E034835E
:10419000238321E025832BE431E03783268322E04B
:1041A000208725E431E03287218723E0238720E43C
:1041B00031E03587248724E0268728E331E0308BFF
:1041C000278725E0218B20E331E0338B228B26E00B
:1041D000248BEAE9F5E091838083128213821482B2
:1041E0001582E0EAF5E091838083128213821482C3
:1041F0001582E6EAF5E091838083128213821482AD
:104200001582ECEAF5E09183808312821382148296
:104210001582E2EBF5E0918380831282138214828F
:104220001582E8EBF5E09183808312821382148279
:104230001582EEEBF5E09183808312821382148263
:1042400015820895CF93DF93CDB7DEB7CA58D1401A
:104250000FB6F894DEBF0FBECDBF789484B58260F0
:1042600084BD84B5816084BD85B5826085BD85B51A
:10427000816085BD80916E00816080936E00109298
:104280008100809181008260809381008091810013
:1042900081608093810080918000816080938000A4
:1042A0008091B10084608093B1008091B000816002
:1042B0008093B00080917A00846080937A0080912E
:1042C0007A00826080937A0080917A008160809386
:1042D0007A0080917A00806880937A001092C10001
:1042E000E091C204F091C30482E08083E091BE04B7
:1042F000F091BF041082E091C004F091C1048FECF2
:1043000080831092CA04E091C604F091C70416E0BD
:104310001083E091C404F091C504808180618083A2
:10432000E091C404F091C504808188608083E091AD
:10433000C404F091C504808180688083E091C40446
:10434000F091C50480818F7D808365EF70E082EB02
:1043500094E00E94B80E8AE691E09A83898330EC5B
:104360003B8328EA2C831D824AEA4E8398878F83F9
:1043700039872A871B8620E52C87E7E0F1E0DE01FC
:104380001D96212F01900D922A95E1F71E8A1D8A14
:1043900048EE53E060E070E04F8B588F698F7A8F62
:1043A00024E231E03C8B2B8B18A21F8E1CA21BA297
:1043B0002CE431E03AA329A3CC54DF4F99838883BE
:1043C000C45BD040CA54DF4F188219821A821B8204
:1043D000C65BD0408FEF9FEFC054DF4F9983888337
:1043E000C05CD0401EA21DA2C254DF4F19821882A9
:1043F000CE5BD040CE54DF4F19821882C25BD040D2
:10440000E3EAF1E0DE01AE53BF4F812F01900D9240
:104410008A95E1F7C452DF4F1882CC5DD040C95174
:10442000DF4F1882C75ED0408BE290E00E949D264D
:104430007C01DC0114961C93FC0115821682178204
:10444000108686E491E09183808304EB10E02DEBED
:1044500030E046E063ED70E0C70109960E94270F47
:1044600004EA10E02BEA30E047E064EC70E0C701BA
:104470004A960E94270FC853DF4FF982E882C85C32
:10448000D040C452DF4F8881CC5DD0408F5FC45292
:10449000DF4F8883CC5DD0408091D9029091DA02C1
:1044A000892B31F4CE0101969093DA028093D902E0
:1044B000C651DF4F19821882CA5ED0408CE491E069
:1044C000C851DF4F99838883C85ED0408AE691E067
:1044D000C558DE4F99838883CB57D140C358DE4FF0
:1044E000188219821A821B82CD57D1408FEF9FEF1D
:1044F000C957DE4F99838883C758D140CE01439670
:10450000C451DF4F99838883CC5ED040CB57DE4FB8
:1045100019821882C558D1401CA21BA29EA38DA34C
:10452000A8EEB0E0AC0FBD1F1696FE01B7968C56F4
:104530009F4F2D912193E817F907D9F7C259DE4F04
:1045400088819981CE56D140918380831E01F9EAFA
:104550002F0E311CC059DE4F88819981AA81BB8101
:10456000C057D140F10180839183A283B3836E0150
:10457000FDEACF0ED11CCC58DE4F88819981AA81EB
:10458000BB81C457D140F60180839183A283B3835A
:104590007E01F1EBEF0EF11CC858DE4F8881C85741
:1045A000D140D7018C93C758DE4F88819981C95774
:1045B000D140CE54DF4F99838883C25BD040C3582B
:1045C000DE4F88819981AA81BB81CD57D140CA54E1
:1045D000DF4F88839983AA83BB83C65BD0408E015B
:1045E00006541F4FCF57DE4F88819981C158D14063
:1045F000F80191838083CD57DE4F88819981C3581C
:10460000D140C454DF4F99838883CC5BD040C254DF
:10461000DF4F19821882CE5BD0408FEF9FEFC054DE
:10462000DF4F99838883C05CD0408AE691E0C8510F
:10463000DF4F99838883C85ED04089859A85AB8592
:10464000BC85C651DF4F88839983AA83BB83CA5E2A
:10465000D040BE0168517F4FCE0181960E94F90083
:1046600087EF9BE1CE54DF4F99838883C25BD040B4
:104670008091C403811157C061EF70E082EB94E038
:104680000E94B80E0AE611E0C851DF4F1983088373
:10469000C85ED0408B819C81AD81BE81C651DF4F09
:1046A00088839983AA83BB83CA5ED040BE016851C8
:1046B0007F4FCE010D960E94E50B3091F2022091C2
:1046C000F3029091F4028091F502C851DF4F1983F3
:1046D0000883C85ED040C651DF4F3883CA5ED040E1
:1046E000C551DF4F2883CB5ED040C451DF4F988344
:1046F000CC5ED040C351DF4F8883CD5ED04062EBAB
:1047000074E0CE0188519F4F0E94DD0E6CE671E08F
:1047100082EB94E00E945D0E6CED75E080E090E02D
:104720000E94F302A5CF0E94560492FFA5CF0E94DB
:1047300056048E010F5D1F4FC8010E941909811197
:104740008CC16CEE70E082EB94E00E94B80EC80160
:104750000E941909C8010E9419098111F8C0C654A4
:10476000DF4F68817981CA5BD0408DA19EA1DC01B9
:10477000ED91FC91C454DF4F48815981CC5BD0400E
:104780006115710509F442C00088F189E02D099591
:104790008130910509F051C1C955DF4F9983888354
:1047A000C75AD04087E0EDE0F1E0DE01A851BF4FED
:1047B00001900D928A95E1F7FE01E851FF4FDE016D
:1047C0009C96CF01079621912D938E179F07D9F7BD
:1047D00082EC8BAB1CAA8FE08DABCE018E539F4F2A
:1047E000FC0101900020E9F79F01281B390B205F95
:1047F0003F4F2138310548F18DA19EA1DC01ED919B
:10480000FC910488F589E02D0995A1C00684F785FF
:10481000E02D2AE631E0C851DF4F39832883C85E96
:10482000D040CA54DF4F088119812A813B81C65B81
:10483000D040C651DF4F088319832A833B83CA5E69
:10484000D040BE0168517F4FA2CF4FE050E0BE0183
:10485000695D7F4F0E94D7009C012A5F3F4F21383E
:10486000310550F6AC01BE01695D7F4F8DE891E0E6
:104870000E94D7009C012E5E3F4F2138310508F081
:10488000BBCFAC01BE01695D7F4F82E991E00E9420
:10489000D7009C0125503109AE01495D5F4F60E1B1
:1048A000CE0181960E944F090E942503F101608389
:1048B000718382839383C355DF4F688379838A83AF
:1048C0009B83CD5AD0408DA19EA1DC01ED91FC913E
:1048D0000084F185E02D0995892BC9F40E942503F8
:1048E000F6010081118122813381601B710B820BE3
:1048F000930B68397A438105910528F38CEF9FEF7C
:10490000C054DF4F99838883C05CD04075CFBE010F
:1049100067577E4FCE0181960E94300A049709F0B6
:104920006BCF8AA590E08111EBCF0E942503F601A1
:104930006083718382839383CF54DF4F1882C15B7E
:10494000D040C054DF4F19821882C05CD040CE01E5
:1049500081960E941909882309F48ACE61EE70E0DD
:1049600082EB94E00E94B80EB12CEE24E394F12C7B
:10497000C951DF4F8881C75ED040B81608F078CEA5
:10498000EB2DF0E0E259FF4FEE0FFF1F21E030E08A
:104990002C0F3D1FE20FF31F0190F081E02D658188
:1049A00076818BED92E00E94C2278C01DC010D9094
:1049B0000020E9F7CD01801B910B08968138910505
:1049C000D0F5CE0181960E9419098823A1F1C9551D
:1049D000DF4F88819981C75AD0400196B9F1C955F6
:1049E000DF4F99838883C75AD040C955DF4F8881EC
:1049F000C75AD040C855DF4F9881C85AD0409CA7AD
:104A00008DA747E050E0BE01695D7F4FC8010E945D
:104A1000D700E7E2F0E0EC0FFD1FE80FF91F10826E
:104A20009C0124503109AE01495D5F4F62E8CE011F
:104A300081960E944F09B3949BCF8EEF9FEFC05495
:104A4000DF4F99838883C05CD04081CFC955DF4F49
:104A5000F982E882C75AD040C8CF912C7801C4525D
:104A6000DF4F8881CC5DD040981608F5E92DF0E045
:104A7000EE0FFF1F21E030E02C0F3D1FE20FF31F70
:104A8000E953FF4F00811181D801ED91FC91A08085
:104A9000B180B701CE0188519F4F0E94550BBE01D6
:104AA00068517F4FC801F50109959394D8CFC7018C
:104AB0000E941909882309F443C00E9425032B0191
:104AC0003C01C355DF4F88819981AA81BB81CD5AB2
:104AD000D040A3019201281B390B4A0B5B0BDA0172
:104AE000C90189399A43A105B10590F4F10180818A
:104AF0009181A281B381A3019201281B390B4A0B3A
:104B00005B0BDA01C90189399A43A105B105D8F1D6
:104B10008DA19EA1CF54DF4F2881C15BD0402223BD
:104B200091F02CEF3FEFC054DF4F39832883C05CF6
:104B3000D040DC01ED91FC910488F589E02D0995C8
:104B40000E94901895CD20EC2FA318A6DC01ED91C2
:104B5000FC910280F381E02D42E050E0BE01695DEE
:104B60007F4F0995F1014082518262827382D601A2
:104B70004D925D926D927C92139781E0CF54DF4FFE
:104B80008883C15BD0408DA19EA1DC01ED91FC9199
:104B90000084F185E02D0995892B91F2BE016851C1
:104BA0007F4FC7010E94300A8C01892B09F4C1C0D4
:104BB000F60140825182628273828FA1807F8033AE
:104BC00009F09AC0CE54DF4F88819981C25BD040F2
:104BD000892B09F4B5CFC851DF4FE880C85ED040BB
:104BE000F12CFE01EE0DFF1DA0A4B12CBA2CAA24BD
:104BF000E9E2F0E0EC0FFD1FEE0DFF1D8081A80E35
:104C0000B11C4701F2E08F0E911C27E230E02C0F1F
:104C10003D1F820E931EB7016D5F7F4F620F731FA2
:104C2000A501C4010E941528B5016E0D7F1DE9E2A2
:104C3000F0E0EC0FFD1FE60FF71F10820E191F09A1
:104C40008FA18670C657DE4F8883CA58D140CE5494
:104C5000DF4FE881F981C25BD0408230E9F5DE01A7
:104C6000A60FB71F9A968C9190E0982F8827DE01A7
:104C7000A60FB71F9B96EC90E80EF92EF11C0A19AF
:104C80001B09A801455051096B5F7F4F87E290E0F7
:104C90008C0F9D1F680F791FC401099580E48FA3B5
:104CA000C657DE4F9881CA58D14098A7F9A6EAA600
:104CB0008DA19EA1DC01ED91FC910280F381E02D9C
:104CC00044E050E0BE01695D7F4F0995F1014082EB
:104CD00051826282738234CF0A191B09A8014350A2
:104CE00051096D5F7F4F27E230E02C0F3D1F620FAF
:104CF000731FC401099524CF803C91F480ED8FA3EC
:104D000018A68DA19EA1DC01ED91FC910280F3819A
:104D1000E02D42E050E0BE01695D7F4F099510CF64
:104D2000803D09F00DCFCF54DF4F1882C15BD040DA
:104D300007CFC7010E94190903CF0F931F93CF9389
:104D4000DF938230910510F482E090E0E091C60597
:104D5000F091C70530E020E0B0E0A0E0309799F492
:104D60002115310509F44AC0281B390B24303105BF
:104D7000D8F58A819B816115710589F1FB019383C7
:104D80008283FE0111C04081518102811381481745
:104D90005907E0F04817590799F4109761F01296F7
:104DA0000C93129713961C933296CF01DF91CF91FB
:104DB0001F910F9108950093C6051093C705F4CF76
:104DC0002115310551F04217530738F0A901DB01D5
:104DD0009A01BD01DF01F801C1CFEF01F9CF909336
:104DE000C7058093C605CDCFFE01E20FF31F819367
:104DF00091932250310939832883D7CF2091C4055C
:104E00003091C505232B41F4209103013091040119
:104E10003093C5052093C405209101013091020112
:104E20002115310541F42DB73EB740910501509150
:104E30000601241B350BE091C405F091C505E2176E
:104E4000F307A0F42E1B3F0B2817390778F0AC01AD
:104E50004E5F5F4F2417350748F04E0F5F1F50938A
:104E6000C5054093C405819391939FCFF0E0E0E0A6
:104E70009CCFCF93DF930097E9F0FC013297138228
:104E80001282A091C605B091C705ED0130E020E087
:104E90001097A1F420813181820F931F2091C405C6
:104EA0003091C5052817390709F061C0F093C50591
:104EB000E093C405DF91CF910895EA01CE17DF0793
:104EC000E8F54A815B819E0141155105B1F7E90181
:104ED000FB83EA8349915991C40FD51FEC17FD0755
:104EE00061F4808191810296840F951FE901998375
:104EF0008883828193819B838A83F0E0E0E012962D
:104F00008D919C9113970097B9F52D913C91119734
:104F1000CD010296820F931F2091C4053091C505E3
:104F20002817390739F6309751F51092C7051092B6
:104F3000C605B093C505A093C405BCCFD383C28377
:104F400040815181840F951FC817D90761F44E5FC6
:104F50005F4F88819981480F591F518340838A810F
:104F60009B81938382832115310509F0B0CFF093A3
:104F7000C705E093C6059ECFFD01DC01C0CF1382BB
:104F80001282D7CFFB01DC0105900D920020E1F7E2
:104F90000895FC0105900020E9F7809590958E0F0B
:104FA0009F1F0895A1E21A2EAA1BBB1BFD010DC075
:104FB000AA1FBB1FEE1FFF1FA217B307E407F507C9
:104FC00020F0A21BB30BE40BF50B661F771F881FA5
:104FD000991F1A9469F760957095809590959B013B
:104FE000AC01BD01CF010895EE0FFF1F0590F491B4
:104FF000E02D099481E090E0F8940C943C28FB01AA
:10500000DC0104C08D910190801921F44150504081
:10501000C8F7881B990B0895FB01DC0102C00190C1
:105020000D9241505040D8F708956817790768F4F9
:10503000FB01DC01E40FF51FA40FB51F02C00290B5
:105040000E9241505040D8F708950C940C28DC0182
:1050500001C06D9341505040E0F70895FB01DC0121
:105060004150504030F08D910190801919F400208A
:0C507000B9F7881B990B0895F894FFCF46
:10507C00FF0000C805800000010203040500044D78
:10508C005154540400000000911CFFFFFFFFFFFF70
:10509C00000000000C1B071BE20BBB07BC08FE0743
:1050AC00D007531B0C091B08361BFC08201BEA08F5
:1050BC000F0900000000FE1C00000000DA09B7090F
:1050CC00E20BE10B00000000B00110013D01FD01FD
:1050DC006E014C01600100000000DD0E0D0A004164
:1050EC006464656420636F6E7461637420746F20F4
:1050FC0070696E200073656E64696E67006D717403
:10510C0074005E33723932343434404B214D4A4D85
:0A511C002167004D5154543100008A
:00000001FF
