:100000000C94AA000C94DA1D0C94AC1D0C941C1DCD
:100010000C948C1C0C94E11B0C94D2000C94D20018
:100020000C94D2000C94D2000C94D2000C94D20008
:100030000C94D2000C94D2000C94D2000C94D200F8
:100040000C94971B0C94D2000C94651B0C943F1BD2
:100050000C94D2000C94D2000C94D2000C94D200D8
:100060000C94D2000C94D2006F6666006F6E005242
:10007000656C6179206F66660052656C6179206FEE
:100080006E0000000000250028002B000000000882
:10009000000201000003040700000000000000004F
:1000A00000000000230026002900000102030405CF
:1000B00006070001020304050001020304056F7531
:1000C000742F617264312F636F6E7400636D6E64A0
:1000D0002F617264312F746573740073746172746C
:1000E0002072656164004D5154540065746800735A
:1000F00074617274696E67000000000024002700BC
:100100002A00010204081020408001020408102087
:10011000010204081020040404040404040402027C
:10012000020202020303030303037761726E696E26
:10013000670063617574696F6E00696E666F006356
:100140006C6F7365006F70656E006F6E006F666632
:100150000000531E11241FBECFEFD8E0DEBFCDBF7D
:1001600011E0A0E0B1E0E6E0FFE402C005900D92EE
:10017000AA39B107D9F725E0AAE9B1E001C01D927B
:10018000A03AB207E1F710E0CAEAD0E004C0219734
:10019000FE010E943927C93AD107C9F70E94051FFD
:1001A0000C9481270C940000CF93DF93EC01FA01AB
:1001B0003296E60FF71FDC019D012C1B3D0BCF0192
:1001C000861B970B4D91442311F04193F5CFAC0161
:1001D000421B530B640F751FFB0132973083615034
:1001E0007109FB012083DF91CF910895FC01ED5649
:1001F000FF4FDB0112964D915D916D917C911597AA
:10020000428353836483758338962BE537E03183CB
:1002100020833297118210820895AF92BF92CF92BD
:10022000DF92EF92FF920F931F93CF93DF936C01B6
:100230007B018B01040F151FEB015E01AE18BF0897
:10024000C017D10759F06991D601ED91FC91019049
:10025000F081E02DC6010995892B79F7C501DF9161
:10026000CF911F910F91FF90EF90DF90CF90BF90B3
:10027000AF900895E0919B01F0E0EE0FFF1FE8546E
:10028000FD4F0190F081E02D868181608683809111
:100290009A01E0919B01F0E0EE0FFF1FE854FD4F43
:1002A0000190F081E02D91E0811101C090E0868104
:1002B00090FB81F986830895FC01538D448D252F91
:1002C00030E0842F90E0821B930B541710F0CF96F0
:1002D000089501970895FC01918D828D981761F022
:1002E000A28DAE0FBF2FB11D5D968C91928D9F5F39
:1002F0009F73928F90E008958FEF9FEF0895FC0118
:10030000918D828D981731F0828DE80FF11D858DCA
:1003100090E008958FEF9FEF0895FC01918D228D5D
:10032000892F90E0805C9F4F821B91098F739927E2
:10033000089588EA94E00E948D0121E0892B09F458
:1003400020E0822F089580E090E0892B29F00E9420
:10035000990181110C9400000895FC01A48DA80F4F
:10036000B92FB11DA35ABF4F2C91848D90E00196F7
:100370008F739927848FA689B7892C93A089B18917
:100380008C91837080648C93938D848D981306C0B8
:100390000288F389E02D80818F7D80830895EF921C
:1003A000FF920F931F93CF93DF93EC0181E0888F2F
:1003B0009B8D8C8D98131AC0E889F989808185FFFF
:1003C00015C09FB7F894EE89FF896083E889F989A1
:1003D00080818370806480839FBF81E090E0DF91A3
:1003E000CF911F910F91FF90EF900895F62E0B8DF6
:1003F00010E00F5F1F4F0F731127E02E8C8D8E11B1
:100400000CC00FB607FCFACFE889F989808185FF17
:10041000F5CFCE010E94AD01F1CFEB8DEC0FFD2F9A
:10042000F11DE35AFF4FF0829FB7F8940B8FEA89D2
:10043000FB8980818062CFCFCF93DF93EC01888DE1
:100440008823B9F0AA89BB89E889F9898C9185FD4F
:1004500003C0808186FD0DC00FB607FCF7CF8C91DD
:1004600085FFF2CF808185FFEDCFCE010E94AD01E7
:10047000E9CFDF91CF91089590E0FC01E457FF4F61
:100480002491FC01EE5FFE4F3491FC01EA5EFE4FC9
:10049000E491EE23C9F0222339F0233001F1A8F4CE
:1004A000213019F1223029F1F0E0EE0FFF1FEE5755
:1004B000FF4FA591B4918FB7F894EC91611126C0CC
:1004C00030953E233C938FBF08952730A9F0283004
:1004D000C9F0243049F7809180008F7D03C080915E
:1004E00080008F7780938000DFCF84B58F7784BDC5
:1004F000DBCF84B58F7DFBCF8091B0008F77809369
:10050000B000D2CF8091B0008F7DF9CF3E2BDACFF3
:10051000CF93DF9390E0FC01EE5FFE4F24918A5E63
:100520009E4FFC0184918823D1F090E0880F991FA1
:10053000FC01E850FF4FA591B491FC01EE57FF4F2D
:10054000C591D491623071F49FB7F8943C91822F99
:10055000809583238C93E8812E2B28839FBFDF9186
:10056000CF9108958FB7F894EC912E2B2C938FBFD9
:10057000F6CF3FB7F89480917D0290917E02A091D2
:100580007F02B091800226B5A89B05C02F3F19F0CD
:100590000196A11DB11D3FBFBA2FA92F982F882703
:1005A000BC01CD01620F711D811D911D42E0660FDE
:1005B000771F881F991F4A95D1F708958F929F92B0
:1005C000AF92BF92CF92DF92EF92FF924B015C010C
:1005D0000E94B9026B017C010E94B9026C197D096D
:1005E0008E099F09683E734081059105A8F321E0BB
:1005F000821A9108A108B10888EEC80E83E0D81EBF
:10060000E11CF11C81149104A104B10429F7FF90AD
:10061000EF90DF90CF90BF90AF909F908F90089514
:100620002FB7F8946091790270917A0280917B02E1
:1006300090917C022FBF0895ACEEB2E025E01496B5
:100640009C91149798130DC095E0899FF001112497
:10065000E451FD4F848114968C931382128214828C
:100660000895992331F0929FD0011124A451BD4FD8
:10067000E6CF08958823A1F09091BA03992381F0E1
:100680008F3F29F48091BF039091C003089595E0B6
:10069000899FF0011124E451FD4F828193810895D7
:1006A00090E080E008958EBD00000DB407FEFDCF00
:1006B0008EB508950F931F93CF93DF938C01EB01B9
:1006C00060E08AE00E943C028AE30E9453030C0F20
:1006D0001D1F0C171D0729F080E00E94530389930A
:1006E000F8CF61E08AE0DF91CF911F910F910C94D8
:1006F0003C021F93CF93DF93182FC62FD42F60E0B7
:100700008AE00E943C028C2F8F71812B0E94530340
:100710008D2F0E94530361E08AE0DF91CF911F91FA
:100720000C943C02CF93DF93D82FD07690910001A8
:100730009D17A1F0C82F43E06FE180EA0E94790382
:100740004C2F50E085E0559547958A95E1F7437029
:100750006FE180E80E947903D0930001DF91CF918F
:1007600008951F93CF93DF93C82F162FD72F0E9482
:100770009203412F6C2F80E40E94790361E06C0F9B
:100780004D2F80E4DF91CF911F910C947903EF926C
:10079000FF920F931F93CF93DF938B017A018F3FCB
:1007A00059F095E0899FE0011124C451DD4F688123
:1007B0007981600F711F10C06091BD037091BE03FD
:1007C000600F711FCDEBD3E0611588E0780778F3F7
:1007D0006F5F7740CDEBD3E080E00E94B1038A8168
:1007E0009B81801B910BE816F90608F4C701DF9185
:1007F000CF911F910F91FF90EF9008956091BB03EF
:100800007091BC036115710529F0615071098CE08C
:100810000C94B1036FEF77E0FACFCF93DF93C82F3B
:10082000D62F0E9492034D2F6C2F80E4DF91CF9141
:100830000C947903CF93DF93D82FC62F60E08AE022
:100840000E943C028C2F8F718D2B0E945303C7FF97
:1008500003C080E00E94530380E00E945303C82F2E
:1008600061E08AE00E943C028C2FDF91CF910895D5
:10087000CF93C82F0E9492036C2F80E0CF910C94ED
:100880001A04CF93DF9361E184ED0E940D0461E0CF
:1008900082ED0E940D04CFE0D0E08AEE0E94380481
:1008A00080FF0BC06AE070E080E090E00E94DE0212
:1008B000219799F790E080E00DC060E082ED0E9402
:1008C0000D0488ED0E943804C82F89ED0E94380479
:1008D000982F8C2FDF91CF910895CF93DF93EB0169
:1008E000682F84ED0E940D04BE0186ED0E94B103C5
:1008F000CFE0D0E08AEE0E94380480FF08C06AE0B2
:1009000070E080E090E00E94DE02219799F7DF918D
:10091000CF910895CF93C62FBC0182E00E94B1030E
:1009200060E08AE00E943C028AE70E9453038C2F19
:100930000E94530361E08AE0CF910C943C02CF9374
:10094000BC0180E00E94B10360E08AE00E943C02AA
:100950008AE30E94530380E00E945303C82F61E0A2
:100960008AE00E943C028C2FCF910895CF92DF92B3
:10097000EF92FF920F931F93CF93DF936C018B0144
:100980004130510579F4CB010E949F04682FC601C4
:10099000DF91CF911F910F91FF90EF90DF90CF905B
:1009A0000C948A04EA01C60FD71F7E0181E0E81A81
:1009B000F10880E10E94B103B60184E10E94B10315
:1009C0000115184048F4E11488E0F80628F07E018B
:1009D00081E0E81A88E0F80AB70182E10E94B103D9
:1009E00040E16FE180EA0E94790340E26FE180E834
:1009F0000E9479036FE180E00E941A0485FF07C01E
:100A000061E070E080E090E00E94DE02F3CFDF91D1
:100A1000CF911F910F91FF90EF90DF90CF900895AD
:100A2000CF92DF92EF92FF920F931F93CF93DF93BA
:100A30008C016091EC027091ED026150784EC12CF6
:100A400098E1D92EECEEF2E020E0D0E0C0E045E005
:100A50003481CB01332341F0439FC00111248451E1
:100A60009D4FDC018D919C91E080F1808E199F0952
:100A70000280F381E02D8E1B9F0B8017910799F464
:100A8000B5E02B9FE0011124C451DD4FE1EFF2E00E
:100A900081E022813381232B09F453C035968F5F87
:100AA0008932B9F744C00817190748F48C159D0519
:100AB00030F4249FE0011124C451DD4F6C01311149
:100AC00021C0209719F7CCEED2E085E0D82E8C819A
:100AD00028813981EA80FB808823D9F0E20EF31E59
:100AE0008D9DE0011124C451DD4F68817981E616A6
:100AF000F70669F34A815B81C7010E94B604F98257
:100B0000E882E5CF349FF0011124E451FD4F232FFB
:100B10009FCF8091EC029091ED02821B930B8E1976
:100B20009F098150984E8017910708F0AFCF80E061
:100B3000DF91CF911F910F91FF90EF90DF90CF90B9
:100B40000895288139814A815B81240F351F3183C3
:100B50002083138302839C8194838C83E9CF0F933A
:100B60001F93DB01E42FA80190E0EF3FE9F065E07F
:100B7000E69FF0011124E451FD4F60817181620F05
:100B8000731F02C06F5F774025E0289FF001299F07
:100B9000F00D1124E451FD4F808191818A0F9B1F3C
:100BA0001F910F910C94B6046091BD037091BE0328
:100BB000620F731F6115E8E07E0720F7EDEBF3E0AD
:100BC000DCCFCF92DF92EF92FF920F931F93CF93E0
:100BD000DF936B018A01790195E0899FE00111247F
:100BE000C451DD4F688179816C0D7D1D82E00E94CA
:100BF000B1030A80DB81C02DCC19DD09EC16FD069E
:100C000008F4E70160E08AE00E943C028AE70E9463
:100C100053037801EC0EFD1EE016F10631F0F801E9
:100C200081918F010E945303F7CF61E08AE00E9417
:100C30003C02CE01DF91CF911F910F91FF90EF9079
:100C4000DF90CF900895FB0141505109460F571F87
:100C5000E417F50778F4208130E0322F22276181F4
:100C6000260F311D820F931F8217930708F40196F8
:100C70003296EECFE417F50751F4208130E0322FA1
:100C80002227820F931F8217930708F40196089575
:100C9000CF92DF92EF92FF920F931F93CF93DF9348
:100CA0008091240290E0982F882720912502820FBE
:100CB000911D7C0124E1E21AF10848E050E06EE267
:100CC00072E00E970E942306009142020695069557
:100CD0000C7310E0A80166E372E00E942306EC01A9
:100CE0000E151F0508F042C0A701401B510BB801AB
:100CF0006E5D7F4F8091F6010E94C70301977C01D2
:100D000060E08AE00E943C028AE30E945303D12CF7
:100D1000C12CCE14DF04B8F480E00E945303082FE6
:100D200010E0102F002780E00E945303800F912FC6
:100D3000911DC80FD91FC817D90708F4219682E062
:100D4000C80ED11CE6CFEC14FD0461F480E00E94D3
:100D5000530390E0982F8827C80FD91FC817D907C9
:100D600008F4219661E08AE00E943C029C2F8D2FBE
:100D7000CD2B11F48FEF9FEFDF91CF911F910F914A
:100D8000FF90EF90DF90CF90089544E150E062E251
:100D900072E090E080E00E942306009721F09827FF
:100DA0008927982708958FEF9FEF0895CF92DF92BC
:100DB000EF92FF920F931F93CF93DF93C091F501B2
:100DC000C1FF5EC02091F40130E044E152E070E0E8
:100DD00060E08091F6010E94E105CD7FC093F501AE
:100DE000F090F6018091BA03882309F474C085E07D
:100DF000F89EF0011124E451FD4FC081D18121976B
:100E0000028113810C0F1D1FCE010E949F04E82E4A
:100E1000882321F060E0CE010E948A04BE0184E0B4
:100E20000E94B103B80186E00E94B1038AE0C82E97
:100E3000D12C40E86FE180E80E94790340E86FE13F
:100E400080EA0E9479034AE06CE180EA0E9479031B
:100E500048E06FE180E80E94790304E610E08CE14D
:100E60000E9438048A7029F50115110521F10150FD
:100E700011096AE070E080E090E00E94DE02EFCFAE
:100E8000C0910C02D0910D02209721F41092F6012E
:100E900080E029C0CE010E9410058093F6018823CE
:100EA000B9F39E0144E152E070E060E00E94E10588
:100EB00097CF012B51F448E06FE180EA0E9479035B
:100EC00081E0C81AD10809F0B4CFEE2021F06E2DD0
:100ED000CE010E948A04FF2019F08F2D0E941C036E
:100EE0001092F60181E0DF91CF911F910F91FF9059
:100EF000EF90DF90CF9008950F931F93CF93DF93E0
:100F0000EC018C010B5F1F4F899181110E941C0322
:100F1000FE0131971082C017D107B1F7DF91CF9151
:100F20001F910F910895CF93DF93EC018881811178
:100F30000E941C03FE01CE01049621812193E81733
:100F4000F907D9F71C82DF91CF910895CF93DF93F2
:100F5000EC01E881F981008CF18DE02D0995882361
:100F600039F08C859D850296DF91CF910C947C079A
:100F7000DF91CF9108950F931F93CF93DF931F922B
:100F8000CDB7DEB78C01DC01ED91FC91008CF18DC9
:100F9000E02D09958823D1F0D8011C96ED91FC91A4
:100FA0008281882399F041E050E070E060E00E9487
:100FB000C703BE016F5F7F4F0E945A03898190E093
:100FC0000F90DF91CF911F910F9108958FEF9FEFB9
:100FD000F7CFCF93DF931F92CDB7DEB7DC01ED9152
:100FE000FC910288F389E02D41E050E0BE016F5F83
:100FF0007F4F09951816190634F4898190E00F90F7
:10100000DF91CF9108958FEF9FEFF9CF6F927F928D
:101010008F929F92AF92BF92CF92DF92EF92FF9208
:101020000F931F93CF93DF938C014B01EA01DC01F7
:10103000ED91FC91008CF18DE02D0995882309F448
:1010400080C0D8011C96ED91FC918281882309F41F
:101050007BC07E018EE1682E5E01AE18BF08A80C31
:10106000B91CD8011C96ED91FC91A70170E060E0DD
:1010700082810E94C7036C01B5010E945A03F801E6
:10108000A484B584D50112967C90872D0E943A03E2
:101090008C159D05E9F5E81AF90AC50102960E942A
:1010A0009307F801A485B585EC916E9EF00111249B
:1010B000EC53FC4F818D84FF09C011968C911197E0
:1010C000982F967019F4886011968C93D8011C960D
:1010D000ED91FC911D97828181112EC0818182FF4B
:1010E00005C011821D961C921E921C97CE018E196E
:1010F0009F09DF91CF911F910F91FF90EF90DF90AB
:10110000CF90BF90AF909F908F907F906F900895F9
:10111000B5E07B9EF0011124E451FD4F8081918167
:101120008C0D9D1D91838083828193818C199D09F3
:1011300093838283CE01DDCFE114F10409F08CCFDB
:10114000F9CF8FEF9FEFD5CF90E080E0D2CFEF9235
:10115000FF920F931F93CF93DF93EC01E881F98106
:10116000008CF18DE02D09958823E1F00C851D851B
:10117000780182E0E80EF11C095F1F4FD0E0C0E06B
:10118000F70181917F010E943A03C80FD91FE01631
:10119000F106B1F7CE01DF91CF911F910F91FF9032
:1011A000EF900895D0E0C0E0F5CFFC01448555856F
:1011B0004115510551F0FB01248535852115310577
:1011C00021F081E04217530709F080E00895DC0127
:1011D0001C96ED91FC91309731F08281811105C010
:1011E00081818170089580E0089581E0089590E004
:1011F00080E00895DC01ED91FC91028CF38DE02DEF
:10120000099591E089270895CF93DF93FC01A4818C
:10121000B581109721F480E0DF91CF910895EC0122
:10122000ED91FC9111970688F789E02DCD01099584
:1012300081111EC0FE01E156FF4F80819181892BF3
:1012400051F78DEF9FEF918380838C819D81DC012D
:10125000ED91FC910680F781E02D09958C819D81AF
:10126000DC01ED91FC910488F589E02D0995D3CF3F
:1012700081E0D2CFCF92DF92EF92FF920F931F9334
:10128000CF93DF9300D000D0CDB7DEB78C01F9014A
:1012900080E0DE0111967D019E2F9F77EE0FEF2FEC
:1012A000EE1FFF0BF195309709F09068D701A80F5A
:1012B000B11D9C938F5F309779F790E0FA01E81B9E
:1012C000F90B6483FA01E81BF90B3596D701BD01D0
:1012D0006E197F09681779071CF46D916193F7CF38
:1012E000FC013196D80114968D919C917F01E20EFC
:1012F000F31EBA016E1B7F0B6B5F7F4FDC01ED911C
:10130000FC910280F381E02DA70109956C010E94F8
:101310001003F801E857FF4F608371838283938342
:1013200081E0EC14FD0409F080E00F900F900F9025
:101330000F90DF91CF911F910F91FF90EF90DF9071
:10134000CF900895EF92FF920F931F93CF93DF9367
:10135000EC018B017A010E941003FE01E857FF4F58
:1013600060837183828393838C819D81DC01ED9105
:10137000FC910280F381E02DA701B801DF91CF91AC
:101380001F910F91FF90EF9009941F93CF93DF93DC
:10139000EC01162F0E941003FE01E857FF4F6083F7
:1013A0007183828393838C819D81DC01ED91FC911B
:1013B0000190F081E02D612FDF91CF911F91099471
:1013C000CF92DF92EF92FF920F931F93CF93DF9311
:1013D000EC018B010E9410036B017C018C819D81CB
:1013E000DC01ED91FC910084F185E02D0995892BBC
:1013F00069F40E9410036C197D098E099F096839F0
:101400007A438105910550F380E00CC08C819D8169
:10141000DC01ED91FC910284F385E02D0995F80142
:10142000808381E0DF91CF911F910F91FF90EF902A
:10143000DF90CF9008952F923F924F925F926F92DC
:101440007F928F929F92AF92BF92CF92DF92EF9254
:10145000FF920F931F93CF93DF9300D0CDB7DEB7EA
:101460008C014B016C0126E0C20ED11CB6010E941A
:10147000E009811118C0F12CE12CC7010F900F90E9
:10148000DF91CF911F910F91FF90EF90DF90CF9060
:10149000BF90AF909F908F907F906F905F904F9094
:1014A0003F902F900895D8011696BC91BA83198267
:1014B0001801E7E02E0E311CEE24E394F12CB12C40
:1014C000A12C412C512C32014394BE016F5F7F4F00
:1014D000C8010E94E009882371F2B7016F5F7F4F56
:1014E0008981F10181931F01282F2F7730E0249DFE
:1014F000A001259D500D349D500D1124A40EB51E44
:1015000027E0440C551C661C771C2A95D1F787FDF3
:1015100035C0FA81F07FFA838FEF860FD4018C9368
:10152000F03309F043C06C0D7D1DC8010E94E00935
:10153000882309F4A0CFB7016E5F7F4F6C0D7D1D2E
:10154000C8010E94E009882309F495CFB7016D5FB7
:101550007F4FD401EC91E00FF12FF11DC780D12C0A
:10156000DC2CCC248085C80ED11CF801868181FF3B
:1015700003C0F2E0CF0ED11C82E01BC07B016530BE
:10158000710509F0A2CFF801E156FF4F8FEF9FEFF1
:1015900091838083D80114968D919C91DC01ED910B
:1015A000FC910488F589E02D099565CF80E0D12C68
:1015B000C12C482E512C7B01461A570A18012DE9DF
:1015C000220E311C8EEF682E77247A94C2018E0D84
:1015D0009F1D8A159B0588F5BE016F5F7F4FC8016F
:1015E0000E94E009882309F446CFD1018D919C9196
:1015F0000097B1F0BA81B03399F4F4012081A301CE
:10160000421B51099A012E0D3F1DC216D30640F40C
:10161000DC01ED91FC910190F081E02D698109954B
:10162000B0E8EB16F10428F48981F801EE0DFF1DF6
:101630008683EFEFEE1AFE0AC9CFF801E356FF4F9B
:1016400080819181892B09F018CFF1E8EF16F10420
:1016500008F011CF12CF089590E080E00895CF9266
:10166000DF92EF92FF920F931F93CF93DF93CDB74B
:10167000DEB7C254D1090FB6F894DEBF0FBECDBF9E
:101680008C01FB0182819381A481B58123968CAF6B
:101690009DAFAEAFBFAF239721E023962FAF239727
:1016A00023964CAD5DAD6EAD7FAD23974BAB5CAB80
:1016B0006DAB7EAB89AF9AAFABAFBCAF8DA79EA72A
:1016C000AFA7B8AB28AB4DA55EA56FA578A94FA372
:1016D00058A769A77AA72EAB4BA95CA96DA97EA9CB
:1016E00049A35AA36BA37CA38B8F9C8FAD8FBE8F16
:1016F0002AA74FA158A569A57AA54D8B5E8B6F8B44
:10170000788F2CA349A15AA16BA17CA14F87588B3C
:10171000698B7A8B89879A87AB87BC870E94100375
:1017200066507F4F8F4F9F4F6093A4047093A50422
:101730008093A6049093A7041092BE031092BD0359
:101740001092C0031092BF03EEEEF2E08BECDF01CB
:101750001D928A95E9F781E098E09093ED028093DD
:10176000EC0261E08AE00E94880261E08AE00E9467
:101770003C02FFB6F8948091B903811127C0E0E2E2
:10178000F1E08491ECE0F1E09491E82FF0E0EE0FCD
:10179000FF1FE850FF4FA591B491EC91E92321F48C
:1017A00061E08AE00E943C0261E08AE00E948802D7
:1017B0008CB580618CBD8CB580648CBD61E08DE0A2
:1017C0000E94880261E08BE00E9488028091B90348
:1017D0008F5F8093B903FFBE8CB58C7F8CBD8DB5B8
:1017E00081608DBD4FEF60E08FEF0E94790362E072
:1017F00070E080E090E00E94DE0262E370E080E052
:1018000090E00E94DE021092BC031092BB0380E1C4
:10181000E82EF12C6DE180E00E941A0481110BC0CA
:10182000B1E0EB1AF10839F06AE070E080E090E096
:101830000E94DE02EFCF70E060E088E00E94B1031A
:1018400070E060E08CE00E94B1036FEF77E08AE027
:101850000E94B10361EB88E30E940D046FE370E323
:1018600088E20E94B10369EF77EF80E30E94B10341
:101870006DE070E080EC0E94B10342E362EC80E82E
:101880000E94790362E17CE086EC0E94B10362E190
:1018900084EC0E940D046CED75E08AEC0E94B103AB
:1018A000F801608184EE0E940D04D80111966C91BC
:1018B00085EE0E940D04F801628182EE0E940D0403
:1018C000D80113966C9183EE0E940D04F801648197
:1018D00080EE0E940D04D80115966C9181EE0E9455
:1018E0000D0460E071E080E10E946D048FE10E94D0
:1018F000920340EC6BE180E80E94790344E06FE1E1
:1019000080E80E94790366E774E084E10E946D0438
:1019100082E70E9438048F3F09F48BC08093BA039A
:10192000F801808180939E04818180939F0482814D
:101930008093A00483818093A10484818093A20476
:1019400085818093A30410923D0410923C04109270
:101950003F0410923E0410924104109240041092F1
:101960004304109242041092DD031092FB03109284
:1019700019041092370484E08093440480E094E0DA
:101980009093C3038093C20310929D049BE024E0D4
:1019900080919D04883008F44FC04D895E898F89FD
:1019A00021E02A8BCF84D888E988FA88CB82DC8230
:1019B000ED82FE826B857C85E985FA85F093E902EC
:1019C000E093E8027093EB026093EA025093E50221
:1019D0004093E40290E091609093E7028093E602E6
:1019E0008FEF9FEF9093E1028093E0028FEF90E002
:1019F0009093E3028093E2022E838B819C81AD81E0
:101A0000BE818093530590935405A0935505B093E0
:101A10005605CE5BDF4F0FB6F894DEBF0FBECDBFCD
:101A2000DF91CF911F910F91FF90EF90DF90CF90BA
:101A300008951092BA0374CF899FF0011124EB5BD3
:101A4000FB4FDF01322F1D923A95E9F78F5F8093AC
:101A50009D049ECFFB0101900020E9F73197AF0173
:101A6000461B570BDC01ED91FC910280F381E02DC8
:101A700009948F929F92AF92BF92EF92FF920F9331
:101A80001F93CF93DF93CDB7DEB7A1970FB6F8942E
:101A9000DEBF0FBECDBF7C01FA01CB0119A22230FF
:101AA00008F42AE08E010F5D1F4F822E912CB12C7D
:101AB000A12CBF01A50194010E941727F901CA01B9
:101AC0006A300CF5605DD8016E938D01232B242BB9
:101AD000252B79F790E080E0109721F0BD01C70138
:101AE0000E942A0DA1960FB6F894DEBF0FBECDBF9F
:101AF000DF91CF911F910F91FF90EF90BF90AF902A
:101B00009F908F900895695CDECFEF92FF920F93C4
:101B10001F93CF93DF938C017B01D0E0C0E0F701EE
:101B2000EC0FFD1F6491662339F0C8010E94CF01BC
:101B3000892B11F02196F3CF6CE671E0C8010E9469
:101B40002A0D8C0F9D1FDF91CF911F910F91FF9058
:101B5000EF900895CF93DF93EC01662371F061302D
:101B6000A1F469E770E088EA94E00E94850D61E0E5
:101B70008B81DF91CF910C943C026FE670E088EA94
:101B800094E00E94850D60E0F3CFDF91CF9108953E
:101B9000AF92BF92CF92DF92EF92FF920F931F937B
:101BA000CF93DF937C015B018A01EA010990002059
:101BB000E9F72197C41BD50B0E9404098823C9F1BA
:101BC000F50101900020E9F73197EA19FB09CE01F0
:101BD0000796E80FF91FE138F10558F5670186E02F
:101BE000C80ED11C45E050E0B601C5010E94D400EA
:101BF000F801DC011696AE0DBF1DA8014C0F5D1F4C
:101C0000E417F50719F021912D93FACF25979E013E
:101C1000280F391FA60160E3C701DF91CF911F9103
:101C20000F91FF90EF90DF90CF90BF90AF900C940A
:101C30003A0980E0DF91CF911F910F91FF90EF90D3
:101C4000DF90CF90BF90AF9008958F929F92AF9208
:101C5000BF92CF92DF92EF92FF920F931F93CF9399
:101C6000DF937C01EB016C0182E0C80ED11C4701BF
:101C7000E5E08E0E911C10E000E0F60141916F014D
:101C800050E070E060E02AE0CE010E94390D5C0176
:101C9000E881F9810190F081E02D6EE2CE01099595
:101CA0008A0D9B1D080F191FC814D90431F7F701BD
:101CB000458150E070E060E02AE0CE010E94390DDD
:101CC000800F911FDF91CF911F910F91FF90EF90A7
:101CD000DF90CF90BF90AF909F908F9008950E941B
:101CE0003F27EF92FF920F931F93CF93DF93FC0157
:101CF00010929D04C5E4D4E0DE0130E020E02830FD
:101D0000310569F490E0983009F042C010920B025E
:101D100010920A0210929D0425E434E044C0CD01E3
:101D2000855494400D911C9111970115110561F195
:101D300012964D915C9113974115510529F1E08060
:101D4000F1800E151F0501F502811381401751071F
:101D5000D9F420939D04DC01A75BBB4F86E0FB0117
:101D600001900D928A95E1F78BE0829FF001839FAD
:101D7000F00D1124EB5BFB4F1286DF91CF911F9189
:101D80000F91FF90EF9008952F5F3F4F1B96B7CFB5
:101D90009E0148815981452BB1F44A815B81452BD5
:101DA00091F490939D0484E0D90101900D928A955D
:101DB000E1F7D901149686E0FB0101900D928A9516
:101DC000E1F7F901D9CF9F5F2B969DCFEF92FF925C
:101DD0000F931F93CF93DF9300D000D000D0CDB7E7
:101DE000DEB740913202509133024F3F540731F435
:101DF0008091340290913502019619F18091E802A8
:101E00009091E9026091E0027091E1029B012095BE
:101E10003095282B392B42175307A9F52091E20260
:101E20003091E30220953095E091EA02F091EB02C7
:101E30002E2B3F2BE0913402F0913502E217F3078D
:101E400011F586E0E4E1F1E0A4E1B2E001900D9249
:101E50008A95E1F786E0EEE9F4E0AAE1B2E00190CC
:101E60000D928A95E1F788E090E0909321028093AB
:101E7000200280910C0290910D020E9690930D021B
:101E800080930C02A5C08427952786239723892B4E
:101E900099F420913402309135028091EA029091B8
:101EA000EB02822793276091E2027091E30286237E
:101EB0009723892B09F499C08091E4029091E5025F
:101EC00090931102809310028091E6029091E702B4
:101ED0009093130280931202E0901002F09011028E
:101EE0000091120210911302E5E4F4E080E08830E2
:101EF00009F084C080939D0446E050E06FEF70E0ED
:101F000084E192E00E946C2786E0E4E3F2E0DF01E6
:101F1000282F1D922A95E9F7EEE9F4E0AAE1B2E054
:101F2000982F01900D929A95E1F7EEE9F4E0AAE27C
:101F3000B2E0982F01900D929A95E1F7F0923B0252
:101F4000E0923A0210933D0200933C022091E80295
:101F50003091E90230933102209330022091EA025D
:101F60003091EB02309333022093320220E031E0D3
:101F700030932902209328023093230220932202D7
:101F800028E030E03093250220932402809326023B
:101F900094E09093270228E036E0309321022093CA
:101FA00020022AE432E030930F0220930E022AE24C
:101FB00030E030930D0220930C02BE016F5F7F4F23
:101FC000DB011D928A95E9F780E192E00E94710E93
:101FD00026960FB6F894DEBF0FBECDBFDF91CF912E
:101FE0001F910F91FF90EF9008955093110240932D
:101FF000100230931302209312026ECF20813181A0
:10200000E216F306E1F42281338102171307B9F4D3
:102010009481911103C09581992329F080939D04A7
:10202000349686E011CF96819111F8CF9781911166
:10203000F5CF90859111F2CF91859111EFCF8F5F00
:102040003B9655CFAF92BF92CF92DF92EF92FF9225
:102050000F931F93CF93DF93E0900802F090090253
:10206000F701C48DD58DD0900502209781F5D6FC5F
:1020700003C0F12CE12CC6C0EBEAF1E090E080E077
:10208000218121117CC042E1489F9001499F300D80
:102090001124E901C555DE4FC701845C9340959535
:1020A00087956FEE7EEE869FA001879F500D969FCD
:1020B000500D1124488381E0898323553E4F81E1EF
:1020C000F90111928A95E9F7F701D58FC48FD1FEF6
:1020D00030C000910C0210910D020115110549F15B
:1020E0008981867031F55E01F2E0AF0EB11CC12C22
:1020F000F50181915F01811149C0C8010E9410055D
:10210000F50131978083882309F440C020910E02A5
:1021100030910F02245132404091F30170E060E0B1
:102120000E94AF05F4E0CF1204C0F701818D8061F9
:10213000818F898183FF0AC0877F89838D2D82608B
:1021400080930502F701818D8F7E818F10910502AA
:1021500014FD02C017FF26C0CE0107960E947C071F
:102160008A818823E9F0F701848195819F838E839A
:10217000898184608983F701158E148E7ACF019648
:1021800072968430910509F07BCF73CFC394F5E04C
:10219000CF12AECF8091F5018E7F8093F501C5CF30
:1021A0001982E9CF10FF04C0CE0107960E94930761
:1021B0001C7009F465C08F81882309F461C098857B
:1021C000911144C0EC84FD84E114F10409F451CF71
:1021D00095E0899FF0011124E451FD4FF382E282E2
:1021E000C0900E02D0900F02F601E451F2406F0150
:1021F000E093F401DD24C6018E0D9F1D009769F563
:102200001092F60160910E0270910F02F09200029E
:10221000E092FF011E141F0454F480910602909175
:1022200007026817790719F0A7010E945127F09259
:102230000D02E0920C02DF91CF911F910F91FF9060
:10224000EF90DF90CF90BF90AF9008950E943A0337
:102250007C01892B09F40DCFC3CF0E941005809318
:10226000F601882379F2870130E020E04F81B60142
:102270000E94AF058091F50182608093F501C2CF85
:10228000898181FFF6CE8F81811108C01982F70103
:10229000158E148E80E180930502EBCEF701818DBF
:1022A0008061818FE6CEAF92BF92CF92DF92EF92A4
:1022B000FF921F93CF93DF93C0910802D091090240
:1022C0002AE432E030930F0220930E02309307028B
:1022D000209306028330C9F4898D8F70833009F012
:1022E00044C088899989892B09F03FC088E0809390
:1022F00005020E9422108091050285FFDFC4109222
:1023000000021092FF01198E51C0823009F005C100
:10231000809104028F5F80930402811113C0809129
:1023200003028F5F8093030281110CC0809102022F
:102330008F5F80930202811105C0809101028F5F3F
:102340008093010210920D0210920C021092000272
:102350001092FF01898D982F9D7F953059F48A8DB9
:102360008F5F8A8F883709F4198E10920D021092B0
:102370000C0254C18823C9F328893989232B09F415
:10238000C7C09A8D2FEF290F2A8F9111EECF9B8D09
:10239000983031F02FEF280F223050F4953041F46F
:1023A000198E80E8809305020E94221084E184C087
:1023B000392F953008F034E023E001C0220F3A9520
:1023C000EAF72A8F9F5F9B8F8F70833009F47DC05F
:1023D00008F06AC0813009F4D2C2823031F610921E
:1023E00043028091430282608093430282E08093A3
:1023F0004A0294E090934B0280934C0210924D025B
:102400008CE290E090930D0280930C0280E6809322
:102410004202888580933E02898580933F028A85A7
:10242000809340028B85809341028C8580933A0291
:102430008D8580933B028E8580933C028F858093AF
:102440003D0286E080932B028C819D819093370220
:10245000809336028E819F81909339028093380257
:102460008091E8029091E90290932F0280932E02CE
:102470008091EA029091EB029093310280933002B6
:102480008881998190933302809332028A819B8163
:102490009093350280933402898D84FF95C4109205
:1024A00045021092440280C1863029F0883019F02C
:1024B000843009F05ACF81E18093430288E290E0B2
:1024C00090930D0280930C0221C084E0809305025A
:1024D0000E942210809106029091070290930F02B1
:1024E00080930E028091FF0190910002892B09F4E4
:1024F00016C488899989009709F411C48896909325
:102500000D0280930C0288E18093430280E57FCF27
:102510008F70833009F029CFE9CE80912202853473
:1025200009F023CFC0902402D12CDC2CCC24809144
:102530002502C80ED11C80910C0290910D028C15C1
:102540009D0508F412CFD0920D02C0920C0280912A
:1025500028028F7309F009CF10912902111105CFBC
:10256000A090E802B090E902A114B10431F4809186
:10257000EA029091EB02892BA1F0809132029091B6
:102580003302A816B90609F0F0CE2091340230913A
:1025900035028091EA029091EB022817390709F081
:1025A000E4CE0E94C506019609F0DFCE80912B0291
:1025B000863009F441C0813009F0D7CE80913602CF
:1025C000883009F0D2CE1092360280913802909174
:1025D0003902873F2FEF920768F1099690933902ED
:1025E0008093380280912E0290912F0290933302B3
:1025F00080933202809130029091310290933502A3
:1026000080933402B0922F02A0922E028091EA02AF
:102610009091EB0290933102809330021092050268
:10262000DF91CF911F91FF90EF90DF90CF90BF90FF
:10263000AF9008950896D2CF0E944806019609F0FF
:1026400094CE4091380250913902609136027091D7
:10265000370280912E0290912F02E0913002F0918A
:102660003102C4ECD3E0298D2223A9F0AC81BD81D5
:102670004A175B0781F4AE81BF816A177B0759F463
:10268000A881B9818A179B0731F4AA81BB81EA1717
:10269000FB0709F47CC16E9624E0CE31D20719F312
:1026A00010F3809143028F73823061F45093FE01E6
:1026B0004093FD01ECE3F4E080E0843009F0B2C027
:1026C000809344048091430282FD4FCE84E1809345
:1026D000430288E290E090930D0280930C0280E523
:1026E0008093420230913D028091410280933D02ED
:1026F00020913C028091400280933C022093400252
:1027000090913B0280913F0280933B0290933F0265
:1027100080913A028093440440913E0240933A02F1
:1027200080933E023F5F3093410231110DC02F5F15
:1027300020934002211108C09F5F90933F029111A6
:1027400003C08F5F80933E028091360290913702E2
:102750009093FE018093FD0120913802309139025F
:1027600030933702209336029093390280933802D7
:1027700080912E0290912F02909333028093320227
:10278000809130029091310290933502809334020F
:10279000B0922F02A0922E028091EA029091EB0259
:1027A000909331028093300280E480932A028091DA
:1027B0000C0290910D0290932402809325021092B6
:1027C00049021092480210924702109246020E945B
:1027D000480680959095909347028093460285E441
:1027E0008093220210922302109229021092280252
:1027F0008091F7019091F80101969093F8018093F0
:10280000F701909326028093270210922D021092D6
:102810002C020E94C5068095909590932D0280937E
:102820002C02FCCE219131918F5F4217530709F0A2
:1028300044CF10924404E4ECF3E090E080E0D0E078
:10284000C0E08430910531F484E080934404209703
:1028500081F48BCD3E2F2F2FA18DA11163C08093CA
:1028600044042EE1289FE001299FD00D1124CC5370
:10287000DC4FD0930902C093080283E08A8F888FCF
:102880001E8A84E08F8B1B8E5D834C837F836E83D7
:1028900080912E0290912F0299838883809130023B
:1028A000909131029B838A8381E0898F809101021C
:1028B0008C87809102028D87809103028E878091A0
:1028C00004028F8781E090E0998B888B80913D0294
:1028D0008B8780913C028A8780913B028987809117
:1028E0003A02888781E090E00E943B1E809142027C
:1028F000982F907F913508F442C082958F70855053
:10290000990B880F991F880F991FE12FF0E0E817A6
:10291000F9072CF4EC5EFD4F36A9311112C010936B
:1029200044042DC0A73031F4209731F0B28DAA8D28
:10293000AB1710F03C2F2D2F01967E96C32FD22F70
:1029400080CF313011F41F5FE0CF27A93230D9F4A6
:102950002430C9F41093440480AD91AD89279827A1
:1029600089279093FE018093FD01813022E0920738
:1029700010F080E092E09B8B8A8B9D8B8C8B80E1AA
:10298000809343022ECD222351F2120FBECFD0935B
:102990000902C0930802109205029091430292FF2F
:1029A00007C0198E80E2809305020E942210DDCCC0
:1029B0008091420282958F70880F880F8093440423
:1029C000C81AD108760184E1E81AF108F0920D02E4
:1029D000E0920C022F70223021F4892F8F73823104
:1029E000D1F0E114F10419F4892F8370A1F0398535
:1029F0002A858B8550913A0248855413C0C1409175
:102A00003B024313BCC130913C023213B8C1209148
:102A10003D022813B4C194FF49C0688979896115C2
:102A2000710509F443C0CE010C960E94081E309136
:102A30003E028091F901381339C020913F02809104
:102A4000FA01281333C0909140028091FB01981342
:102A50002DC0809141024091FC01841327C03C8726
:102A60002D879E878F87988D8B8D811118C08E89B9
:102A70002A8D921B282F269526952695921B890F25
:102A80008E8B97FD91952F89322F36953695231B86
:102A9000920F9F8B869586958695890F888F81E00A
:102AA00080930502888D8A8F198A188A298DE22FD2
:102AB000EF70E150E83008F058CCF0E0EE59FA4EF3
:102AC0000C9439276A158315ED15A216CB16DC1662
:102AD000BF169B168091050280FF47CC83E0898F4B
:102AE00080E480930502198A188AE114F10431F018
:102AF00082E480930502C7010E943B1E10920002EF
:102B00001092FF01F6CB8091050280FF5FC080919B
:102B100043028F73823109F059C080914202982F8D
:102B2000907F913598F182958F708550990B880F21
:102B3000991F880F991FE12FF0E0E817F9072CF48F
:102B4000EC5EFD4F36A9311103C0109344041EC042
:102B5000313011F41F5FEFCF27A9323099F52430BF
:102B600089F51093440480AD91AD89279827892772
:102B70009093FE018093FD01813022E0920710F0D6
:102B800080E092E09B8B8A8B9D8B8C8B83E0898F7E
:102B900080913A02888780913B02898780913C022C
:102BA0008A8780913D028B8781E090E00E943B1EE6
:102BB00082E480930502198A188A10920D021092FD
:102BC0000C029CCF222309F2120FB5CF80E2809332
:102BD00005020E942210198E75CD8091430280FF5C
:102BE00020C024FD1EC088899989892B09F0BDCB9E
:102BF000C60143970E943B1E80910502982F906169
:102C000090930502EF2819F08261809305020E94DB
:102C1000221081E090E0998B888B88E0898F1B8E51
:102C20004ACC85FF14C080914802909149029827B0
:102C300089279827AC01465B5D4F50930F02409364
:102C40000E02E81AF90AF0920D02E0920C0240918D
:102C50000C0250910D02909105024115510541F071
:102C600024FD06C0926090930502CA010E943B1E9B
:102C700080914402282F30E0322F22278091450294
:102C8000820F932F911D9093FE018093FD012C895B
:102C90003D892817390710F0892B21F43093FE0164
:102CA0002093FD018091FD019091FE019B8B8A8B09
:102CB00080910502837009F458CB20CF84FF0AC0AD
:102CC000109200021092FF0181E090E0998B888BB6
:102CD00084E0A4CF2091FF0130910002211531053D
:102CE000B9F080FF02C0198A188A888999890097EB
:102CF00089F48A899B898217930720F490930002B4
:102D00008093FF018091FF0190910002998B888B45
:102D10001B8EE0CB909300028093FF01F9CF80914E
:102D2000050281FF22CB88E290E090930D02809310
:102D30000C0280E1E9CB8091050280FF16CB198E51
:102D400080E131CEE114F10419F0C7010E943B1E6D
:102D50008091050281709091430290FF15C08823F5
:102D600081F087E0898F1A8E198A188A81E090E0B5
:102D70000E943B1E80E1809305020E94221080E1A8
:102D80009BCB86E0898FF2CF882399F085E0898FED
:102D9000198A188AEACAE114F10419F0C7010E94DD
:102DA0003B1E8091430280FF04C087E0898F1A8E0A
:102DB000DDCFEF2821F7D9CA8091050280FFD5CA5F
:102DC00087E0898F1A8ED1CA82E0809344021092E4
:102DD0004502EACC8F929F92AF92BF92CF92DF9240
:102DE000EF92FF920F931F93CF93DF938091BA03DB
:102DF000882309F420C1D091F301D11151C089E396
:102E00000E943804882309F449C06091BB03709183
:102E1000BC036B0126E0C20ED11CC11438E0D306FE
:102E200028F06B0149EFC41A47E0D40A80E00E9401
:102E3000B10360E08AE30E941A04E82E60E08AE3AE
:102E40000E941A04F82EF092BC03E092BB0360E0EB
:102E50008AE30E941A04182F60E08AE30E941A0491
:102E6000C82F60E08AE30E941A04082F40E46EE154
:102E700080E80E94790307FFEBC0E11458E0F506F3
:102E800008F0E6C0D092BE03C092BD039C2F812FF4
:102E900004979093C0038093BF03DFEFD093F301B7
:102EA000F090F301FF2009F476C081E08093F501F2
:102EB0008F2D0E943A03EC0190930D0280930C0237
:102EC000892B09F4F2C042E650E070E060E08F2DFB
:102ED0000E94C70364E172E00E945A03C09020027E
:102EE000D090210288E0C816D10409F0CCC0F0923D
:102EF000F6012E97D0930D02C0930C0220912E0262
:102F000030912F02E091E802F091E902C9018E2789
:102F10009F274091E0025091E10284239523892B61
:102F200049F540913002509131026091EA0270916E
:102F3000EB02CA0186279727A091E202B091E30233
:102F40008A239B23892BB1F4809132029091330222
:102F5000E817F90709F07FC080913402909135029B
:102F60006817790709F077C06AE172E08EE292E0B3
:102F70000E94710E81E00E94531180910C02909189
:102F80000D02892B21F00E94E60E0E94D606809148
:102F9000F50180FD8AC00E9410036B017C018091C5
:102FA000A4049091A504A091A604B091A7044601A1
:102FB0005701881A990AAA0ABB0AC4ECD3E00CE3A9
:102FC00014E0D0930902C093080282E0B7FE14C057
:102FD000EC8DFD8D309709F4FFC086859785A0891B
:102FE000B189A7019601281B390B4A0B5B0BDA014B
:102FF000C901B7FD0DC083E00E94531180910C02FE
:1030000090910D02892B21F00E94E60E0E94D606B7
:103010006E960C171D07A9F6B7FC0DC03AEFC30E4C
:10302000D11CE11CF11CC092A404D092A504E09232
:10303000A604F092A704DF91CF911F910F91FF900A
:10304000EF90DF90CF90BF90AF909F908F900895BA
:103050000E94FE0323CFE5E4F4E080E0883019F419
:1030600080939D0487CF608171812617370741F4D3
:10307000628173814617570719F480939D0474CFBA
:103080008F5F3B96EBCF28E0C21626E0D20669F4AC
:1030900010920D0210920C02AA9760F480910C021B
:1030A00090910D02892B09F070CF0E94FE031092BF
:1030B000F30171CF8091280290912902811531E0AE
:1030C000930701F18115924049F720913A0230911E
:1030D0003B028091E8029091E90228173907F1F646
:1030E00020913C0230913D028091EA029091EB02E6
:1030F0002817390799F66AE272E080E392E00E94AD
:10310000710ECCCF00913A0210913B028091E802FF
:103110009091E9020817190709F6C0913C02D09175
:103120003D028091EA029091EB02C817D90709F09D
:10313000B5CF6AE272E080E392E00E94710E80E017
:1031400092E0909329028093280286E0EAE2F2E07E
:10315000A4E3B2E001900D928A95E1F786E0EEE9F2
:10316000F4E0AAE2B2E001900D928A95E1F786E0E0
:10317000EEE9F4E0AAE1B2E001900D928A95E1F760
:1031800086E0E4E3F2E0A4E1B2E001900D928A95DA
:10319000E1F7809130029091310290933B0280934D
:1031A0003A02809132029091330290933D028093D3
:1031B0003C021093310200933002D0933302C0934B
:1031C0003202D0922102C09220028AE290E09093D3
:1031D0000D0280930C0262CF8E859F85A889B989E4
:1031E00000CFAF92BF92CF92DF92EF92FF920F93F8
:1031F0001F93CF938C015B017A016A010E94EA164A
:103200000115110509F45AC0F8018181867009F091
:1032100055C03896C1E08191811133C0C150F80189
:10322000EC0FF11D878181110DC080E092E00E94BA
:103230001005F801EC0FF11D87838823F9F2F801DE
:1032400015861486A7014C195D094A0D5B1DF8010E
:10325000648575859601EC0FF11D87810E94E1055B
:10326000C81AD90AF80124853585820F931F9587DE
:1032700084871C141D0454F4C43009F4BFCFCF5FFD
:10328000D4CFCF5FC53039F6C4E0C9CF0E94100358
:10329000665F7F4F8F4F9F4FF80166877787808BE0
:1032A000918BC7018C199D09CF911F910F91FF90B0
:1032B000EF90DF90CF90BF90AF90089590E080E0C6
:1032C000F3CFFC01848595850C94F118CF93DF939F
:1032D0001F92CDB7DEB7698341E050E0BE016F5F5A
:1032E0007F4FFC01848595850E94F1180F90DF9136
:1032F000CF910895CF93DF93EC010E94EA16EC85FD
:10330000FD85309739F0818182FF08C081E092818C
:10331000911101C080E0DF91CF91089581E0FBCF52
:10332000CF93DF93EC018C859D85009769F0FC01BC
:103330002181222349F002960E947C07EC85FD85BD
:10334000818182FF07C011821D861C86DF91CF918B
:103350000C94EA1682608183F7CFCF92DF92EF92CE
:10336000FF920F931F93CF93DF938C01EB016A01C0
:10337000DC01ED91FC910488F589E02D0995EA8046
:10338000FB806C817D815C2D4D2D8091C2039091DD
:10339000C30301968115BDE79B0710F080E090E123
:1033A000382F292FE4ECF3E0DF01C0E0C430D1F482
:1033B0009093C3038093C2031092440480E0D0E052
:1033C000C0E08430F1F480934404209711F590E03C
:1033D00080E0DF91CF911F910F91FF90EF90DF90F0
:1033E000CF9008955996DC915997DD2339F01496C2
:1033F000CD90DC901597C216D30659F2CF5F5E963A
:10340000D5CFAE2F9F2FB18DB1113CC08093440416
:10341000EF0182E0898F809101028C878091020206
:103420008D87809103028E87809104028F8780E0D0
:1034300092E09B8B8A8B9D8B8C8B81E090E0998BAB
:10344000888B1B8E8A8F83E0888F1E8A80E18F8B0A
:103450003D832C835F834E83F982E8827B836A837A
:10346000898D8F7009F4B3CF0E94EA16898D8F7011
:103470008330B1F78C8D9D8DF8019587848781E02D
:1034800090E0A7CFB73031F4209731F0D28CBA8DCD
:10349000BD1510F0AC2F9D2F8F5F7E96CA2FD92FB0
:1034A00090CF4FE050E0BC018CE991E00C940827EC
:1034B000CF92DF92EF92FF920F931F93CF93DF9300
:1034C000EC018B018E8180FF0CC06FE671E088EA11
:1034D00094E00E942A0D6CE671E088EA94E00E9474
:1034E0002A0D9E81969591708E8182FB882780F9A6
:1034F000981709F449C00E941003CF80D884E9844A
:10350000FA849B01AC012C193D094E095F09690140
:103510007A0131EAC3163FE0D306E104F104A0F1D9
:103520006F83788789879A8766E771E088EA94E0F5
:103530000E942A0D6CE671E088EA94E00E942A0D50
:103540009E818E8191FB82F98E838E818E7F8E8308
:103550008E8181FF16C08CE690E00E94511A7C019A
:103560008C819D810E94511AA701BC01C801DF9185
:10357000CF911F910F91FF90EF90DF90CF900C941F
:10358000C80D88E690E0E9CFDF91CF911F910F91B0
:10359000FF90EF90DF90CF9008957F928F929F924F
:1035A000AF92BF92CF92DF92EF92FF920F931F9351
:1035B000CF93DF938C017B016A018090DE029090B3
:1035C000DF02712C540186EEA80EB11CD5018C913E
:1035D000781608F048C0C72DD0E0C259DF4FCC0F95
:1035E000DD1FC80DD91DE881F981848195810E9474
:1035F000511A42E050E0B8010E947327892B89F5E7
:10360000A880B980D501ED91FC91008111813FE640
:10361000832E35E0932ED0E0C0E0F40180819181CB
:103620000E94511AA601BC01C7010E944427892BA0
:10363000E9F4CE01880F991FC80FD91FC159DA4F7D
:103640006A81C501F801DF91CF911F910F91FF9021
:10365000EF90DF90CF90BF90AF909F908F907F9032
:1036600009947394B3CFB12CA12CCCCF2196F3E065
:103670008F0E911CC730D10581F664E0E2CF1F9216
:103680000F920FB60F9211242F933F934F935F9396
:103690006F937F938F939F93AF93BF93EF93FF931A
:1036A00088EA94E00E94AD01FF91EF91BF91AF9144
:1036B0009F918F917F916F915F914F913F912F914A
:1036C0000F900FBE0F901F9018951F920F920FB67C
:1036D0000F9211242F938F939F93EF93FF93E09179
:1036E000B804F091B9048081E091BE04F091BF0468
:1036F00082FD1BC090818091C1048F5F8F732091E8
:10370000C204821741F0E091C104F0E0E855FB4F9C
:10371000958F8093C104FF91EF919F918F912F918D
:103720000F900FBE0F901F9018958081F4CF1F92BD
:103730000F920FB60F9211242F933F938F939F9365
:10374000AF93BF938091790290917A02A0917B020E
:10375000B0917C023091780223E0230F2D3758F589
:103760000196A11DB11D2093780280937902909358
:103770007A02A0937B02B0937C0280917D029091AB
:103780007E02A0917F02B09180020196A11DB11D21
:1037900080937D0290937E02A0937F02B09380027B
:1037A000BF91AF919F918F913F912F910F900FBE3D
:1037B0000F901F90189526E8230F0296A11DB11DAA
:1037C000D2CF1F920F920FB60F9211242F933F93D7
:1037D0004F935F936F937F938F939F93AF93BF9319
:1037E000CF93DF93EF93FF93D9B190918502C0916E
:1037F000B5022091B2028D2F80958223CD238C2B90
:1038000020916D00C92FCD27C223C823D0938502F4
:10381000CC2309F46EC0C0FF0BC010929B018D2F0A
:10382000817080939A01E0918602F0918702099558
:10383000C1FF0CC081E080939B018D2F827080932B
:103840009A01E0918802F09189020995C2FF0CC0AB
:1038500082E080939B018D2F847080939A01E09188
:103860008A02F0918B020995C3FF0CC083E080931C
:103870009B018D2F887080939A01E0918C02F091CA
:103880008D020995C4FF0CC084E080939B018D2FAD
:10389000807180939A01E0918E02F0918F020995D8
:1038A000C5FF0CC085E080939B018D2F80728093B3
:1038B0009A01E0919002F09191020995C6FF0CC027
:1038C00086E080939B018D2F807480939A01E09114
:1038D0009202F09193020995C7FF0BC087E0809395
:1038E0009B01D078D0939A01E0919402F0919502D7
:1038F0000995FF91EF91DF91CF91BF91AF919F918A
:103900008F917F916F915F914F913F912F910F9088
:103910000FBE0F901F9018951F920F920FB60F9227
:1039200011242F933F934F935F936F937F938F93C4
:103930009F93AF93BF93CF93DF93EF93FF93D6B152
:1039400090919602C091B6022091B3028D2F80957E
:103950008223CD238C2B20916C00C92FCD27C2232D
:10396000C823D0939602CC2309F453C0C0FF0CC0E7
:103970008EE080939B018D2F817080939A01E0915E
:103980009702F09198020995C1FF0CC08FE08093D7
:103990009B018D2F827080939A01E0919902F091A2
:1039A0009A020995C2FF0CC080E180939B018D2F84
:1039B000847080939A01E0919B02F0919C0209959A
:1039C000C3FF0CC081E180939B018D2F8870809391
:1039D0009A01E0919D02F0919E020995C4FF0CC0EE
:1039E00082E180939B018D2F807180939A01E091F9
:1039F0009F02F091A0020995C5FF0BC083E180935F
:103A00009B01D072D0939A01E091A102F091A202A1
:103A10000995FF91EF91DF91CF91BF91AF919F9168
:103A20008F917F916F915F914F913F912F910F9067
:103A30000FBE0F901F9018951F920F920FB60F9206
:103A400011242F933F934F935F936F937F938F93A3
:103A50009F93AF93BF93CF93DF93EF93FF93D3B134
:103A60009091A502C091B7022091B4028D2F80954C
:103A70008223CD238C2B20916B00C92FCD27C2230D
:103A8000C823D093A502CC2309F453C0C0FF0CC0B7
:103A900088E080939B018D2F817080939A01E09143
:103AA000A602F091A7020995C1FF0CC089E080939E
:103AB0009B018D2F827080939A01E091A802F09172
:103AC000A9020995C2FF0CC08AE080939B018D2F4B
:103AD000847080939A01E091AA02F091AB0209955B
:103AE000C3FF0CC08BE080939B018D2F8870809367
:103AF0009A01E091AC02F091AD020995C4FF0CC0AF
:103B00008CE080939B018D2F807180939A01E091CE
:103B1000AE02F091AF020995C5FF0BC08DE0809316
:103B20009B01D072D0939A01E091B002F091B10262
:103B30000995FF91EF91DF91CF91BF91AF919F9147
:103B40008F917F916F915F914F913F912F910F9046
:103B50000FBE0F901F9018951F920F920FB60F92E5
:103B600011242F933F934F935F936F937F938F9382
:103B70009F93AF93BF93EF93FF9383E080939B0159
:103B800089B1887080939A01E0918302F091840258
:103B90000995FF91EF91BF91AF919F918F917F9187
:103BA0006F915F914F913F912F910F900FBE0F90AA
:103BB0001F9018951F920F920FB60F9211242F93FA
:103BC0003F934F935F936F937F938F939F93AF93A5
:103BD000BF93EF93FF9382E080939B0189B1847040
:103BE00080939A01E0918102F09182020995FF9100
:103BF000EF91BF91AF919F918F917F916F915F9165
:103C00004F913F912F910F900FBE0F901F901895DD
:103C1000FC013381360F3093FC01A72FBB27928123
:103C20009A0F9093FB0121812093FA0140814093E8
:103C3000F9019A171B0648F481E0820F8093FA017C
:103C4000811103C04F5F4093F9017727361717069C
:103C500088F49F5F9093FB0191110CC08091FA0151
:103C60008F5F8093FA01811105C08091F9018F5F08
:103C70008093F9010895CF93DF93C0910802D0910A
:103C80000902BC01CE0108960E94081EE9EFF1E08E
:103C9000808188878181898782818A8783818B87D8
:103CA000DF91CF910895E8EAF4E01382128288EE62
:103CB00093E0A0E0B0E084839583A683B78388E592
:103CC00091E09183808385EC90E09587848784ECF4
:103CD00090E09787868780EC90E0918B808B81ECD9
:103CE00090E0938B828B82EC90E0958B848B86ECBA
:103CF00090E0978B868B118E128E138E148EE5E4D6
:103D0000F5E08AE691E09183808312821382148227
:103D10001582EBE4F5E09183808312821382148292
:103D20001582E7E5F5E09183808312821382148285
:103D30001582E1E5F5E0918380831282138214827B
:103D40001582EDE5F5E0918380831282138214825F
:103D50001582E3E6F5E09183808312821382148258
:103D60001582E9E6F5E09183808312821382148242
:103D70001582EFE6F5E02DE431E0318320831282F5
:103D80002AE431E03483238321E0258325E431E0F4
:103D90003783268322E020872FE331E03287218793
:103DA00023E023872AE331E03587248724E0268730
:103DB00022E331E0308B278725E0218B2AE231E0B6
:103DC000338B228B26E0248BE4E8F5E0918380831B
:103DD0001282138214821582EAE8F5E091838083CF
:103DE0001282138214821582E0E9F5E091838083C8
:103DF0001282138214821582E6E9F5E091838083B2
:103E000012821382148215820895CF93DF93CDB767
:103E1000DEB7CA58D1400FB6F894DEBF0FBECDBF93
:103E2000789484B5826084BD84B5816084BD85B595
:103E3000826085BD85B5816085BD80916E008160A1
:103E400080936E0010928100809181008260809347
:103E50008100809181008160809381008091800049
:103E60008160809380008091B10084608093B10074
:103E70008091B00081608093B00080917A0084606E
:103E800080937A0080917A00826080937A0080919A
:103E90007A00816080937A0080917A0080688093B4
:103EA0007A001092C100E091B804F091B90482E068
:103EB0008083E091B404F091B5041082E091B604DF
:103EC000F091B7048FEC80831092C004E091BC04A1
:103ED000F091BD0436E0F32EF082E091BA04F09147
:103EE000BB04808180618083E091BA04F091BB04BF
:103EF000808188608083E091BA04F091BB04808166
:103F000080688083E091BA04F091BB0480818F7D4A
:103F100080836FEE70E088EA94E00E94850D8AE667
:103F200091E09A83898330EC3B8328EA2C831D82BD
:103F30004AEA4E8398878F8339872A871B8629E32D
:103F40002C87E7E0F1E0DE011D962F2D01900D9208
:103F50002A95E1F71E8A1D8A48EE53E060E070E082
:103F60004F8B588F698F7A8F2EE131E03C8B2B8BF2
:103F700018A21F8E1CA21BA22CE431E03AA329A395
:103F8000CC54DF4F99838883C45BD040CA54DF4F41
:103F9000188219821A821B82C65BD0408FEF9FEF76
:103FA000C054DF4F99838883C05CD0401EA21DA2FD
:103FB000C254DF4F19821882CE5BD040CE54DF4FFF
:103FC00019821882C25BD040E4E9F1E0DE01AE5311
:103FD000BF4F8F2D01900D928A95E1F7C452DF4FAC
:103FE0001882CC5DD04086E090E00E94E325FC0181
:103FF000128288E083838CEC90E09583848380E454
:1040000091E091838083C352DF4FF983E883CD5DD4
:10401000D04081E0C951DF4F8883C75ED0408BE03C
:1040200090E00E94E3258C0184E0D80112968C93E5
:1040300012971396FC9213978EEB90E015969C9333
:104040008E93149716968C9116978E7F16968C9356
:10405000169716968C9116978D7F16968C931697B9
:1040600016968C9116978B7F16968C93F801178273
:1040700010861186128686E491E0918380831093E6
:10408000C5020093C40262E086E00E9488026EE7E7
:1040900071E088EA94E00E942A0D2AE046E050E0B0
:1040A00060E070E088EA94E00E94390D6CE671E00F
:1040B00088EA94E00E942A0DE8E0F1E08491ECE1C6
:1040C000F1E09491923009F08BC12091B702282B36
:1040D0002093B7022091B402282B2093B402E0EB86
:1040E000F0E0A491923009F089C1B0E0AA0FBB1FA3
:1040F000AA55BD4F2AE331E02D933C93E4EAF0E06A
:10410000A591B4919C919093A5022BE630E0309359
:10411000A4022093A302909168009160909368009C
:10412000A091A302B091A402EC918E2B8C93C85362
:10413000DF4F19830883C85CD040C452DF4F8881A9
:10414000CC5DD0408F5FC452DF4F8883CC5DD040C0
:104150008091DE029091DF02892B31F4CE0101962D
:104160009093DF028093DE02C651DF4F19821882DE
:10417000CA5ED0408CE491E0C851DF4F99838883B8
:10418000C85ED0408AE691E0C558DE4F99838883A7
:10419000CB57D140C358DE4F188219821A821B8236
:1041A000CD57D1408FEF9FEFC957DE4F998388835A
:1041B000C758D140CE014396C451DF4F99838883BD
:1041C000CC5ED040CB57DE4F19821882C558D14003
:1041D0001CA21BA29EA38DA3A8EEB0E0AC0FBD1F36
:1041E0001696FE01B7968C569F4F2D912193E81796
:1041F000F907D9F77E0122E9E21A2EEFF20AD70178
:104200008D919C91918380831E01B9EA2B0E311C04
:104210008E0100591E4FF80180819181A281B381E6
:10422000F10180839183A283B3836E01FDEACF0EF7
:10423000D11CCC58DE4F88819981AA81BB81C4579B
:10424000D140F60180839183A283B383C858DE4FA7
:104250008881C857D140CF54DF4F8883C15BD0409D
:10426000C758DE4F88819981C957D140CE54DF4F5E
:1042700099838883C25BD040C358DE4F888199817F
:10428000AA81BB81CD57D140CA54DF4F888399831F
:10429000AA83BB83C65BD040CF57DE4F888199810C
:1042A000C158D140C654DF4F99838883CA5BD04040
:1042B000CD57DE4F88819981C358D140C454DF4F18
:1042C00099838883CC5BD040C254DF4F1982188217
:1042D000CE5BD0408FEF9FEFC054DF4F9983888330
:1042E000C05CD0408AE691E0C851DF4F9983888353
:1042F000C85ED04089859A85AB85BC85C651DF4FA5
:1043000088839983AA83BB83CA5ED040BE0168516B
:104310007F4FCE0181960E94F6008DEC9AE1CE543B
:10432000DF4F99838883C25BD0408091BA038111AB
:104330009EC06BEE70E088EA94E00E94850D0AE66C
:1043400011E0C851DF4F19830883C85ED0408B81CC
:104350009C81AD81BE81C651DF4F88839983AA833A
:10436000BB83CA5ED040BE0168517F4FCE010D961F
:104370000E942F0B3091E8022091E9029091EA020D
:104380008091EB02C851DF4F19830883C85ED0408B
:10439000C651DF4F3883CA5ED040C551DF4F2883F6
:1043A000CB5ED040C451DF4F9883CC5ED040C35128
:1043B000DF4F8883CD5ED04068EA74E0CE0188513B
:1043C0009F4F0E94250E6CE671E088EA94E00E94FF
:1043D0002A0D6CED75E080E090E00E94DE02A5CF32
:1043E000933009F0E2C32091B602282B2093B60245
:1043F0002091B302282B2093B30271CE9330D1F4D5
:10440000B0E0AA0FBB1FA956BD4F2AE331E02D93A0
:104410003C93E6EAF0E0A591B4919C9190939602CA
:104420002CE630E03093A4022093A3029091680020
:10443000926074CE943009F073CEB0E0AA0FBB1F27
:10444000AA57BD4F2AE331E02D933C93E8EAF0E010
:10445000A591B4919C91909385022DE630E0309324
:10446000A4022093A30290916800946057CE0E940A
:10447000410492FF5ECF0E944104CE0181960E94CA
:10448000040981117FC166EE70E088EA94E00E9421
:10449000850DCE0181960E9404097EEFA72EBB24D4
:1044A000BA948E010E531F4FECEFEE2EFF24FA94B8
:1044B000CE0181960E9404098111F0C0CE0181963F
:1044C0000E9404098111D4C0C654DF4F68817981EC
:1044D000CA5BD0408DA19EA1DC01ED91FC91C4543A
:1044E000DF4F48815981CC5BD04061157105F1F1F6
:1044F0000088F189E02D09958130910509F0C7C048
:10450000C955DF4F99838883C75AD04087E0EDE0D3
:10451000F1E0DE01A851BF4F01900D928A95E1F7BD
:10452000FE01E851FF4FDE019C96CF0107962191D5
:104530002D938E179F07D9F782E08BAB1CAA8FE0D3
:104540008DABF80101900020E9F7CF01801B910BA2
:1045500040968138910548F18DA19EA1DC01ED9135
:10456000FC910488F589E02D099582C00684F785C1
:10457000E02D2AE631E0C851DF4F39832883C85E39
:10458000D040CA54DF4F488059806A807B80C65B28
:10459000D040C651DF4F488259826A827B82CA5E10
:1045A000D040BE0168517F4FA6CF4FE050E0BE0122
:1045B000695D7F4FC8010E94D4009C0125503109DC
:1045C000AE01495D5F4F60E1CE0181960E943A09DC
:1045D0000E941003F1016083718382839383C3552A
:1045E000DF4F688379838A839B83CD5AD0408DA126
:1045F0009EA1DC01ED91FC910084F185E02D0995EF
:10460000892BB9F40E941003F6014080518062802A
:104610007380641975098609970968397A43810599
:10462000910528F3C054DF4FF982E882C05CD04086
:1046300093CFBE0167577E4FCE0181960E941B0A21
:10464000049709F089CF8AA5811119C00E9410032F
:10465000F6016083718382839383CF54DF4F188286
:10466000C15BD040C054DF4F19821882C05CD0407B
:1046700060ED77E080E090E00E94DE0219CF90E0EC
:10468000C054DF4F99838883C05CD04065CFC0544D
:10469000DF4FB982A882C05CD040EACF6BED70E0FA
:1046A00088EA94E00E94850DB12CEE24E394F12C6D
:1046B000C951DF4F8881C75ED040B81608F035CEAB
:1046C000EB2DF0E0E259FF4FEE0FFF1F21E030E04D
:1046D0002C0F3D1FE20FF31F0190F081E02D84812C
:1046E00095810E94511A8C01DC010D900020E9F7A0
:1046F000CD01801B910B089681389105D0F5CE0134
:1047000081960E9404098823A1F1C955DF4F888151
:104710009981C75AD040019671F1C955DF4F9983ED
:104720008883C75AD040C955DF4F8881C75AD040C7
:10473000C855DF4F9881C85AD0409CA78DA747E045
:1047400050E0BE01695D7F4FC8010E94D400E7E2DE
:10475000F0E0EC0FFD1FE80FF91F10829C012450C0
:104760003109AE01495D5F4F62E8CE0181960E943A
:104770003A09B3949DCFC955DF4FF982E882C75AF1
:10478000D040D1CF10E0C452DF4F8881CC5DD04003
:10479000181708F0C1C0E12FF0E0EE0FFF1FEC0F7B
:1047A000FD1FE853FF4F80819181DC01ED91FC9169
:1047B000208131814BA15CA1C651DF4F59834883D1
:1047C000CA5ED0404CE451E0C851DF4F5983488362
:1047D000C85ED0404DA15EA1C451DF4F59834883CC
:1047E000CC5ED04040E8FE01B796A8EEB0E0AC0F3A
:1047F000BD1F169601900D924A95E1F7C955DF4FFE
:1048000048815981C75AD040C259DE4F59834883E5
:10481000CE56D140F1014081518162817381C059EE
:10482000DE4F488359836A837B83C057D140C35589
:10483000DF4F488159816A817B81CD5AD040CC5865
:10484000DE4F488359836A837B83C457D140CF545A
:10485000DF4F4881C15BD040C858DE4F4883C857FE
:10486000D140CE54DF4F48815981C25BD040C758F8
:10487000DE4F59834883C957D1404AE651E0C558B5
:10488000DE4F59834883CB57D140CA54DF4F48810C
:1048900059816A817B81C65BD040C358DE4F488313
:1048A00059836A837B83CD57D140C654DF4F4881FB
:1048B0005981CA5BD040CF57DE4F59834883C158D6
:1048C000D140C454DF4F48815981CC5BD040CD5793
:1048D000DE4F59834883C358D140C254DF4F4881CB
:1048E0005981CE5BD040CB57DE4F59834883C558A2
:1048F000D140C054DF4F48815981C05CD040C95776
:10490000DE4F59834883C758D140BE0168517F4F5D
:10491000F90109951F5F37CFCE0181960E940409E6
:10492000882309F443C00E9410032B013C01C355A6
:10493000DF4F88819981AA81BB81CD5AD040A301E4
:104940009201281B390B4A0B5B0BDA01C90189392B
:104950009A43A105B10590F4F10180819181A28172
:10496000B381A3019201281B390B4A0B5B0BDA01BF
:10497000C90189399A43A105B105D8F18DA19EA13C
:10498000CF54DF4F2881C15BD040222391F02CEF20
:104990003FEFC054DF4F39832883C05CD040DC0137
:1049A000ED91FC910488F589E02D09950E94EA16A5
:1049B000BCCC20EC2FA318A6DC01ED91FC91028069
:1049C000F381E02D42E050E0BE01695D7F4F099523
:1049D000F1014082518262827382D6014D925D92D2
:1049E0006D927C92139781E0CF54DF4F8883C15B37
:1049F000D0408DA19EA1DC01ED91FC910084F18558
:104A0000E02D0995892B91F2BE0168517F4FCE01AF
:104A100081960E941B0A8C01892B09F4C1C0F60102
:104A200040825182628273828FA1807F803309F03D
:104A30009AC0CE54DF4F88819981C25BD040892BC8
:104A400009F4B4CFC851DF4FE880C85ED040F12CE4
:104A5000FE01EE0DFF1DA0A4B12CBA2CAA24E9E2A0
:104A6000F0E0EC0FFD1FEE0DFF1D8081A80EB11CC4
:104A70004701F2E08F0E911C27E230E02C0F3D1F22
:104A8000820E931EB7016D5F7F4F620F731FA501EA
:104A9000C4010E945A27B5016E0D7F1DE9E2F0E0C6
:104AA000EC0FFD1FE60FF71F10820E191F098FA1D3
:104AB0008670C657DE4F8883CA58D140CE54DF4F28
:104AC000E881F981C25BD0408230E9F5DE01A60FB2
:104AD000B71F9A968C9190E0982F8827DE01A60F39
:104AE000B71F9B96EC90E80EF92EF11C0A191B09D2
:104AF000A801455051096B5F7F4F87E290E08C0F12
:104B00009D1F680F791FC401099580E48FA3C657C4
:104B1000DE4F9881CA58D14098A7F9A6EAA68DA180
:104B20009EA1DC01ED91FC910280F381E02D44E037
:104B300050E0BE01695D7F4F0995F10140825182CD
:104B40006282738233CF0A191B09A80143505109AD
:104B50006D5F7F4F27E230E02C0F3D1F620F731F08
:104B6000C401099523CF803C91F480ED8FA318A652
:104B70008DA19EA1DC01ED91FC910280F381E02DDD
:104B800042E050E0BE01695D7F4F09950FCF803D47
:104B900009F00CCFCF54DF4F1882C15BD04006CF55
:104BA000CE0181960E94040901CF943009F097CA82
:104BB0002091B502282B2093B5022091B202282B18
:104BC0002093B2028CCA0F931F93CF93DF9382304E
:104BD000910510F482E090E0E0919E05F0919F0530
:104BE00030E020E0B0E0A0E0309799F421153105E5
:104BF00009F44AC0281B390B24303105D8F58A81C5
:104C00009B816115710589F1FB0193838283FE010C
:104C100011C0408151810281138148175907E0F08A
:104C20004817590799F4109761F012960C93129750
:104C300013961C933296CF01DF91CF911F910F9164
:104C4000089500939E0510939F05F4CF211531051B
:104C500051F04217530738F0A901DB019A01BD0159
:104C6000DF01F801C1CFEF01F9CF90939F05809349
:104C70009E05CDCFFE01E20FF31F81939193225049
:104C8000310939832883D7CF20919C0530919D0528
:104C9000232B41F4209103013091040130939D05B1
:104CA00020939C05209101013091020121153105CD
:104CB00041F42DB73EB74091050150910601241BE8
:104CC000350BE0919C05F0919D05E217F307A0F4E8
:104CD0002E1B3F0B2817390778F0AC014E5F5F4F52
:104CE0002417350748F04E0F5F1F50939D054093E2
:104CF0009C05819391939FCFF0E0E0E09CCFCF9310
:104D0000DF930097E9F0FC01329713821282A091A1
:104D10009E05B0919F05ED0130E020E01097A1F4D1
:104D200020813181820F931F20919C0530919D0538
:104D30002817390709F061C0F0939D05E0939C05A1
:104D4000DF91CF910895EA01CE17DF07E8F54A8198
:104D50005B819E0141155105B1F7E901FB83EA83AF
:104D600049915991C40FD51FEC17FD0761F480815B
:104D700091810296840F951FE9019983888382812E
:104D800093819B838A83F0E0E0E012968D919C9161
:104D900013970097B9F52D913C911197CD0102968B
:104DA000820F931F20919C0530919D05281739078C
:104DB00039F6309751F510929F0510929E05B093E9
:104DC0009D05A0939C05BCCFD383C28340815181B4
:104DD000840F951FC817D90761F44E5F5F4F888114
:104DE0009981480F591F518340838A819B81938306
:104DF00082832115310509F0B0CFF0939F05E09330
:104E00009E059ECFFD01DC01C0CF13821282D7CF59
:104E1000FB01DC014150504048F005900D9200200C
:104E2000C9F701C01D9241505040E0F70895A1E23A
:104E30001A2EAA1BBB1BFD010DC0AA1FBB1FEE1F14
:104E4000FF1FA217B307E407F50720F0A21BB30B5F
:104E5000E40BF50B661F771F881F991F1A9469F7DB
:104E600060957095809590959B01AC01BD01CF0137
:104E70000895EE0FFF1F0590F491E02D099481E055
:104E800090E0F8940C948127FB01DC0104C08D9123
:104E90000190801921F441505040C8F7881B990BAC
:104EA0000895FB01DC0102C001900D924150504079
:104EB000D8F708956817790768F4FB01DC01E40F5F
:104EC000F51FA40FB51F02C002900E924150504032
:104ED000D8F708950C945127DC0101C06D9341501F
:104EE0005040E0F70895FB01DC014150504030F0A4
:104EF0008D910190801919F40020B9F7881B990B46
:064F00000895F894FFCFB4
:104F0600FF0000A005800000010203040500044D17
:104F160051545404FFFFFFFFFFFF00000000661915
:104F260061192C0BA607A708E907BB07AD19F708F7
:104F360006089019E7087A19D508FA080000000053
:104F4600AA0D00000000581A00000000C509A209B9
:104F56002C0B2B0B00000000CF010D015C011C0285
:104F66008D016B017F0100000000250E0D0A004334
:104F760068616E67650073656E64696E670041649B
:104F860064656420636F6E7461637420746F20704F
:0A4F9600696E20004D5154543100A3
:00000001FF
