:100000000C945D000C9485000C9485000C94850084
:100010000C94651A0C94CB190C9485000C948500F3
:100020000C9485000C9485000C9485000C9485003C
:100030000C9485000C9485000C9485000C9485002C
:100040000C9481190C9485000C944F190C94291967
:100050000C9485000C9485000C9485000C9485000C
:100060000C9485000C94850000000008000201003B
:100070000003040700000000000000000000000072
:10008000250028002B0000000000240027002A0083
:10009000040404040404040402020202020203032E
:1000A0000303030301020408102040800102040836
:1000B0001020010204081020331B11241FBECFEFB3
:1000C000D8E0DEBFCDBF11E0A0E0B1E0EAE3F5E4A7
:1000D00002C005900D92AC3CB107D9F725E0ACEC1D
:1000E000B1E001C01D92AC36B207E1F710E0CDE5FA
:1000F000D0E004C02197FE010E942821CC35D10711
:10010000C9F70E94E51B0C949B220C94000090E020
:10011000FC01EC55FF4F249180579F4FFC018491C7
:10012000882399F090E0880F991FFC01EA57FF4F50
:10013000A591B491FC01E458FF4F859194918FB73C
:10014000F894EC91E22BEC938FBF0895FC01ED56EF
:10015000FF4FDB0112964D915D916D917C9115974A
:10016000428353836483758338962BE537E031836C
:1001700020833297118210820895AF92BF92CF925E
:10018000DF92EF92FF920F931F93CF93DF936C0157
:100190007B018B01040F151FEB015E01AE18BF0838
:1001A000C017D10759F06991D601ED91FC910190EA
:1001B000F081E02DC6010995892B79F7C501DF9102
:1001C000CF911F910F91FF90EF90DF90CF90BF9054
:1001D000AF900895FC01538D448D252F30E0842F7E
:1001E00090E0821B930B541710F0CF96089501975F
:1001F0000895FC01918D828D981761F0A28DAE0F4C
:10020000BF2FB11D5D968C91928D9F5F9F73928FD2
:1002100090E008958FEF9FEF0895FC01918D828DFE
:10022000981731F0828DE80FF11D858D90E00895CB
:100230008FEF9FEF0895FC01918D228D892F90E023
:10024000805C9F4F821B91098F739927089584E7E3
:1002500094E00E941B0121E0892B09F420E0822F09
:10026000089580E090E0892B29F00E9427018111F8
:100270000C9400000895FC01A48DA80FB92FB11DA6
:10028000A35ABF4F2C91848D90E001968F739927CC
:10029000848FA689B7892C93A089B1898C918370AA
:1002A00080648C93938D848D981306C00288F389A3
:1002B000E02D80818F7D80830895EF92FF920F93D0
:1002C0001F93CF93DF93EC0181E0888F9B8D8C8D02
:1002D00098131AC0E889F989808185FF15C09FB7F6
:1002E000F894EE89FF896083E889F98980818370B9
:1002F000806480839FBF81E090E0DF91CF911F9168
:100300000F91FF90EF900895F62E0B8D10E00F5F88
:100310001F4F0F731127E02E8C8D8E110CC00FB65E
:1003200007FCFACFE889F989808185FFF5CFCE01F6
:100330000E943B01F1CFEB8DEC0FFD2FF11DE35A35
:10034000FF4FF0829FB7F8940B8FEA89FB89808179
:100350008062CFCFCF93DF93EC01888D8823B9F0F3
:10036000AA89BB89E889F9898C9185FD03C08081C0
:1003700086FD0DC00FB607FCF7CF8C9185FFF2CF3D
:10038000808185FFEDCFCE010E943B01E9CFDF9157
:10039000CF91089590E0FC01E859FF4F2491FC01B2
:1003A000EC55FF4F3491FC01E057FF4FE491EE23F1
:1003B000C9F0222339F0233001F1A8F4213019F1DA
:1003C000223029F1F0E0EE0FFF1FE458FF4FA59116
:1003D000B4918FB7F894EC91611126C030953E230B
:1003E0003C938FBF08952730A9F02830C9F02430FE
:1003F00049F7809180008F7D03C0809180008F77C6
:1004000080938000DFCF84B58F7784BDDBCF84B548
:100410008F7DFBCF8091B0008F778093B000D2CFDB
:100420008091B0008F7DF9CF3E2BDACF3FB7F894A3
:100430008091A6029091A702A091A802B091A90272
:1004400026B5A89B05C02F3F19F00196A11DB11D2F
:100450003FBFBA2FA92F982F8827BC01CD01620F6B
:10046000711D811D911D42E0660F771F881F991F26
:100470004A95D1F708958F929F92AF92BF92CF92F3
:10048000DF92EF92FF924B015C010E9416026B011A
:100490007C010E9416026C197D098E099F09683E35
:1004A000734081059105A8F321E0821A9108A10803
:1004B000B10888EEC80E83E0D81EE11CF11C81143F
:1004C0009104A104B10429F7FF90EF90DF90CF9041
:1004D000BF90AF909F908F9008952FB7F894609140
:1004E000A2027091A3028091A4029091A5022FBF55
:1004F0000895A8EBB2E025E014969C911497981308
:100500000DC095E0899FF0011124E854FD4F8481CE
:1005100014968C931382128214820895992331F0D9
:10052000929FD0011124A854BD4FE6CF089588238F
:10053000A1F090918603992381F08F3F29F4809157
:100540008B0390918C03089595E0899FF00111240D
:10055000E854FD4F82819381089590E080E00895F2
:100560008EBD00000DB407FEFDCF8EB508950F932C
:100570001F93CF93DF938C01EB0160E08AE00E9430
:10058000CA018AE30E94B0020C0F1D1F0C171D0741
:1005900029F080E00E94B0028993F8CF61E08AE000
:1005A000DF91CF911F910F910C94CA011F93CF93AC
:1005B000DF93182FC62FD42F60E08AE00E94CA0173
:1005C0008C2F8F71812B0E94B0028D2F0E94B00260
:1005D00061E08AE0DF91CF911F910C94CA01CF9323
:1005E000DF93D82FD076909100019D17A1F0C82FEE
:1005F00043E06FE180EA0E94D6024C2F50E085E094
:10060000559547958A95E1F743706FE180E80E9420
:10061000D602D0930001DF91CF9108951F93CF931D
:10062000DF93C82F162FD72F0E94EF02412F6C2F78
:1006300080E40E94D60261E06C0F4D2F80E4DF91D0
:10064000CF911F910C94D602EF92FF920F931F93BC
:10065000CF93DF938B017A018F3F59F095E0899F0B
:10066000E0011124C854DD4F68817981600F711F4A
:1006700010C06091890370918A03600F711FC9E8EF
:10068000D3E0611588E0780778F36F5F7740C9E8B9
:10069000D3E080E00E940E038A819B81801B910B36
:1006A000E816F90608F4C701DF91CF911F910F9169
:1006B000FF90EF9008956091870370918803611512
:1006C000710529F0615071098CE00C940E036FEFF5
:1006D00077E0FACFCF93DF93C82FD62F0E94EF0297
:1006E0004D2F6C2F80E4DF91CF910C94D602CF93E5
:1006F000DF93D82FC62F60E08AE00E94CA018C2FBA
:100700008F718D2B0E94B002C7FF03C080E00E9452
:10071000B00280E00E94B002C82F61E08AE00E942F
:10072000CA018C2FDF91CF910895CF93C82F0E94DB
:10073000EF026C2F80E0CF910C947703CF93DF937F
:1007400061E184ED0E946A0361E082ED0E946A0328
:10075000CFE0D0E08AEE0E94950380FF0BC06AE0F4
:1007600070E080E090E00E943B02219799F790E0D2
:1007700080E00DC060E082ED0E946A0388ED0E9477
:100780009503C82F89ED0E949503982F8C2FDF9138
:10079000CF910895CF93DF93EB01682F84ED0E94F2
:1007A0006A03BE0186ED0E940E03CFE0D0E08AEE20
:1007B0000E94950380FF08C06AE070E080E090E04E
:1007C0000E943B02219799F7DF91CF910895CF9333
:1007D000C62FBC0182E00E940E0360E08AE00E9406
:1007E000CA018AE70E94B0028C2F0E94B00261E029
:1007F0008AE0CF910C94CA01CF93BC0180E00E94A3
:100800000E0360E08AE00E94CA018AE30E94B002FF
:1008100080E00E94B002C82F61E08AE00E94CA0115
:100820008C2FCF910895CF92DF92EF92FF920F938A
:100830001F93CF93DF936C018B014130510579F405
:10084000CB010E94FC03682FC601DF91CF911F915D
:100850000F91FF90EF90DF90CF900C94E703EA01A7
:10086000C60FD71F7E0181E0E81AF10880E10E94DF
:100870000E03B60184E10E940E030115184048F4EE
:10088000E11488E0F80628F07E0181E0E81A88E0AB
:10089000F80AB70182E10E940E0340E16FE180EAAD
:1008A0000E94D60240E26FE180E80E94D6026FE12A
:1008B00080E00E94770385FF07C061E070E080E080
:1008C00090E00E943B02F3CFDF91CF911F910F91F7
:1008D000FF90EF90DF90CF900895CF92DF92EF924C
:1008E000FF920F931F93CF93DF938C016091B80217
:1008F0007091B9026150784EC12C98E1D92EE8EB85
:10090000F2E020E0D0E0C0E045E03481CB013323C9
:1009100041F0439FC001112488549D4FDC018D910B
:100920009C91E080F1808E199F090280F381E02D77
:100930008E1B9F0B8017910799F4B5E02B9FE00168
:100940001124C854DD4FEDEBF2E081E022813381C8
:10095000232B09F453C035968F5F8932B9F744C011
:100960000817190748F48C159D0530F4249FE00101
:100970001124C854DD4F6C01311121C0209719F7A3
:10098000C8EBD2E085E0D82E8C8128813981EA80BD
:10099000FB808823D9F0E20EF31E8D9DE001112427
:1009A000C854DD4F68817981E616F70669F34A81FC
:1009B0005B81C7010E941304F982E882E5CF349F6E
:1009C000F0011124E854FD4F232F9FCF8091B802EE
:1009D0009091B902821B930B8E199F098150984EFA
:1009E0008017910708F0AFCF80E0DF91CF911F9182
:1009F0000F91FF90EF90DF90CF900895288139817B
:100A00004A815B81240F351F318320831383028346
:100A10009C8194838C83E9CF0F931F93DB01E42F98
:100A2000A80190E0EF3FE9F065E0E69FF0011124B6
:100A3000E854FD4F60817181620F731F02C06F5FC8
:100A4000774025E0289FF001299FF00D1124E854FC
:100A5000FD4F808191818A0F9B1F1F910F910C94F4
:100A600013046091890370918A03620F731F6115EB
:100A7000E8E07E0720F7E9E8F3E0DCCFCF92DF92F1
:100A8000EF92FF920F931F93CF93DF936B018A0135
:100A9000790195E0899FE0011124C854DD4F6881F8
:100AA00079816C0D7D1D82E00E940E030A80DB813E
:100AB000C02DCC19DD09EC16FD0608F4E70160E055
:100AC0008AE00E94CA018AE70E94B0027801EC0E17
:100AD000FD1EE016F10631F0F80181918F010E94B0
:100AE000B002F7CF61E08AE00E94CA01CE01DF9137
:100AF000CF911F910F91FF90EF90DF90CF900895CD
:100B0000FB0141505109460F571FE417F50778F4D0
:100B1000208130E0322F22276181260F311D820F84
:100B2000931F8217930708F401963296EECFE417CD
:100B3000F50751F4208130E0322F2227820F931FD6
:100B40008217930708F401960895CF92DF92EF92EF
:100B5000FF920F931F93CF93DF9380914D0290E00C
:100B6000982F882720914E02820F911D7C0124E14D
:100B7000E21AF10848E050E067E572E00E970E9443
:100B8000800500916B02069506950C7310E0A80194
:100B90006FE572E00E948005EC010E151F0508F05C
:100BA00042C0A701401B510BB8016E5D7F4F809181
:100BB0001F020E94240301977C0160E08AE00E94EA
:100BC000CA018AE30E94B002D12CC12CCE14DF04EA
:100BD000B8F480E00E94B002082F10E0102F002728
:100BE00080E00E94B002800F912F911DC80FD91F85
:100BF000C817D90708F4219682E0C80ED11CE6CFA9
:100C0000EC14FD0461F480E00E94B00290E0982FA3
:100C10008827C80FD91FC817D90708F4219661E0A3
:100C20008AE00E94CA019C2F8D2FCD2B11F48FEFEB
:100C30009FEFDF91CF911F910F91FF90EF90DF9089
:100C4000CF90089544E150E06BE472E090E080E0E2
:100C50000E948005009721F09827892798270895FA
:100C60008FEF9FEF0895CF92DF92EF92FF920F9355
:100C70001F93CF93DF93C0911E02C1FF5EC02091EE
:100C80001D0230E04DE352E070E060E080911F0211
:100C90000E943E05CD7FC0931E02F0901F028091FE
:100CA0008603882309F474C085E0F89EF0011124BE
:100CB000E854FD4FC081D1812197028113810C0F2F
:100CC0001D1FCE010E94FC03E82E882321F060E066
:100CD000CE010E94E703BE0184E00E940E03B8012A
:100CE00086E00E940E038AE0C82ED12C40E86FE116
:100CF00080E80E94D60240E86FE180EA0E94D602B6
:100D00004AE06CE180EA0E94D60248E06FE180E8A8
:100D10000E94D60204E610E08CE10E9495038A70DE
:100D200029F50115110521F1015011096AE070E062
:100D300080E090E00E943B02EFCFC0913502D0915D
:100D40003602209721F410921F0280E029C0CE01C4
:100D50000E946D0480931F028823B9F39E014DE326
:100D600052E070E060E00E943E0597CF012B51F405
:100D700048E06FE180EA0E94D60281E0C81AD108FB
:100D800009F0B4CFEE2021F06E2DCE010E94E703D2
:100D9000FF2019F08F2D0E94790210921F0281E02E
:100DA000DF91CF911F910F91FF90EF90DF90CF9047
:100DB00008950F931F93CF93DF93EC018C010B5F8A
:100DC0001F4F899181110E947902FE013197108293
:100DD000C017D107B1F7DF91CF911F910F910895FF
:100DE000CF93DF93EC01888181110E947902FE018B
:100DF000CE01049621812193E817F907D9F71C82C7
:100E0000DF91CF910895CF93DF93EC01E881F981D1
:100E1000008CF18DE02D0995882339F08C859D8516
:100E20000296DF91CF910C94D906DF91CF9108956E
:100E30000F931F93CF93DF931F92CDB7DEB78C0133
:100E4000DC01ED91FC91008CF18DE02D099588235A
:100E5000D1F0D8011C96ED91FC918281882399F004
:100E600041E050E070E060E00E942403BE016F5F4B
:100E70007F4F0E94B702898190E00F90DF91CF9160
:100E80001F910F9108958FEF9FEFF7CFCF93DF93CF
:100E90001F92CDB7DEB7DC01ED91FC910288F3899A
:100EA000E02D41E050E0BE016F5F7F4F09951816BD
:100EB000190634F4898190E00F90DF91CF91089565
:100EC0008FEF9FEFF9CF6F927F928F929F92AF92A9
:100ED000BF92CF92DF92EF92FF920F931F93CF9327
:100EE000DF938C014B01EA01DC01ED91FC91008C58
:100EF000F18DE02D0995882309F480C0D8011C9656
:100F0000ED91FC918281882309F47BC07E018EE102
:100F1000682E5E01AE18BF08A80CB91CD8011C963B
:100F2000ED91FC91A70170E060E082810E942403B2
:100F30006C01B5010E94B702F801A484B584D50103
:100F400012967C90872D0E9497028C159D05E9F5DD
:100F5000E81AF90AC50102960E94F006F801A48574
:100F6000B585EC916E9EF0011124E057FC4F818D08
:100F700084FF09C011968C911197982F967019F4DF
:100F8000886011968C93D8011C96ED91FC911D9769
:100F9000828181112EC0818182FF05C011821D9640
:100FA0001C921E921C97CE018E199F09DF91CF9142
:100FB0001F910F91FF90EF90DF90CF90BF90AF9077
:100FC0009F908F907F906F900895B5E07B9EF00189
:100FD0001124E854FD4F808191818C0D9D1D9183DA
:100FE0008083828193818C199D0993838283CE01B2
:100FF000DDCFE114F10409F08CCFF9CF8FEF9FEF33
:10100000D5CF90E080E0D2CFEF92FF920F931F9365
:10101000CF93DF93EC01E881F981008CF18DE02D15
:1010200009958823E1F00C851D85780182E0E80EA2
:10103000F11C095F1F4FD0E0C0E0F70181917F01F3
:101040000E949702C80FD91FE016F106B1F7CE0132
:10105000DF91CF911F910F91FF90EF900895D0E015
:10106000C0E0F5CFFC01448555854115510551F08F
:10107000FB01248535852115310521F081E04217DA
:10108000530709F080E00895DC011C96ED91FC9176
:10109000309731F08281811105C08181817008957E
:1010A00080E0089581E0089590E080E00895DC01FB
:1010B000ED91FC91028CF38DE02D099591E089274B
:1010C0000895CF93DF93FC01A481B581109721F49B
:1010D00080E0DF91CF910895EC01ED91FC911197A3
:1010E0000688F789E02DCD01099581111EC0FE010A
:1010F000E156FF4F80819181892B51F78DEF9FEF52
:10110000918380838C819D81DC01ED91FC9106802F
:10111000F781E02D09958C819D81DC01ED91FC9199
:101120000488F589E02D0995D3CF81E0D2CFEF92E5
:10113000FF920F931F93CF93DF93EC018B017A0102
:101140000E946D02FE01E857FF4F60837183828326
:1011500093838C819D81DC01ED91FC910280F38170
:10116000E02DA701B801DF91CF911F910F91FF9062
:10117000EF9009941F93CF93DF93EC01162F0E94F9
:101180006D02FE01E857FF4F608371838283938372
:101190008C819D81DC01ED91FC910190F081E02D2D
:1011A000612FDF91CF911F910994CF92DF92EF923F
:1011B000FF920F931F93CF93DF93EC018B010E945B
:1011C0006D026B017C018C819D81DC01ED91FC91B4
:1011D0000084F185E02D0995892B69F40E946D0248
:1011E0006C197D098E099F0968397A43810591053B
:1011F00050F380E00CC08C819D81DC01ED91FC916D
:101200000284F385E02D0995F801808381E0DF9168
:10121000CF911F910F91FF90EF90DF90CF900895A5
:101220002F923F924F925F926F927F928F929F92F6
:10123000AF92BF92CF92DF92EF92FF920F931F93E4
:10124000CF93DF9300D0CDB7DEB78C014B016C019B
:1012500026E0C20ED11CB6010E94D508811118C02B
:10126000F12CE12CC7010F900F90DF91CF911F91CE
:101270000F91FF90EF90DF90CF90BF90AF909F9035
:101280008F907F906F905F904F903F902F90089538
:10129000D8011696BC91BA8319821801E7E02E0E88
:1012A000311CEE24E394F12CB12CA12C412C512CB7
:1012B00032014394BE016F5F7F4FC8010E94D50881
:1012C000882371F2B7016F5F7F4F8981F1018193AC
:1012D0001F01282F2F7730E0249DA001259D500D60
:1012E000349D500D1124A40EB51E27E0440C551C4E
:1012F000661C771C2A95D1F787FD35C0FA81F07FEF
:10130000FA838FEF860FD4018C93F03309F043C03A
:101310006C0D7D1DC8010E94D508882309F4A0CF5B
:10132000B7016E5F7F4F6C0D7D1DC8010E94D5080F
:10133000882309F495CFB7016D5F7F4FD401EC91FD
:10134000E00FF12FF11DC780D12CDC2CCC2480853F
:10135000C80ED11CF801868181FF03C0F2E0CF0ED8
:10136000D11C82E01BC07B016530710509F0A2CF62
:10137000F801E156FF4F8FEF9FEF91838083D801F3
:1013800014968D919C91DC01ED91FC910488F58976
:10139000E02D099565CF80E0D12CC12C482E512C31
:1013A0007B01461A570A18012DE9220E311C8EEFD7
:1013B000682E77247A94C2018E0D9F1D8A159B0595
:1013C00088F5BE016F5F7F4FC8010E94D508882352
:1013D00009F446CFD1018D919C910097B1F0BA816B
:1013E000B03399F4F4012081A301421B51099A0101
:1013F0002E0D3F1DC216D30640F4DC01ED91FC9189
:101400000190F081E02D69810995B0E8EB16F104B7
:1014100028F48981F801EE0DFF1D8683EFEFEE1AA7
:10142000FE0AC9CFF801E356FF4F80819181892BD5
:1014300009F018CFF1E8EF16F10408F011CF12CF40
:10144000089590E080E00895662331F0613031F432
:10145000FC0183810C94CA0160E0FACF0895CF9219
:10146000DF92EF92FF920F931F93CF93DF93CDB74D
:10147000DEB7C254D1090FB6F894DEBF0FBECDBFA0
:101480008C01FB0182819381A481B58123968CAF6D
:101490009DAFAEAFBFAF239721E023962FAF239729
:1014A00023964CAD5DAD6EAD7FAD23974BAB5CAB82
:1014B0006DAB7EAB89AF9AAFABAFBCAF8DA79EA72C
:1014C000AFA7B8AB28AB4DA55EA56FA578A94FA374
:1014D00058A769A77AA72EAB4BA95CA96DA97EA9CD
:1014E00049A35AA36BA37CA38B8F9C8FAD8FBE8F18
:1014F0002AA74FA158A569A57AA54D8B5E8B6F8B46
:10150000788F2CA349A15AA16BA17CA14F87588B3E
:10151000698B7A8B89879A87AB87BC870E946D021B
:1015200066507F4F8F4F9F4F60937004709371048C
:10153000809372049093730410928A03109289032B
:1015400010928C0310928B03EAEBF2E08BECDF013C
:101550001D928A95E9F781E098E09093B902809313
:10156000B8028AE00E94870061E08AE00E94CA0116
:10157000FFB6F89480918503811124C0EAE9F0E078
:101580008491EEEAF0E09491E82FF0E0EE0FFF1F77
:10159000EA57FF4FA591B491EC91E92321F461E062
:1015A0008AE00E94CA018AE00E9487008CB58061AF
:1015B0008CBD8CB580648CBD8DE00E9487008BE073
:1015C0000E948700809185038F5F80938503FFBE13
:1015D0008CB58C7F8CBD8DB581608DBD4FEF60E08B
:1015E0008FEF0E94D60262E070E080E090E00E94FF
:1015F0003B0262E370E080E090E00E943B021092C8
:1016000088031092870380E1E82EF12C6DE180E0E1
:101610000E94770381110BC0B1E0EB1AF10839F099
:101620006AE070E080E090E00E943B02EFCF70E063
:1016300060E088E00E940E0370E060E08CE00E94B1
:101640000E036FEF77E08AE00E940E0361EB88E300
:101650000E946A036FE370E388E20E940E0369EF61
:1016600077EF80E30E940E036DE070E080EC0E9453
:101670000E0342E362EC80E80E94D60262E17CE065
:1016800086EC0E940E0362E184EC0E946A036CED1A
:1016900075E08AEC0E940E03F801608184EE0E94DE
:1016A0006A03D80111966C9185EE0E946A03F801D5
:1016B000628182EE0E946A03D80113966C9183EED8
:1016C0000E946A03F801648180EE0E946A03D801D7
:1016D00015966C9181EE0E946A0360E071E080E1F2
:1016E0000E94CA038FE10E94EF0240EC6BE180E8A8
:1016F0000E94D60244E06FE180E80E94D60266E7CD
:1017000074E084E10E94CA0382E70E9495038F3F40
:1017100009F48BC080938603F801808180936A046A
:10172000818180936B04828180936C048381809398
:101730006D04848180936E04858180936F04109280
:1017400009041092080410920B0410920A041092DB
:101750000D0410920C0410920F0410920E041092BB
:10176000A9031092C7031092E5031092030484E0CA
:101770008093100480E094E090938F0380938E0315
:10178000109269049BE024E080916904883008F499
:101790004FC04D895E898F8921E02A8BCF84D888FC
:1017A000E988FA88CB82DC82ED82FE826B857C85BB
:1017B000E985FA85F093B502E093B4027093B7021D
:1017C0006093B6025093B1024093B00290E09160F2
:1017D0009093B3028093B2028FEF9FEF9093AD028C
:1017E0008093AC028FEF90E09093AF028093AE02B3
:1017F0002E838B819C81AD81BE8180931F05909348
:101800002005A0932105B0932205CE5BDF4F0FB6D4
:10181000F894DEBF0FBECDBFDF91CF911F910F9126
:10182000FF90EF90DF90CF9008951092860374CFD1
:10183000899FF0011124EF5EFB4FDF01322F1D92D3
:101840003A95E9F78F5F809369049ECFFB01019081
:101850000020E9F73197AF01461B570BDC01ED91F2
:10186000FC910280F381E02D09948F929F92AF92B8
:10187000BF92EF92FF920F931F93CF93DF93CDB759
:10188000DEB7A1970FB6F894DEBF0FBECDBF7C01C7
:10189000FA01CB0119A2223008F42AE08E010F5D73
:1018A0001F4F822E912CB12CA12CBF01A5019401B8
:1018B0000E940621F901CA016A300CF5605DD80169
:1018C0006E938D01232B242B252B79F790E080E05C
:1018D000109721F0BD01C7010E94260CA1960FB6FA
:1018E000F894DEBF0FBECDBFDF91CF911F910F9156
:1018F000FF90EF90BF90AF909F908F900895695C9C
:10190000DECF8F929F92AF92BF92CF92DF92EF92F3
:10191000FF920F931F93CF93DF937C01EB016C0138
:1019200082E0C80ED11C4701E5E08E0E911C10E04C
:1019300000E0F60141916F0150E070E060E02AE0C4
:10194000CE010E94350C5C01E881F9810190F081A3
:10195000E02D6EE2CE0109958A0D9B1D080F191F1F
:10196000C814D90431F7F701458150E070E060E018
:101970002AE0CE010E94350C800F911FDF91CF919C
:101980001F910F91FF90EF90DF90CF90BF90AF909D
:101990009F908F9008950E945322EF92FF920F9391
:1019A0001F93CF93DF93FC0110926904C1E1D4E04F
:1019B000DE0130E020E02830310569F490E0983015
:1019C00009F042C01092340210923302109269045E
:1019D00021E134E044C0CD01815194400D911C912E
:1019E00011970115110561F112964D915C911397B4
:1019F0004115510529F1E080F1800E151F0501F513
:101A00000281138140175107D9F420936904DC0146
:101A1000AB5EBB4F86E0FB0101900D928A95E1F72A
:101A20008BE0829FF001839FF00D1124EF5EFB4F4E
:101A30001286DF91CF911F910F91FF90EF90089543
:101A40002F5F3F4F1B96B7CF9E0148815981452B91
:101A5000B1F44A815B81452B91F49093690484E051
:101A6000D90101900D928A95E1F7D901149686E08B
:101A7000FB0101900D928A95E1F7F901D9CF9F5FA3
:101A80002B969DCFEF92FF920F931F93CF93DF93EF
:101A900000D000D000D0CDB7DEB740915B025091AE
:101AA0005C024F3F540731F480915D0290915E02D9
:101AB000019619F18091B4029091B5026091AC0247
:101AC0007091AD029B0120953095282B392B421740
:101AD0005307A9F52091AE023091AF0220953095C1
:101AE000E091B602F091B7022E2B3F2BE0915D0200
:101AF000F0915E02E217F30711F586E0E4E1F1E010
:101B0000ADE3B2E001900D928A95E1F786E0EAE656
:101B1000F4E0A3E4B2E001900D928A95E1F788E049
:101B200090E090934A02809349028091350290910F
:101B300036020E969093360280933502A5C0842714
:101B4000952786239723892B99F420915D02309164
:101B50005E028091B6029091B7028227932760912E
:101B6000AE027091AF0286239723892B09F499C0A6
:101B70008091B0029091B10290933A028093390221
:101B80008091B2029091B30290933C0280933B0209
:101B9000E0903902F0903A0200913B0210913C0231
:101BA000E1E1F4E080E0883009F084C080936904CA
:101BB00046E050E06FEF70E08DE392E00E948022FB
:101BC00086E0EDE5F2E0DF01282F1D922A95E9F786
:101BD000EAE6F4E0A3E4B2E0982F01900D929A9522
:101BE000E1F7EAE6F4E0A3E5B2E0982F01900D9268
:101BF0009A95E1F7F0926402E09263021093660214
:101C0000009365022091B4023091B50230935A02DC
:101C1000209359022091B6023091B70230935C02B2
:101C200020935B0220E031E0309352022093510276
:101C300030934C0220934B0228E030E030934E0268
:101C400020934D0280934F0294E09093500228E03D
:101C500036E030934A022093490223E732E0309382
:101C60003802209337022AE230E030933602209384
:101C70003502BE016F5F7F4FDB011D928A95E9F748
:101C800089E392E00E94CD0C26960FB6F894DEBF51
:101C90000FBECDBFDF91CF911F910F91FF90EF90BD
:101CA000089550933A024093390230933C022093B6
:101CB0003B026ECF20813181E216F306E1F42281EE
:101CC000338102171307B9F49481911103C09581F0
:101CD000992329F080936904349686E011CF968188
:101CE0009111F8CF97819111F5CF90859111F2CF95
:101CF00091859111EFCF8F5F3B9655CFAF92BF92F9
:101D0000CF92DF92EF92FF920F931F93CF93DF93C7
:101D1000E0903102F0903202F701C48DD58DD09061
:101D20002E02209781F5D6FC03C0F12CE12CC6C011
:101D3000E4EDF1E090E080E0218121117CC042E1FE
:101D4000489F9001499F300D1124E901CC52DE4F8C
:101D5000C70180599340959587956FEE7EEE869FDB
:101D6000A001879F500D969F500D1124488381E05C
:101D700089832A523E4F81E1F90111928A95E9F750
:101D8000F701D58FC48FD1FE30C00091350210917C
:101D900036020115110549F18981867031F55E0120
:101DA000F2E0AF0EB11CC12CF50181915F018111F0
:101DB00049C0C8010E946D04F501319780838823D2
:101DC00009F440C020913702309138022D5332403F
:101DD00040911C0270E060E00E940C05F4E0CF121C
:101DE00004C0F701818D8061818F898183FF0AC0E2
:101DF000877F89838D2D826080932E02F701818DEC
:101E00008F7E818F10912E0214FD02C017FF26C015
:101E1000CE0107960E94D9068A818823E9F0F7014E
:101E2000848195819F838E83898184608983F70172
:101E3000158E148E7ACF019672968430910509F032
:101E40007BCF73CFC394F5E0CF12AECF80911E024B
:101E50008E7F80931E02C5CF1982E9CF10FF04C088
:101E6000CE0107960E94F0061C7009F465C08F81B0
:101E7000882309F461C09885911144C0EC84FD84E5
:101E8000E114F10409F451CF95E0899FF001112488
:101E9000E854FD4FF382E282C0903702D0903802BE
:101EA000F601ED53F2406F01E0931D02DD24C601FF
:101EB0008E0D9F1D009769F510921F0260913702E9
:101EC00070913802F0922902E09228021E141F0439
:101ED00054F480912F02909130026817790719F01D
:101EE000A7010E946522F0923602E0923502DF914E
:101EF000CF911F910F91FF90EF90DF90CF90BF9007
:101F0000AF9008950E9497027C01892B09F40DCFB0
:101F1000C3CF0E946D0480931F02882379F287014A
:101F200030E020E04F81B6010E940C0580911E0236
:101F3000826080931E02C2CF898181FFF6CE8F819D
:101F4000811108C01982F701158E148E80E18093EB
:101F50002E02EBCEF701818D8061818FE6CEAF92AC
:101F6000BF92CF92DF92EF92FF921F93CF93DF93B6
:101F7000C0913102D091320223E732E0309338022F
:101F8000209337023093300220932F028330C9F41C
:101F9000898D8F70833009F044C088899989892B95
:101FA00009F03FC088E080932E020E947E0E80914F
:101FB0002E0285FFDFC41092290210922802198E8A
:101FC00051C0823009F005C180912D028F5F80934E
:101FD0002D02811113C080912C028F5F80932C02FF
:101FE00081110CC080912B028F5F80932B02811195
:101FF00005C080912A028F5F80932A0210923602D8
:10200000109235021092290210922802898D982F81
:102010009D7F953059F48A8D8F5F8A8F883709F4B8
:10202000198E109236021092350254C18823C9F3DA
:1020300028893989232B09F4C7C09A8D2FEF290FDE
:102040002A8F9111EECF9B8D983031F02FEF280F12
:10205000223050F4953041F4198E80E880932E029E
:102060000E947E0E84E184C0392F953008F034E060
:1020700023E001C0220F3A95EAF72A8F9F5F9B8FDA
:102080008F70833009F47DC008F06AC0813009F494
:10209000D2C2823031F610926C0280916C02826062
:1020A00080936C0282E08093730294E090937402B8
:1020B00080937502109276028CE290E09093360243
:1020C0008093350280E680936B0288858093670257
:1020D0008985809368028A85809369028B858093C5
:1020E0006A028C85809363028D85809364028E855D
:1020F000809365028F858093660286E08093540208
:102100008C819D819093600280935F028E819F817C
:1021100090936202809361028091B4029091B50223
:1021200090935802809357028091B6029091B70223
:1021300090935A02809359028881998190935C020E
:1021400080935B028A819B8190935E0280935D0203
:10215000898D84FF95C410926E0210926D0280C129
:10216000863029F0883019F0843009F05ACF81E1A7
:1021700080936C0288E290E090933602809335025F
:1021800021C084E080932E020E947E0E80912F0257
:102190009091300290933802809337028091280208
:1021A00090912902892B09F416C48889998900978E
:1021B00009F411C48896909336028093350288E121
:1021C00080936C0280E57FCF8F70833009F029CF38
:1021D000E9CE80914B02853409F023CFC0904D02A7
:1021E000D12CDC2CCC2480914E02C80ED11C8091C5
:1021F0003502909136028C159D0508F412CFD092CD
:102200003602C0923502809151028F7309F009CFD6
:1022100010915202111105CFA090B402B090B502F6
:10222000A114B10431F48091B6029091B702892BC8
:10223000A1F080915B0290915C02A816B90609F0AA
:10224000F0CE20915D0230915E028091B6029091B5
:10225000B7022817390709F0E4CE0E94220601963A
:1022600009F0DFCE80915402863009F441C08130FC
:1022700009F0D7CE80915F02883009F0D2CE10925B
:102280005F028091610290916202873F2FEF920777
:1022900068F10996909362028093610280915702DF
:1022A0009091580290935C0280935B028091590256
:1022B00090915A0290935E0280935D02B092580210
:1022C000A09257028091B6029091B70290935A0261
:1022D0008093590210922E02DF91CF911F91FF90AF
:1022E000EF90DF90CF90BF90AF9008950896D2CF37
:1022F0000E94A505019609F094CE4091610250918B
:10230000620260915F027091600280915702909129
:102310005802E0915902F0915A02C0E9D3E0298DA8
:102320002223A9F0AC81BD814A175B0781F4AE81FD
:10233000BF816A177B0759F4A881B9818A179B0767
:1023400031F4AA81BB81EA17FB0709F47CC16E96C0
:1023500023E0CA3ED20719F310F380916C028F7309
:10236000823061F45093270240932602E8E0F4E0C3
:1023700080E0843009F0B2C08093100480916C0238
:1023800082FD4FCE84E180936C0288E290E09093CE
:1023900036028093350280E580936B0230916602AD
:1023A00080916A02809366022091650280916902A1
:1023B0008093650220936902909164028091680283
:1023C000809364029093680280916302809310046A
:1023D0004091670240936302809367023F5F3093AE
:1023E0006A0231110DC02F5F20936902211108C0CC
:1023F0009F5F90936802911103C08F5F8093670283
:1024000080915F0290916002909327028093260250
:1024100020916102309162023093600220935F024A
:1024200090936202809361028091570290915802CA
:1024300090935C0280935B028091590290915A02C2
:1024400090935E0280935D02B0925802A092570270
:102450008091B6029091B70290935A0280935902EC
:1024600080E48093530280913502909136029093DC
:102470004D0280934E0210927202109271021092DD
:10248000700210926F020E94A5058095909590931E
:10249000700280936F0285E480934B0210924C028D
:1024A00010925202109251028091200290912102CA
:1024B0000196909321028093200290934F02809383
:1024C000500210925602109255020E9422068095E8
:1024D00090959093560280935502FCCE21913191B4
:1024E0008F5F4217530709F044CF10921004E0E9C0
:1024F000F3E090E080E0D0E0C0E08430910531F47A
:1025000084E080931004209781F48BCD3E2F2F2FF1
:10251000A18DA11163C0809310042EE1289FE001DA
:10252000299FD00D1124C057DC4FD0933202C093A5
:10253000310283E08A8F888F1E8A84E08F8B1B8E06
:102540005D834C837F836E83809157029091580204
:10255000998388838091590290915A029B838A8340
:1025600081E0898F80912A028C8780912B028D8750
:1025700080912C028E8780912D028F8781E090E0E0
:10258000998B888B809166028B87809165028A8700
:1025900080916402898780916302888781E090E05E
:1025A0000E941B1B80916B02982F907F913508F43D
:1025B00042C082958F708550990B880F991F880FA4
:1025C000991FE12FF0E0E817F9072CF4E35CFD4FC9
:1025D00036A9311112C0109310042DC0A73031F468
:1025E000209731F0B28DAA8DAB1710F03C2F2D2F14
:1025F00001967E96C32FD22F80CF313011F41F5F0A
:10260000E0CF27A93230D9F42430C9F41093100454
:1026100080AD91AD892798278927909327028093D1
:102620002602813022E0920710F080E092E09B8B3E
:102630008A8B9D8B8C8B80E180936C022ECD222324
:1026400051F2120FBECFD0933202C09331021092DA
:102650002E0290916C0292FF07C0198E80E2809347
:102660002E020E947E0EDDCC80916B0282958F70CF
:10267000880F880F80931004C81AD108760184E16E
:10268000E81AF108F0923602E09235022F702230FB
:1026900021F4892F8F738231D1F0E114F10419F400
:1026A000892F8370A1F039852A858B85509163022B
:1026B00048855413C0C1409164024313BCC130919A
:1026C00065023213B8C1209166022813B4C194FF89
:1026D00049C0688979896115710509F443C0CE0143
:1026E0000C960E94E81A30916702809122023813FA
:1026F00039C02091680280912302281333C0909141
:1027000069028091240298132DC080916A02409141
:102710002502841327C03C872D879E878F87988D3D
:102720008B8D811118C08E892A8D921B282F26959A
:1027300026952695921B890F8E8B97FD91952F8953
:10274000322F36953695231B920F9F8B8695869553
:102750008695890F888F81E080932E02888D8A8FDD
:10276000198A188A298DE22FEF70E150E83008F0BD
:1027700058CCF0E0E254FC4E0C942821C613DF1331
:102780004914FE14271538151B15F71480912E02D5
:1027900080FF47CC83E0898F80E480932E02198AE2
:1027A000188AE114F10431F082E480932E02C7010B
:1027B0000E941B1B1092290210922802F6CB8091D6
:1027C0002E0280FF5FC080916C028F73823109F00E
:1027D00059C080916B02982F907F913598F1829526
:1027E0008F708550990B880F991F880F991FE12FC3
:1027F000F0E0E817F9072CF4E35CFD4F36A931113E
:1028000003C0109310041EC0313011F41F5FEFCFCE
:1028100027A9323099F5243089F51093100480AD42
:1028200091AD8927982789279093270280932602C4
:10283000813022E0920710F080E092E09B8B8A8B3F
:102840009D8B8C8B83E0898F809163028887809138
:1028500064028987809165028A87809166028B87EE
:1028600081E090E00E941B1B82E480932E02198A73
:10287000188A10923602109235029CCF222309F258
:10288000120FB5CF80E280932E020E947E0E198E29
:1028900075CD80916C0280FF20C024FD1EC0888908
:1028A0009989892B09F0BDCBC60143970E941B1B58
:1028B00080912E02982F906190932E02EF2819F0AC
:1028C000826180932E020E947E0E81E090E0998BBF
:1028D000888B88E0898F1B8E4ACC85FF14C080913D
:1028E000710290917202982789279827AC014D5860
:1028F0005D4F5093380240933702E81AF90AF0927C
:102900003602E092350240913502509136029091A4
:102910002E024115510541F024FD06C092609093AE
:102920002E02CA010E941B1B80916D02282F30E0ED
:10293000322F222780916E02820F932F911D909348
:102940002702809326022C893D892817390710F029
:10295000892B21F4309327022093260280912602AE
:10296000909127029B8B8A8B80912E02837009F4B1
:1029700058CB20CF84FF0AC010922902109228025F
:1029800081E090E0998B888B84E0A4CF209128028D
:102990003091290221153105B9F080FF02C0198A52
:1029A000188A88899989009789F48A899B8982176E
:1029B000930720F4909329028093280280912802A3
:1029C00090912902998B888B1B8EE0CB90932902E2
:1029D00080932802F9CF80912E0281FF22CB88E2DA
:1029E00090E0909336028093350280E1E9CB8091AC
:1029F0002E0280FF16CB198E80E131CEE114F10456
:102A000019F0C7010E941B1B80912E0281709091CA
:102A10006C0290FF15C0882381F087E0898F1A8EA1
:102A2000198A188A81E090E00E941B1B80E1809344
:102A30002E020E947E0E80E19BCB86E0898FF2CF32
:102A4000882399F085E0898F198A188AEACAE114E7
:102A5000F10419F0C7010E941B1B80916C0280FFDA
:102A600004C087E0898F1A8EDDCFEF2821F7D9CAFD
:102A700080912E0280FFD5CA87E0898F1A8ED1CA35
:102A800082E080936D0210926E02EACC8F929F9248
:102A9000AF92BF92CF92DF92EF92FF920F931F936C
:102AA000CF93DF9380918603882309F420C1D091CE
:102AB0001C02D11151C089E30E949503882309F4B7
:102AC00049C060918703709188036B0126E0C20EB4
:102AD000D11CC11438E0D30628F06B0149EFC41AA9
:102AE00047E0D40A80E00E940E0360E08AE30E947F
:102AF0007703E82E60E08AE30E947703F82EF092D5
:102B00008803E092870360E08AE30E947703182F2E
:102B100060E08AE30E947703C82F60E08AE30E94A6
:102B20007703082F40E46EE180E80E94D60207FF99
:102B3000EBC0E11458E0F50608F0E6C0D0928A0335
:102B4000C09289039C2F812F049790938C038093CC
:102B50008B03DFEFD0931C02F0901C02FF2009F4DE
:102B600076C081E080931E028F2D0E949702EC01B7
:102B70009093360280933502892B09F4F2C042E625
:102B800050E070E060E08F2D0E9424036DE372E05E
:102B90000E94B702C0904902D0904A0288E0C8164D
:102BA000D10409F0CCC0F0921F022E97D0933602C8
:102BB000C09335022091570230915802E091B4023F
:102BC000F091B502C9018E279F274091AC02509128
:102BD000AD0284239523892B49F5409159025091E8
:102BE0005A026091B6027091B702CA0186279727F0
:102BF000A091AE02B091AF028A239B23892BB1F43E
:102C000080915B0290915C02E817F90709F07FC0A0
:102C100080915D0290915E026817790709F077C094
:102C200063E472E087E592E00E94CD0C81E00E94AF
:102C3000AF0F8091350290913602892B21F00E94CE
:102C4000420D0E94330680911E0280FD8AC00E94C0
:102C50006D026B017C018091700490917104A091D0
:102C60007204B091730446015701881A990AAA0A9E
:102C7000BB0AC0E9D3E008E014E0D0933202C0936D
:102C8000310282E0B7FE14C0EC8DFD8D309709F45F
:102C9000FFC086859785A089B189A7019601281B69
:102CA000390B4A0B5B0BDA01C901B7FD0DC083E09C
:102CB0000E94AF0F8091350290913602892B21F04E
:102CC0000E94420D0E9433066E960C171D07A9F64E
:102CD000B7FC0DC03AEFC30ED11CE11CF11CC09231
:102CE0007004D0927104E0927204F0927304DF9148
:102CF000CF911F910F91FF90EF90DF90CF90BF90F9
:102D0000AF909F908F9008950E945B0323CFE1E1E5
:102D1000F4E080E0883019F48093690487CF608103
:102D200071812617370741F462817381461757076F
:102D300019F48093690474CF8F5F3B96EBCF28E042
:102D4000C21626E0D20669F41092360210923502BD
:102D5000AA9760F48091350290913602892B09F090
:102D600070CF0E945B0310921C0271CF80915102C0
:102D700090915202811531E0930701F18115924043
:102D800049F720916302309164028091B4029091DE
:102D9000B50228173907F1F62091650230916602D5
:102DA0008091B6029091B7022817390799F663E52A
:102DB00072E089E592E00E94CD0CCCCF00916302D5
:102DC000109164028091B4029091B502081719071E
:102DD00009F6C0916502D09166028091B602909189
:102DE000B702C817D90709F0B5CF63E572E089E5E6
:102DF00092E00E94CD0C80E092E09093520280938A
:102E0000510286E0E3E5F2E0ADE5B2E001900D921B
:102E10008A95E1F786E0EAE6F4E0A3E5B2E0019006
:102E20000D928A95E1F786E0EAE6F4E0A3E4B2E0E9
:102E300001900D928A95E1F786E0EDE5F2E0ADE3D1
:102E4000B2E001900D928A95E1F78091590290913C
:102E50005A02909364028093630280915B02909186
:102E60005C02909366028093650210935A0200936D
:102E70005902D0935C02C0935B02D0924A02C09286
:102E800049028AE290E0909336028093350262CF45
:102E90008E859F85A889B98900CFAF92BF92CF92C6
:102EA000DF92EF92FF920F931F93CF938C015B0100
:102EB0007A016A010E9446150115110509F45AC0EC
:102EC000F8018181867009F055C03896C1E0819182
:102ED000811133C0C150F801EC0FF11D87818111C0
:102EE0000DC080E092E00E946D04F801EC0FF11D2E
:102EF00087838823F9F2F80115861486A7014C19F7
:102F00005D094A0D5B1DF801648575859601EC0F1E
:102F1000F11D87810E943E05C81AD90AF80124854F
:102F20003585820F931F958784871C141D0454F4E4
:102F3000C43009F4BFCFCF5FD4CFCF5FC53039F6EF
:102F4000C4E0C9CF0E946D02665F7F4F8F4F9F4FD5
:102F5000F80166877787808B918BC7018C199D0953
:102F6000CF911F910F91FF90EF90DF90CF90BF9086
:102F7000AF90089590E080E0F3CFFC0184859585C3
:102F80000C944D17CF93DF931F92CDB7DEB76983B3
:102F900041E050E0BE016F5F7F4FFC018485958565
:102FA0000E944D170F90DF91CF910895CF93DF933B
:102FB000EC010E944615EC85FD85309739F0818142
:102FC00082FF08C081E09281911101C080E0DF9111
:102FD000CF91089581E0FBCFCF93DF93EC018C85F7
:102FE0009D85009769F0FC012181222349F002961A
:102FF0000E94D906EC85FD85818182FF07C0118280
:103000001D861C86DF91CF910C94461582608183CA
:10301000F7CFCF92DF92EF92FF920F931F93CF9350
:10302000DF938C01EB016A01DC01ED91FC910488D6
:10303000F589E02D0995EA80FB806C817D815C2D0E
:103040004D2D80918E0390918F0301968115BDE7E0
:103050009B0710F080E090E1382F292FE0E9F3E0A2
:10306000DF01C0E0C430D1F490938F0380938E03CE
:103070001092100480E0D0E0C0E08430F1F480933E
:103080001004209711F590E080E0DF91CF911F911F
:103090000F91FF90EF90DF90CF9008955996DC91BB
:1030A0005997DD2339F01496CD90DC901597C21610
:1030B000D30659F2CF5F5E96D5CFAE2F9F2FB18D3D
:1030C000B1113CC080931004EF0182E0898F8091A0
:1030D0002A028C8780912B028D8780912C028E870B
:1030E00080912D028F8780E092E09B8B8A8B9D8B55
:1030F0008C8B81E090E0998B888B1B8E8A8F83E08C
:10310000888F1E8A80E18F8B3D832C835F834E8363
:10311000F982E8827B836A83898D8F7009F4B3CF4B
:103120000E944615898D8F708330B1F78C8D9D8DEF
:10313000F8019587848781E090E0A7CFB73031F41C
:10314000209731F0D28CBA8DBD1510F0AC2F9D2F89
:103150008F5F7E96CA2FD92F90CF6F927F928F92DA
:103160009F92AF92BF92CF92DF92EF92FF920F9316
:103170001F93CF93DF937B016A01C091AA02D09184
:10318000AB026FE270E00E9487225C01FE01EA510F
:10319000FF4F6080712CC452DF4F912C812C86141C
:1031A00097047CF409911991B501D80114968D9179
:1031B0009C910E949222892B31F4BFEF8B1A9B0ABB
:1031C000EECF10E000E0D801ED91FC91808091807D
:1031D0003BE3A32E35E0B32ED0E0C0E066E671E01D
:1031E00084E794E00E94260CF501608171816115ED
:1031F000710521F084E794E00E94260CD5016D91C1
:103200007C91A601C7010E945822B3E0AB0EB11C0D
:10321000892BC9F4CE01880F991FC80FD91FC55C2F
:10322000DA4F6A81C801F401DF91CF911F910F91AC
:10323000FF90EF90DF90CF90BF90AF909F908F90D6
:103240007F906F9009942196C730D10539F664E0DC
:10325000E9CF1F920F920FB60F9211242F933F9335
:103260004F935F936F937F938F939F93AF93BF938E
:10327000EF93FF9384E794E00E943B01FF91EF916D
:10328000BF91AF919F918F917F916F915F914F917E
:103290003F912F910F900FBE0F901F9018951F9286
:1032A0000F920FB60F9211242F938F939F93EF934A
:1032B000FF93E0918404F09185048081E0918A0479
:1032C000F0918B0482FD1BC0908180918D048F5FF3
:1032D0008F7320918E04821741F0E0918D04F0E00D
:1032E000EC58FB4F958F80938D04FF91EF919F9148
:1032F0008F912F910F900FBE0F901F901895808186
:10330000F4CF1F920F920FB60F9211242F933F9379
:103310008F939F93AF93BF938091A2029091A3024A
:10332000A091A402B091A5023091A10223E0230F45
:103330002D3758F50196A11DB11D2093A102809350
:10334000A2029093A302A093A402B093A50280913D
:10335000A6029091A702A091A802B091A90201969D
:10336000A11DB11D8093A6029093A702A093A8026D
:10337000B093A902BF91AF919F918F913F912F91EF
:103380000F900FBE0F901F90189526E8230F0296FE
:10339000A11DB11DD2CF1F920F920FB60F92112413
:1033A0002F933F934F935F936F937F938F939F934D
:1033B000AF93BF93CF93DF93EF93FF93D9B1C091B6
:1033C000D3018091D2012091D1019D2F909592231C
:1033D0008D23892B90916D00CD27C923C823D093CD
:1033E000D301CC2309F45EC0C0FF09C01092D00104
:1033F0008D2F81708093CF01F0E0E0E00995C1FF4F
:103400000AC081E08093D0018D2F82708093CF011C
:10341000F0E0E0E00995C2FF0AC082E08093D001AD
:103420008D2F84708093CF01F0E0E0E00995C3FF19
:103430000AC083E08093D0018D2F88708093CF01E4
:10344000F0E0E0E00995C4FF0AC084E08093D00179
:103450008D2F80718093CF01F0E0E0E00995C5FFEA
:103460000AC085E08093D0018D2F80728093CF01B8
:10347000F0E0E0E00995C6FF0AC086E08093D00145
:103480008D2F80748093CF01F0E0E0E00995C7FFB5
:1034900009C087E08093D001D078D093CF01F0E0CD
:1034A000E0E00995FF91EF91DF91CF91BF91AF914E
:1034B0009F918F917F916F915F914F913F912F914C
:1034C0000F900FBE0F901F9018951F920F920FB67E
:1034D0000F9211242F933F934F935F936F937F939A
:1034E0008F939F93AF93BF93CF93DF93EF93FF930C
:1034F000D6B1C091CE018091CD012091CC019D2FFC
:10350000909592238D23892B90916C00CD27C92310
:10351000C823D093CE01CC2309F447C0C0FF0AC012
:103520008EE08093D0018D2F81708093CF01F0E0E9
:10353000E0E00995C1FF0AC08FE08093D0018D2F94
:1035400082708093CF01F0E0E0E00995C2FF0AC0ED
:1035500080E18093D0018D2F84708093CF01F0E0C3
:10356000E0E00995C3FF0AC081E18093D0018D2F6F
:1035700088708093CF01F0E0E0E00995C4FF0AC0B5
:1035800082E18093D0018D2F80718093CF01F0E094
:10359000E0E00995C5FF09C083E18093D001D072B6
:1035A000D093CF01F0E0E0E00995FF91EF91DF913A
:1035B000CF91BF91AF919F918F917F916F915F91CB
:1035C0004F913F912F910F900FBE0F901F90189524
:1035D000FC013381360F30932502A72FBB27928140
:1035E0009A0F9093240221812093230240814093DB
:1035F00022029A171B0648F481E0820F809323026F
:10360000811103C04F5F40932202772736171706B8
:1036100088F49F5F9093240291110CC08091230243
:103620008F5F80932302811105C0809122028F5FFA
:10363000809322020895CF93DF93C0913102D091FD
:103640003202BC01CE0108960E94E81AE2E2F2E0E2
:10365000808188878181898782818A8783818B871E
:10366000DF91CF910895E4E7F4E01382128288EEAF
:1036700093E0A0E0B0E084839583A683B78382E5DE
:1036800091E09183808385EC90E09587848784EC3A
:1036900090E09787868780EC90E0918B808B81EC1F
:1036A00090E0938B828B82EC90E0958B848B86EC00
:1036B00090E0978B868B118E128E138E148EE1E123
:1036C000F5E084E691E09183808312821382148274
:1036D0001582E7E1F5E091838083128213821482E0
:1036E0001582E3E2F5E091838083128213821482D3
:1036F0001582EDE1F5E091838083128213821482BA
:103700001582E9E2F5E091838083128213821482AC
:103710001582EFE2F5E09183808312821382148296
:103720001582E5E3F5E0918380831282138214828F
:103730001582EBE3F5E025E731E031832083128247
:103740002EE831E03483238321E0258329E731E02B
:103750003783268322E020872EE731E032872187D6
:1037600023E0238724E831E03587248724E0268777
:1037700029E831E0308B278725E0218B21E931E0F2
:10378000338B228B26E0248BE0E5F5E09183808368
:103790001282138214821582E6E5F5E0918380831C
:1037A0001282138214821582ECE5F5E09183808306
:1037B0001282138214821582E2E6F5E091838083FF
:1037C00012821382148215820895CF93DF93CDB7AE
:1037D000DEB7CD58D1400FB6F894DEBF0FBECDBFD7
:1037E000789484B5826084BD84B5816084BD85B5DC
:1037F000826085BD85B5816085BD80916E008160E8
:1038000080936E001092810080918100826080938D
:10381000810080918100816080938100809180008F
:103820008160809380008091B10084608093B100BA
:103830008091B00081608093B00080917A008460B4
:1038400080937A0080917A00826080937A008091E0
:103850007A00816080937A0080917A0080688093FA
:103860007A001092C100E0918404F091850482E016
:103870008083E0918004F09181041082E0918204C1
:10388000F09183048FEC808310928C04E091880483
:10389000F091890416E01083E0918604F09187048A
:1038A000808180618083E0918604F091870480812B
:1038B00088608083E0918604F0918704808180682D
:1038C0008083E0918604F091870480818F7D8083DE
:1038D00069E971E084E794E00E94260C64EA71E0F3
:1038E00084E794E00E94260C84E691E09A83898321
:1038F00030EC3B8328EA2C831D824AEA4E8398876A
:103900008F8339872A871B8629E32C87E7E0F1E03C
:10391000DE011D96212F01900D922A95E1F71E8A56
:103920001D8A48EE53E060E070E04F8B588F698F3E
:103930007A8F2EE131E03C8B2B8B18A21F8E1CA2BC
:103940001BA226E431E03AA329A3CC54DF4F99838C
:103950008883C45BD040CA54DF4F188219821A8210
:103960001B82C65BD0408FEF9FEFC054DF4F99831F
:103970008883C05CD0401EA21DA2C254DF4F1982B2
:103980001882CE5BD040CE54DF4F19821882C25BC2
:10399000D040E6ECF1E0DE01AE53BF4F01900D9256
:1039A0001A95E1F7C452DF4F1882CC5DD04086E013
:1039B00090E00E942E21FC0112828AE0838387EA34
:1039C00091E09583848380E491E091838083C35266
:1039D000DF4FF983E883CD5DD04081E0C951DF4FEF
:1039E0008883C75ED0408091AA029091AB02892B58
:1039F00031F4CE0101969093AB028093AA02C65196
:103A0000DF4F19821882CA5ED04086E491E0C85127
:103A1000DF4F99838883C85ED04084E691E0C55823
:103A2000DE4F99838883CB57D140C358DE4F18822D
:103A300019821A821B82CD57D1408FEF9FEFC95751
:103A4000DE4F99838883C758D140CE014396C45135
:103A5000DF4F99838883CC5ED040CB57DE4F1982ED
:103A60001882C558D1409EA38DA3A8EEB0E0AC0F3C
:103A7000BD1F1696FE01B7968C569F4F2D91219330
:103A8000E817F907D9F7C259DE4F88819981CE56D8
:103A9000D14091838083C059DE4F88819981AA816A
:103AA000BB81C057D140C755DF4F88839983AA8314
:103AB000BB83C95AD0407E012DEAE20EF11CCC58DE
:103AC000DE4F88819981AA81BB81C457D140F7011B
:103AD00080839183A283B383C858DE4F8881C857FF
:103AE000D140CF54DF4F8883C15BD040C758DE4FF1
:103AF00088819981C957D140CE54DF4F99838883FB
:103B0000C25BD040C358DE4F88819981AA81BB81B6
:103B1000CD57D140CA54DF4F88839983AA83BB8392
:103B2000C65BD0406E01FAEBCF0ED11CCF57DE4FF3
:103B300088819981C158D140D6018D939C938E0183
:103B400004541F4FCD57DE4F88819981C358D1400F
:103B5000F80191838083C254DF4F19821882CE5BB3
:103B6000D0408FEF9FEFC054DF4F99838883C05CB4
:103B7000D04084E691E0C851DF4F99838883C85EC6
:103B8000D04089859A85AB85BC85C651DF4F888337
:103B90009983AA83BB83CA5ED040BE0168517F4F20
:103BA000CE0181960E94A6008DEA98E1CE54DF4FA7
:103BB00099838883C25BD0404E01F7E78F1AFEEFEE
:103BC0009F0A80918603811151C004E611E0C8511B
:103BD000DF4F19830883C85ED0408B819C81AD8103
:103BE000BE81C651DF4F88839983AA83BB83CA5E97
:103BF000D040BE0168517F4FCE010D960E942F0A22
:103C00003091B4022091B5029091B6028091B70232
:103C1000C851DF4F19830883C85ED040C651DF4FBB
:103C20003883CA5ED040C551DF4F2883CB5ED04079
:103C3000C451DF4F9883CC5ED040C351DF4F88839F
:103C4000CD5ED04064E774E0CE0188519F4F0E9462
:103C5000810C64EA71E084E794E00E94260C6CED2C
:103C600075E080E090E00E943B02ABCF0E949E0393
:103C700092FFABCF0E949E03CE0181960E94610805
:103C8000811172C1CE0181960E9461088E010E538E
:103C90001F4F6E0127E2C20ED11CCE0181960E94F9
:103CA0006108811132C1CE0181960E9461088111A3
:103CB0001CC1C654DF4F68817981CA5BD0408DA199
:103CC0009EA1DC01ED91FC91C454DF4F48815981E4
:103CD000CC5BD0406115710509F442C00088F189C0
:103CE000E02D09958130910509F006C1C955DF4FD6
:103CF00099838883C75AD04087E0EDE0F1E0DE0188
:103D0000A851BF4F01900D928A95E1F7FE01E8514D
:103D1000FF4FDE019C96CF01079621912D938E17C0
:103D20009F07D9F782E08BAB1CAA8FE08DABF8011F
:103D300001900020E9F7CF01801B910B409681385C
:103D4000910508F0ABC0F80150E040E08191882374
:103D500031F1DF01AB58B1098C934F5F5F4FF6CF64
:103D60000684F785E02D24E631E0C851DF4F398322
:103D70002883C85ED040CA54DF4F488059806A808B
:103D80007B80C65BD040C651DF4F488259826A8231
:103D90007B82CA5ED040BE0168517F4FA2CF5EAB2E
:103DA0004FAB445F5F4F9A0180E0922F9F77220FC5
:103DB000232F221F330B31952115310509F090680F
:103DC000F401E80FF11D90838F5F2115310569F72C
:103DD00090E0F601E81BF90B20E12483FE01E81BCB
:103DE000F90BBC96D4019D01281939092817390708
:103DF0001CF42D912193F7CF9C012F5F3F4F8DA194
:103E00009EA1420F531FB601621B730B6B5F7F4F66
:103E1000DC01ED91FC910280F381E02D09950E9477
:103E20006D02C755DF4F688379838A839B83C95AA4
:103E3000D0400E946D02C755DF4F688379838A8323
:103E40009B83C95AD040C355DF4F688379838A83E7
:103E50009B83CD5AD0408DA19EA1DC01ED91FC91B8
:103E60000084F185E02D0995892B11F50E946D02E2
:103E7000F70140805180628073806419750986095A
:103E8000970968397A438105910528F38CEF9FEFF4
:103E9000C054DF4F99838883C05CD0408DA19EA120
:103EA000DC01ED91FC910488F589E02D09951DC098
:103EB000B401CE0181960E941009049779F78AA572
:103EC00090E08111E5CF0E946D02F701608371835C
:103ED00082839383CF54DF4F1882C15BD040C0549C
:103EE000DF4F19821882C05CD04060ED77E080E03F
:103EF00090E00E943B02D1CE8EEF9FEFC054DF4F87
:103F000099838883C05CD040F0CF10E0C951DF4F67
:103F10008881C75ED040181708F053CE66EB71E079
:103F200084E794E00E94260CE12FF0E0E259FF4F75
:103F3000EE0FFF1F21E030E02C0F3D1FE20FF31FBB
:103F40000190F081E02D648175816115710521F08A
:103F500084E794E00E94260C64EA71E084E794E030
:103F60000E94260C1F5FD2CFCE0181960E9461086D
:103F7000882309F446C00E946D022B013C01C35501
:103F8000DF4F88819981AA81BB81CD5AD040A3019E
:103F90009201281B390B4A0B5B0BDA01C9018939E5
:103FA0009A43A105B105A8F4C755DF4F88819981CF
:103FB000AA81BB81C95AD040A3019201281B390BA9
:103FC0004A0B5B0BDA01C90189399A43A105B10596
:103FD000E8F18DA19EA1CF54DF4F2881C15BD04075
:103FE000222391F02CEF3FEFC054DF4F3983288319
:103FF000C05CD040DC01ED91FC910488F589E02D96
:1040000009950E944615DDCD20EC2FA318A6DC01F2
:10401000ED91FC910280F381E02D42E050E0BE0181
:10402000695D7F4F0995C755DF4F488259826A8283
:104030007B82C95AD040F7014082518262827382EA
:1040400081E0CF54DF4F8883C15BD0408DA19EA11A
:10405000DC01ED91FC910084F185E02D0995892B1F
:1040600081F2BE0168517F4FCE0181960E941009F6
:104070001C01892B09F4C5C0F7014082518262827C
:1040800073828FA1807F803309F09EC0CE54DF4FB2
:1040900088819981C25BD040892B09F4B2CFC85185
:1040A000DF4F0881C85ED04010E0FE01E00FF11F35
:1040B000C0A4D12CDC2CCC24E9E2F0E0EC0FFD1FF5
:1040C000E00FF11F8081C80ED11C5801F2E0AF0E45
:1040D000B11C27E230E02C0F3D1FA20EB31EB80129
:1040E0006D5F7F4F620F731FA601C5010E946E2294
:1040F000B601600F711FE9E2F0E0EC0FFD1FE60F63
:10410000F71F1082201A310A8FA18670C357DE4F25
:104110008883CD58D140CE54DF4FE881F981C25B0E
:10412000D040823009F040C0DE01A60FB71F9A963A
:104130008C9190E0982F8827DE01A60FB71F9B96E1
:104140000C91080F192F111DA1014C195D09455043
:1041500051096B5F7F4F87E290E08C0F9D1F680FC6
:10416000791FC501099580E48FA3C357DE4F98815D
:10417000CD58D14098A719A70AA78DA19EA1DC010F
:10418000ED91FC910280F381E02D44E050E0BE010E
:10419000695D7F4F0995C755DF4F488259826A8212
:1041A0007B82C95AD0402DCFA1014C195D094350E3
:1041B00051096D5F7F4F27E230E02C0F3D1F620FEA
:1041C000731FC50109951DCF803C91F480ED8FA32D
:1041D00018A68DA19EA1DC01ED91FC910280F381D6
:1041E000E02D42E050E0BE01695D7F4F099509CFA7
:1041F000803D09F006CFCF54DF4F1882C15BD0401D
:1042000000CFCE0181960E946108FBCEA1E21A2E5A
:10421000AA1BBB1BFD010DC0AA1FBB1FEE1FFF1F6A
:10422000A217B307E407F50720F0A21BB30BE40BBA
:10423000F50B661F771F881F991F1A9469F7609501
:104240007095809590959B01AC01BD01CF010895BB
:10425000EE0FFF1F0590F491E02D09940F931F932B
:10426000CF93DF938230910510F482E090E0E091EB
:104270006A05F0916B0530E020E0B0E0A0E03097F7
:1042800099F42115310509F44AC0281B390B243053
:104290003105D8F58A819B816115710589F1FB0192
:1042A00093838283FE0111C0408151810281138179
:1042B00048175907E0F04817590799F4109761F02B
:1042C00012960C93129713961C933296CF01DF919E
:1042D000CF911F910F91089500936A0510936B057C
:1042E000F4CF2115310551F04217530738F0A901D9
:1042F000DB019A01BD01DF01F801C1CFEF01F9CF68
:1043000090936B0580936A05CDCFFE01E20FF31FFA
:10431000819391932250310939832883D7CF2091FB
:10432000680530916905232B41F4209103013091F8
:1043300004013093690520936805209101013091B3
:1043400002012115310541F42DB73EB74091050119
:1043500050910601241B350BE0916805F091690529
:10436000E217F307A0F42E1B3F0B2817390778F04C
:10437000AC014E5F5F4F2417350748F04E0F5F1FAB
:104380005093690540936805819391939FCFF0E026
:10439000E0E09CCFCF93DF930097E9F0FC013297E8
:1043A00013821282A0916A05B0916B05ED0130E095
:1043B00020E01097A1F420813181820F931F20917A
:1043C0006805309169052817390709F061C0F09335
:1043D0006905E0936805DF91CF910895EA01CE1752
:1043E000DF07E8F54A815B819E0141155105B1F770
:1043F000E901FB83EA8349915991C40FD51FEC175A
:10440000FD0761F4808191810296840F951FE90177
:1044100099838883828193819B838A83F0E0E0E0A3
:1044200012968D919C9113970097B9F52D913C911F
:104430001197CD010296820F931F2091680530914C
:1044400069052817390739F6309751F510926B0531
:1044500010926A05B0936905A0936805BCCFD38319
:10446000C28340815181840F951FC817D90761F419
:104470004E5F5F4F88819981480F591F5183408358
:104480008A819B81938382832115310509F0B0CF06
:10449000F0936B05E0936A059ECFFD01DC01C0CF70
:1044A00013821282D7CF81E090E0F8940C949B2283
:1044B000FB01DC0104C08D910190801921F4415071
:1044C0005040C8F7881B990B0895FB01DC0102C01E
:1044D00001900D9241505040D8F708956817790720
:1044E00068F4FB01DC01E40FF51FA40FB51F02C047
:1044F00002900E9241505040D8F708950C946522D6
:10450000DC0101C06D9341505040E0F70895FC017B
:104510008191861721F08823D9F79927089531973B
:10452000CF010895FB01DC018D91019080190110EC
:0A453000D9F3990B0895F894FFCF1A
:10453A00FF00006C05800000010203040500044D21
:10454A0051545404FFFFFFFFFFFF00000000C21791
:10455A00BD17210A03070408460718070918540853
:10456A006307EC174408D617320857080000000002
:10457A00240A00000000BA089708210A200A00004D
:10458A0000005D01BD00EA00AA011B01F9000D014E
:10459A0000000000810C63757272656E7420697484
:1045AA0065723A20006F6666006F70656E00636C14
:1045BA006F736500696E666F0063617574696F6E0B
:1045CA00007761726E696E670053657474696E670D
:1045DA00207570000D0A00636D6E642F617264317C
:1045EA002F746573740053756273637269626564CC
:0C45FA0020746F3A20004D5154543100E1
:107E0000112484B714BE81FFF0D085E080938100F7
:107E100082E08093C00088E18093C10086E0809377
:107E2000C20080E18093C4008EE0C9D0259A86E02C
:107E300020E33CEF91E0309385002093840096BBD3
:107E4000B09BFECF1D9AA8958150A9F7CC24DD24C4
:107E500088248394B5E0AB2EA1E19A2EF3E0BF2EE7
:107E6000A2D0813461F49FD0082FAFD0023811F036
:107E7000013811F484E001C083E08DD089C08234E0
:107E800011F484E103C0853419F485E0A6D080C0E4
:107E9000853579F488D0E82EFF2485D0082F10E0AE
:107EA000102F00270E291F29000F111F8ED06801E7
:107EB0006FC0863521F484E090D080E0DECF843638
:107EC00009F040C070D06FD0082F6DD080E0C81688
:107ED00080E7D80618F4F601B7BEE895C0E0D1E017
:107EE00062D089930C17E1F7F0E0CF16F0E7DF06D8
:107EF00018F0F601B7BEE89568D007B600FCFDCFD4
:107F0000A601A0E0B1E02C9130E011968C91119780
:107F100090E0982F8827822B932B1296FA010C0160
:107F200087BEE89511244E5F5F4FF1E0A038BF0790
:107F300051F7F601A7BEE89507B600FCFDCF97BE46
:107F4000E89526C08437B1F42ED02DD0F82E2BD052
:107F50003CD0F601EF2C8F010F5F1F4F84911BD097
:107F6000EA94F801C1F70894C11CD11CFA94CF0C13
:107F7000D11C0EC0853739F428D08EE10CD085E9AC
:107F80000AD08FE07ACF813511F488E018D01DD067
:107F900080E101D065CF982F8091C00085FFFCCF94
:107FA0009093C60008958091C00087FFFCCF809118
:107FB000C00084FD01C0A8958091C6000895E0E648
:107FC000F0E098E1908380830895EDDF803219F02E
:107FD00088E0F5DFFFCF84E1DECF1F93182FE3DFCA
:107FE0001150E9F7F2DF1F91089580E0E8DFEE27F6
:047FF000FF270994CA
:027FFE00040479
:0400000300007E007B
:00000001FF