:100000000C94AA000C94BA1D0C948C1D0C94FC1C2E
:100010000C946C1C0C94C11B0C94D2000C94D20058
:100020000C94D2000C94D2000C94D2000C94D20008
:100030000C94D2000C94D2000C94D2000C94D200F8
:100040000C94771B0C94D2000C94451B0C941F1B32
:100050000C94D2000C94D2000C94D2000C94D200D8
:100060000C94D2000C94D20052656C6179206F66BA
:10007000660052656C6179206F6E000000000025FB
:100080000028002B0000000008000201000003040B
:100090000700000000000000000000000023002610
:1000A0000029000001020304050607000102030401
:1000B000050001020304056F6E006F6666006F7530
:1000C000742F617264312F636F6E7400636D6E64A0
:1000D0002F617264312F746573740073746172746C
:1000E0002072656164004D5154540065746800735A
:1000F00074617274696E67000000000024002700BC
:100100002A00010204081020408001020408102087
:10011000010204081020040404040404040402027C
:10012000020202020303030303037761726E696E26
:10013000670063617574696F6E00696E666F006356
:100140006C6F7365006F70656E006F6E006F666632
:100150000000331E11241FBECFEFD8E0DEBFCDBF9D
:1001600011E0A0E0B1E0ECE8FEE402C005900D92E1
:10017000A439B107D9F725E0A4E9B1E001C01D9287
:10018000AA39B207E1F710E0CAEAD0E004C021972B
:10019000FE010E94FC26C93AD107C9F70E94E51E5C
:1001A0000C9444270C940000CF93DF93EC01FA01E8
:1001B0003296E60FF71FDC019D012C1B3D0BCF0192
:1001C000861B970B4D91442311F04193F5CFAC0161
:1001D000421B530B640F751FFB0132973083615034
:1001E0007109FB012083DF91CF910895FC01ED5649
:1001F000FF4FDB0112964D915D916D917C911597AA
:10020000428353836483758338962BE537E03183CB
:1002100020833297118210820895AF92BF92CF92BD
:10022000DF92EF92FF920F931F93CF93DF936C01B6
:100230007B018B01040F151FEB015E01AE18BF0897
:10024000C017D10759F06991D601ED91FC91019049
:10025000F081E02DC6010995892B79F7C501DF9161
:10026000CF911F910F91FF90EF90DF90CF90BF90B3
:10027000AF90089580919501E0919401F0E0EE0F28
:10028000FF1FEE54FD4F0190F081E02D91E08111B0
:1002900001C090E0858190FB80F985830895FC0181
:1002A000538D448D252F30E0842F90E0821B930BDB
:1002B000541710F0CF96089501970895FC01918D81
:1002C000828D981761F0A28DAE0FBF2FB11D5D9684
:1002D0008C91928D9F5F9F73928F90E008958FEF26
:1002E0009FEF0895FC01918D828D981731F0828DDA
:1002F000E80FF11D858D90E008958FEF9FEF089531
:10030000FC01918D228D892F90E0805C9F4F821B94
:1003100091098F739927089582EA94E00E948001E1
:1003200021E0892B09F420E0822F089580E090E0FD
:10033000892B29F00E948C0181110C9400000895F2
:10034000FC01A48DA80FB92FB11DA35ABF4F2C914A
:10035000848D90E001968F739927848FA689B78941
:100360002C93A089B1898C91837080648C93938D38
:10037000848D981306C00288F389E02D80818F7DDB
:1003800080830895EF92FF920F931F93CF93DF9393
:10039000EC0181E0888F9B8D8C8D98131AC0E889C1
:1003A000F989808185FF15C09FB7F894EE89FF8990
:1003B0006083E889F98980818370806480839FBF2E
:1003C00081E090E0DF91CF911F910F91FF90EF902E
:1003D0000895F62E0B8D10E00F5F1F4F0F7311273E
:1003E000E02E8C8D8E110CC00FB607FCFACFE88979
:1003F000F989808185FFF5CFCE010E94A001F1CF60
:10040000EB8DEC0FFD2FF11DE35AFF4FF0829FB7EC
:10041000F8940B8FEA89FB8980818062CFCFCF93DC
:10042000DF93EC01888D8823B9F0AA89BB89E8891C
:10043000F9898C9185FD03C0808186FD0DC00FB6C2
:1004400007FCF7CF8C9185FFF2CF808185FFEDCF40
:10045000CE010E94A001E9CFDF91CF91089590E0F5
:10046000FC01EB57FF4F2491FC01EE5FFE4F3491EE
:10047000FC01EA5EFE4FE491EE23C9F0222339F03D
:10048000233001F1A8F4213019F1223029F1F0E0F4
:10049000EE0FFF1FE558FF4FA591B4918FB7F89469
:1004A000EC91611126C030953E233C938FBF089597
:1004B0002730A9F02830C9F0243049F78091800016
:1004C0008F7D03C0809180008F7780938000DFCF85
:1004D00084B58F7784BDDBCF84B58F7DFBCF8091D2
:1004E000B0008F778093B000D2CF8091B0008F7D25
:1004F000F9CF3E2BDACFCF93DF9390E0FC01EE5F94
:10050000FE4F24918A5E9E4FFC0184918823D1F096
:1005100090E0880F991FFC01E850FF4FA591B4911E
:10052000FC01E558FF4FC591D491623071F49FB73B
:10053000F8943C91822F809583238C93E8812E2B15
:1005400028839FBFDF91CF9108958FB7F894EC91E6
:100550002E2B2C938FBFF6CF3FB7F8948091770264
:1005600090917802A0917902B0917A0226B5A89B69
:1005700005C02F3F19F00196A11DB11D3FBFBA2F35
:10058000A92F982F8827BC01CD01620F711D811DF5
:10059000911D42E0660F771F881F991F4A95D1F77A
:1005A00008958F929F92AF92BF92CF92DF92EF9277
:1005B000FF924B015C010E94AC026B017C010E9426
:1005C000AC026C197D098E099F09683E7340810554
:1005D0009105A8F321E0821A9108A108B10888EEDC
:1005E000C80E83E0D81EE11CF11C81149104A10403
:1005F000B10429F7FF90EF90DF90CF90BF90AF90BC
:100600009F908F9008952FB7F89460917302709126
:10061000740280917502909176022FBF0895A6EE24
:10062000B2E025E014969C91149798130DC095E0C4
:10063000899FF0011124EA51FD4F848114968C9317
:100640001382128214820895992331F0929FD0016F
:100650001124AA51BD4FE6CF08958823A1F09091AF
:10066000B403992381F08F3F29F48091B9039091CD
:10067000BA03089595E0899FF0011124EA51FD4FD6
:1006800082819381089590E080E008958EBD0000FE
:100690000DB407FEFDCF8EB508950F931F93CF9332
:1006A000DF938C01EB0160E08AE00E942F028AE375
:1006B0000E9446030C0F1D1F0C171D0729F080E038
:1006C0000E9446038993F8CF61E08AE0DF91CF91E1
:1006D0001F910F910C942F021F93CF93DF93182F2C
:1006E000C62FD42F60E08AE00E942F028C2F8F71DA
:1006F000812B0E9446038D2F0E94460361E08AE011
:10070000DF91CF911F910C942F02CF93DF93D82FBD
:10071000D076909100019D17A1F0C82F43E06FE1C2
:1007200080EA0E946C034C2F50E085E05595479578
:100730008A95E1F743706FE180E80E946C03D093E3
:100740000001DF91CF9108951F93CF93DF93C82FBE
:10075000162FD72F0E948503412F6C2F80E40E9413
:100760006C0361E06C0F4D2F80E4DF91CF911F91FE
:100770000C946C03EF92FF920F931F93CF93DF9330
:100780008B017A018F3F59F095E0899FE001112498
:10079000CA51DD4F68817981600F711F10C060916F
:1007A000B7037091B803600F711FC7EBD3E06115F9
:1007B00088E0780778F36F5F7740C7EBD3E080E09D
:1007C0000E94A4038A819B81801B910BE816F90685
:1007D00008F4C701DF91CF911F910F91FF90EF9027
:1007E00008956091B5037091B6036115710529F004
:1007F000615071098CE00C94A4036FEF77E0FACF9D
:10080000CF93DF93C82FD62F0E9485034D2F6C2FD7
:1008100080E4DF91CF910C946C03CF93DF93D82FBA
:10082000C62F60E08AE00E942F028C2F8F718D2BE3
:100830000E944603C7FF03C080E00E94460380E099
:100840000E944603C82F61E08AE00E942F028C2F8D
:10085000DF91CF910895CF93C82F0E9485036C2F0D
:1008600080E0CF910C940D04CF93DF9361E184ED90
:100870000E94000461E082ED0E940004CFE0D0E01D
:100880008AEE0E942B0480FF0BC06AE070E080E0DB
:1008900090E00E94D102219799F790E080E00DC08E
:1008A00060E082ED0E94000488ED0E942B04C82FB6
:1008B00089ED0E942B04982F8C2FDF91CF91089502
:1008C000CF93DF93EB01682F84ED0E940004BE01FB
:1008D00086ED0E94A403CFE0D0E08AEE0E942B04B4
:1008E00080FF08C06AE070E080E090E00E94D102E2
:1008F000219799F7DF91CF910895CF93C62FBC012F
:1009000082E00E94A40360E08AE00E942F028AE74E
:100910000E9446038C2F0E94460361E08AE0CF913B
:100920000C942F02CF93BC0180E00E94A40360E0EE
:100930008AE00E942F028AE30E94460380E00E9420
:100940004603C82F61E08AE00E942F028C2FCF91CE
:100950000895CF92DF92EF92FF920F931F93CF9360
:10096000DF936C018B014130510579F4CB010E947A
:100970009204682FC601DF91CF911F910F91FF90D4
:10098000EF90DF90CF900C947D04EA01C60FD71F43
:100990007E0181E0E81AF10880E10E94A403B6011B
:1009A00084E10E94A4030115184048F4E11488E092
:1009B000F80628F07E0181E0E81A88E0F80AB7011D
:1009C00082E10E94A40340E16FE180EA0E946C038F
:1009D00040E26FE180E80E946C036FE180E00E94DA
:1009E0000D0485FF07C061E070E080E090E00E94A8
:1009F000D102F3CFDF91CF911F910F91FF90EF9034
:100A0000DF90CF900895CF92DF92EF92FF920F93F5
:100A10001F93CF93DF938C016091E6027091E70200
:100A20006150784EC12C98E1D92EE6EEF2E020E03C
:100A3000D0E0C0E045E03481CB01332341F0439F57
:100A4000C00111248A519D4FDC018D919C91E08061
:100A5000F1808E199F090280F381E02D8E1B9F0B80
:100A60008017910799F4B5E02B9FE0011124CA513A
:100A7000DD4FEBEEF2E081E022813381232B09F49C
:100A800053C035968F5F8932B9F744C008171907EC
:100A900048F48C159D0530F4249FE0011124CA51BF
:100AA000DD4F6C01311121C0209719F7C6EED2E05D
:100AB00085E0D82E8C8128813981EA80FB808823CB
:100AC000D9F0E20EF31E8D9DE0011124CA51DD4FD5
:100AD00068817981E616F70669F34A815B81C7016F
:100AE0000E94A904F982E882E5CF349FF001112425
:100AF000EA51FD4F232F9FCF8091E6029091E702AC
:100B0000821B930B8E199F098150984E8017910775
:100B100008F0AFCF80E0DF91CF911F910F91FF9050
:100B2000EF90DF90CF900895288139814A815B81D1
:100B3000240F351F31832083138302839C81948388
:100B40008C83E9CF0F931F93DB01E42FA80190E082
:100B5000EF3FE9F065E0E69FF0011124EA51FD4F17
:100B600060817181620F731F02C06F5F774025E063
:100B7000289FF001299FF00D1124EA51FD4F80813B
:100B800091818A0F9B1F1F910F910C94A904609172
:100B9000B7037091B803620F731F6115E8E07E0719
:100BA00020F7E7EBF3E0DCCFCF92DF92EF92FF92FA
:100BB0000F931F93CF93DF936B018A01790195E027
:100BC000899FE0011124CA51DD4F688179816C0D44
:100BD0007D1D82E00E94A4030A80DB81C02DCC1918
:100BE000DD09EC16FD0608F4E70160E08AE00E94EA
:100BF0002F028AE70E9446037801EC0EFD1EE016E4
:100C0000F10631F0F80181918F010E944603F7CF80
:100C100061E08AE00E942F02CE01DF91CF911F9107
:100C20000F91FF90EF90DF90CF900895FB0141501E
:100C30005109460F571FE417F50778F4208130E07B
:100C4000322F22276181260F311D820F931F8217B9
:100C5000930708F401963296EECFE417F50751F4A6
:100C6000208130E0322F2227820F931F82179307B3
:100C700008F401960895CF92DF92EF92FF920F93BE
:100C80001F93CF93DF9380911E0290E0982F8827C7
:100C900020911F02820F911D7C0124E1E21AF108CC
:100CA00048E050E068E272E00E970E94160600915C
:100CB0003C02069506950C7310E0A80160E372E013
:100CC0000E941606EC010E151F0508F042C0A70190
:100CD000401B510BB8016E5D7F4F8091F0010E9467
:100CE000BA0301977C0160E08AE00E942F028AE348
:100CF0000E944603D12CC12CCE14DF04B8F480E04E
:100D00000E944603082F10E0102F002780E00E9469
:100D10004603800F912F911DC80FD91FC817D907FF
:100D200008F4219682E0C80ED11CE6CFEC14FD0435
:100D300061F480E00E94460390E0982F8827C80F56
:100D4000D91FC817D90708F4219661E08AE00E94EC
:100D50002F029C2F8D2FCD2B11F48FEF9FEFDF9162
:100D6000CF911F910F91FF90EF90DF90CF9008955A
:100D700044E150E06CE172E090E080E00E941606F1
:100D8000009721F098278927982708958FEF9FEFE4
:100D90000895CF92DF92EF92FF920F931F93CF931C
:100DA000DF93C091EF01C1FF5EC02091EE0130E002
:100DB0004EE052E070E060E08091F0010E94D405C6
:100DC000CD7FC093EF01F090F0018091B4038823B0
:100DD00009F474C085E0F89EF0011124EA51FD4F3A
:100DE000C081D1812197028113810C0F1D1FCE017B
:100DF0000E949204E82E882321F060E0CE010E9438
:100E00007D04BE0184E00E94A403B80186E00E9434
:100E1000A4038AE0C82ED12C40E86FE180E80E944C
:100E20006C0340E86FE180EA0E946C034AE06CE1E9
:100E300080EA0E946C0348E06FE180E80E946C0346
:100E400004E610E08CE10E942B048A7029F501155C
:100E5000110521F1015011096AE070E080E090E095
:100E60000E94D102EFCFC0910602D09107022097D5
:100E700021F41092F00180E029C0CE010E94030508
:100E80008093F0018823B9F39E014EE052E070E0B8
:100E900060E00E94D40597CF012B51F448E06FE148
:100EA00080EA0E946C0381E0C81AD10809F0B4CF2F
:100EB000EE2021F06E2DCE010E947D04FF2019F05E
:100EC0008F2D0E940F031092F00181E0DF91CF91EE
:100ED0001F910F91FF90EF90DF90CF9008950F93A7
:100EE0001F93CF93DF93EC018C010B5F1F4F899110
:100EF00081110E940F03FE0131971082C017D107A4
:100F0000B1F7DF91CF911F910F910895CF93DF93A8
:100F1000EC01888181110E940F03FE01CE0104962D
:100F200021812193E817F907D9F71C82DF91CF912E
:100F30000895CF93DF93EC01E881F981008CF18D66
:100F4000E02D0995882339F08C859D850296DF91E7
:100F5000CF910C946F07DF91CF9108950F931F935A
:100F6000CF93DF931F92CDB7DEB78C01DC01ED91FB
:100F7000FC91008CF18DE02D09958823D1F0D801EA
:100F80001C96ED91FC918281882399F041E050E01C
:100F900070E060E00E94BA03BE016F5F7F4F0E9465
:100FA0004D03898190E00F90DF91CF911F910F91B8
:100FB00008958FEF9FEFF7CFCF93DF931F92CDB7B9
:100FC000DEB7DC01ED91FC910288F389E02D41E070
:100FD00050E0BE016F5F7F4F09951816190634F473
:100FE000898190E00F90DF91CF9108958FEF9FEF6F
:100FF000F9CF6F927F928F929F92AF92BF92CF92D2
:10100000DF92EF92FF920F931F93CF93DF938C01A8
:101010004B01EA01DC01ED91FC91008CF18DE02D9A
:101020000995882309F480C0D8011C96ED91FC91A4
:101030008281882309F47BC07E018EE1682E5E01E7
:10104000AE18BF08A80CB91CD8011C96ED91FC91F4
:10105000A70170E060E082810E94BA036C01B501D3
:101060000E944D03F801A484B584D50112967C90AA
:10107000872D0E942D038C159D05E9F5E81AF90AC4
:10108000C50102960E948607F801A485B585EC91FA
:101090006E9EF0011124E254FC4F818D84FF09C043
:1010A00011968C911197982F967019F4886011966B
:1010B0008C93D8011C96ED91FC911D978281811132
:1010C0002EC0818182FF05C011821D961C921E9246
:1010D0001C97CE018E199F09DF91CF911F910F911F
:1010E000FF90EF90DF90CF90BF90AF909F908F9048
:1010F0007F906F900895B5E07B9EF0011124EA5136
:10110000FD4F808191818C0D9D1D91838083828113
:1011100093818C199D0993838283CE01DDCFE114E5
:10112000F10409F08CCFF9CF8FEF9FEFD5CF90E08E
:1011300080E0D2CFEF92FF920F931F93CF93DF9374
:10114000EC01E881F981008CF18DE02D099588236F
:10115000E1F00C851D85780182E0E80EF11C095F45
:101160001F4FD0E0C0E0F70181917F010E942D0365
:10117000C80FD91FE016F106B1F7CE01DF91CF916C
:101180001F910F91FF90EF900895D0E0C0E0F5CF50
:10119000FC01448555854115510551F0FB0124851D
:1011A00035852115310521F081E04217530709F0FB
:1011B00080E00895DC011C96ED91FC91309731F0B0
:1011C0008281811105C081818170089580E0089538
:1011D00081E0089590E080E00895DC01ED91FC91BC
:1011E000028CF38DE02D099591E089270895CF9326
:1011F000DF93FC01A481B581109721F480E0DF9199
:10120000CF910895EC01ED91FC9111970688F78933
:10121000E02DCD01099581111EC0FE01E156FF4F61
:1012200080819181892B51F78DEF9FEF918380838E
:101230008C819D81DC01ED91FC910680F781E02D90
:1012400009958C819D81DC01ED91FC910488F589E3
:10125000E02D0995D3CF81E0D2CFCF92DF92EF92EC
:10126000FF920F931F93CF93DF9300D000D0CDB7A1
:10127000DEB78C01F90180E0DE0111967D019E2F21
:101280009F77EE0FEF2FEE1FFF0BF195309709F0D0
:101290009068D701A80FB11D9C938F5F309779F7A5
:1012A00090E0FA01E81BF90B6483FA01E81BF90BE3
:1012B0003596D701BD016E197F09681779071CF4AF
:1012C0006D916193F7CFFC013196D80114968D9101
:1012D0009C917F01E20EF31EBA016E1B7F0B6B5FC8
:1012E0007F4FDC01ED91FC910280F381E02DA7019D
:1012F00009956C010E940303F801E857FF4F6083D2
:1013000071838283938381E0EC14FD0409F080E013
:101310000F900F900F900F90DF91CF911F910F9131
:10132000FF90EF90DF90CF900895EF92FF920F9390
:101330001F93CF93DF93EC018B017A010E9403038B
:10134000FE01E857FF4F60837183828393838C8112
:101350009D81DC01ED91FC910280F381E02DA701DC
:10136000B801DF91CF911F910F91FF90EF900994F9
:101370001F93CF93DF93EC01162F0E940303FE010E
:10138000E857FF4F60837183828393838C819D81B3
:10139000DC01ED91FC910190F081E02D612FDF9156
:1013A000CF911F910994CF92DF92EF92FF920F930A
:1013B0001F93CF93DF93EC018B010E9403036B011A
:1013C0007C018C819D81DC01ED91FC910084F18593
:1013D000E02D0995892B69F40E9403036C197D099E
:1013E0008E099F0968397A438105910550F380E0A1
:1013F0000CC08C819D81DC01ED91FC910284F38510
:10140000E02D0995F801808381E0DF91CF911F9154
:101410000F91FF90EF90DF90CF9008952F923F9221
:101420004F925F926F927F928F929F92AF92BF92F4
:10143000CF92DF92EF92FF920F931F93CF93DF93A0
:1014400000D0CDB7DEB78C014B016C0126E0C20E97
:10145000D11CB6010E94D309811118C0F12CE12CD6
:10146000C7010F900F90DF91CF911F910F91FF90C7
:10147000EF90DF90CF90BF90AF909F908F907F9034
:101480006F905F904F903F902F900895D8011696DF
:10149000BC91BA8319821801E7E02E0E311CEE24AC
:1014A000E394F12CB12CA12C412C512C320143940A
:1014B000BE016F5F7F4FC8010E94D309882371F27C
:1014C000B7016F5F7F4F8981F10181931F01282F41
:1014D0002F7730E0249DA001259D500D349D500DA7
:1014E0001124A40EB51E27E0440C551C661C771C65
:1014F0002A95D1F787FD35C0FA81F07FFA838FEF07
:10150000860FD4018C93F03309F043C06C0D7D1D20
:10151000C8010E94D309882309F4A0CFB7016E5FE8
:101520007F4F6C0D7D1DC8010E94D309882309F4EB
:1015300095CFB7016D5F7F4FD401EC91E00FF12F94
:10154000F11DC780D12CDC2CCC248085C80ED11C89
:10155000F801868181FF03C0F2E0CF0ED11C82E04A
:101560001BC07B016530710509F0A2CFF801E1567F
:10157000FF4F8FEF9FEF91838083D80114968D9159
:101580009C91DC01ED91FC910488F589E02D099591
:1015900065CF80E0D12CC12C482E512C7B01461AFE
:1015A000570A18012DE9220E311C8EEF682E772480
:1015B0007A94C2018E0D9F1D8A159B0588F5BE0188
:1015C0006F5F7F4FC8010E94D309882309F446CF7B
:1015D000D1018D919C910097B1F0BA81B03399F40B
:1015E000F4012081A301421B51099A012E0D3F1DD8
:1015F000C216D30640F4DC01ED91FC910190F0811C
:10160000E02D69810995B0E8EB16F10428F4898191
:10161000F801EE0DFF1D8683EFEFEE1AFE0AC9CF2B
:10162000F801E356FF4F80819181892B09F018CF93
:10163000F1E8EF16F10408F011CF12CF089590E011
:1016400080E00895CF92DF92EF92FF920F931F9365
:10165000CF93DF93CDB7DEB7C254D1090FB6F8945C
:10166000DEBF0FBECDBF8C01FB0182819381A481BF
:10167000B58123968CAF9DAFAEAFBFAF239721E06E
:1016800023962FAF239723964CAD5DAD6EAD7FAD06
:1016900023974BAB5CAB6DAB7EAB89AF9AAFABAF77
:1016A000BCAF8DA79EA7AFA7B8AB28AB4DA55EA5D5
:1016B0006FA578A94FA358A769A77AA72EAB4BA906
:1016C0005CA96DA97EA949A35AA36BA37CA38B8FA8
:1016D0009C8FAD8FBE8F2AA74FA158A569A57AA56B
:1016E0004D8B5E8B6F8B788F2CA349A15AA16BA178
:1016F0007CA14F87588B698B7A8B89879A87AB87B8
:10170000BC870E94030366507F4F8F4F9F4F6093AB
:101710009E0470939F048093A0049093A104109260
:10172000B8031092B7031092BA031092B903E8EE0F
:10173000F2E08BECDF011D928A95E9F781E098E0F9
:101740009093E7028093E60261E08AE00E947B02C8
:1017500061E08AE00E942F02FFB6F8948091B30303
:10176000811127C0E0E2F1E08491ECE0F1E0949196
:10177000E82FF0E0EE0FFF1FE850FF4FA591B49166
:10178000EC91E92321F461E08AE00E942F0261E0FC
:101790008AE00E947B028CB580618CBD8CB5806430
:1017A0008CBD61E08DE00E947B0261E08BE00E94D5
:1017B0007B028091B3038F5F8093B303FFBE8CB530
:1017C0008C7F8CBD8DB581608DBD4FEF60E08FEF5C
:1017D0000E946C0362E070E080E090E00E94D10221
:1017E00062E370E080E090E00E94D1021092B603C4
:1017F0001092B50380E1E82EF12C6DE180E00E94AB
:101800000D0481110BC0B1E0EB1AF10839F06AE068
:1018100070E080E090E00E94D102EFCF70E060E0E5
:1018200088E00E94A40370E060E08CE00E94A403C2
:101830006FEF77E08AE00E94A40361EB88E30E94E7
:1018400000046FE370E388E20E94A40369EF77EF7E
:1018500080E30E94A4036DE070E080EC0E94A4038A
:1018600042E362EC80E80E946C0362E17CE086EC7B
:101870000E94A40362E184EC0E9400046CED75E018
:101880008AEC0E94A403F801608184EE0E940004A7
:10189000D80111966C9185EE0E940004F8016281D6
:1018A00082EE0E940004D80113966C9183EE0E9490
:1018B0000004F801648180EE0E940004D8011596AE
:1018C0006C9181EE0E94000460E071E080E10E9472
:1018D00060048FE10E94850340EC6BE180E80E9488
:1018E0006C0344E06FE180E80E946C0366E774E0FB
:1018F00084E10E94600482E70E942B048F3F09F478
:101900008BC08093B403F801808180939804818117
:1019100080939904828180939A04838180939B04AD
:10192000848180939C04858180939D041092370468
:1019300010923604109239041092380410923B042D
:1019400010923A0410923D0410923C041092D70376
:101950001092F503109213041092310484E08093E6
:101960003E0480E094E09093BD038093BC0310920A
:1019700097049BE024E080919704883008F44FC0DE
:101980004D895E898F8921E02A8BCF84D888E988A8
:10199000FA88CB82DC82ED82FE826B857C85E985CC
:1019A000FA85F093E302E093E2027093E50260931C
:1019B000E4025093DF024093DE0290E09160909346
:1019C000E1028093E0028FEF9FEF9093DB02809320
:1019D000DA028FEF90E09093DD028093DC022E8399
:1019E0008B819C81AD81BE8180934D0590934E0586
:1019F000A0934F05B0935005CE5BDF4F0FB6F89420
:101A0000DEBF0FBECDBFDF91CF911F910F91FF9031
:101A1000EF90DF90CF9008951092B40374CF899F18
:101A2000F0011124E15CFB4FDF01322F1D923A954A
:101A3000E9F78F5F809397049ECFAF92BF92CF92CA
:101A4000DF92EF92FF920F931F93CF93DF938C015E
:101A50006B015A01E9010E94F7088823C9F1F601D8
:101A600001900020E9F73197EC19FD09CE010796A6
:101A7000E80FF91FE138F10558F5780186E0E80E26
:101A8000F11C45E050E0B701C6010E94D400F50109
:101A9000DC011696A00FB11FA5014C0F5D1FE417C6
:101AA000F50719F021912D93FACF25979E01280F64
:101AB000391FA70160E3C801DF91CF911F910F91FA
:101AC000FF90EF90DF90CF90BF90AF900C942D09D6
:101AD00080E0DF91CF911F910F91FF90EF90DF9009
:101AE000CF90BF90AF900895FB0101900020E9F7DF
:101AF0003197AF01461B570BDC01ED91FC91028041
:101B0000F381E02D09948F929F92AF92BF92EF9252
:101B1000FF920F931F93CF93DF93CDB7DEB7A197BB
:101B20000FB6F894DEBF0FBECDBF7C01FA01CB012A
:101B300019A2223008F42AE08E010F5D1F4F822E79
:101B4000912CB12CA12CBF01A50194010E94DA2691
:101B5000F901CA016A300CF5605DD8016E938D0100
:101B6000232B242B252B79F790E080E0109721F090
:101B7000BD01C7010E94740DA1960FB6F894DEBF97
:101B80000FBECDBFDF91CF911F910F91FF90EF90CE
:101B9000BF90AF909F908F900895695CDECFEF92D9
:101BA000FF920F931F93CF93DF938C017B01D0E0C3
:101BB000C0E0F701EC0FFD1F6491662339F0C80106
:101BC0000E94C201892B11F02196F3CF6CE671E0DF
:101BD000C8010E94740D8C0F9D1FDF91CF911F9142
:101BE0000F91FF90EF900895CF93DF93EC01662360
:101BF00071F06130A1F462E770E082EA94E00E9443
:101C0000CF0D61E08F81DF91CF910C942F0268E6B8
:101C100070E082EA94E00E94CF0D60E0F3CFDF91A4
:101C2000CF9108958F929F92AF92BF92CF92DF9201
:101C3000EF92FF920F931F93CF93DF937C01EB0101
:101C40006C0182E0C80ED11C4701E5E08E0E911CAC
:101C500010E000E0F60141916F0150E070E060E0BB
:101C60002AE0CE010E94830D5C01E881F981019098
:101C7000F081E02D6EE2CE0109958A0D9B1D080FC3
:101C8000191FC814D90431F7F701458150E070E0FD
:101C900060E02AE0CE010E94830D800F911FDF914A
:101CA000CF911F910F91FF90EF90DF90CF90BF9059
:101CB000AF909F908F9008950E940227EF92FF921D
:101CC0000F931F93CF93DF93FC0110929704CFE300
:101CD000D4E0DE0130E020E02830310569F490E006
:101CE000983009F042C0109205021092040210923E
:101CF00097042FE334E044C0CD018F5394400D91FD
:101D00001C9111970115110561F112964D915C918D
:101D100013974115510529F1E080F1800E151F053B
:101D200001F50281138140175107D9F420939704DC
:101D3000DC01AD5BBB4F86E0FB0101900D928A9503
:101D4000E1F78BE0829FF001839FF00D1124E15CAD
:101D5000FB4F1286DF91CF911F910F91FF90EF9073
:101D600008952F5F3F4F1B96B7CF9E014881598141
:101D7000452BB1F44A815B81452B91F490939704F4
:101D800084E0D90101900D928A95E1F7D90114966A
:101D900086E0FB0101900D928A95E1F7F901D9CF18
:101DA0009F5F2B969DCFEF92FF920F931F93CF9340
:101DB000DF9300D000D000D0CDB7DEB740912C0229
:101DC00050912D024F3F540731F480912E02909193
:101DD0002F02019619F18091E2029091E302609145
:101DE000DA027091DB029B0120953095282B392B6C
:101DF00042175307A9F52091DC023091DD022095AE
:101E00003095E091E402F091E5022E2B3F2BE0911A
:101E10002E02F0912F02E217F30711F586E0E4E1BC
:101E2000F1E0AEE0B2E001900D928A95E1F786E034
:101E3000E8E9F4E0A4E1B2E001900D928A95E1F7BF
:101E400088E090E090931B0280931A028091060232
:101E5000909107020E969093070280930602A5C008
:101E60008427952786239723892B99F420912E0286
:101E700030912F028091E4029091E502822793270E
:101E80006091DC027091DD0286239723892B09F48F
:101E900099C08091DE029091DF0290930B028093B3
:101EA0000A028091E0029091E10290930D028093EA
:101EB0000C02E0900A02F0900B0200910C021091CB
:101EC0000D02EFE3F4E080E0883009F084C08093F5
:101ED000970446E050E06FEF70E08EE092E00E94E1
:101EE0002F2786E0EEE2F2E0DF01282F1D922A95EF
:101EF000E9F7E8E9F4E0A4E1B2E0982F01900D924F
:101F00009A95E1F7E8E9F4E0A4E2B2E0982F0190B5
:101F10000D929A95E1F7F0923502E0923402109317
:101F20003702009336022091E2023091E3023093AF
:101F30002B0220932A022091E4023091E502309393
:101F40002D0220932C0220E031E0309323022093D5
:101F5000220230931D0220931C0228E030E03093CF
:101F60001F0220931E028093200294E0909321028E
:101F700028E036E030931B0220931A0224E432E07A
:101F800030930902209308022AE230E030930702DE
:101F900020930602BE016F5F7F4FDB011D928A9581
:101FA000E9F78AE092E00E945E0E26960FB6F8945A
:101FB000DEBF0FBECDBFDF91CF911F910F91FF907C
:101FC000EF90089550930B0240930A0230930D0254
:101FD00020930C026ECF20813181E216F306E1F4EA
:101FE0002281338102171307B9F49481911103C040
:101FF0009581992329F080939704349686E011CF38
:1020000096819111F8CF97819111F5CF908591111B
:10201000F2CF91859111EFCF8F5F3B9655CFAF9265
:10202000BF92CF92DF92EF92FF920F931F93CF93C5
:10203000DF93E0900202F0900302F701C48DD58D8A
:10204000D090FF01209781F5D6FC03C0F12CE12C44
:10205000C6C0E5EAF1E090E080E0218121117CC07A
:1020600042E1489F9001499F300D1124E901CB5571
:10207000DE4FC7018E5B9340959587956FEE7EEEA0
:10208000869FA001879F500D969F500D1124488375
:1020900081E0898329553E4F81E1F90111928A95AA
:1020A000E9F7F701D58FC48FD1FE30C00091060249
:1020B000109107020115110549F18981867031F5EA
:1020C0005E01F2E0AF0EB11CC12CF50181915F0100
:1020D000811149C0C8010E940305F5013197808331
:1020E000882309F440C020910802309109022E5043
:1020F00032404091ED0170E060E00E94A205F4E002
:10210000CF1204C0F701818D8061818F898183FFA7
:102110000AC0877F89838D2D82608093FF01F7013C
:10212000818D8F7E818F1091FF0114FD02C017FFFA
:1021300026C0CE0107960E946F078A818823E9F0A6
:10214000F701848195819F838E838981846089834F
:10215000F701158E148E7ACF019672968430910510
:1021600009F07BCF73CFC394F5E0CF12AECF80914F
:10217000EF018E7F8093EF01C5CF1982E9CF10FF69
:1021800004C0CE0107960E9486071C7009F465C042
:102190008F81882309F461C09885911144C0EC8433
:1021A000FD84E114F10409F451CF95E0899FF00119
:1021B0001124EA51FD4FF382E282C0900802D090D0
:1021C0000902F601EE50F2406F01E093EE01DD24CA
:1021D000C6018E0D9F1D009769F51092F001609168
:1021E000080270910902F092FA01E092F9011E14BE
:1021F0001F0454F48091000290910102681779073E
:1022000019F0A7010E941427F0920702E09206023B
:10221000DF91CF911F910F91FF90EF90DF90CF90C2
:10222000BF90AF9008950E942D037C01892B09F483
:102230000DCFC3CF0E9403058093F001882379F26C
:10224000870130E020E04F81B6010E94A205809115
:10225000EF0182608093EF01C2CF898181FFF6CECA
:102260008F81811108C01982F701158E148E80E1CB
:102270008093FF01EBCEF701818D8061818FE6CEE7
:10228000AF92BF92CF92DF92EF92FF921F93CF93C4
:10229000DF93C0910202D091030224E432E0309334
:1022A0000902209308023093010220930002833038
:1022B000C9F4898D8F70833009F044C08889998969
:1022C000892B09F03FC088E08093FF010E940F1026
:1022D0008091FF0185FFDFC41092FA011092F9018D
:1022E000198E51C0823009F005C18091FE018F5FC7
:1022F0008093FE01811113C08091FD018F5F809357
:10230000FD0181110CC08091FC018F5F8093FC0165
:10231000811105C08091FB018F5F8093FB011092BA
:102320000702109206021092FA011092F901898DAB
:10233000982F9D7F953059F48A8D8F5F8A8F8837CB
:1023400009F4198E109207021092060254C18823D4
:10235000C9F328893989232B09F4C7C09A8D2FEF37
:10236000290F2A8F9111EECF9B8D983031F02FEFEE
:10237000280F223050F4953041F4198E80E8809374
:10238000FF010E940F1084E184C0392F953008F0BE
:1023900034E023E001C0220F3A95EAF72A8F9F5FCD
:1023A0009B8F8F70833009F47DC008F06AC0813044
:1023B00009F4D2C2823031F610923D0280913D0282
:1023C000826080933D0282E08093440294E0909387
:1023D000450280934602109247028CE290E090936F
:1023E00007028093060280E680933C0288858093F2
:1023F00038028985809339028A8580933A028B85D9
:1024000080933B028C85809334028D8580933502C6
:102410008E85809336028F858093370286E0809385
:1024200025028C819D8190933102809330028E81B0
:102430009F8190933302809332028091E2029091C7
:10244000E30290932902809328028091E402909104
:10245000E50290932B0280932A02888199819093C0
:102460002D0280932C028A819B8190932F0280936E
:102470002E02898D84FF95C410923F0210923E0275
:1024800080C1863029F0883019F0843009F05ACFA5
:1024900081E180933D0288E290E09093070280936F
:1024A000060221C084E08093FF010E940F108091FA
:1024B000000290910102909309028093080280919A
:1024C000F9019091FA01892B09F416C48889998938
:1024D000009709F411C4889690930702809306022E
:1024E00088E180933D0280E57FCF8F70833009F0D3
:1024F00029CFE9CE80911C02853409F023CFC0900A
:102500001E02D12CDC2CCC2480911F02C80ED11CC1
:1025100080910602909107028C159D0508F412CF58
:10252000D0920702C0920602809122028F7309F0B6
:1025300009CF10912302111105CFA090E202B090B3
:10254000E302A114B10431F48091E4029091E50218
:10255000892BA1F080912C0290912D02A816B9062A
:1025600009F0F0CE20912E0230912F028091E402EA
:102570009091E5022817390709F0E4CE0E94B806C9
:10258000019609F0DFCE80912502863009F441C022
:10259000813009F0D7CE80913002883009F0D2CE58
:1025A000109230028091320290913302873F2FEFD8
:1025B000920768F1099690933302809332028091DA
:1025C00028029091290290932D0280932C028091F1
:1025D0002A0290912B0290932F0280932E02B092A8
:1025E0002902A09228028091E4029091E502909342
:1025F0002B0280932A021092FF01DF91CF911F914D
:10260000FF90EF90DF90CF90BF90AF900895089625
:10261000D2CF0E943B06019609F094CE409132023F
:102620005091330260913002709131028091280202
:1026300090912902E0912A02F0912B02CEEBD3E097
:10264000298D2223A9F0AC81BD814A175B0781F453
:10265000AE81BF816A177B0759F4A881B9818A17B7
:102660009B0731F4AA81BB81EA17FB0709F47CC1FF
:102670006E9624E0C831D20719F310F380913D0221
:102680008F73823061F45093F8014093F701E6E3D1
:10269000F4E080E0843009F0B2C080933E04809181
:1026A0003D0282FD4FCE84E180933D0288E290E0BE
:1026B000909307028093060280E580933C0230915C
:1026C000370280913B02809337022091360280913D
:1026D0003A028093360220933A029091350280911B
:1026E00039028093350290933902809134028093AD
:1026F0003E044091380240933402809338023F5F99
:1027000030933B0231110DC02F5F20933A0221110B
:1027100008C09F5F90933902911103C08F5F80932F
:10272000380280913002909131029093F8018093A9
:10273000F70120913202309133023093310220931D
:10274000300290933302809332028091280290915C
:10275000290290932D0280932C0280912A0290915D
:102760002B0290932F0280932E02B0922902A09206
:1027700028028091E4029091E50290932B028093CD
:102780002A0280E48093240280910602909107023D
:1027900090931E0280931F021092430210924202F5
:1027A00010924102109240020E943B068095909543
:1027B000909341028093400285E480931C02109222
:1027C0001D0210922302109222028091F101909139
:1027D000F20101969093F2018093F101909320020F
:1027E0008093210210922702109226020E94B806BE
:1027F000809590959093270280932602FCCE21919C
:1028000031918F5F4217530709F044CF10923E0475
:10281000EEEBF3E090E080E0D0E0C0E084309105A2
:1028200031F484E080933E04209781F48BCD3E2FD9
:102830002F2FA18DA11163C080933E042EE1289F0C
:10284000E001299FD00D1124C254DC4FD093030224
:10285000C093020283E08A8F888F1E8A84E08F8B68
:102860001B8E5D834C837F836E83809128029091C1
:1028700029029983888380912A0290912B029B835D
:102880008A8381E0898F8091FB018C878091FC0194
:102890008D878091FD018E878091FE018F8781E079
:1028A00090E0998B888B809137028B8780913602DC
:1028B0008A8780913502898780913402888781E0F8
:1028C00090E00E941B1E80913C02982F907F9135D2
:1028D00008F442C082958F708550990B880F991F1C
:1028E000880F991FE12FF0E0E817F9072CF4E25F59
:1028F000FD4F36A9311112C010933E042DC0A730F0
:1029000031F4209731F0B28DAA8DAB1710F03C2F27
:102910002D2F01967E96C32FD22F80CF313011F408
:102920001F5FE0CF27A93230D9F42430C9F41093C7
:102930003E0480AD91AD8927982789279093F801AF
:102940008093F701813022E0920710F080E092E05E
:102950009B8B8A8B9D8B8C8B80E180933D022ECD4F
:10296000222351F2120FBECFD0930302C093020272
:102970001092FF0190913D0292FF07C0198E80E2F4
:102980008093FF010E940F10DDCC80913C02829564
:102990008F70880F880F80933E04C81AD108760183
:1029A00084E1E81AF108F0920702E09206022F7023
:1029B000223021F4892F8F738231D1F0E114F10498
:1029C00019F4892F8370A1F039852A858B85509160
:1029D000340248855413C0C1409135024313BCC131
:1029E000309136023213B8C1209137022813B4C196
:1029F00094FF49C0688979896115710509F443C05C
:102A0000CE010C960E94E81D309138028091F301AE
:102A1000381339C0209139028091F401281333C052
:102A200090913A028091F50198132DC080913B025C
:102A30004091F601841327C03C872D879E878F879E
:102A4000988D8B8D811118C08E892A8D921B282F0D
:102A5000269526952695921B890F8E8B97FD91952D
:102A60002F89322F36953695231B920F9F8B869593
:102A700086958695890F888F81E08093FF01888DE8
:102A80008A8F198A188A298DE22FEF70E150E83079
:102A900008F058CCF0E0E15BFA4E0C94FC26571598
:102AA0007015DA158F16B816C916AC1688168091EF
:102AB000FF0180FF47CC83E0898F80E48093FF0192
:102AC000198A188AE114F10431F082E48093FF013D
:102AD000C7010E941B1E1092FA011092F901F6CB59
:102AE0008091FF0180FF5FC080913D028F73823132
:102AF00009F059C080913C02982F907F913598F150
:102B000082958F708550990B880F991F880F991F98
:102B1000E12FF0E0E817F9072CF4E25FFD4F36A94A
:102B2000311103C010933E041EC0313011F41F5FF9
:102B3000EFCF27A9323099F5243089F510933E0460
:102B400080AD91AD8927982789279093F8018093CC
:102B5000F701813022E0920710F080E092E09B8B39
:102B60008A8B9D8B8C8B83E0898F80913402888740
:102B7000809135028987809136028A878091370259
:102B80008B8781E090E00E941B1E82E48093FF010E
:102B9000198A188A10920702109206029CCF2223EB
:102BA00009F2120FB5CF80E28093FF010E940F104F
:102BB000198E75CD80913D0280FF20C024FD1EC07E
:102BC00088899989892B09F0BDCBC60143970E945A
:102BD0001B1E8091FF01982F90619093FF01EF28B9
:102BE00019F082618093FF010E940F1081E090E054
:102BF000998B888B88E0898F1B8E4ACC85FF14C007
:102C00008091420290914302982789279827AC012E
:102C10004C5B5D4F5093090240930802E81AF90A91
:102C2000F0920702E09206024091060250910702DC
:102C30009091FF014115510541F024FD06C09260BD
:102C40009093FF01CA010E941B1E80913E02282F13
:102C500030E0322F222780913F02820F932F911D67
:102C60009093F8018093F7012C893D892817390743
:102C700010F0892B21F43093F8012093F701809113
:102C8000F7019091F8019B8B8A8B8091FF018370F3
:102C900009F458CB20CF84FF0AC01092FA01109299
:102CA000F90181E090E0998B888B84E0A4CF20919A
:102CB000F9013091FA0121153105B9F080FF02C008
:102CC000198A188A88899989009789F48A899B8941
:102CD0008217930720F49093FA018093F901809171
:102CE000F9019091FA01998B888B1B8EE0CB909320
:102CF000FA018093F901F9CF8091FF0181FF22CB86
:102D000088E290E0909307028093060280E1E9CB8D
:102D10008091FF0180FF16CB198E80E131CEE11446
:102D2000F10419F0C7010E941B1E8091FF01817000
:102D300090913D0290FF15C0882381F087E0898F34
:102D40001A8E198A188A81E090E00E941B1E80E189
:102D50008093FF010E940F1080E19BCB86E0898F5A
:102D6000F2CF882399F085E0898F198A188AEACAF8
:102D7000E114F10419F0C7010E941B1E80913D026D
:102D800080FF04C087E0898F1A8EDDCFEF2821F7FE
:102D9000D9CA8091FF0180FFD5CA87E0898F1A8E3A
:102DA000D1CA82E080933E0210923F02EACC8F9219
:102DB0009F92AF92BF92CF92DF92EF92FF920F93CA
:102DC0001F93CF93DF938091B403882309F420C12C
:102DD000D091ED01D11151C089E30E942B048823C9
:102DE00009F449C06091B5037091B6036B0126E008
:102DF000C20ED11CC11438E0D30628F06B0149EF94
:102E0000C41A47E0D40A80E00E94A40360E08AE389
:102E10000E940D04E82E60E08AE30E940D04F82E63
:102E2000F092B603E092B50360E08AE30E940D04DD
:102E3000182F60E08AE30E940D04C82F60E08AE347
:102E40000E940D04082F40E46EE180E80E946C03AC
:102E500007FFEBC0E11458E0F50608F0E6C0D09299
:102E6000B803C092B7039C2F812F04979093BA03A5
:102E70008093B903DFEFD093ED01F090ED01FF20D7
:102E800009F476C081E08093EF018F2D0E942D031D
:102E9000EC019093070280930602892B09F4F2C09B
:102EA00042E650E070E060E08F2D0E94BA036EE0D1
:102EB00072E00E944D03C0901A02D0901B0288E07D
:102EC000C816D10409F0CCC0F092F0012E97D0932F
:102ED0000702C09306022091280230912902E09156
:102EE000E202F091E302C9018E279F274091DA02A6
:102EF0005091DB0284239523892B49F540912A02C6
:102F000050912B026091E4027091E502CA0186277C
:102F10009727A091DC02B091DD028A239B23892BA5
:102F2000B1F480912C0290912D02E817F90709F075
:102F30007FC080912E0290912F026817790709F0C7
:102F400077C064E172E088E292E00E945E0E81E068
:102F50000E9440118091060290910702892B21F076
:102F60000E94D30E0E94C9068091EF0180FD8AC0A5
:102F70000E9403036B017C0180919E0490919F0449
:102F8000A091A004B091A10446015701881A990AA2
:102F9000AA0ABB0ACEEBD3E006E314E0D093030207
:102FA000C093020282E0B7FE14C0EC8DFD8D309715
:102FB00009F4FFC086859785A089B189A70196018C
:102FC000281B390B4A0B5B0BDA01C901B7FD0DC099
:102FD00083E00E9440118091060290910702892BA4
:102FE00021F00E94D30E0E94C9066E960C171D0791
:102FF000A9F6B7FC0DC03AEFC30ED11CE11CF11CC1
:10300000C0929E04D0929F04E092A004F092A1048A
:10301000DF91CF911F910F91FF90EF90DF90CF90B4
:10302000BF90AF909F908F9008950E94F10323CF9F
:10303000EFE3F4E080E0883019F48093970487CFC1
:10304000608171812617370741F4628173814617C9
:10305000570719F48093970474CF8F5F3B96EBCF9B
:1030600028E0C21626E0D20669F4109207021092F8
:103070000602AA9760F48091060290910702892BBC
:1030800009F070CF0E94F1031092ED0171CF809191
:10309000220290912302811531E0930701F18115FD
:1030A000924049F720913402309135028091E2023A
:1030B0009091E30228173907F1F6209136023091FA
:1030C00037028091E4029091E5022817390799F6BA
:1030D00064E272E08AE292E00E945E0ECCCF009140
:1030E0003402109135028091E2029091E3020817B8
:1030F000190709F6C0913602D09137028091E40297
:103100009091E502C817D90709F0B5CF64E272E0E3
:103110008AE292E00E945E0E80E092E090932302A9
:103120008093220286E0E4E2F2E0AEE2B2E00190B7
:103130000D928A95E1F786E0E8E9F4E0A4E2B2E0D6
:1031400001900D928A95E1F786E0E8E9F4E0A4E1C8
:10315000B2E001900D928A95E1F786E0EEE2F2E0AE
:10316000AEE0B2E001900D928A95E1F780912A02DB
:1031700090912B02909335028093340280912C021F
:1031800090912D02909337028093360210932B0278
:1031900000932A02D0932D02C0932C02D0921B02DE
:1031A000C0921A028AE290E090930702809306028E
:1031B00062CF8E859F85A889B98900CFAF92BF92D3
:1031C000CF92DF92EF92FF920F931F93CF938C01D8
:1031D0005B017A016A010E94D7160115110509F4F5
:1031E0005AC0F8018181867009F055C03896C1E057
:1031F0008191811133C0C150F801EC0FF11D87811D
:1032000081110DC080E092E00E940305F801EC0FEF
:10321000F11D87838823F9F2F80115861486A7012A
:103220004C195D094A0D5B1DF80164857585960191
:10323000EC0FF11D87810E94D405C81AD90AF80144
:1032400024853585820F931F958784871C141D0460
:1032500054F4C43009F4BFCFCF5FD4CFCF5FC530B3
:1032600039F6C4E0C9CF0E940303665F7F4F8F4FDA
:103270009F4FF80166877787808B918BC7018C19E8
:103280009D09CF911F910F91FF90EF90DF90CF900C
:10329000BF90AF90089590E080E0F3CFFC0184856B
:1032A00095850C94DE18CF93DF931F92CDB7DEB7D0
:1032B000698341E050E0BE016F5F7F4FFC01848570
:1032C00095850E94DE180F90DF91CF910895CF93DE
:1032D000DF93EC010E94D716EC85FD85309739F01D
:1032E000818182FF08C081E09281911101C080E05C
:1032F000DF91CF91089581E0FBCFCF93DF93EC0175
:103300008C859D85009769F0FC012181222349F07D
:1033100002960E946F07EC85FD85818182FF07C0C0
:1033200011821D861C86DF91CF910C94D716826086
:103330008183F7CFCF92DF92EF92FF920F931F938B
:10334000CF93DF938C01EB016A01DC01ED91FC91DD
:103350000488F589E02D0995EA80FB806C817D81E8
:103360005C2D4D2D8091BC039091BD03019681157C
:10337000BDE79B0710F080E090E1382F292FEEEB9E
:10338000F3E0DF01C0E0C430D1F49093BD0380933B
:10339000BC0310923E0480E0D0E0C0E08430F1F441
:1033A00080933E04209711F590E080E0DF91CF916B
:1033B0001F910F91FF90EF90DF90CF900895599655
:1033C000DC915997DD2339F01496CD90DC90159758
:1033D000C216D30659F2CF5F5E96D5CFAE2F9F2F80
:1033E000B18DB1113CC080933E04EF0182E0898F22
:1033F0008091FB018C878091FC018D878091FD017C
:103400008E878091FE018F8780E092E09B8B8A8B74
:103410009D8B8C8B81E090E0998B888B1B8E8A8FA3
:1034200083E0888F1E8A80E18F8B3D832C835F83AE
:103430004E83F982E8827B836A83898D8F7009F4D9
:10344000B3CF0E94D716898D8F708330B1F78C8DE2
:103450009D8DF8019587848781E090E0A7CFB730F4
:1034600031F4209731F0D28CBA8DBD1510F0AC2F0D
:103470009D2F8F5F7E96CA2FD92F90CF4FE050E0BF
:10348000BC0186E991E00C94CB26CF92DF92EF92BB
:10349000FF920F931F93CF93DF93EC019D81917067
:1034A0008D8186958170981709F44EC08B010E941A
:1034B0000303CE80DF80E884F9849B01AC012C19E2
:1034C0003D094E095F0969017A0135E6C316D10449
:1034D000E104F104C8F16E837F83888799876FE6E2
:1034E00071E082EA94E00E94740D6CE671E082EA79
:1034F00094E00E94740D9D818D8190FB81F98D83F4
:103500008D8180FF1EC08A859B850E943E1A7C01AA
:103510008F8598890E943E1AF70101900020E9F7F3
:1035200031979F012E193F09A701BC01C801DF9106
:10353000CF911F910F91FF90EF90DF90CF900C945F
:103540001D0D8C859D85E1CFDF91CF911F910F914E
:10355000FF90EF90DF90CF9008957F928F929F928F
:10356000AF92BF92CF92DF92EF92FF920F931F9391
:10357000CF93DF938C017B016A018090D8029090F9
:10358000D902712C540186EEA80EB11CD5018C9184
:10359000781608F048C0C72DD0E0C259DF4FCC0FD5
:1035A000DD1FC80DD91DE881F981858196810E94B2
:1035B0003E1A42E050E0B8010E943627892B89F577
:1035C000A880B980D501ED91FC910081118139E687
:1035D000832E35E0932ED0E0C0E0F401808191810C
:1035E0000E943E1AA601BC01C7010E940727892B31
:1035F000E9F4CE01880F991FC80FD91FC759DA4FB8
:103600006A81C501F801DF91CF911F910F91FF9061
:10361000EF90DF90CF90BF90AF909F908F907F9072
:1036200009947394B3CFB12CA12CCCCF2196F3E0A5
:103630008F0E911CC730D10581F664E0E2CF1F9256
:103640000F920FB60F9211242F933F934F935F93D6
:103650006F937F938F939F93AF93BF93EF93FF935A
:1036600082EA94E00E94A001FF91EF91BF91AF9197
:103670009F918F917F916F915F914F913F912F918A
:103680000F900FBE0F901F9018951F920F920FB6BC
:103690000F9211242F938F939F93EF93FF93E091B9
:1036A000B204F091B3048081E091B804F091B904C0
:1036B00082FD1BC090818091BB048F5F8F7320912E
:1036C000BC04821741F0E091BB04F0E0EE55FB4FE3
:1036D000958F8093BB04FF91EF919F918F912F91D4
:1036E0000F900FBE0F901F9018958081F4CF1F92FE
:1036F0000F920FB60F9211242F933F938F939F93A6
:10370000AF93BF938091730290917402A091750260
:10371000B09176023091720223E0230F2D3758F5D5
:103720000196A11DB11D20937202809373029093A4
:103730007402A0937502B093760280917702909103
:103740007802A0917902B0917A020196A11DB11D73
:103750008093770290937802A0937902B0937A02D3
:10376000BF91AF919F918F913F912F910F900FBE7D
:103770000F901F90189526E8230F0296A11DB11DEA
:10378000D2CF1F920F920FB60F9211242F933F9317
:103790004F935F936F937F938F939F93AF93BF9359
:1037A000CF93DF93EF93FF93D9B190917F02C091B4
:1037B000AF022091AC028D2F80958223CD238C2BDC
:1037C00020916D00C92FCD27C223C823D0937F023B
:1037D000CC2309F46EC0C0FF0BC0109294018D2F52
:1037E000817080939501E0918002F09181020995AA
:1037F000C1FF0CC081E0809394018D2F8270809373
:103800009501E0918202F09183020995C2FF0CC0FC
:1038100082E0809394018D2F847080939501E091D4
:103820008402F09185020995C3FF0CC083E0809368
:1038300094018D2F887080939501E0918602F0911C
:1038400087020995C4FF0CC084E0809394018D2FFA
:10385000807180939501E0918802F0918902099529
:10386000C5FF0CC085E0809394018D2F80728093FA
:103870009501E0918A02F0918B020995C6FF0CC078
:1038800086E0809394018D2F807480939501E09160
:103890008C02F0918D020995C7FF0BC087E08093E1
:1038A0009401D078D0939501E0918E02F0918F022F
:1038B0000995FF91EF91DF91CF91BF91AF919F91CA
:1038C0008F917F916F915F914F913F912F910F90C9
:1038D0000FBE0F901F9018951F920F920FB60F9268
:1038E00011242F933F934F935F936F937F938F9305
:1038F0009F93AF93BF93CF93DF93EF93FF93D6B193
:1039000090919002C091B0022091AD028D2F8095D0
:103910008223CD238C2B20916C00C92FCD27C2236D
:10392000C823D0939002CC2309F453C0C0FF0CC02D
:103930008EE0809394018D2F817080939501E091AA
:103940009102F09192020995C1FF0CC08FE0809323
:1039500094018D2F827080939501E0919302F091F4
:1039600094020995C2FF0CC080E1809394018D2FD1
:10397000847080939501E0919502F09196020995EB
:10398000C3FF0CC081E1809394018D2F88708093D8
:103990009501E0919702F09198020995C4FF0CC03F
:1039A00082E1809394018D2F807180939501E09145
:1039B0009902F0919A020995C5FF0BC083E18093AB
:1039C0009401D072D0939501E0919B02F0919C02FA
:1039D0000995FF91EF91DF91CF91BF91AF919F91A9
:1039E0008F917F916F915F914F913F912F910F90A8
:1039F0000FBE0F901F9018951F920F920FB60F9247
:103A000011242F933F934F935F936F937F938F93E3
:103A10009F93AF93BF93CF93DF93EF93FF93D3B174
:103A200090919F02C091B1022091AE028D2F80959E
:103A30008223CD238C2B20916B00C92FCD27C2234D
:103A4000C823D0939F02CC2309F453C0C0FF0CC0FD
:103A500088E0809394018D2F817080939501E0918F
:103A6000A002F091A1020995C1FF0CC089E08093EA
:103A700094018D2F827080939501E091A202F091C4
:103A8000A3020995C2FF0CC08AE0809394018D2F98
:103A9000847080939501E091A402F091A5020995AC
:103AA000C3FF0CC08BE0809394018D2F88708093AE
:103AB0009501E091A602F091A7020995C4FF0CC000
:103AC0008CE0809394018D2F807180939501E0911B
:103AD000A802F091A9020995C5FF0BC08DE0809363
:103AE0009401D072D0939501E091AA02F091AB02BB
:103AF0000995FF91EF91DF91CF91BF91AF919F9188
:103B00008F917F916F915F914F913F912F910F9086
:103B10000FBE0F901F9018951F920F920FB60F9225
:103B200011242F933F934F935F936F937F938F93C2
:103B30009F93AF93BF93EF93FF9383E080939401A0
:103B400089B1887080939501E0917D02F0917E02A9
:103B50000995FF91EF91BF91AF919F918F917F91C7
:103B60006F915F914F913F912F910F900FBE0F90EA
:103B70001F9018951F920F920FB60F9211242F933A
:103B80003F934F935F936F937F938F939F93AF93E5
:103B9000BF93EF93FF9382E08093940189B1847087
:103BA00080939501E0917B02F0917C020995FF9151
:103BB000EF91BF91AF919F918F917F916F915F91A5
:103BC0004F913F912F910F900FBE0F901F9018951E
:103BD000FC013381360F3093F601A72FBB2792816A
:103BE0009A0F9093F50121812093F4014081409335
:103BF000F3019A171B0648F481E0820F8093F401C9
:103C0000811103C04F5F4093F301772736171706E2
:103C100088F49F5F9093F50191110CC08091F4019D
:103C20008F5F8093F401811105C08091F3018F5F54
:103C30008093F3010895CF93DF93C0910202D09156
:103C40000302BC01CE0108960E94E81DE3EFF1E0FB
:103C5000808188878181898782818A8783818B8718
:103C6000DF91CF910895E2EAF4E01382128288EEA8
:103C700093E0A0E0B0E084839583A683B78388E5D2
:103C800091E09183808385EC90E09587848784EC34
:103C900090E09787868780EC90E0918B808B81EC19
:103CA00090E0938B828B82EC90E0958B848B86ECFA
:103CB00090E0978B868B118E128E138E148EEFE30D
:103CC000F5E08AE691E09183808312821382148268
:103CD0001582E5E4F5E091838083128213821482D9
:103CE0001582E1E5F5E091838083128213821482CC
:103CF0001582EBE4F5E091838083128213821482B3
:103D00001582E7E5F5E091838083128213821482A5
:103D10001582EDE5F5E0918380831282138214828F
:103D20001582E3E6F5E09183808312821382148288
:103D30001582E9E6F5E02DE431E03183208312823B
:103D40002AE431E03483238321E0258325E431E034
:103D50003783268322E020872FE331E032872187D3
:103D600023E023872AE331E03587248724E0268770
:103D700022E331E0308B278725E0218B2AE231E0F6
:103D8000338B228B26E0248BEEE7F5E09183808352
:103D90001282138214821582E4E8F5E09183808315
:103DA0001282138214821582EAE8F5E091838083FF
:103DB0001282138214821582E0E9F5E091838083F8
:103DC00012821382148215820895CF93DF93CDB7A8
:103DD000DEB7C958D1400FB6F894DEBF0FBECDBFD5
:103DE000789484B5826084BD84B5816084BD85B5D6
:103DF000826085BD85B5816085BD80916E008160E2
:103E000080936E0010928100809181008260809387
:103E10008100809181008160809381008091800089
:103E20008160809380008091B10084608093B100B4
:103E30008091B00081608093B00080917A008460AE
:103E400080937A0080917A00826080937A008091DA
:103E50007A00816080937A0080917A0080688093F4
:103E60007A001092C100E091B204F091B30482E0B4
:103E70008083E091AE04F091AF041082E091B00431
:103E8000F091B1048FEC80831092BA04E091B604F3
:103E9000F091B704A6E0FA2EF082E091B404F0911C
:103EA000B504808180618083E091B404F091B50411
:103EB000808188608083E091B404F091B5048081B2
:103EC00080688083E091B404F091B50480818F7D97
:103ED00080836FEE70E082EA94E00E94CF0D8AE664
:103EE00091E09A83898330EC3B8328EA2C831D82FE
:103EF0004AEA4E8398878F8339872A871B8629E36E
:103F00002C87E7E0F1E0DE011D962F2D01900D9248
:103F10002A95E1F71E8A1D8A48EE53E060E070E0C2
:103F20004F8B588F698F7A8F2EE131E03C8B2B8B32
:103F300018A21F8E1CA21BA22CE431E03AA329A3D5
:103F4000CC54DF4F99838883C45BD040CA54DF4F81
:103F5000188219821A821B82C65BD0408FEF9FEFB6
:103F6000C054DF4F99838883C05CD0401EA21DA23D
:103F7000C254DF4F19821882CE5BD040CE54DF4F3F
:103F800019821882C25BD040EDE8F1E0DE01AE5349
:103F9000BF4F8F2D01900D928A95E1F7C452DF4FEC
:103FA0001882CC5DD04088E090E00E94A625FC01FC
:103FB00014828CEC90E09683858380E491E0918379
:103FC000808388E08783C352DF4FF983E883CD5D28
:103FD000D04081E0C951DF4F8883C75ED04081E186
:103FE00090E00E94A6258C0184E0D80114968C9361
:103FF000149715968C9115978E7F15968C9315971F
:1040000015968C9115978D7F15968C93F8011682D5
:1040100017821086118686E491E0918380838AEB73
:1040200090E09387828787EB90E095878487F68678
:104030008EEB90E0908B87871093BF020093BE02B7
:1040400062E086E00E947B0267E771E082EA94E02A
:104050000E94740D2AE046E050E060E070E082EAE1
:1040600094E00E94830D6CE671E082EA94E00E9485
:10407000740DE8E0F1E08491ECE1F1E0949192308C
:1040800009F08DC12091B102282B2093B10220911B
:10409000AE02282B2093AE02E9EAF0E0A491923020
:1040A00009F08BC1B0E0AA0FBB1FA056BD4F2AE399
:1040B00031E02D933C93EDE9F0E0A591B4919C9112
:1040C00090939F022BE630E030939E0220939D0256
:1040D00090916800916090936800A0919D02B091CA
:1040E0009E02EC918E2B8C93C853DF4F198308836B
:1040F000C85CD040C452DF4F8881CC5DD0408F5F18
:10410000C452DF4F8883CC5DD0408091D80290911B
:10411000D902892B31F4CE0101969093D902809374
:10412000D802C651DF4F19821882CA5ED0408CE493
:1041300091E0C851DF4F99838883C85ED0408AE6FA
:1041400091E0C558DE4F99838883CB57D140C3583F
:10415000DE4F188219821A821B82CD57D1408FEF11
:104160009FEFC957DE4F99838883C758D140CE014E
:104170004396C451DF4F99838883CC5ED040CB57A0
:10418000DE4F19821882C558D1401CA21BA29EA3E3
:104190008DA3A8EEB0E0AC0FBD1F1696FE01B7963A
:1041A0008C569F4F2D912193E817F907D9F76E018F
:1041B00022E9C21A2EEFD20AD6018D919C919183E9
:1041C00080831E01B9EA2B0E311C7E01E0E9EE1A54
:1041D000EEEFFE0AF70180819181A281B381F101A6
:1041E00080839183A283B3834E01FDEA8F0E911CDD
:1041F0008E010C581E4FF80180819181A281B381FC
:10420000F40180839183A283B383C858DE4F8881F1
:10421000C857D140CF54DF4F8883C15BD040C758C7
:10422000DE4F88819981C957D140CE54DF4F9983A1
:104230008883C25BD040C358DE4F88819981AA81B0
:10424000BB81CD57D140CA54DF4F88839983AA835D
:10425000BB83C65BD040CF57DE4F88819981C15860
:10426000D140C654DF4F99838883CA5BD040CD5775
:10427000DE4F88819981C358D140C454DF4F998360
:104280008883CC5BD040C254DF4F19821882CE5B4A
:10429000D0408FEF9FEFC054DF4F99838883C05C7D
:1042A000D0408AE691E0C851DF4F99838883C85E89
:1042B000D04089859A85AB85BC85C651DF4F888300
:1042C0009983AA83BB83CA5ED040BE0168517F4FE9
:1042D000CE0181960E94F6008DEA9AE1CE54DF4F1E
:1042E00099838883C25BD0408091B40381119EC0C2
:1042F0006BEE70E082EA94E00E94CF0D0AE611E0D6
:10430000C851DF4F19830883C85ED0408B819C81E0
:10431000AD81BE81C651DF4F88839983AA83BB8359
:10432000CA5ED040BE0168517F4FCE010D960E94FB
:10433000220B3091E2022091E3029091E4028091FD
:10434000E502C851DF4F19830883C85ED040C651CB
:10435000DF4F3883CA5ED040C551DF4F2883CB5E24
:10436000D040C451DF4F9883CC5ED040C351DF4F63
:104370008883CD5ED04062EA74E0CE0188519F4FC1
:104380000E94120E6CE671E082EA94E00E94740DC5
:104390006CED75E080E090E00E94D102A5CF9330F3
:1043A00009F0C6C32091B002282B2093B0022091BF
:1043B000AD02282B2093AD026FCE9330D1F4B0E044
:1043C000AA0FBB1FAF56BD4F2AE331E02D933C939C
:1043D000EFE9F0E0A591B4919C91909390022CE6C6
:1043E00030E030939E0220939D029091680092608D
:1043F00072CE943009F071CEB0E0AA0FBB1FA05866
:10440000BD4F2AE331E02D933C93E1EAF0E0A59122
:10441000B4919C9190937F022DE630E030939E0200
:1044200020939D0290916800946055CE0E943404C0
:1044300092FF5ECF0E943404CE0181960E94F7085D
:1044400081116FC166EE70E082EA94E00E94CF0DA8
:10445000CE0181960E94F708CE0181960E94F7084E
:104460008111DBC0C654DF4F68817981CA5BD040BF
:104470008DA19EA1DC01ED91FC91C454DF4F4881D8
:104480005981CC5BD0406115710509F442C00088A8
:10449000F189E02D09958130910509F032C1C955A6
:1044A000DF4F99838883C75AD04087E0EDE0F1E081
:1044B000DE01A851BF4F01900D928A95E1F7FE01F0
:1044C000E851FF4FDE019C96CF01079621912D9375
:1044D0008E179F07D9F782E08BAB1CAA8FE08DABBC
:1044E000CE018E539F4FFC0101900020E9F79F0100
:1044F000281B390B205F3F4F2138310548F18DA132
:104500009EA1DC01ED91FC910488F589E02D0995CF
:1045100084C00684F785E02D2AE631E0C851DF4FDC
:1045200039832883C85ED040CA54DF4F088119817F
:104530002A813B81C65BD040C651DF4F0883198377
:104540002A833B83CA5ED040BE0168517F4FA2CF11
:104550004FE050E0BE01695D7F4F0E94D4009C0196
:1045600025503109AE01495D5F4F60E1CE01819672
:104570000E942D090E940303F101608371838283ED
:104580009383C355DF4F688379838A839B83CD5A96
:10459000D0408DA19EA1DC01ED91FC910084F185BC
:1045A000E02D0995892BC9F40E940303F4010081D1
:1045B000118122813381601B710B820B930B68394F
:1045C0007A438105910528F38CEF9FEFC054DF4FAC
:1045D00099838883C05CD04092CFBE0167577E4FDD
:1045E000CE0181960E940E0A049709F088CF8AA511
:1045F00090E08111EBCF0E940303F401608371838B
:1046000082839383CF54DF4F1882C15BD040C05464
:10461000DF4F19821882C05CD040CE0181960E9483
:10462000F708882309F460CE6BED70E082EA94E02D
:104630000E94CF0DD12CEE24E394F12CC951DF4F11
:104640008881C75ED040D81608F04ECEED2DF0E040
:10465000E259FF4FEE0FFF1F21E030E02C0F3D1F0E
:10466000E20FF31F0190F081E02D858196810E9479
:104670003E1A8C01DC010D900020E9F7CD01801B72
:10468000910B089681389105D0F5CE0181960E9454
:10469000F7088823A1F1C955DF4F88819981C75A4E
:1046A000D0400196B9F1C955DF4F99838883C75A25
:1046B000D040C955DF4F8881C75AD040C855DF4F19
:1046C0009881C85AD0409CA78DA747E050E0BE0112
:1046D000695D7F4FC8010E94D400E7E2F0E0EC0F73
:1046E000FD1FE80FF91F10829C0124503109AE0113
:1046F000495D5F4F62E8CE0181960E942D09D394F7
:104700009DCF8EEF9FEFC054DF4F99838883C05CAD
:10471000D04083CFC955DF4FF982E882C75AD040D5
:10472000C8CF10E0C452DF4F8881CC5DD04018174D
:1047300008F0C1C0E12FF0E0EE0FFF1FEC0FFD1FEE
:10474000E853FF4F80819181DC01ED91FC91208144
:1047500031814BA15CA1C651DF4F59834883CA5EAA
:10476000D0404CE451E0C851DF4F59834883C85EC4
:10477000D0404DA15EA1C451DF4F59834883CC5E28
:10478000D04040E8FE01B796A8EEB0E0AC0FBD1FE8
:10479000169601900D924A95E1F7C955DF4F488171
:1047A0005981C75AD040C259DE4F59834883CE56EB
:1047B000D140F1014081518162817381C059DE4F46
:1047C000488359836A837B83C057D140C355DF4FE9
:1047D000488159816A817B81CD5AD040CC58DE4FC7
:1047E000488359836A837B83C457D140CF54DF4FBA
:1047F0004881C15BD040C858DE4F4883C857D1407C
:10480000CE54DF4F48815981C25BD040C758DE4F3C
:1048100059834883C957D1404AE651E0C558DE4F15
:1048200059834883CB57D140CA54DF4F48815981BF
:104830006A817B81C65BD040C358DE4F4883598371
:104840006A837B83CD57D140C654DF4F488159815D
:10485000CA5BD040CF57DE4F59834883C158D140FF
:10486000C454DF4F48815981CC5BD040CD57DE4FD7
:1048700059834883C358D140C254DF4F488159817E
:10488000CE5BD040CB57DE4F59834883C558D140CB
:10489000C054DF4F48815981C05CD040C957DE4FBA
:1048A00059834883C758D140BE0168517F4FF901F1
:1048B00009951F5F37CFCE0181960E94F7088823A4
:1048C00009F443C00E9403032B013C01C355DF4F91
:1048D00088819981AA81BB81CD5AD040A3019201E0
:1048E000281B390B4A0B5B0BDA01C90189399A4342
:1048F000A105B10590F4F10180819181A281B3817C
:10490000A3019201281B390B4A0B5B0BDA01C90189
:1049100089399A43A105B105D8F18DA19EA1CF5443
:10492000DF4F2881C15BD040222391F02CEF3FEF75
:10493000C054DF4F39832883C05CD040DC01ED9147
:10494000FC910488F589E02D09950E94D716CCCCFE
:1049500020EC2FA318A6DC01ED91FC910280F381DD
:10496000E02D42E050E0BE01695D7F4F0995F10105
:104970004082518262827382D4014D925D926D9227
:104980007C92139781E0CF54DF4F8883C15BD04086
:104990008DA19EA1DC01ED91FC910084F185E02DBB
:1049A0000995892B91F2BE0168517F4FCE01819606
:1049B0000E940E0A8C01892B09F4B5C0F4014082D3
:1049C0005182628273828FA1807F803309F08EC012
:1049D000CE54DF4F88819981C25BD040892B09F486
:1049E000B4CFC851DF4FE880C85ED040F12CFE0143
:1049F000EE0DFF1DC0A4D12CDC2CCC24E9E2F0E0AC
:104A0000EC0FFD1FEE0DFF1D8081C80ED11C57015C
:104A1000F2E0AF0EB11C27E230E02C0F3D1FA20EDA
:104A2000B31EB7016D5F7F4F620F731FA601C501F3
:104A30000E941D27B6016E0D7F1DE9E2F0E0EC0F2C
:104A4000FD1FE60FF71F1082A8014E195F091FA175
:104A50001670CE54DF4FE881F981C25BD04012302E
:104A6000B1F5DE01A60FB71F9A96EC90F12CFE2C43
:104A7000EE24DE01A60FB71F9B968C91E80EF11C69
:104A80004C195D09455051096B5F7F4F87E290E0FB
:104A90008C0F9D1F680F791FC501099580E48FA3B6
:104AA00018A7F9A6EAA68DA19EA1DC01ED91FC91C3
:104AB0000280F381E02D44E050E0BE01695D7F4F4C
:104AC0000995F10140825182628273823ECF4C1976
:104AD0005D09435051096D5F7F4F27E230E02C0F95
:104AE0003D1F620F731FC50109952FCF803C91F4C4
:104AF00080ED8FA318A68DA19EA1DC01ED91FC9104
:104B00000280F381E02D42E050E0BE01695D7F4FFD
:104B100009951BCF803D09F018CFCF54DF4F188285
:104B2000C15BD04012CFCE0181960E94F7080DCF15
:104B3000943009F0B1CA2091AF02282B2093AF0224
:104B40002091AC02282B2093AC02A6CA0F931F938E
:104B5000CF93DF938230910510F482E090E0E091F2
:104B60009805F091990530E020E0B0E0A0E03097A2
:104B700099F42115310509F44AC0281B390B24305A
:104B80003105D8F58A819B816115710589F1FB0199
:104B900093838283FE0111C0408151810281138180
:104BA00048175907E0F04817590799F4109761F032
:104BB00012960C93129713961C933296CF01DF91A5
:104BC000CF911F910F910895009398051093990527
:104BD000F4CF2115310551F04217530738F0A901E0
:104BE000DB019A01BD01DF01F801C1CFEF01F9CF6F
:104BF0009093990580939805CDCFFE01E20FF31FA6
:104C0000819391932250310939832883D7CF209102
:104C1000960530919705232B41F4209103013091A3
:104C2000040130939705209396052091010130915E
:104C300002012115310541F42DB73EB74091050120
:104C400050910601241B350BE0919605F0919705D4
:104C5000E217F307A0F42E1B3F0B2817390778F053
:104C6000AC014E5F5F4F2417350748F04E0F5F1FB2
:104C70005093970540939605819391939FCFF0E0D1
:104C8000E0E09CCFCF93DF930097E9F0FC013297EF
:104C900013821282A0919805B0919905ED0130E040
:104CA00020E01097A1F420813181820F931F209181
:104CB0009605309197052817390709F061C0F093E0
:104CC0009705E0939605DF91CF910895EA01CE17FD
:104CD000DF07E8F54A815B819E0141155105B1F777
:104CE000E901FB83EA8349915991C40FD51FEC1761
:104CF000FD0761F4808191810296840F951FE9017F
:104D000099838883828193819B838A83F0E0E0E0AA
:104D100012968D919C9113970097B9F52D913C9126
:104D20001197CD010296820F931F20919605309125
:104D300097052817390739F6309751F510929905DC
:104D400010929805B0939705A0939605BCCFD38396
:104D5000C28340815181840F951FC817D90761F420
:104D60004E5F5F4F88819981480F591F518340835F
:104D70008A819B81938382832115310509F0B0CF0D
:104D8000F0939905E09398059ECFFD01DC01C0CF1B
:104D900013821282D7CFFB01DC014150504048F012
:104DA00005900D920020C9F701C01D92415050405E
:104DB000E0F70895A1E21A2EAA1BBB1BFD010DC04E
:104DC000AA1FBB1FEE1FFF1FA217B307E407F507BB
:104DD00020F0A21BB30BE40BF50B661F771F881F97
:104DE000991F1A9469F760957095809590959B012D
:104DF000AC01BD01CF010895EE0FFF1F0590F491A6
:104E0000E02D099481E090E0F8940C944427FB0194
:104E1000DC0104C08D910190801921F44150504073
:104E2000C8F7881B990B0895FB01DC0102C00190B3
:104E30000D9241505040D8F708956817790768F4EB
:104E4000FB01DC01E40FF51FA40FB51F02C00290A7
:104E50000E9241505040D8F708950C941427DC016D
:104E600001C06D9341505040E0F70895FB01DC0113
:104E70004150504030F08D910190801919F400207C
:0C4E8000B9F7881B990B0895F894FFCF38
:104E8C00FF00009A05800000010203040500044D98
:104E9C0051545404FFFFFFFFFFFF000000005319A3
:104EAC004E191F0B99079A08DC07AE079A19EA08E6
:104EBC00F9077D19DA086719C808ED080000000029
:104ECC00F40D00000000451A00000000B809950917
:104EDC001F0B1E0B00000000C2010D014F010F0241
:104EEC0080015E01720100000000120E0D0A0073B9
:104EFC00656E64696E6700416464656420636F6EFF
:104F0C007461637420746F2070696E20004D51546D
:044F1C00543100000C
:107E0000112484B714BE81FFF0D085E080938100F7
:107E100082E08093C00088E18093C10086E0809377
:107E2000C20080E18093C4008EE0C9D0259A86E02C
:107E300020E33CEF91E0309385002093840096BBD3
:107E4000B09BFECF1D9AA8958150A9F7CC24DD24C4
:107E500088248394B5E0AB2EA1E19A2EF3E0BF2EE7
:107E6000A2D0813461F49FD0082FAFD0023811F036
:107E7000013811F484E001C083E08DD089C08234E0
:107E800011F484E103C0853419F485E0A6D080C0E4
:107E9000853579F488D0E82EFF2485D0082F10E0AE
:107EA000102F00270E291F29000F111F8ED06801E7
:107EB0006FC0863521F484E090D080E0DECF843638
:107EC00009F040C070D06FD0082F6DD080E0C81688
:107ED00080E7D80618F4F601B7BEE895C0E0D1E017
:107EE00062D089930C17E1F7F0E0CF16F0E7DF06D8
:107EF00018F0F601B7BEE89568D007B600FCFDCFD4
:107F0000A601A0E0B1E02C9130E011968C91119780
:107F100090E0982F8827822B932B1296FA010C0160
:107F200087BEE89511244E5F5F4FF1E0A038BF0790
:107F300051F7F601A7BEE89507B600FCFDCF97BE46
:107F4000E89526C08437B1F42ED02DD0F82E2BD052
:107F50003CD0F601EF2C8F010F5F1F4F84911BD097
:107F6000EA94F801C1F70894C11CD11CFA94CF0C13
:107F7000D11C0EC0853739F428D08EE10CD085E9AC
:107F80000AD08FE07ACF813511F488E018D01DD067
:107F900080E101D065CF982F8091C00085FFFCCF94
:107FA0009093C60008958091C00087FFFCCF809118
:107FB000C00084FD01C0A8958091C6000895E0E648
:107FC000F0E098E1908380830895EDDF803219F02E
:107FD00088E0F5DFFFCF84E1DECF1F93182FE3DFCA
:107FE0001150E9F7F2DF1F91089580E0E8DFEE27F6
:047FF000FF270994CA
:027FFE00040479
:0400000300007E007B
:00000001FF