:100000000C946F000C9497000C9497000C9497003C
:100010000C941C1B0C94821A0C9497000C9497005F
:100020000C9497000C9497000C9497000C949700F4
:100030000C9497000C9497000C9497000C949700E4
:100040000C94381A0C9497000C94061A0C94E0192E
:100050000C9497000C9497000C9497000C949700C4
:100060000C9497000C949700000000080002010017
:10007000000304070000000000000000636D6E64D0
:100080002F617264312F74657374007374617274BC
:100090002072656164007374617274696E67000038
:1000A000000000250028002B00000000002400278D
:1000B000002A0004040404040404040202020202EC
:1000C000020303030303030102040810204080011C
:1000D000020408102001020408102000EA1B112469
:1000E0001FBECFEFD8E0DEBFCDBF11E0A0E0B1E092
:1000F000E0ECF6E402C005900D92A23AB107D9F700
:1001000025E0A2EAB1E001C01D92A135B207E1F7F6
:1001100010E0CFE6D0E004C02197FE010E94EB2161
:10012000CE36D107C9F70E949C1C0C945E230C9418
:100130000000CF93DF93EC01FA013296E60FF71F30
:10014000DC019D012C1B3D0BCF01861B970B4D91B4
:10015000442311F04193F5CFAC01421B530B640FC4
:10016000751FFB013297308361507109FB012083B9
:10017000DF91CF91089590E0FC01E953FF4F249166
:100180008D549F4FFC018491882399F090E0880F53
:10019000991FFC01E755FF4FA591B491FC01E15671
:1001A000FF4F859194918FB7F894EC91E22BEC93EB
:1001B0008FBF0895FC01ED56FF4FDB0112964D9164
:1001C0005D916D917C911597428353836483758310
:1001D00038962BE537E031832083329711821082E5
:1001E0000895AF92BF92CF92DF92EF92FF920F935A
:1001F0001F93CF93DF936C017B018B01040F151FBD
:10020000EB015E01AE18BF08C017D10759F0699124
:10021000D601ED91FC910190F081E02DC601099588
:10022000892B79F7C501DF91CF911F910F91FF9035
:10023000EF90DF90CF90BF90AF900895FC01538D69
:10024000448D252F30E0842F90E0821B930B5417B0
:1002500010F0CF96089501970895FC01918D828D3D
:10026000981761F0A28DAE0FBF2FB11D5D968C91D6
:10027000928D9F5F9F73928F90E008958FEF9FEF15
:100280000895FC01918D828D981731F0828DE80FD1
:10029000F11D858D90E008958FEF9FEF0895FC018B
:1002A000918D228D892F90E0805C9F4F821B910958
:1002B0008F739927089589E594E00E944F0121E00A
:1002C000892B09F420E0822F089580E090E0892BAB
:1002D00029F00E945B0181110C9400000895FC013B
:1002E000A48DA80FB92FB11DA35ABF4F2C91848D97
:1002F00090E001968F739927848FA689B7892C93F4
:10030000A089B1898C91837080648C93938D848D46
:10031000981306C00288F389E02D80818F7D808349
:100320000895EF92FF920F931F93CF93DF93EC0109
:1003300081E0888F9B8D8C8D98131AC0E889F9898C
:10034000808185FF15C09FB7F894EE89FF8960838F
:10035000E889F98980818370806480839FBF81E010
:1003600090E0DF91CF911F910F91FF90EF90089552
:10037000F62E0B8D10E00F5F1F4F0F731127E02E2D
:100380008C8D8E110CC00FB607FCFACFE889F98965
:10039000808185FFF5CFCE010E946F01F1CFEB8DFB
:1003A000EC0FFD2FF11DE35AFF4FF0829FB7F89439
:1003B0000B8FEA89FB8980818062CFCF0F931F93D7
:1003C000CF93DF938C01D0E0C0E0F801EC0FFD1F6C
:1003D0006491662341F089E594E00E949101892BA4
:1003E00011F02196F2CFCE01DF91CF911F910F91A5
:1003F0000895CF93DF93EC01888D8823B9F0AA8903
:10040000BB89E889F9898C9185FD03C0808186FDCF
:100410000DC00FB607FCF7CF8C9185FFF2CF80811E
:1004200085FFEDCFCE010E946F01E9CFDF91CF9123
:10043000089590E0FC01E859FF4F2491FC01E95335
:10044000FF4F3491FC01ED54FF4FE491EE23C9F0CE
:10045000222339F0233001F1A8F4213019F12230A0
:1004600029F1F0E0EE0FFF1FE156FF4FA591B49187
:100470008FB7F894EC91611126C030953E233C93E0
:100480008FBF08952730A9F02830C9F0243049F7EC
:10049000809180008F7D03C0809180008F77809352
:1004A0008000DFCF84B58F7784BDDBCF84B58F7DAF
:1004B000FBCF8091B0008F778093B000D2CF809136
:1004C000B0008F7DF9CF3E2BDACF3FB7F894809103
:1004D0007C0290917D02A0917E02B0917F0226B5B0
:1004E000A89B05C02F3F19F00196A11DB11D3FBF6C
:1004F000BA2FA92F982F8827BC01CD01620F711D3B
:10050000811D911D42E0660F771F881F991F4A9534
:10051000D1F708958F929F92AF92BF92CF92DF92C0
:10052000EF92FF924B015C010E9465026B017C011E
:100530000E9465026C197D098E099F09683E73400F
:1005400081059105A8F321E0821A9108A108B1085C
:1005500088EEC80E83E0D81EE11CF11C81149104C2
:10056000A104B10429F7FF90EF90DF90CF90BF90E6
:10057000AF909F908F9008952FB7F8946091780274
:100580007091790280917A0290917B022FBF089539
:10059000ADE9B2E025E014969C91149798130DC034
:1005A00095E0899FF0011124E356FD4F8481149654
:1005B0008C931382128214820895992331F0929FB2
:1005C000D0011124A356BD4FE6CF08958823A1F092
:1005D00090916B03992381F08F3F29F480917003F0
:1005E00090917103089595E0899FF0011124E356DD
:1005F000FD4F82819381089590E080E008958EBD43
:1006000000000DB407FEFDCF8EB508950F931F9324
:10061000CF93DF938C01EB0160E08AE00E94190226
:100620008AE30E94FF020C0F1D1F0C171D0729F003
:1006300080E00E94FF028993F8CF61E08AE0DF91B9
:10064000CF911F910F910C9419021F93CF93DF93B9
:10065000182FC62FD42F60E08AE00E9419028C2F39
:100660008F71812B0E94FF028D2F0E94FF0261E09B
:100670008AE0DF91CF911F910C941902CF93DF9301
:10068000D82FD076909100019D17A1F0C82F43E09C
:100690006FE180EA0E9425034C2F50E085E05595DC
:1006A00047958A95E1F743706FE180E80E94250342
:1006B000D0930001DF91CF9108951F93CF93DF93E3
:1006C000C82F162FD72F0E943E03412F6C2F80E496
:1006D0000E94250361E06C0F4D2F80E4DF91CF91E4
:1006E0001F910C942503EF92FF920F931F93CF93CA
:1006F000DF938B017A018F3F59F095E0899FE001EC
:100700001124C356DD4F68817981600F711F10C0BD
:1007100060916E0370916F03600F711FCEE6D3E09E
:10072000611588E0780778F36F5F7740CEE6D3E015
:1007300080E00E945D038A819B81801B910BE816FB
:10074000F90608F4C701DF91CF911F910F91FF9037
:10075000EF90089560916C0370916D0361157105C0
:1007600029F0615071098CE00C945D036FEF77E024
:10077000FACFCF93DF93C82FD62F0E943E034D2F81
:100780006C2F80E4DF91CF910C942503CF93DF93FE
:10079000D82FC62F60E08AE00E9419028C2F8F713B
:1007A0008D2B0E94FF02C7FF03C080E00E94FF0262
:1007B00080E00E94FF02C82F61E08AE00E941902D7
:1007C0008C2FDF91CF910895CF93C82F0E943E03C5
:1007D0006C2F80E0CF910C94C603CF93DF9361E13F
:1007E00084ED0E94B90361E082ED0E94B903CFE07D
:1007F000D0E08AEE0E94E40380FF0BC06AE070E064
:1008000080E090E00E948A02219799F790E080E0D2
:100810000DC060E082ED0E94B90388ED0E94E40300
:10082000C82F89ED0E94E403982F8C2FDF91CF9180
:100830000895CF93DF93EB01682F84ED0E94B903F5
:10084000BE0186ED0E945D03CFE0D0E08AEE0E94FB
:10085000E40380FF08C06AE070E080E090E00E945E
:100860008A02219799F7DF91CF910895CF93C62FF0
:10087000BC0182E00E945D0360E08AE00E941902F0
:100880008AE70E94FF028C2F0E94FF0261E08AE04B
:10089000CF910C941902CF93BC0180E00E945D03BC
:1008A00060E08AE00E9419028AE30E94FF0280E071
:1008B0000E94FF02C82F61E08AE00E9419028C2F7B
:1008C000CF910895CF92DF92EF92FF920F931F93F3
:1008D000CF93DF936C018B014130510579F4CB014B
:1008E0000E944B04682FC601DF91CF911F910F9199
:1008F000FF90EF90DF90CF900C943604EA01C60F82
:10090000D71F7E0181E0E81AF10880E10E945D03B3
:10091000B60184E10E945D030115184048F4E1141A
:1009200088E0F80628F07E0181E0E81A88E0F80AFD
:10093000B70182E10E945D0340E16FE180EA0E941D
:10094000250340E26FE180E80E9425036FE180E02B
:100950000E94C60385FF07C061E070E080E090E080
:100960000E948A02F3CFDF91CF911F910F91FF90E8
:10097000EF90DF90CF900895CF92DF92EF92FF92A9
:100980000F931F93CF93DF938C0160919D02709121
:100990009E026150784EC12C98E1D92EEDE9F2E02B
:1009A00020E0D0E0C0E045E03481CB01332341F0CA
:1009B000439FC001112483569D4FDC018D919C9172
:1009C000E080F1808E199F090280F381E02D8E1B5B
:1009D0009F0B8017910799F4B5E02B9FE00111243C
:1009E000C356DD4FE2EAF2E081E022813381232B1E
:1009F00009F453C035968F5F8932B9F744C00817A0
:100A0000190748F48C159D0530F4249FE00111244A
:100A1000C356DD4F6C01311121C0209719F7CDE984
:100A2000D2E085E0D82E8C8128813981EA80FB8054
:100A30008823D9F0E20EF31E8D9DE0011124C356E8
:100A4000DD4F68817981E616F70669F34A815B819B
:100A5000C7010E946204F982E882E5CF349FF00169
:100A60001124E356FD4F232F9FCF80919D0290913B
:100A70009E02821B930B8E199F098150984E8017FE
:100A8000910708F0AFCF80E0DF91CF911F910F91D8
:100A9000FF90EF90DF90CF900895288139814A81AF
:100AA0005B81240F351F31832083138302839C8154
:100AB00094838C83E9CF0F931F93DB01E42FA8016C
:100AC00090E0EF3FE9F065E0E69FF0011124E35686
:100AD000FD4F60817181620F731F02C06F5F7740AD
:100AE00025E0289FF001299FF00D1124E356FD4FCA
:100AF000808191818A0F9B1F1F910F910C9462043A
:100B000060916E0370916F03620F731F6115E8E0CF
:100B10007E0720F7EEE6F3E0DCCFCF92DF92EF9294
:100B2000FF920F931F93CF93DF936B018A0179019B
:100B300095E0899FE0011124C356DD4F68817981DA
:100B40006C0D7D1D82E00E945D030A80DB81C02D5B
:100B5000CC19DD09EC16FD0608F4E70160E08AE037
:100B60000E9419028AE70E94FF027801EC0EFD1E26
:100B7000E016F10631F0F80181918F010E94FF0229
:100B8000F7CF61E08AE00E941902CE01DF91CF9198
:100B90001F910F91FF90EF90DF90CF900895FB0190
:100BA00041505109460F571FE417F50778F420818B
:100BB00030E0322F22276181260F311D820F931FD3
:100BC0008217930708F401963296EECFE417F507E3
:100BD00051F4208130E0322F2227820F931F821799
:100BE000930708F401960895CF92DF92EF92FF9257
:100BF0000F931F93CF93DF938091230290E0982F60
:100C0000882720912402820F911D7C0124E1E21AA1
:100C1000F10848E050E06DE272E00E970E94CF05C7
:100C200000914102069506950C7310E0A80165E35A
:100C300072E00E94CF05EC010E151F0508F042C0BE
:100C4000A701401B510BB8016E5D7F4F8091F501EC
:100C50000E94730301977C0160E08AE00E94190200
:100C60008AE30E94FF02D12CC12CCE14DF04B8F419
:100C700080E00E94FF02082F10E0102F002780E084
:100C80000E94FF02800F912F911DC80FD91FC81716
:100C9000D90708F4219682E0C80ED11CE6CFEC14E7
:100CA000FD0461F480E00E94FF0290E0982F882705
:100CB000C80FD91FC817D90708F4219661E08AE048
:100CC0000E9419029C2F8D2FCD2B11F48FEF9FEFD7
:100CD000DF91CF911F910F91FF90EF90DF90CF9018
:100CE000089544E150E061E272E090E080E00E940B
:100CF000CF05009721F098278927982708958FEF2F
:100D00009FEF0895CF92DF92EF92FF920F931F9380
:100D1000CF93DF93C091F401C1FF5EC02091F30136
:100D200030E043E152E070E060E08091F5010E9424
:100D30008D05CD7FC093F401F090F50180916B0398
:100D4000882309F474C085E0F89EF0011124E3566D
:100D5000FD4FC081D1812197028113810C0F1D1F8E
:100D6000CE010E944B04E82E882321F060E0CE01E2
:100D70000E943604BE0184E00E945D03B80186E053
:100D80000E945D038AE0C82ED12C40E86FE180E824
:100D90000E94250340E86FE180EA0E9425034AE0B3
:100DA0006CE180EA0E94250348E06FE180E80E9440
:100DB000250304E610E08CE10E94E4038A7029F523
:100DC0000115110521F1015011096AE070E080E080
:100DD00090E00E948A02EFCFC0910B02D0910C02EA
:100DE000209721F41092F50180E029C0CE010E94E5
:100DF000BC048093F5018823B9F39E0143E152E0DE
:100E000070E060E00E948D0597CF012B51F448E01F
:100E10006FE180EA0E94250381E0C81AD10809F039
:100E2000B4CFEE2021F06E2DCE010E943604FF20BB
:100E300019F08F2D0E94C8021092F50181E0DF9118
:100E4000CF911F910F91FF90EF90DF90CF90089579
:100E50000F931F93CF93DF93EC018C010B5F1F4F18
:100E6000899181110E94C802FE0131971082C0173A
:100E7000D107B1F7DF91CF911F910F910895CF93D3
:100E8000DF93EC01888181110E94C802FE01CE012E
:100E9000049621812193E817F907D9F71C82DF9185
:100EA000CF910895CF93DF93EC01E881F981008C15
:100EB000F18DE02D0995882339F08C859D8502966A
:100EC000DF91CF910C942807DF91CF9108950F9374
:100ED0001F93CF93DF931F92CDB7DEB78C01DC0158
:100EE000ED91FC91008CF18DE02D09958823D1F0D6
:100EF000D8011C96ED91FC918281882399F041E004
:100F000050E070E060E00E947303BE016F5F7F4FAE
:100F10000E940603898190E00F90DF91CF911F918D
:100F20000F9108958FEF9FEFF7CFCF93DF931F922D
:100F3000CDB7DEB7DC01ED91FC910288F389E02D9D
:100F400041E050E0BE016F5F7F4F0995181619060A
:100F500034F4898190E00F90DF91CF9108958FEF65
:100F60009FEFF9CF6F927F928F929F92AF92BF9235
:100F7000CF92DF92EF92FF920F931F93CF93DF9365
:100F80008C014B01EA01DC01ED91FC91008CF18DAB
:100F9000E02D0995882309F480C0D8011C96ED91B5
:100FA000FC918281882309F47BC07E018EE1682E4A
:100FB0005E01AE18BF08A80CB91CD8011C96ED91B3
:100FC000FC91A70170E060E082810E9473036C01D4
:100FD000B5010E940603F801A484B584D5011296D8
:100FE0007C90872D0E94E6028C159D05E9F5E81A94
:100FF000F90AC50102960E943F07F801A485B5854C
:10100000EC916E9EF0011124EB58FC4F818D84FF12
:1010100009C011968C911197982F967019F48860D9
:1010200011968C93D8011C96ED91FC911D978281AD
:1010300081112EC0818182FF05C011821D961C92F4
:101040001E921C97CE018E199F09DF91CF911F919F
:101050000F91FF90EF90DF90CF90BF90AF909F9057
:101060008F907F906F900895B5E07B9EF0011124E2
:10107000E356FD4F808191818C0D9D1D918380836E
:10108000828193818C199D0993838283CE01DDCF68
:10109000E114F10409F08CCFF9CF8FEF9FEFD5CF9A
:1010A00090E080E0D2CFEF92FF920F931F93CF9307
:1010B000DF93EC01E881F981008CF18DE02D099539
:1010C0008823E1F00C851D85780182E0E80EF11C93
:1010D000095F1F4FD0E0C0E0F70181917F010E94BE
:1010E000E602C80FD91FE016F106B1F7CE01DF9175
:1010F000CF911F910F91FF90EF900895D0E0C0E045
:10110000F5CFFC01448555854115510551F0FB0192
:10111000248535852115310521F081E042175307DB
:1011200009F080E00895DC011C96ED91FC91309768
:1011300031F08281811105C081818170089580E044
:10114000089581E0089590E080E00895DC01ED913C
:10115000FC91028CF38DE02D099591E0892708958B
:10116000CF93DF93FC01A481B581109721F480E037
:10117000DF91CF910895EC01ED91FC9111970688D4
:10118000F789E02DCD01099581111EC0FE01E156C0
:10119000FF4F80819181892B51F78DEF9FEF9183D4
:1011A00080838C819D81DC01ED91FC910680F7812B
:1011B000E02D09958C819D81DC01ED91FC910488E5
:1011C000F589E02D0995D3CF81E0D2CFCF92DF9280
:1011D000EF92FF920F931F93CF93DF9300D000D035
:1011E000CDB7DEB78C01F90180E0DE0111967D01FB
:1011F0009E2F9F77EE0FEF2FEE1FFF0BF19530978D
:1012000009F09068D701A80FB11D9C938F5F3097AC
:1012100079F790E0FA01E81BF90B6483FA01E81B07
:10122000F90B3596D701BD016E197F09681779074B
:101230001CF46D916193F7CFFC013196D80114969F
:101240008D919C917F01E20EF31EBA016E1B7F0B04
:101250006B5F7F4FDC01ED91FC910280F381E02D0B
:10126000A70109956C010E94BC02F801E857FF4FE5
:10127000608371838283938381E0EC14FD0409F021
:1012800080E00F900F900F900F90DF91CF911F9102
:101290000F91FF90EF90DF90CF900895EF92FF9223
:1012A0000F931F93CF93DF93EC018B017A010E9480
:1012B000BC02FE01E857FF4F6083718382839383F2
:1012C0008C819D81DC01ED91FC910280F381E02D08
:1012D000A701B801DF91CF911F910F91FF90EF907F
:1012E00009941F93CF93DF93EC01162F0E94BC0249
:1012F000FE01E857FF4F60837183828393838C8163
:101300009D81DC01ED91FC910190F081E02D612F38
:10131000DF91CF911F910994CF92DF92EF92FF92CC
:101320000F931F93CF93DF93EC018B010E94BC02BC
:101330006B017C018C819D81DC01ED91FC9100842D
:10134000F185E02D0995892B69F40E94BC026C1986
:101350007D098E099F0968397A438105910550F30B
:1013600080E00CC08C819D81DC01ED91FC910284B8
:10137000F385E02D0995F801808381E0DF91CF911D
:101380001F910F91FF90EF90DF90CF9008952F92D3
:101390003F924F925F926F927F928F929F92AF9205
:1013A000BF92CF92DF92EF92FF920F931F93CF9352
:1013B000DF9300D0CDB7DEB78C014B016C0126E086
:1013C000C20ED11CB6010E948C09811118C0F12CEB
:1013D000E12CC7010F900F90DF91CF911F910F91DA
:1013E000FF90EF90DF90CF90BF90AF909F908F9045
:1013F0007F906F905F904F903F902F900895D8010D
:101400001696BC91BA8319821801E7E02E0E311CA2
:10141000EE24E394F12CB12CA12C412C512C32015F
:101420004394BE016F5F7F4FC8010E948C098823DF
:1014300071F2B7016F5F7F4F8981F10181931F01C5
:10144000282F2F7730E0249DA001259D500D349D3D
:10145000500D1124A40EB51E27E0440C551C661C2B
:10146000771C2A95D1F787FD35C0FA81F07FFA8382
:101470008FEF860FD4018C93F03309F043C06C0DCD
:101480007D1DC8010E948C09882309F4A0CFB701F3
:101490006E5F7F4F6C0D7D1DC8010E948C098823F3
:1014A00009F495CFB7016D5F7F4FD401EC91E00F48
:1014B000F12FF11DC780D12CDC2CCC248085C80EE7
:1014C000D11CF801868181FF03C0F2E0CF0ED11C50
:1014D00082E01BC07B016530710509F0A2CFF801E5
:1014E000E156FF4F8FEF9FEF91838083D8011496D1
:1014F0008D919C91DC01ED91FC910488F589E02DA2
:10150000099565CF80E0D12CC12C482E512C7B0150
:10151000461A570A18012DE9220E311C8EEF682E4B
:1015200077247A94C2018E0D9F1D8A159B0588F53C
:10153000BE016F5F7F4FC8010E948C09882309F4A8
:1015400046CFD1018D919C910097B1F0BA81B03313
:1015500099F4F4012081A301421B51099A012E0D37
:101560003F1DC216D30640F4DC01ED91FC910190C1
:10157000F081E02D69810995B0E8EB16F10428F4BB
:101580008981F801EE0DFF1D8683EFEFEE1AFE0A4A
:10159000C9CFF801E356FF4F80819181892B09F073
:1015A00018CFF1E8EF16F10408F011CF12CF08952B
:1015B00090E080E00895662331F0613031F4FC0161
:1015C00083810C94190260E0FACF0895CF92DF92E4
:1015D000EF92FF920F931F93CF93DF93CDB7DEB7B8
:1015E000C254D1090FB6F894DEBF0FBECDBF8C0137
:1015F000FB0182819381A481B58123968CAF9DAF3D
:10160000AEAFBFAF239721E023962FAF239723964A
:101610004CAD5DAD6EAD7FAD23974BAB5CAB6DABB1
:101620007EAB89AF9AAFABAFBCAF8DA79EA7AFA77C
:10163000B8AB28AB4DA55EA56FA578A94FA358A759
:1016400069A77AA72EAB4BA95CA96DA97EA949A36E
:101650005AA36BA37CA38B8F9C8FAD8FBE8F2AA7C1
:101660004FA158A569A57AA54D8B5E8B6F8B788F9E
:101670002CA349A15AA16BA17CA14F87588B698BE0
:101680007A8B89879A87AB87BC870E94BC02665099
:101690007F4F8F4F9F4F60935504709356048093F4
:1016A00057049093580410926F0310926E03109297
:1016B000710310927003EFE9F2E08BECDF011D92F1
:1016C0008A95E9F781E098E090939E0280939D02CD
:1016D0008AE00E94BB0061E08AE00E941902FFB626
:1016E000F89480916A03811124C0EDEBF0E08491BD
:1016F000E1EDF0E09491E82FF0E0EE0FFF1FE755E9
:10170000FF4FA591B491EC91E92321F461E08AE0C7
:101710000E9419028AE00E94BB008CB580618CBDDA
:101720008CB580648CBD8DE00E94BB008BE00E9474
:10173000BB0080916A038F5F80936A03FFBE8CB504
:101740008C7F8CBD8DB581608DBD4FEF60E08FEFDC
:101750000E94250362E070E080E090E00E948A022F
:1017600062E370E080E090E00E948A0210926D03D4
:1017700010926C0380E1E82EF12C6DE180E00E9474
:10178000C60381110BC0B1E0EB1AF10839F06AE031
:1017900070E080E090E00E948A02EFCF70E060E0AD
:1017A00088E00E945D0370E060E08CE00E945D03D1
:1017B0006FEF77E08AE00E945D0361EB88E30E94AF
:1017C000B9036FE370E388E20E945D0369EF77EF8E
:1017D00080E30E945D036DE070E080EC0E945D0399
:1017E00042E362EC80E80E94250362E17CE086EC43
:1017F0000E945D0362E184EC0E94B9036CED75E028
:101800008AEC0E945D03F801608184EE0E94B903B6
:10181000D80111966C9185EE0E94B903F80162819E
:1018200082EE0E94B903D80113966C9183EE0E9458
:10183000B903F801648180EE0E94B903D8011596BE
:101840006C9181EE0E94B90360E071E080E10E943A
:1018500019048FE10E943E0340EC6BE180E80E9496
:10186000250344E06FE180E80E94250366E774E009
:1018700084E10E94190482E70E94E4038F3F09F487
:101880008BC080936B03F801808180934F0481812A
:101890008093500482818093510483818093520409
:1018A0008481809353048581809354041092EE03C5
:1018B0001092ED031092F0031092EF031092F203D6
:1018C0001092F1031092F4031092F30310928E031E
:1018D0001092AC031092CA031092E80384E0809344
:1018E000F50380E094E09093740380937303109267
:1018F0004E049BE024E080914E04883008F44FC0F1
:101900004D895E898F8921E02A8BCF84D888E98828
:10191000FA88CB82DC82ED82FE826B857C85E9854C
:10192000FA85F0939A02E093990270939C02609377
:101930009B02509396024093950290E091609093A1
:101940009802809397028FEF9FEF9093920280937B
:1019500091028FEF90E090939402809393022E83F4
:101960008B819C81AD81BE81809304059093050598
:10197000A0930605B0930705CE5BDF4F0FB6F89432
:10198000DEBF0FBECDBFDF91CF911F910F91FF90B2
:10199000EF90DF90CF90089510926B0374CF899FE2
:1019A000F0011124EA50FC4FDF01322F1D923A95CD
:1019B000E9F78F5F80934E049ECFFB0101900020DA
:1019C000E9F73197AF01461B570BDC01ED91FC9114
:1019D0000280F381E02D09948F929F92AF92BF9283
:1019E000EF92FF920F931F93CF93DF93CDB7DEB7A4
:1019F000A1970FB6F894DEBF0FBECDBF7C01FA01F0
:101A0000CB0119A2223008F42AE08E010F5D1F4F8E
:101A1000822E912CB12CA12CBF01A50194010E9412
:101A2000C921F901CA016A300CF5605DD8016E93D5
:101A30008D01232B242B252B79F790E080E0109744
:101A400021F0BD01C7010E94DD0CA1960FB6F894EC
:101A5000DEBF0FBECDBFDF91CF911F910F91FF90E1
:101A6000EF90BF90AF909F908F900895695CDECF0C
:101A70008F929F92AF92BF92CF92DF92EF92FF929E
:101A80000F931F93CF93DF937C01EB016C0182E0F6
:101A9000C80ED11C4701E5E08E0E911C10E000E05D
:101AA000F60141916F0150E070E060E02AE0CE0164
:101AB0000E94EC0C5C01E881F9810190F081E02D3D
:101AC0006EE2CE0109958A0D9B1D080F191FC814DF
:101AD000D90431F7F701458150E070E060E02AE079
:101AE000CE010E94EC0C800F911FDF91CF911F91CE
:101AF0000F91FF90EF90DF90CF90BF90AF909F90AD
:101B00008F9008950E941623EF92FF920F931F93D8
:101B1000CF93DF93FC0110924E04C6EFD3E0DE01B9
:101B200030E020E02830310569F490E0983009F089
:101B300042C010920A021092090210924E0426EF3F
:101B400033E044C0CD01865F93400D911C91119705
:101B50000115110561F112964D915C911397411594
:101B6000510529F1E080F1800E151F0501F5028174
:101B7000138140175107D9F420934E04DC01A6507D
:101B8000BC4F86E0FB0101900D928A95E1F78BE056
:101B9000829FF001839FF00D1124EA50FC4F1286C2
:101BA000DF91CF911F910F91FF90EF9008952F5FDC
:101BB0003F4F1B96B7CF9E0148815981452BB1F409
:101BC0004A815B81452B91F490934E0484E0D901C6
:101BD00001900D928A95E1F7D901149686E0FB01F8
:101BE00001900D928A95E1F7F901D9CF9F5F2B966D
:101BF0009DCFEF92FF920F931F93CF93DF9300D06F
:101C000000D000D0CDB7DEB7409131025091320202
:101C10004F3F540731F48091330290913402019682
:101C200019F18091990290919A02609191027091BC
:101C300092029B0120953095282B392B4217530790
:101C4000A9F5209193023091940220953095E0916E
:101C50009B02F0919C022E2B3F2BE0913302F091DE
:101C60003402E217F30711F586E0E4E1F1E0A3E1C5
:101C7000B2E001900D928A95E1F786E0EFE4F4E09E
:101C8000A9E1B2E001900D928A95E1F788E090E039
:101C90009093200280931F0280910B0290910C027E
:101CA0000E9690930C0280930B02A5C08427952773
:101CB00086239723892B99F42091330230913402A3
:101CC00080919B0290919C028227932760919302BE
:101CD0007091940286239723892B09F499C08091EF
:101CE0009502909196029093100280930F0280913A
:101CF0009702909198029093120280931102E090C3
:101D00000F02F09010020091110210911202E6EF02
:101D1000F3E080E0883009F084C080934E0446E010
:101D200050E06FEF70E083E192E00E94432386E091
:101D3000E3E3F2E0DF01282F1D922A95E9F7EFE4B3
:101D4000F4E0A9E1B2E0982F01900D929A95E1F7A5
:101D5000EFE4F4E0A9E2B2E0982F01900D929A9599
:101D6000E1F7F0923A02E092390210933C020093BC
:101D70003B022091990230919A02309330022093D5
:101D80002F0220919B0230919C02309332022093CB
:101D9000310220E031E03093280220932702309373
:101DA00022022093210228E030E030932402209385
:101DB00023028093250294E09093260228E036E0E7
:101DC0003093200220931F0229E432E030930E0268
:101DD00020930D022AE230E030930C0220930B0294
:101DE000BE016F5F7F4FDB011D928A95E9F78FE09F
:101DF00092E00E94840D26960FB6F894DEBF0FBEC7
:101E0000CDBFDF91CF911F910F91FF90EF9008957B
:101E10005093100240930F0230931202209311024C
:101E20006ECF20813181E216F306E1F42281338105
:101E300002171307B9F49481911103C09581992376
:101E400029F080934E04349686E011CF968191114B
:101E5000F8CF97819111F5CF90859111F2CF9185AF
:101E60009111EFCF8F5F3B9655CFAF92BF92CF923C
:101E7000DF92EF92FF920F931F93CF93DF93E09047
:101E80000702F0900802F701C48DD58DD0900402AE
:101E9000209781F5D6FC03C0F12CE12CC6C0EAEAFC
:101EA000F1E090E080E0218121117CC042E1489F77
:101EB0009001499F300D1124E901C655DE4FC7013D
:101EC00085579340959587956FEE7EEE869FA0018E
:101ED000879F500D969F500D1124488381E0898380
:101EE00024553E4F81E1F90111928A95E9F7F701F6
:101EF000D58FC48FD1FE30C000910B0210910C021F
:101F00000115110549F18981867031F55E01F2E014
:101F1000AF0EB11CC12CF50181915F01811149C047
:101F2000C8010E94BC04F50131978083882309F41D
:101F300040C020910D0230910E0223513240409159
:101F4000F20170E060E00E945B05F4E0CF1204C093
:101F5000F701818D8061818F898183FF0AC0877F2E
:101F600089838D2D826080930402F701818D8F7E9D
:101F7000818F1091040214FD02C017FF26C0CE010C
:101F800007960E9428078A818823E9F0F701848157
:101F900095819F838E83898184608983F701158E63
:101FA000148E7ACF019672968430910509F07BCF1A
:101FB00073CFC394F5E0CF12AECF8091F4018E7F42
:101FC0008093F401C5CF1982E9CF10FF04C0CE0180
:101FD00007960E943F071C7009F465C08F81882313
:101FE00009F461C09885911144C0EC84FD84E1142A
:101FF000F10409F451CF95E0899FF0011124E356D3
:10200000FD4FF382E282C0900D02D0900E02F601E5
:10201000E351F2406F01E093F301DD24C6018E0D20
:102020009F1D009769F51092F50160910D02709166
:102030000E02F092FF01E092FE011E141F0454F400
:1020400080910502909106026817790719F0A7019F
:102050000E942823F0920C02E0920B02DF91CF91B4
:102060001F910F91FF90EF90DF90CF90BF90AF90B6
:1020700008950E94E6027C01892B09F40DCFC3CF9D
:102080000E94BC048093F501882379F2870130E037
:1020900020E04F81B6010E945B058091F4018260CF
:1020A0008093F401C2CF898181FFF6CE8F818111A7
:1020B00008C01982F701158E148E80E18093040206
:1020C000EBCEF701818D8061818FE6CEAF92BF921A
:1020D000CF92DF92EF92FF921F93CF93DF93C09145
:1020E0000702D091080229E432E030930E022093D7
:1020F0000D0230930602209305028330C9F4898DC6
:102100008F70833009F044C088899989892B09F040
:102110003FC088E0809304020E94350F8091040242
:1021200085FFDFC41092FF011092FE01198E51C08D
:10213000823009F005C1809103028F5F8093030212
:10214000811113C0809102028F5F8093020281117E
:102150000CC0809101028F5F80930102811105C044
:10216000809100028F5F8093000210920C02109207
:102170000B021092FF011092FE01898D982F9D7F16
:10218000953059F48A8D8F5F8A8F883709F4198EBC
:1021900010920C0210920B0254C18823C9F32889B3
:1021A0003989232B09F4C7C09A8D2FEF290F2A8F65
:1021B0009111EECF9B8D983031F02FEF280F223008
:1021C00050F4953041F4198E80E8809304020E9407
:1021D000350F84E184C0392F953008F034E023E0D6
:1021E00001C0220F3A95EAF72A8F9F5F9B8F8F706D
:1021F000833009F47DC008F06AC0813009F4D2C28E
:10220000823031F6109242028091420282608093C5
:10221000420282E08093490294E090934A028093C4
:102220004B0210924C028CE290E090930C0280934F
:102230000B0280E680934102888580933D02898568
:1022400080933E028A8580933F028B858093400273
:102250008C85809339028D8580933A028E85809398
:102260003B028F8580933C0286E080932A028C811A
:102270009D8190933602809335028E819F81909349
:102280003802809337028091990290919A0290933C
:102290002E0280932D0280919B0290919C0290933C
:1022A000300280932F02888199819093320280932B
:1022B00031028A819B819093340280933302898D0D
:1022C00084FF95C4109244021092430280C186306C
:1022D00029F0883019F0843009F05ACF81E18093D9
:1022E000420288E290E090930C0280930B0221C09E
:1022F00084E0809304020E94350F80910502909142
:10230000060290930E0280930D028091FE0190913F
:10231000FF01892B09F416C488899989009709F46B
:1023200011C4889690930C0280930B0288E18093ED
:10233000420280E57FCF8F70833009F029CFE9CE4C
:1023400080912102853409F023CFC0902302D12C43
:10235000DC2CCC2480912402C80ED11C80910B026D
:1023600090910C028C159D0508F412CFD0920C02AE
:10237000C0920B02809127028F7309F009CF109150
:102380002802111105CFA0909902B0909A02A114D1
:10239000B10431F480919B0290919C02892BA1F0B1
:1023A0008091310290913202A816B90609F0F0CE60
:1023B000209133023091340280919B0290919C02D3
:1023C0002817390709F0E4CE0E947106019609F03A
:1023D000DFCE80912A02863009F441C0813009F0B5
:1023E000D7CE80913502883009F0D2CE10923502D6
:1023F0008091370290913802873F2FEF920768F162
:102400000996909338028093370280912D02909123
:102410002E02909332028093310280912F0290918C
:1024200030029093340280933302B0922E02A09235
:102430002D0280919B0290919C0290933002809398
:102440002F0210920402DF91CF911F91FF90EF9025
:10245000DF90CF90BF90AF9008950896D2CF0E94A2
:10246000F405019609F094CE40913702509138025C
:10247000609135027091360280912D0290912E026A
:10248000E0912F02F0913002C5E7D3E0298D22239D
:10249000A9F0AC81BD814A175B0781F4AE81BF8191
:1024A0006A177B0759F4A881B9818A179B0731F411
:1024B000AA81BB81EA17FB0709F47CC16E9623E071
:1024C000CF3CD20719F310F3809142028F73823010
:1024D00061F45093FD014093FC01EDEEF3E080E0E8
:1024E000843009F0B2C08093F5038091420282FDEE
:1024F0004FCE84E18093420288E290E090930C02F8
:1025000080930B0280E58093410230913C028091E0
:10251000400280933C0220913B0280913F028093D5
:102520003B0220933F0290913A0280913E028093B9
:102530003A0290933E02809139028093F5034091D4
:102540003D024093390280933D023F5F3093400249
:1025500031110DC02F5F20933F02211108C09F5FF2
:1025600090933E02911103C08F5F80933D02809152
:102570003502909136029093FD018093FC012091E9
:10258000370230913802309336022093350290930F
:1025900038028093370280912D0290912E02909301
:1025A00032028093310280912F02909130029093F9
:1025B000340280933302B0922E02A0922D028091B9
:1025C0009B0290919C029093300280932F0280E4B2
:1025D0008093290280910B0290910C029093230228
:1025E00080932402109248021092470210924602F1
:1025F000109245020E94F4058095909590934602B2
:102600008093450285E48093210210922202109269
:102610002802109227028091F6019091F70101960D
:102620009093F7018093F601909325028093260200
:1026300010922C0210922B020E94710680959095A8
:1026400090932C0280932B02FCCE219131918F5FCD
:102650004217530709F044CF1092F503E5E7F3E082
:1026600090E080E0D0E0C0E08430910531F484E077
:102670008093F503209781F48BCD3E2F2F2FA18DD2
:10268000A11163C08093F5032EE1289FE001299FEB
:10269000D00D1124CB58DC4FD0930802C093070211
:1026A00083E08A8F888F1E8A84E08F8B1B8E5D83E8
:1026B0004C837F836E8380912D0290912E029983AB
:1026C000888380912F02909130029B838A8381E0DE
:1026D000898F809100028C87809101028D87809183
:1026E00002028E87809103028F8781E090E0998BB0
:1026F000888B80913C028B8780913B028A878091F6
:102700003A02898780913902888781E090E00E94AF
:10271000D21B80914102982F907F913508F442C0DE
:1027200082958F708550990B880F991F880F991F7C
:10273000E12FF0E0E817F9072CF4ED5EFD4F36A924
:10274000311112C01093F5032DC0A73031F420973A
:1027500031F0B28DAA8DAB1710F03C2F2D2F0196C2
:102760007E96C32FD22F80CF313011F41F5FE0CF80
:1027700027A93230D9F42430C9F41093F50380AD81
:1027800091AD8927982789279093FD018093FC01BB
:10279000813022E0920710F080E092E09B8B8A8BE0
:1027A0009D8B8C8B80E1809342022ECD222351F2AF
:1027B000120FBECFD0930802C093070210920402FA
:1027C0009091420292FF07C0198E80E2809304022A
:1027D0000E94350FDDCC8091410282958F70880F69
:1027E000880F8093F503C81AD108760184E1E81AAE
:1027F000F108F0920C02E0920B022F70223021F4CB
:10280000892F8F738231D1F0E114F10419F4892FEB
:102810008370A1F039852A858B85509139024885CE
:102820005413C0C140913A024313BCC130913B02E2
:102830003213B8C120913C022813B4C194FF49C09F
:10284000688979896115710509F443C0CE010C9638
:102850000E949F1B30913D028091F801381339C0CE
:1028600020913E028091F901281333C090913F02DC
:102870008091FA0198132DC0809140024091FB0194
:10288000841327C03C872D879E878F87988D8B8DDB
:10289000811118C08E892A8D921B282F2695269586
:1028A0002695921B890F8E8B97FD91952F89322F3C
:1028B00036953695231B920F9F8B86958695869528
:1028C000890F888F81E080930402888D8A8F198A0E
:1028D000188A298DE22FEF70E150E83008F058CCCB
:1028E000F0E0EB58FB4E0C94EB217D149614001590
:1028F000B515DE15EF15D215AE158091040280FFD7
:1029000047CC83E0898F80E480930402198A188A77
:10291000E114F10431F082E480930402C7010E94C3
:10292000D21B1092FF011092FE01F6CB809104029F
:1029300080FF5FC0809142028F73823109F059C0DD
:1029400080914102982F907F913598F182958F70F8
:102950008550990B880F991F880F991FE12FF0E080
:10296000E817F9072CF4ED5EFD4F36A9311103C0CD
:102970001093F5031EC0313011F41F5FEFCF27A96C
:10298000323099F5243089F51093F50380AD91AD7F
:102990008927982789279093FD018093FC01813036
:1029A00022E0920710F080E092E09B8B8A8B9D8B57
:1029B0008C8B83E0898F80913902888780913A02DD
:1029C000898780913B028A8780913C028B8781E0D6
:1029D00090E00E94D21B82E480930402198A188A34
:1029E00010920C0210920B029CCF222309F2120FBC
:1029F000B5CF80E2809304020E94350F198E75CD09
:102A00008091420280FF20C024FD1EC088899989E0
:102A1000892B09F0BDCBC60143970E94D21B809140
:102A20000402982F906190930402EF2819F08261BC
:102A3000809304020E94350F81E090E0998B888B8F
:102A400088E0898F1B8E4ACC85FF14C08091470295
:102A500090914802982789279827AC01475B5D4FE2
:102A600050930E0240930D02E81AF90AF0920C02FC
:102A7000E0920B0240910B0250910C0290910402E3
:102A80004115510541F024FD06C092609093040267
:102A9000CA010E94D21B80914302282F30E0322FBE
:102AA000222780914402820F932F911D9093FD0164
:102AB0008093FC012C893D892817390710F0892B58
:102AC00021F43093FD012093FC018091FC01909151
:102AD000FD019B8B8A8B80910402837009F458CB93
:102AE00020CF84FF0AC01092FF011092FE0181E006
:102AF00090E0998B888B84E0A4CF2091FE013091E7
:102B0000FF0121153105B9F080FF02C0198A188A2A
:102B100088899989009789F48A899B898217930704
:102B200020F49093FF018093FE018091FE0190912B
:102B3000FF01998B888B1B8EE0CB9093FF018093D4
:102B4000FE01F9CF8091040281FF22CB88E290E060
:102B500090930C0280930B0280E1E9CB80910402F8
:102B600080FF16CB198E80E131CEE114F10419F00B
:102B7000C7010E94D21B8091040281709091420291
:102B800090FF15C0882381F087E0898F1A8E198AFB
:102B9000188A81E090E00E94D21B80E180930402B9
:102BA0000E94350F80E19BCB86E0898FF2CF88238E
:102BB00099F085E0898F198A188AEACAE114F1042C
:102BC00019F0C7010E94D21B8091420280FF04C00D
:102BD00087E0898F1A8EDDCFEF2821F7D9CA80913F
:102BE000040280FFD5CA87E0898F1A8ED1CA82E09D
:102BF0008093430210924402EACC8F929F92AF924C
:102C0000BF92CF92DF92EF92FF920F931F93CF93D9
:102C1000DF9380916B03882309F420C1D091F201E6
:102C2000D11151C089E30E94E403882309F449C00B
:102C300060916C0370916D036B0126E0C20ED11C94
:102C4000C11438E0D30628F06B0149EFC41A47E0FD
:102C5000D40A80E00E945D0360E08AE30E94C6031C
:102C6000E82E60E08AE30E94C603F82EF0926D031E
:102C7000E0926C0360E08AE30E94C603182F60E0D4
:102C80008AE30E94C603C82F60E08AE30E94C6035D
:102C9000082F40E46EE180E80E94250307FFEBC0A7
:102CA000E11458E0F50608F0E6C0D0926F03C09238
:102CB0006E039C2F812F0497909371038093700370
:102CC000DFEFD093F201F090F201FF2009F476C01B
:102CD00081E08093F4018F2D0E94E602EC01909335
:102CE0000C0280930B02892B09F4F2C042E650E0FB
:102CF00070E060E08F2D0E94730363E172E00E9438
:102D00000603C0901F02D090200288E0C816D104AC
:102D100009F0CCC0F092F5012E97D0930C02C0932D
:102D20000B0220912D0230912E02E0919902F09138
:102D30009A02C9018E279F274091910250919202D9
:102D400084239523892B49F540912F02509130021D
:102D500060919B0270919C02CA0186279727A091DF
:102D60009302B09194028A239B23892BB1F4809122
:102D7000310290913202E817F90709F07FC0809183
:102D80003302909134026817790709F077C069E13E
:102D900072E08DE292E00E94840D81E00E94661054
:102DA00080910B0290910C02892B21F00E94F90D69
:102DB0000E9482068091F40180FD8AC00E94BC02BC
:102DC0006B017C018091550490915604A0915704A9
:102DD000B091580446015701881A990AAA0ABB0AF9
:102DE000C5E7D3E00DEE13E0D0930802C0930702CD
:102DF00082E0B7FE14C0EC8DFD8D309709F4FFC062
:102E000086859785A089B189A7019601281B390B72
:102E10004A0B5B0BDA01C901B7FD0DC083E00E94CC
:102E2000661080910B0290910C02892B21F00E9478
:102E3000F90D0E9482066E960C171D07A9F6B7FCC5
:102E40000DC03AEFC30ED11CE11CF11CC092550419
:102E5000D0925604E0925704F0925804DF91CF913B
:102E60001F910F91FF90EF90DF90CF90BF90AF90A8
:102E70009F908F9008950E94AA0323CFE6EFF3E07E
:102E800080E0883019F480934E0487CF608171818F
:102E90002617370741F4628173814617570719F4E3
:102EA00080934E0474CF8F5F3B96EBCF28E0C21621
:102EB00026E0D20669F410920C0210920B02AA9737
:102EC00060F480910B0290910C02892B09F070CF75
:102ED0000E94AA031092F20171CF80912702909173
:102EE0002802811531E0930701F18115924049F7DD
:102EF0002091390230913A028091990290919A0280
:102F000028173907F1F620913B0230913C0280915D
:102F10009B0290919C022817390799F669E272E0AA
:102F20008FE292E00E94840DCCCF00913902109183
:102F30003A028091990290919A020817190709F6AE
:102F4000C0913B02D0913C0280919B0290919C02E7
:102F5000C817D90709F0B5CF69E272E08FE292E0B5
:102F60000E94840D80E092E09093280280932702D3
:102F700086E0E9E2F2E0A3E3B2E001900D928A95E7
:102F8000E1F786E0EFE4F4E0A9E2B2E001900D920F
:102F90008A95E1F786E0EFE4F4E0A9E1B2E0019080
:102FA0000D928A95E1F786E0E3E3F2E0A3E1B2E077
:102FB00001900D928A95E1F780912F029091300255
:102FC00090933A02809339028091310290913202BB
:102FD00090933C0280933B021093300200932F02A7
:102FE000D0933202C0933102D0922002C0921F02CD
:102FF0008AE290E090930C0280930B0262CF8E8560
:103000009F85A889B98900CFAF92BF92CF92DF92F6
:10301000EF92FF920F931F93CF938C015B017A0184
:103020006A010E94FD150115110509F45AC0F80145
:103030008181867009F055C03896C1E08191811177
:1030400033C0C150F801EC0FF11D878181110DC013
:1030500080E092E00E94BC04F801EC0FF11D878330
:103060008823F9F2F80115861486A7014C195D0929
:103070004A0D5B1DF801648575859601EC0FF11D05
:1030800087810E948D05C81AD90AF80124853585E3
:10309000820F931F958784871C141D0454F4C43039
:1030A00009F4BFCFCF5FD4CFCF5FC53039F6C4E0CE
:1030B000C9CF0E94BC02665F7F4F8F4F9F4FF801C0
:1030C00066877787808B918BC7018C199D09CF917B
:1030D0001F910F91FF90EF90DF90CF90BF90AF9036
:1030E000089590E080E0F3CFFC01848595850C94F1
:1030F0000418CF93DF931F92CDB7DEB7698341E009
:1031000050E0BE016F5F7F4FFC01848595850E9472
:1031100004180F90DF91CF910895CF93DF93EC01C6
:103120000E94FD15EC85FD85309739F0818182FF85
:1031300008C081E09281911101C080E0DF91CF91C0
:10314000089581E0FBCFCF93DF93EC018C859D85C3
:10315000009769F0FC012181222349F002960E9428
:103160002807EC85FD85818182FF07C011821D86BD
:103170001C86DF91CF910C94FD1582608183F7CF7F
:10318000CF92DF92EF92FF920F931F93CF93DF9333
:103190008C01EB016A01DC01ED91FC910488F58959
:1031A000E02D0995EA80FB806C817D815C2D4D2DA1
:1031B000809173039091740301968115BDE79B077D
:1031C00010F080E090E1382F292FE5E7F3E0DF01F0
:1031D000C0E0C430D1F490937403809373031092D1
:1031E000F50380E0D0E0C0E08430F1F48093F50393
:1031F000209711F590E080E0DF91CF911F910F9122
:10320000FF90EF90DF90CF9008955996DC915997F9
:10321000DD2339F01496CD90DC901597C216D306B5
:1032200059F2CF5F5E96D5CFAE2F9F2FB18DB111E2
:103230003CC08093F503EF0182E0898F809100020A
:103240008C87809101028D87809102028E87809108
:1032500003028F8780E092E09B8B8A8B9D8B8C8B07
:1032600081E090E0998B888B1B8E8A8F83E0888F1A
:103270001E8A80E18F8B3D832C835F834E83F9828E
:10328000E8827B836A83898D8F7009F4B3CF0E94B3
:10329000FD15898D8F708330B1F78C8D9D8DF80170
:1032A0009587848781E090E0A7CFB73031F42097ED
:1032B00031F0D28CBA8DBD1510F0AC2F9D2F8F5FE1
:1032C0007E96CA2FD92F90CF6F927F928F929F9226
:1032D000AF92BF92CF92DF92EF92FF920F931F9324
:1032E000CF93DF937B016A01C0918002D09181026C
:1032F0006FE270E00E944A235C01FE01EA51FF4F39
:103300006080712CC452DF4F912C812C861497045D
:103310007CF409911991B501D80114968D919C9175
:103320000E945523892B31F4BFEF8B1A9B0AEECFF5
:1033300010E000E0D801ED91FC918080918030E2B6
:10334000A32E35E0B32ED0E0C0E066E671E089E55B
:1033500094E00E94DD0CF5016081718161157105B9
:1033600021F089E594E00E94DD0CD5016D917C91FE
:10337000A601C7010E941B23B3E0AB0EB11C892B31
:10338000C9F4CE01880F991FC80FD91FC05EDA4F4C
:103390006A81C801F401DF91CF911F910F91FF90D5
:1033A000EF90DF90CF90BF90AF909F908F907F90E5
:1033B0006F9009942196C730D10539F664E0E9CFC2
:1033C0001F920F920FB60F9211242F933F934F939A
:1033D0005F936F937F938F939F93AF93BF93EF937D
:1033E000FF9389E594E00E946F01FF91EF91BF91F7
:1033F000AF919F918F917F916F915F914F913F918D
:103400002F910F900FBE0F901F9018951F920F9243
:103410000FB60F9211242F938F939F93EF93FF93E7
:10342000E0916904F0916A048081E0916F04F09169
:10343000700482FD1BC09081809172048F5F8F7336
:1034400020917304821741F0E0917204F0E0E75A92
:10345000FB4F958F80937204FF91EF919F918F9115
:103460002F910F900FBE0F901F9018958081F4CF71
:103470001F920F920FB60F9211242F933F938F93A9
:103480009F93AF93BF938091780290917902A0911E
:103490007A02B0917B023091770223E0230F2D371F
:1034A00058F50196A11DB11D2093770280937802F3
:1034B00090937902A0937A02B0937B0280917C0270
:1034C00090917D02A0917E02B0917F020196A11D94
:1034D000B11D80937C0290937D02A0937E02B093F5
:1034E0007F02BF91AF919F918F913F912F910F904C
:1034F0000FBE0F901F90189526E8230F0296A11D6E
:10350000B11DD2CF1F920F920FB60F9211242F939D
:103510003F934F935F936F937F938F939F93AF935B
:10352000BF93CF93DF93EF93FF93D9B1C091A901DC
:103530008091A8012091A7019D2F909592238D2322
:10354000892B90916D00CD27C923C823D093A90161
:10355000CC2309F45EC0C0FF09C01092A6018D2FD4
:1035600081708093A501F0E0E0E00995C1FF0AC0F9
:1035700081E08093A6018D2F82708093A501F0E0F9
:10358000E0E00995C2FF0AC082E08093A6018D2F7A
:1035900084708093A501F0E0E0E00995C3FF0AC0C4
:1035A00083E08093A6018D2F88708093A501F0E0C1
:1035B000E0E00995C4FF0AC084E08093A6018D2F46
:1035C00080718093A501F0E0E0E00995C5FF0AC095
:1035D00085E08093A6018D2F80728093A501F0E095
:1035E000E0E00995C6FF0AC086E08093A6018D2F12
:1035F00080748093A501F0E0E0E00995C7FF09C061
:1036000087E08093A601D078D093A501F0E0E0E0B8
:103610000995FF91EF91DF91CF91BF91AF919F916C
:103620008F917F916F915F914F913F912F910F906B
:103630000FBE0F901F9018951F920F920FB60F920A
:1036400011242F933F934F935F936F937F938F93A7
:103650009F93AF93BF93CF93DF93EF93FF93D6B135
:10366000C091A4018091A3012091A2019D2F90956A
:1036700092238D23892B90916C00CD27C923C823D9
:10368000D093A401CC2309F447C0C0FF0AC08EE048
:103690008093A6018D2F81708093A501F0E0E0E07A
:1036A0000995C1FF0AC08FE08093A6018D2F82701B
:1036B0008093A501F0E0E0E00995C2FF0AC080E137
:1036C0008093A6018D2F84708093A501F0E0E0E047
:1036D0000995C3FF0AC081E18093A6018D2F8870F0
:1036E0008093A501F0E0E0E00995C4FF0AC082E103
:1036F0008093A6018D2F80718093A501F0E0E0E01A
:103700000995C5FF09C083E18093A601D072D093CB
:10371000A501F0E0E0E00995FF91EF91DF91CF91F5
:10372000BF91AF919F918F917F916F915F914F91D9
:103730003F912F910F900FBE0F901F901895FC0195
:103740003381360F3093FB01A72FBB2792819A0F4D
:103750009093FA0121812093F90140814093F8016F
:103760009A171B0648F481E0820F8093F9018111BA
:1037700003C04F5F4093F80177273617170688F488
:103780009F5F9093FA0191110CC08091F9018F5FB6
:103790008093F901811105C08091F8018F5F8093BA
:1037A000F8010895CF93DF93C0910702D0910802EA
:1037B000BC01CE0108960E949F1BE8EFF1E08081DA
:1037C00088878181898782818A8783818B87DF913E
:1037D000CF910895E9E5F4E01382128288EE93E038
:1037E000A0E0B0E084839583A683B78382E591E06F
:1037F0009183808385EC90E09587848784EC90E0CA
:103800009787868780EC90E0918B808B81EC90E0AD
:10381000938B828B82EC90E0958B848B86EC90E08E
:10382000978B868B118E128E138E148EE6EFF4E03A
:1038300084E691E091838083128213821482158240
:10384000ECEFF4E09183808312821382148215825C
:10385000E8E0F5E09183808312821382148215825E
:10386000E2E0F5E091838083128213821482158254
:10387000EEE0F5E091838083128213821482158238
:10388000E4E1F5E091838083128213821482158231
:10389000EAE1F5E09183808312821382148215821B
:1038A000E0E2F5E025E731E03183208312822EE863
:1038B00031E03483238321E0258329E731E0378316
:1038C000268322E020872EE731E03287218723E01C
:1038D000238724E831E03587248724E0268729E8F8
:1038E00031E0308B278725E0218B21E931E0338BD4
:1038F000228B26E0248BE5E3F5E09183808312821E
:10390000138214821582EBE3F5E0918380831282A7
:10391000138214821582E1E4F5E0918380831282A0
:10392000138214821582E7E4F5E09183808312828A
:103930001382148215820895CF93DF93CDB7DEB73B
:10394000CA58D1400FB6F894DEBF0FBECDBF7894F1
:1039500084B5826084BD84B5816084BD85B5826094
:1039600085BD85B5816085BD80916E008160809345
:103970006E001092810080918100826080938100AE
:1039800080918100816080938100809180008160BE
:10399000809380008091B10084608093B100809119
:1039A000B00081608093B00080917A008460809341
:1039B0007A0080917A00826080937A0080917A0008
:1039C000816080937A0080917A00806880937A0089
:1039D0001092C100E0916904F0916A0482E0808352
:1039E000E0916504F09166041082E0916704F09123
:1039F00068048FEC808310927104E0916D04F09163
:103A00006E0416E01083E0916B04F0916C048081E9
:103A100080618083E0916B04F0916C048081886008
:103A20008083E0916B04F0916C04808180688083D6
:103A3000E0916B04F0916C0480818F7D808386E936
:103A400090E00E94DE0169E971E089E594E00E945E
:103A5000DD0C84E691E09A83898330EC3B8328EA8D
:103A60002C831D824AEA4E8398878F8339872A8761
:103A70001B8629E32C87E7E0F1E0DE011D96212F6C
:103A800001900D922A95E1F71E8A1D8A48EE53E0B7
:103A900060E070E04F8B588F698F7A8F2EE131E0B4
:103AA0003C8B2B8B18A21F8E1CA21BA226E431E09C
:103AB0003AA329A3CC54DF4F99838883C45BD040B9
:103AC000CA54DF4F188219821A821B82C65BD0400B
:103AD0008FEF9FEFC054DF4F99838883C05CD04045
:103AE0001EA21DA2C254DF4F19821882CE5BD040A5
:103AF000CE54DF4F19821882C25BD040ECE9F1E06E
:103B0000DE01AE53BF4F01900D921A95E1F7C452FA
:103B1000DF4F1882CC5DD04086E090E00E94F1211A
:103B2000FC0112828AE083838CE790E09583848392
:103B300080E491E091838083C352DF4FF983E8836F
:103B4000CD5DD04081E0C951DF4F8883C75ED04052
:103B50008091800290918102892B31F4CE010196EF
:103B60009093810280938002C651DF4F19821882A0
:103B7000CA5ED04086E491E0C851DF4F99838883C4
:103B8000C85ED04084E691E0C558DE4F99838883B3
:103B9000CB57D140C358DE4F188219821A821B823C
:103BA000CD57D1408FEF9FEFC957DE4F9983888360
:103BB000C758D140CE014396C451DF4F99838883C3
:103BC000CC5ED040CB57DE4F19821882C558D14009
:103BD0009EA38DA3A8EEB0E0AC0FBD1F1696FE010C
:103BE000B7968C569F4F2D912193E817F907D9F777
:103BF000C259DE4F88819981CE56D140918380830E
:103C0000C059DE4F88819981AA81BB81C057D140BC
:103C1000C755DF4F88839983AA83BB83C95AD04095
:103C20006E012DEAC20ED11CCC58DE4F88819981DD
:103C3000AA81BB81C457D140F60180839183A283BE
:103C4000B383C858DE4F8881C857D140CF54DF4F67
:103C50008883C15BD040C758DE4F88819981C9579E
:103C6000D140CE54DF4F99838883C25BD040C35884
:103C7000DE4F88819981AA81BB81CD57D140CA543A
:103C8000DF4F88839983AA83BB83C65BD0407E01C4
:103C9000FAEBEF0EF11CCF57DE4F88819981C158A6
:103CA000D140D7018D939C938E0104541F4FCD5763
:103CB000DE4F88819981C358D140F8019183808378
:103CC000C254DF4F19821882CE5BD0408FEF9FEF36
:103CD000C054DF4F99838883C05CD04084E691E074
:103CE000C851DF4F99838883C85ED04089859A8503
:103CF000AB85BC85C651DF4F88839983AA83BB837C
:103D0000CA5ED040BE0168517F4FCE0181960E94AD
:103D1000DA0084E699E1CE54DF4F99838883C25B51
:103D2000D0401E01F2EC2F0E311C80916B038111EB
:103D300051C004E611E0C851DF4F19830883C85E03
:103D4000D0408B819C81AD81BE81C651DF4F88837D
:103D50009983AA83BB83CA5ED040BE0168517F4F5E
:103D6000CE010D960E94E60A3091990220919A02A6
:103D700090919B0280919C02C851DF4F1983088368
:103D8000C85ED040C651DF4F3883CA5ED040C551AF
:103D9000DF4F2883CB5ED040C451DF4F9883CC5E89
:103DA000D040C351DF4F8883CD5ED04069E574E0D9
:103DB000CE0188519F4F0E94380D69E971E089E575
:103DC00094E00E94DD0C6CED75E080E090E00E94D4
:103DD0008A02ABCF0E94ED0392FFABCF0E94ED03AE
:103DE0007E01B1E2EB0EF11CC7010E94B008811107
:103DF00078C1C7010E94B0081E2D0F2D6EEFE62E70
:103E0000FF24FA94812F902F0E94B0088111EEC0F8
:103E1000812F902F0E94B0088111DAC0C654DF4F65
:103E200068817981CA5BD0408DA19EA1DC01ED91B2
:103E3000FC91C454DF4F48815981CC5BD04061155F
:103E40007105F1F10088F189E02D09958130910526
:103E500009F0C5C0C955DF4F99838883C75AD04040
:103E600087E0EDE0F1E0DE01A851BF4F01900D9237
:103E70008A95E1F7FE01E851FF4FDE019C96CF01E4
:103E8000079621912D938E179F07D9F782E08BAB70
:103E90001CAA8FE08DABF10101900020E9F7CF0162
:103EA0008219930940968138910548F18DA19EA110
:103EB000DC01ED91FC910488F589E02D099588C01D
:103EC0000684F785E02D24E631E0C851DF4F3983C1
:103ED0002883C85ED040CA54DF4F88809980AA806A
:103EE000BB80C65BD040C651DF4F88829982AA82D0
:103EF000BB82CA5ED040BE0168517F4FA6CF4FE063
:103F000050E0BE01695D7F4FC1010E9499009C0194
:103F100025503109AE01495D5F4F60E1812F902F3F
:103F20000E94E6080E94BC02C755DF4F6883798370
:103F30008A839B83C95AD040C355DF4F68837983F6
:103F40008A839B83CD5AD0408DA19EA1DC01ED9147
:103F5000FC910084F185E02D0995892BC9F40E941C
:103F6000BC02F60180809180A280B3806819790933
:103F70008A099B0968397A438105910528F38CEFFA
:103F80009FEFC054DF4F99838883C05CD0408ECFB1
:103F9000BE0167577E4F812F902F0E94C70904975B
:103FA00009F084CF8AA590E08111EBCF0E94BC027A
:103FB000F6016083718382839383CF54DF4F18822D
:103FC000C15BD040C054DF4F19821882C05CD04022
:103FD00060ED77E080E090E00E948A0213CFC05449
:103FE000DF4FF982E882C05CD040F2CF8BE890E0EE
:103FF0000E94DE0169E971E089E594E00E94DD0C30
:10400000B12CEE24E394F12CC951DF4F8881C75EB7
:10401000D040B81608F089CEEB2DF0E0E259FF4F02
:10402000EE0FFF1F21E030E02C0F3D1FE20FF31FCA
:104030000190F081E02D6481758182E892E00E9418
:10404000C22182E892E0DC010D900020E9F7CD0169
:104050008A57924081389105D8F5812F902F0E9480
:10406000B0088823A9F1C955DF4F88819981C75AC3
:10407000D040019679F1C955DF4F99838883C75A9B
:10408000D040C955DF4F8881C75AD040C855DF4F4F
:104090009881C85AD0409CA78DA747E050E0BE0148
:1040A000695D7F4F82E892E00E949900E7E2F0E0CC
:1040B000EC0FFD1FE80FF91F10829C0124503109FD
:1040C000AE01495D5F4F62E8812F902F0E94E608A4
:1040D000B3949ACFC955DF4FF982E882C75AD040CE
:1040E000D0CFC7010E94B008882309F446C00E94BF
:1040F000BC022B013C01C355DF4F88819981AA8105
:10410000BB81CD5AD040A3019201281B390B4A0B29
:104110005B0BDA01C90189399A43A105B105A8F4FD
:10412000C755DF4F88819981AA81BB81C95AD04088
:10413000A3019201281B390B4A0B5B0BDA01C90161
:1041400089399A43A105B105E8F18DA19EA1CF540B
:10415000DF4F2881C15BD040222391F02CEF3FEF4D
:10416000C054DF4F39832883C05CD040DC01ED911F
:10417000FC910488F589E02D09950E94FD15D5CDA7
:1041800020EC2FA318A6DC01ED91FC910280F381B5
:10419000E02D42E050E0BE01695D7F4F0995C755B3
:1041A000DF4F488259826A827B82C95AD040F60129
:1041B000408251826282738281E0CF54DF4F8883D4
:1041C000C15BD0408DA19EA1DC01ED91FC910084EA
:1041D000F185E02D0995892B81F2BE0168517F4F51
:1041E000CE0181960E94C7098C01892B09F4C5C0B4
:1041F000F60140825182628273828FA1807F803378
:1042000009F09EC0CE54DF4F88819981C25BD040B7
:10421000892B09F4B2CFC851DF4FE880C85ED04087
:10422000F12CFE01EE0DFF1DA0A4B12CBA2CAA2486
:10423000E9E2F0E0EC0FFD1FEE0DFF1D8081A80EFE
:10424000B11C4701F2E08F0E911C27E230E02C0FE9
:104250003D1F820E931EB7016D5F7F4F620F731F6C
:10426000A501C4010E943123B5016E0D7F1DE9E255
:10427000F0E0EC0FFD1FE60FF71F10820E191F096B
:104280008FA18670C657DE4F8883CA58D140CE545E
:10429000DF4FE881F981C25BD040823009F040C035
:1042A000DE01A60FB71F9A968C9190E0982F882771
:1042B000DE01A60FB71F9B96EC90E80EF92EF11CBD
:1042C0000A191B09A801455051096B5F7F4F87E20E
:1042D00090E08C0F9D1F680F791FC401099580E441
:1042E0008FA3C657DE4F9881CA58D14098A7F9A628
:1042F000EAA68DA19EA1DC01ED91FC910280F381E3
:10430000E02D44E050E0BE01695D7F4F0995C7553F
:10431000DF4F488259826A827B82C95AD0402DCFB2
:104320000A191B09A801435051096D5F7F4F27E20D
:1043300030E02C0F3D1F620F731FC40109951DCF84
:10434000803C91F480ED8FA318A68DA19EA1DC0185
:10435000ED91FC910280F381E02D42E050E0BE013E
:10436000695D7F4F099509CF803D09F006CFCF5495
:10437000DF4F1882C15BD04000CFCE0181960E94F2
:10438000B008FBCEFB01DC0105900D920020E1F7A7
:104390000895A1E21A2EAA1BBB1BFD010DC0AA1F86
:1043A000BB1FEE1FFF1FA217B307E407F50720F09E
:1043B000A21BB30BE40BF50B661F771F881F991F19
:1043C0001A9469F760957095809590959B01AC0162
:1043D000BD01CF010895EE0FFF1F0590F491E02D70
:1043E00009940F931F93CF93DF938230910510F4BC
:1043F00082E090E0E0914F05F091500530E020E040
:10440000B0E0A0E0309799F42115310509F44AC0D5
:10441000281B390B24303105D8F58A819B81611521
:10442000710589F1FB0193838283FE0111C04081F4
:1044300051810281138148175907E0F04817590745
:1044400099F4109761F012960C93129713961C939F
:104450003296CF01DF91CF911F910F910895009374
:104460004F0510935005F4CF2115310551F0421737
:10447000530738F0A901DB019A01BD01DF01F80102
:10448000C1CFEF01F9CF9093500580934F05CDCF69
:10449000FE01E20FF31F819391932250310939837A
:1044A0002883D7CF20914D0530914E05232B41F421
:1044B000209103013091040130934E0520934D0566
:1044C00020910101309102012115310541F42DB7F0
:1044D0003EB74091050150910601241B350BE09138
:1044E0004D05F0914E05E217F307A0F42E1B3F0B8C
:1044F0002817390778F0AC014E5F5F4F2417350756
:1045000048F04E0F5F1F50934E0540934D05819329
:1045100091939FCFF0E0E0E09CCFCF93DF930097A3
:10452000E9F0FC01329713821282A0914F05B091FD
:104530005005ED0130E020E01097A1F42081318199
:10454000820F931F20914D0530914E052817390792
:1045500009F061C0F0934E05E0934D05DF91CF91D6
:104560000895EA01CE17DF07E8F54A815B819E01D5
:1045700041155105B1F7E901FB83EA83499159914E
:10458000C40FD51FEC17FD0761F48081918102965D
:10459000840F951FE90199838883828193819B838E
:1045A0008A83F0E0E0E012968D919C91139700973A
:1045B000B9F52D913C911197CD010296820F931F71
:1045C00020914D0530914E052817390739F630975F
:1045D00051F51092500510924F05B0934E05A093DF
:1045E0004D05BCCFD383C28340815181840F951F79
:1045F000C817D90761F44E5F5F4F88819981480FD2
:10460000591F518340838A819B8193838283211523
:10461000310509F0B0CFF0935005E0934F059ECFE0
:10462000FD01DC01C0CF13821282D7CF81E090E080
:10463000F8940C945E23FB01DC0104C08D91019081
:10464000801921F441505040C8F7881B990B0895F8
:10465000FB01DC0102C001900D9241505040D8F79F
:1046600008956817790768F4FB01DC01E40FF51F72
:10467000A40FB51F02C002900E9241505040D8F7CF
:1046800008950C942823DC0101C06D9341505040E3
:10469000E0F70895FC018191861721F08823D9F76E
:1046A000992708953197CF010895FB01DC018D9181
:1046B000019080190110D9F3990B0895F894FFCF58
:1046C000FF00005105800000010203040500044DB5
:1046D00051545404FFFFFFFFFFFF00000000791852
:1046E0007418D80A5207530895076707C018A3081B
:1046F000B207A31893088D188108A60800000000CF
:10470000DB0A0000000071094E09D80AD70A000030
:1047100000009101F1001E01F9014F012D0141013D
:1047200000000000380D63757272656E7420697444
:1047300065723A20006F6666006F70656E00636C8C
:104740006F736500696E666F0063617574696F6E83
:10475000007761726E696E67000D0A004D51545406
:02476000310026
:00000001FF
