:100000000C945D000C9485000C9485000C94850084
:100010000C9485000C9485000C9485000C9485004C
:100020000C9485000C9485000C9485000C9485003C
:100030000C9485000C9485000C9485000C9485002C
:100040000C94F6220C9485000C94C4220C949E22ED
:100050000C9485000C9485000C9485000C9485000C
:100060000C9485000C94850000000008000201003B
:100070000003040700000000000000000000000072
:10008000250028002B0000000000240027002A0083
:10009000040404040404040402020202020203032E
:1000A0000303030301020408102040800102040836
:1000B00010200102040810208B2311241FBECFEF53
:1000C000D8E0DEBFCDBF12E0A0E0B1E0ECE0FEE59D
:1000D00002C005900D92A235B107D9F726E0A2E53E
:1000E000B2E001C01D92A33AB207E1F710E0CDE5FE
:1000F000D0E004C02197FE010E94782DCC35D107B5
:10010000C9F70E943D240C94042F0C940000CF9357
:10011000DF93EC01FA013296E60FF71FDC019D0137
:100120002C1B3D0BCF01861B970B4D91442311F0E7
:100130004193F5CFAC01421B530B640F751FFB01BC
:100140003297308361507109FB012083DF91CF9199
:100150000895FC01ED56FF4FDB0112964D915D9124
:100160006D917C9115974283538364837583389690
:100170002BE537E031832083329711821082089576
:1001800020E3FC0120833296862F82958F706F705A
:100190006A3030F4605D6293682F8111F5CF089565
:1001A000695CF9CF90E0FC01EC55FF4F249180573A
:1001B0009F4FFC018491882399F090E0880F991F4C
:1001C000FC01EA57FF4FA591B491FC01E458FF4FA1
:1001D000859194918FB7F894EC91E22BEC938FBFBB
:1001E0000895AF92BF92CF92DF92EF92FF920F935A
:1001F0001F93CF93DF936C017B018B01040F151FBD
:10020000EB015E01AE18BF08C017D10759F0699124
:10021000D601ED91FC910190F081E02DC601099588
:10022000892B79F7C501DF91CF911F910F91FF9035
:10023000EF90DF90CF90BF90AF900895FC01538D69
:10024000448D252F30E0842F90E0821B930B5417B0
:1002500010F0CF96089501970895FC01918D828D3D
:10026000981761F0A28DAE0FBF2FB11D5D968C91D6
:10027000928D9F5F9F73928F90E008958FEF9FEF15
:100280000895FC01918D828D981731F0828DE80FD1
:10029000F11D858D90E008958FEF9FEF0895FC018B
:1002A000918D228D892F90E0805C9F4F821B910958
:1002B0008F73992708958EE595E00E944F0121E004
:1002C000892B09F420E0822F089580E090E0892BAB
:1002D00029F00E945B0181110C9400000895FC013B
:1002E000A48DA80FB92FB11DA35ABF4F2C91848D97
:1002F00090E001968F739927848FA689B7892C93F4
:10030000A089B1898C91837080648C93938D848D46
:10031000981306C00288F389E02D80818F7D808349
:100320000895EF92FF920F931F93CF93DF93EC0109
:1003300081E0888F9B8D8C8D98131AC0E889F9898C
:10034000808185FF15C09FB7F894EE89FF8960838F
:10035000E889F98980818370806480839FBF81E010
:1003600090E0DF91CF911F910F91FF90EF90089552
:10037000F62E0B8D10E00F5F1F4F0F731127E02E2D
:100380008C8D8E110CC00FB607FCFACFE889F98965
:10039000808185FFF5CFCE010E946F01F1CFEB8DFB
:1003A000EC0FFD2FF11DE35AFF4FF0829FB7F89439
:1003B0000B8FEA89FB8980818062CFCFCF93DF9357
:1003C000EC01888D8823B9F0AA89BB89E889F9896D
:1003D0008C9185FD03C0808186FD0DC00FB607FCA2
:1003E000F7CF8C9185FFF2CF808185FFEDCFCE01D5
:1003F0000E946F01E9CFDF91CF91089590E0FC0159
:10040000E859FF4F2491FC01EC55FF4F3491FC015A
:10041000E057FF4FE491EE23C9F0222339F0233057
:1004200001F1A8F4213019F1223029F1F0E0EE0FAA
:10043000FF1FE458FF4FA591B4918FB7F894EC914A
:10044000611126C030953E233C938FBF089527301D
:10045000A9F02830C9F0243049F7809180008F7DC1
:1004600003C0809180008F7780938000DFCF84B5B8
:100470008F7784BDDBCF84B58F7DFBCF8091B000BB
:100480008F778093B000D2CF8091B0008F7DF9CF6D
:100490003E2BDACF3FB7F894809126039091270343
:1004A000A0912803B091290326B5A89B05C02F3F32
:1004B00019F00196A11DB11D3FBFBA2FA92F982F8A
:1004C0008827BC01CD01620F711D811D911D42E085
:1004D000660F771F881F991F4A95D1F708958F924D
:1004E0009F92AF92BF92CF92DF92EF92FF924B0119
:1004F0005C010E944A026B017C010E944A026C1955
:100500007D098E099F09683E734081059105A8F316
:1005100021E0821A9108A108B10888EEC80E83E094
:10052000D81EE11CF11C81149104A104B10429F727
:10053000FF90EF90DF90CF90BF90AF909F908F9003
:1005400008952FB7F894609122037091230380914E
:100550002403909125032FBF08958823E9F0A4E395
:10056000B3E025E014969C91149789130DC095E093
:10057000899FF0011124EC5CFC4F848114968C93CC
:100580001382128214820895992331F0929FD00130
:100590001124AC5CBC4FE6CF08958823A1F0909164
:1005A0003E04992381F08F3F29F480914304909178
:1005B0004404089595E0899FF0011124EC5CFC4F00
:1005C00082819381089590E080E008958EBD0000BF
:1005D0000DB407FEFDCF8EB508951F93CF93DF9323
:1005E000182FC62FD42F60E08AE00E94FE018C2FC6
:1005F0008F71812B0E94E6028D2F0E94E60261E03E
:100600008AE0DF91CF911F910C94FE01CF93DF938D
:10061000D82FD076909100019D17A1F0C82F43E00C
:100620006FE180EA0E94ED024C2F50E085E0559585
:1006300047958A95E1F743706FE180E80E94ED02EB
:10064000D0930001DF91CF9108951F93CF93DF9353
:10065000C82F162FD72F0E940603412F6C2F80E43E
:100660000E94ED0261E06C0F4D2F80E4DF91CF918D
:100670001F910C94ED02EF92FF920F931F93CF9373
:10068000DF938B017A018F3F59F095E0899FE0015C
:100690001124CC5CDC4F68817981600F711F10C020
:1006A0006091410470914204600F711FC1E4D4E075
:1006B000611588E0780778F36F5F7740C1E4D4E094
:1006C00080E00E9425038A819B81801B910BE816A4
:1006D000F90608F4C701DF91CF911F910F91FF90A8
:1006E000EF900895EF92FF920F931F93CF93DF93B4
:1006F000EB0170E060E00E943B038C0160E08AE067
:100700000E94FE018AE30E94E6027E01E00EF11ED5
:10071000EC16FD0629F080E00E94E6028993F8CFEE
:1007200061E08AE00E94FE01C801DF91CF911F9134
:100730000F91FF90EF90089560913F0470914004F5
:100740006115710529F0615071098CE00C94250345
:100750006FEF77E0FACFCF93DF93C82FD62F0E94A9
:1007600006034D2F6C2F80E4DF91CF910C94ED02A6
:10077000CF93DF93D82FC62F60E08AE00E94FE015E
:100780008C2F8F718D2B0E94E602C7FF03C080E083
:100790000E94E60280E00E94E602C82F61E08AE043
:1007A0000E94FE018C2FDF91CF910895CF93C82F27
:1007B0000E9406036C2F80E0CF910C94B803CF9376
:1007C000DF93EB01682F84ED0E94AB03BE0186ED41
:1007D0000E942503CFE0D0E08AEE0E94D60380FF7E
:1007E00008C06AE070E080E090E00E946F0221970C
:1007F00099F7DF91CF910895CF93C62FBC0182E086
:100800000E94250360E08AE00E94FE018AE70E94C0
:10081000E6028C2F0E94E60261E08AE0CF910C9400
:10082000FE01CF93BC0180E00E94250360E08AE0D6
:100830000E94FE018AE30E94E60280E00E94E60236
:10084000C82F61E08AE00E94FE018C2FCF910895AD
:10085000CF92DF92EF92FF920F931F93CF93DF938C
:100860006C018B014130510579F4CB010E941104D8
:10087000682FC601DF91CF911F910F91FF90EF90EC
:10088000DF90CF900C94FC03EA01C60FD71F7E01C6
:1008900081E0E81AF10880E10E942503B60184E1B5
:1008A0000E9425030115184048F4E11488E0F80679
:1008B00028F07E0181E0E81A88E0F80AB70182E1B9
:1008C0000E94250340E16FE180EA0E94ED0240E2D0
:1008D0006FE180E80E94ED026FE180E00E94B803C2
:1008E00085FF07C061E070E080E090E00E946F0249
:1008F000F3CFDF91CF911F910F91FF90EF90DF9099
:10090000CF900895CF92DF92EF92FF920F931F93B3
:10091000CF93DF938C016091340370913503615064
:10092000784EC12C98E1D92EE4E3F3E020E0D0E04A
:10093000C0E045E03481CB01332341F0439FC00147
:1009400011248C5C9C4FDC018D919C91E080F180A6
:100950008E199F090280F381E02D8E1B9F0B80175B
:10096000910799F4B5E02B9FE0011124CC5CDC4F9A
:10097000E9E3F3E081E022813381232B09F453C0C2
:1009800035968F5F8533B9F744C00817190748F4C7
:100990008C159D0530F4249FE0011124CC5CDC4FC4
:1009A0006C01311121C0209719F7C4E3D3E085E031
:1009B000D82E8C8128813981EA80FB808823D9F068
:1009C000E20EF31E8D9DE0011124CC5CDC4F6881AA
:1009D0007981E616F70669F34A815B81C7010E94B7
:1009E0002804F982E882E5CF349FF0011124EC5C01
:1009F000FC4F232F9FCF8091340390913503821BAE
:100A0000930B8E199F098150984E8017910708F01B
:100A1000AFCF80E0DF91CF911F910F91FF90EF90CA
:100A2000DF90CF900895288139814A815B81240F1E
:100A3000351F31832083138302839C8194838C83AD
:100A4000E9CF0F931F93DB01E42FA80190E0EF3F64
:100A5000E9F065E0E69FF0011124EC5CFC4F608159
:100A60007181620F731F02C06F5F774025E0289F7E
:100A7000F001299FF00D1124EC5CFC4F80819181E5
:100A80008A0F9B1F1F910F910C94280460914104C1
:100A900070914204620F731F6115E8E07E0720F732
:100AA000E1E4F4E0DCCFCF92DF92EF92FF920F937C
:100AB0001F93CF93DF936B018A01790195E0899FA2
:100AC000E0011124CC5CDC4F688179816C0D7D1DC7
:100AD00082E00E9425030A80DB81C02DCC19DD094C
:100AE000EC16FD0608F4E70160E08AE00E94FE01D2
:100AF0008AE70E94E6027801EC0EFD1EE016F10680
:100B000031F0F80181918F010E94E602F7CF61E098
:100B10008AE00E94FE01CE01DF91CF911F910F91DB
:100B2000FF90EF90DF90CF900895DC011C96ED913F
:100B3000FC91309731F086819781982789279827F3
:100B4000089590E080E00895CF93DF93FC01EB01DE
:100B5000AC85BD851097A9F012969C9112971396BB
:100B60008C9113973C9111962C9141EA51E051835D
:100B700040833283238394838583CF01DF91CF9198
:100B8000089581EA91E09183808312821382148216
:100B90001582F3CFCF93DF931F92CDB7DEB7DC0181
:100BA000ED91FC91048CF58DE02D41E050E0BE010B
:100BB0006F5F7F4F09951816190634F4898190E00C
:100BC0000F90DF91CF9108958FEF9FEFF9CFCF93E3
:100BD000DF93EC018A89882379F09A01AB016E8555
:100BE0007F850E9453052E853F85280F391F3F873B
:100BF0002E87DF91CF91089590E080E0FACFCF93D8
:100C0000DF931F92CDB7DEB76983DC01ED91FC91D4
:100C10000280F381E02D41E050E0BE016F5F7F4F25
:100C200009950F90DF91CF91089580E00895FB0121
:100C300041505109460F571FE417F50778F42081FA
:100C400030E0322F22276181260F311D820F931F42
:100C50008217930708F401963296EECFE417F50752
:100C600051F4208130E0322F2227820F931F821708
:100C7000930708F401960895CF92DF92EF92FF92C6
:100C80000F931F93CF93DF93C82FE090CD02F12CE9
:100C9000FE2CEE244091CE024451550BE40EF51E7D
:100CA00048E050E067ED72E0C7018C0F911D0E9493
:100CB000170608E0C13129F00091EB020695069570
:100CC0000C7310E0A8016FED72E00E941706EC01B2
:100CD0000E151F0508F042C0A701401B510BB801BB
:100CE0006E5D7F4F80919D020E943B0301977C01C6
:100CF00060E08AE00E94FE018AE30E94E602D12CB5
:100D0000C12CCE14DF04B8F480E00E94E602082F64
:100D100010E0102F002780E00E94E602800F912F44
:100D2000911DC80FD91FC817D90708F4219682E072
:100D3000C80ED11CE6CFEC14FD0461F480E00E94E3
:100D4000E60290E0982F8827C80FD91FC817D90747
:100D500008F4219661E08AE00E94FE019C2F8D2F0D
:100D6000CD2B11F48FEF9FEFDF91CF911F910F915A
:100D7000FF90EF90DF90CF90089544E150E06BEC4E
:100D800072E090E080E00E941706009721F098271B
:100D90008927982708958FEF9FEF0895CF92DF92CC
:100DA000EF92FF920F931F93CF93DF93C0919C021A
:100DB000C1FF5EC020919A0230E04DEB52E070E03E
:100DC00060E080919D020E945305CD7FC0939C02FC
:100DD000E0909D0280913E04882309F474C085E070
:100DE000E89EF0011124EC5CFC4FC081D181219779
:100DF000028113810C0F1D1FCE010E941104F82ED9
:100E0000882321F060E0CE010E94FC03BE0184E053
:100E10000E942503B80186E00E9425038AE0C82EBF
:100E2000D12C40E86FE180E80E94ED0240E86FE1DC
:100E300080EA0E94ED024AE06CE180EA0E94ED0245
:100E400048E06FE180E80E94ED0204E610E08CE1EA
:100E50000E94D6038A7029F50115110521F1015070
:100E600011096AE070E080E090E00E946F02EFCF2D
:100E7000C091B502D091B602209721F410929D0244
:100E800080E027C0CE010E94820480939D028823C7
:100E9000B9F39E014DEB52E070E060E00E94530513
:100EA00097CF012B51F448E06FE180EA0E94ED02F8
:100EB00081E0C81AD10809F0B4CFFF2021F06F2DCE
:100EC000CE010E94FC038E2D0E94AD0210929D0265
:100ED00081E0DF91CF911F910F91FF90EF90DF9014
:100EE000CF9008950F931F93CF93DF93EC018C0164
:100EF0000B5F1F4F89910E94AD02FE013197108256
:100F0000C017D107B9F7DF91CF911F910F910895C5
:100F1000CF93DF93EC0188810E94AD02FE01CE01E8
:100F2000049621812193E817F907D9F71C82DF91F4
:100F3000CF910895CF93DF93EC01E881F981008C84
:100F4000F18DE02D0995882339F08C859D850296D9
:100F5000DF91CF910C947207DF91CF9108950F9399
:100F60001F93CF93DF931F92CDB7DEB78C01DC01C7
:100F7000ED91FC91008CF18DE02D09958823B1F065
:100F8000D8011C96ED91FC918281882379F041E093
:100F900050E0BE016F5F7F4F0E947203898190E035
:100FA0000F90DF91CF911F910F9108958FEF9FEFD9
:100FB000F7CFCF93DF931F92CDB7DEB7DC01ED9172
:100FC000FC910288F389E02D41E050E0BE016F5FA3
:100FD0007F4F09951816190634F4898190E00F9017
:100FE000DF91CF9108958FEF9FEFF9CF6F927F92AE
:100FF0008F929F92AF92BF92CF92DF92EF92FF9229
:101000000F931F93CF93DF938C014B01EA01DC0117
:10101000ED91FC91008CF18DE02D0995882309F468
:101020007BC0D8011C96ED91FC918281882309F444
:1010300076C07E018EE1682EBE016E197F09680DB3
:10104000791DD8011C96ED91FC91A70182810E9427
:1010500072036C01F801A484B584D50112967C90CA
:10106000872D0E94CD02C816D906E9F5EC18FD08B7
:10107000C50102960E948807F801A485B585EC9108
:101080006E9EF0011124EC58FB4F818D84FF09C046
:1010900011968C911197982F967019F4886011967B
:1010A0008C93D8011C96ED91FC911D978281811142
:1010B0002EC0818182FF05C011821D961C921E9256
:1010C0001C97CE018E199F09DF91CF911F910F912F
:1010D000FF90EF90DF90CF90BF90AF909F908F9058
:1010E0007F906F900895B5E07B9EF0011124EC5C39
:1010F000FC4F808191818C0D9D1D91838083828125
:1011000093818C199D0993838283CE01DDCFE114F5
:10111000F10409F091CFF9CF8FEF9FEFD5CF90E099
:1011200080E0D2CFEF92FF920F931F93CF93DF9384
:10113000EC01E881F981008CF18DE02D099588237F
:10114000E1F00C851D85780182E0E80EF11C095F55
:101150001F4FD0E0C0E0F70181917F010E94CD02D6
:10116000C80FD91FE016F106B1F7CE01DF91CF917C
:101170001F910F91FF90EF900895D0E0C0E0F5CF60
:10118000FC01448555854115510551F0FB0124852D
:1011900035852115310521F081E04217530709F00B
:1011A00080E00895DC011C96ED91FC91309731F0C0
:1011B0008281811105C081818170089580E0089548
:1011C00081E00895DC01ED91FC91028CF38DE02D1E
:1011D000099591E089270895DC01ED91FC91048C3B
:1011E000F58DE02D0994CF93DF93FC01A481B581A7
:1011F000109721F480E0DF91CF910895EC01ED91FB
:10120000FC9111970688F789E02DCD010995811190
:101210001EC0FE01E156FF4F80819181892B51F75D
:101220008DEF9FEF918380838C819D81DC01ED9117
:10123000FC910680F781E02D09958C819D81DC0170
:10124000ED91FC910488F589E02D0995D3CF81E0DB
:10125000D2CFCF92DF92EF92FF920F931F93CF9353
:10126000DF9300D000D0CDB7DEB78C01F90180E06C
:10127000DE0111967D019E2F9F77EE0FEF2FEE1F5F
:10128000FF0BF195309709F09068D701A80FB11DB9
:101290009C938F5F309779F790E0FA01E81BF90B88
:1012A0006483FA01E81BF90B3596D701BD016E196D
:1012B0007F09681779071CF46D916193F7CFFC01E2
:1012C0003196D80114968D919C917F01E20EF31E08
:1012D000BA016E1B7F0B6B5F7F4FDC01ED91FC91C0
:1012E0000280F381E02DA70109956C010E94A10203
:1012F000F801E857FF4F608371838283938381E015
:10130000EC14FD0409F080E00F900F900F900F9007
:10131000DF91CF911F910F91FF90EF90DF90CF90D1
:101320000895EF92FF920F931F93CF93DF93EC01F9
:101330008B017A010E94A102FE01E857FF4F6083F2
:101340007183828393838C819D81DC01ED91FC917B
:101350000280F381E02DA701B801DF91CF911F91A9
:101360000F91FF90EF9009941F93CF93DF93EC01BF
:10137000162F0E94A102FE01E857FF4F6083718380
:10138000828393838C819D81DC01ED91FC9101909E
:10139000F081E02D612FDF91CF911F910994CF92C1
:1013A000DF92EF92FF920F931F93CF93DF93EC01A5
:1013B0008B010E94A1026B017C018C819D81DC016B
:1013C000ED91FC910084F185E02D0995892B69F45C
:1013D0000E94A1026C197D098E099F0968397A4320
:1013E0008105910550F380E00CC08C819D81DC016A
:1013F000ED91FC910284F385E02D0995F80180833D
:1014000081E0DF91CF911F910F91FF90EF90DF90DE
:10141000CF9008952F923F924F925F926F927F925A
:101420008F929F92AF92BF92CF92DF92EF92FF92F4
:101430000F931F93CF93DF9300D0CDB7DEB78C010E
:101440004B016C0126E0C20ED11CB6010E94CF09EF
:10145000811118C0F12CE12CC7010F900F90DF9182
:10146000CF911F910F91FF90EF90DF90CF90BF90A1
:10147000AF909F908F907F906F905F904F903F9034
:101480002F900895D8011696BC91BA83198218013D
:10149000E7E02E0E311CEE24E394F12CB12CA12CAC
:1014A000412C512C32014394BE016F5F7F4FC80124
:1014B0000E94CF09882371F2B7016F5F7F4F898146
:1014C000F10181931F01282F2F7730E0249DA00187
:1014D000259D500D349D500D1124A40EB51E27E0FE
:1014E000440C551C661C771C2A95D1F787FD35C026
:1014F000FA81F07FFA838FEF860FD4018C93F0335B
:1015000009F043C06C0D7D1DC8010E94CF098823DE
:1015100009F4A0CFB7016E5F7F4F6C0D7D1DC80130
:101520000E94CF09882309F495CFB7016D5F7F4FE3
:10153000D401EC91E00FF12FF11DC780D12CDC2CF0
:10154000CC248085C80ED11CF801868181FF03C0A0
:10155000F2E0CF0ED11C82E01BC07B01653071052B
:1015600009F0A2CFF801E156FF4F8FEF9FEF918373
:101570008083D80114968D919C91DC01ED91FC91B2
:101580000488F589E02D099565CF80E0D12CC12C28
:10159000482E512C7B01461A570A18012DE9220EBC
:1015A000311C8EEF682E77247A94C2018E0D9F1D18
:1015B0008A159B0588F5BE016F5F7F4FC8010E94A9
:1015C000CF09882309F446CFD1018D919C910097D2
:1015D000B1F0BA81B03399F4F4012081A301421B28
:1015E00051099A012E0D3F1DC216D30640F4DC01AD
:1015F000ED91FC910190F081E02D69810995B0E8B1
:10160000EB16F10428F48981F801EE0DFF1D8683A5
:10161000EFEFEE1AFE0AC9CFF801E356FF4F8081C3
:101620009181892B09F018CFF1E8EF16F10408F049
:1016300011CF12CF089590E080E00895FB01019052
:101640000020E9F73197AF01461B570BDC01ED9104
:10165000FC910280F381E02D09948F929F92AF92CA
:10166000BF92EF92FF920F931F93CF93DF93CDB76B
:10167000DEB7A1970FB6F894DEBF0FBECDBF7C01D9
:10168000FA01CB0119A2223008F42AE08E010F5D85
:101690001F4F822E912CB12CA12CBF01A5019401CA
:1016A0000E94472DF901CA016A300CF5605DD8012E
:1016B0006E938D01232B242B252B79F790E080E06E
:1016C000109721F0BD01C7010E941E0BA1960FB615
:1016D000F894DEBF0FBECDBFDF91CF911F910F9168
:1016E000FF90EF90BF90AF909F908F900895695CAE
:1016F000DECFCF93DF93BC018EE595E00E941E0BF9
:10170000EC0163EA71E08EE595E00E941E0B8C0F00
:101710009D1FDF91CF910895662351F0613081F4D0
:10172000FC0183810E94FE0186EA91E00C94790B12
:1017300060E0FC0183810E94FE018FEA91E0F6CF18
:101740000895009729F0BC018EE595E00C941E0BDE
:1017500090E080E008958F929F92AF92BF92CF92D7
:10176000DF92EF92FF920F931F93CF93DF937C0151
:10177000EB016C0182E0C80ED11C4701E5E08E0E42
:10178000911C10E000E0F60141916F0150E070E023
:1017900060E02AE0CE010E942D0B5C01E881F98116
:1017A0000190F081E02D6EE2CE0109958A0D9B1D1E
:1017B000080F191FC814D90431F7F701458150E00B
:1017C00070E060E02AE0CE010E942D0B800F911F97
:1017D000DF91CF911F910F91FF90EF90DF90CF900D
:1017E000BF90AF909F908F9008950F931F93CF93CA
:1017F000DF93DC0120917204309173042F5F3F4F1F
:1018000021158DE7380710F020E030E1522F432FEB
:10181000E6E4F4E0EF0180E08430A1F43093730457
:101820002093720430E020E02430310599F484E004
:101830008093F404F0E0E0E0CF01DF91CF911F91BD
:101840000F9108950C811D818F5F2B96041715074A
:1018500019F7D4CFC481D581C90101963B96CD2B10
:1018600009F52093F4048BE0829FF001839FF00D33
:101870001124EA5BFB4F558344837783668310977B
:1018800099F484E0DF011D928A95E9F78BE0829F4D
:10189000D001839FB00D1124AA5BBB4F80E4189642
:1018A0008C93CACF9C01C0CF8D919C91119791834D
:1018B000808312968D919C9193838283E7CF0F93BF
:1018C0001F93CF93DF93EC018B018C859D85892B32
:1018D00041F470E060E090E080E00E94F50B9D87AD
:1018E0008C87EC85FD8580E0309749F01027012733
:1018F0001027158304832E96D287C18781E0DF915C
:10190000CF911F910F910895CF93DF93DC011C9627
:10191000ED91FC913097B1F0EC01158214821286A2
:1019200011861D861C8689890E94AD0288890E94C5
:10193000AD028A890E94AD022E9686E0FE011192C8
:101940008A95E9F7DF91CF910895FC011382128205
:1019500088EE93E0A0E0B0E084839583A683B7830C
:101960008DE291E091838083158614863E9686E011
:10197000DF011D928A95E9F70895DC0181EA91E083
:101980008D939D9384E0FB0101900D928A95E1F780
:101990000895EF92FF920F931F93CF93DF93FC0173
:1019A00010924D05C5EFD4E0DE0130E020E0283094
:1019B000310569F490E0983009F042C01092B40209
:1019C0001092B30210924D0525EF34E044C0CD01D2
:1019D000855F94400D911C9111970115110561F1DE
:1019E00012964D915C9113974115510529F1E080B4
:1019F000F1800E151F0501F5028113814017510773
:101A0000D9F420934D05DC01A750BB4F86E0FB01C4
:101A100001900D928A95E1F78BE0829FF001839F00
:101A2000F00D1124EB50FB4F1286DF91CF911F91E7
:101A30000F91FF90EF9008952F5F3F4F1B96B7CF08
:101A40009E0148815981452BB1F44A815B81452B28
:101A500091F490934D0584E0D90101900D928A95FF
:101A6000E1F7D901149686E0FB0101900D928A9569
:101A7000E1F7F901D9CF9F5F2B969DCFEF92FF92AF
:101A80000F931F93CF93DF9300D000D000D0CDB73A
:101A9000DEB74091DB025091DC024F3F540731F436
:101AA0008091DD029091DE02019619F180915A0534
:101AB00090915B0560912C0370912D039B01209503
:101AC0003095282B392B42175307A9F520912E0367
:101AD00030912F0320953095E0915C05F0915D05E4
:101AE0002E2B3F2BE091DD02F091DE02E217F3078F
:101AF00011F586E0E1E5F1E0ADEBB2E001900D9289
:101B00008A95E1F786E0EEE4F5E0A3ECB2E001901F
:101B10000D928A95E1F788E090E09093CA02809355
:101B2000C9028091B5029091B6020E969093B602CA
:101B30008093B502A5C08427952786239723892BF8
:101B400099F42091DD023091DE0280915C05909144
:101B50005D058227932760912E0370912F038623C2
:101B60009723892B09F499C0809130039091310318
:101B70009093BA028093B90280913203909133031B
:101B80009093BC028093BB02E090B902F090BA023D
:101B90000091BB021091BC02E5EFF4E080E08830D8
:101BA00009F084C080934D0546E050E06FEF70E08F
:101BB0008DEB92E00E94D72E86E0EDEDF2E0DF01A2
:101BC000282F1D922A95E9F7EEE4F5E0A3ECB2E0A8
:101BD000982F01900D929A95E1F7EEE4F5E0A3EDD0
:101BE000B2E0982F01900D929A95E1F7F092E402FD
:101BF000E092E3021093E6020093E50220915A0579
:101C000030915B053093DA022093D90220915C0574
:101C100030915D053093DC022093DB0220E031E05F
:101C20003093D2022093D1023093CC022093CB0286
:101C300028E030E03093CE022093CD028093CF0293
:101C400094E09093D00228E036E03093CA022093CB
:101C5000C90223EF32E03093B8022093B7022AE2A0
:101C600030E03093B6022093B502BE016F5F7F4F24
:101C7000DB011D928A95E9F789EB92E00E94C90C7D
:101C800026960FB6F894DEBF0FBECDBFDF91CF9181
:101C90001F910F91FF90EF9008955093BA024093D7
:101CA000B9023093BC022093BB026ECF20813181F8
:101CB000E216F306E1F42281338102171307B9F427
:101CC0009481911103C09581992329F080934D054A
:101CD000349686E011CF96819111F8CF97819111BA
:101CE000F5CF90859111F2CF91859111EFCF8F5F54
:101CF0003B9655CFCF93DF93EC010E943E0D809130
:101D00009C022091B5023091B6022A32310549F485
:101D100010929D028D7F80939C02DF91CF910C9455
:101D2000CE061D821C828260F6CF9C01AB017093AF
:101D3000B2026093B1021616170654F48091AF02F6
:101D40009091B0028217930719F0B9010C94BC2E40
:101D50000895EF92FF920F931F93CF93DF93E0913B
:101D6000A602F091A702C185D285209709F451C03F
:101D7000E090AC02E1FE1FC08A8181111CC08091FD
:101D8000DF029091E002978386838091D702909141
:101D9000D802918380838091D9029091DA02938353
:101DA00082838091E3029091E40298278927982703
:101DB0000897E1F41A82E3FE2CC08D81882349F153
:101DC0008C8180939D028AE280939A026881798156
:101DD0006A5271098091B7029091B802DF91CF9158
:101DE0001F910F91FF90EF900C94950E0E9482042A
:101DF000F82E8A838823F9F20E94CD028C012AE210
:101E000030E040919B0270E060E08F2D0E94210540
:101E1000D2CFDF91CF911F910F91FF90EF90089556
:101E2000AF92BF92CF92DF92EF92FF920F931F93E8
:101E3000CF93DF93E090AD02F090AE02F701C48D36
:101E4000D58DD090AC02209781F5D6FC03C0F12C43
:101E5000E12CC6C0E2E5F2E090E080E021812111B2
:101E60007CC042E1489F9001499F300D1124E90157
:101E7000CE5ADD4FC70184579440959587956FEEF4
:101E80007EEE869FA001879F500D969F500D1124D6
:101E9000488381E089832C5A3D4F81E1F9011192F9
:101EA0008A95E9F7F701D58FC48FD1FE30C0009134
:101EB000B5021091B6020115110549F189818670AC
:101EC00031F55E01F2E0AF0EB11CC12CF50181913C
:101ED0005F01811149C0C8010E948204F501319758
:101EE0008083882309F440C02091B7023091B80262
:101EF0002D5B324040919B0270E060E00E94210522
:101F0000F4E0CF1204C0F701818D8061818F898157
:101F100083FF0AC0877F89838D2D82608093AC0206
:101F2000F701818D8F7E818F1091AC0214FD02C06C
:101F300017FF26C0CE0107960E9472078A81882368
:101F4000E9F0F701848195819F838E838981846084
:101F50008983F701158E148E7ACF0196729684309C
:101F6000910509F07BCF73CFC394F5E0CF12AECFCC
:101F700080919C028E7F80939C02C5CF1982E9CF0D
:101F800010FF04C0CE0107960E9488071C7009F458
:101F900057C08F81882309F453C09885911136C0AA
:101FA000EC84FD84E114F10409F451CF95E0899F9C
:101FB000F0011124EC5CFC4FF382E282C090B70286
:101FC000D090B802F601ED5BF2406F01E0939A0207
:101FD000DD24C6018E0D9F1D0097F9F410929D021D
:101FE000B7018091B7029091B8020E94950EF092CD
:101FF000B602E092B502DF91CF911F910F91FF9051
:10200000EF90DF90CF90BF90AF9008950E94CD02E7
:102010007C01892B09F41BCFD1CF0E9482048093CD
:102020009D028823E9F2870130E020E04F81B6016C
:102030000E94210580919C02826080939C02D0CFF7
:10204000898181FF04CF8F81811108C01982F70136
:10205000158E148E80E18093AC02F9CEF701818D4C
:102060008061818FF4CEAF92BF92CF92DF92EF92D8
:10207000FF921F93CF93DF93843009F458C1C0912E
:10208000AD02D091AE0223EF32E03093B80220933C
:10209000B7023093B0022093AF028330C9F4898D28
:1020A0008F70833009F044C088899989892B09F0A1
:1020B0003FC088E08093AC020E94100F8091AC0278
:1020C00085FF13C61092B2021092B102198E51C050
:1020D000823009F005C18091AB028F5F8093AB0223
:1020E000811113C08091AA028F5F8093AA0281118F
:1020F0000CC08091A9028F5F8093A902811105C055
:102100008091A8028F5F8093A8021092B60210926D
:10211000B5021092B2021092B102898D982F9D7F64
:10212000953059F48A8D8F5F8A8F883709F4198E1C
:102130001092B6021092B50231C28823C9F32889E1
:102140003989232B09F4C7C09A8D2FEF290F2A8FC5
:102150009111EECF9B8D983031F02FEF280F223068
:1021600050F4953041F4198E80E88093AC020E94BF
:10217000100F84E184C0392F953008F034E023E05B
:1021800001C0220F3A95EAF72A8F9F5F9B8F8F70CD
:10219000833009F47DC008F06AC0813009F406C4B8
:1021A000823031F61092EC028091EC0282608093D2
:1021B000EC0282E08093F30294E09093F402809327
:1021C000F5021092F6028CE290E09093B6028093B2
:1021D000B50280E68093EB0288858093E7028985CB
:1021E0008093E8028A858093E9028B858093EA02D6
:1021F0008C858093E3028D858093E4028E858093A5
:10220000E5028F858093E60286E08093D4028C817C
:102210009D819093E0028093DF028E819F81909355
:10222000E2028093E10280915A0590915B059093C0
:10223000D8028093D70280915C0590915D059093C0
:10224000DA028093D902888199819093DC0280938D
:10225000DB028A819B819093DE028093DD02898D6F
:1022600084FFC9C51092EE021092ED02D5C28630ED
:1022700029F0883019F0843009F05ACF81E1809339
:10228000EC0288E290E09093B6028093B50221C000
:1022900084E08093AC020E94100F8091AF02909175
:1022A000B0029093B8028093B7028091B1029091EE
:1022B000B202892B09F44AC588899989009709F4E3
:1022C00045C588969093B6028093B50288E18093C5
:1022D000EC0280E57FCF8F70833009F029CFE9CE03
:1022E000853009F0A9C0E091A602F091A70284818F
:1022F0009581892B09F41CCF1092AE021092AD0289
:1023000087EE92E09093B8028093B7029093B00268
:102310008093AF021092B2021092B1021092B602F4
:102320001092B50288E08093AC020E94A90E8091C1
:10233000B1029091B202009709F4FACE9C01245E9A
:102340003F4F3093B6022093B5023093CD022093D5
:10235000CE02E091A602F091A70220852093D3023D
:1023600021E12093D40208969827892798279093F3
:10237000E4028093E3021092E6021092E502848167
:1023800095819093E0028093DF02868197819093FC
:10239000E2028093E10280915A0590915B0590934F
:1023A000D8028093D70280915C0590915D0590934F
:1023B000DA028093D902808191819093DC0280932C
:1023C000DB02828193819093DE028093DD0283EFB2
:1023D00092E09093B8028093B70281E10E943C069C
:1023E00080959095009709F45BC19093E6028093E5
:1023F000E50285E48093CB021092CC021092D202C7
:102400001092D10280919E0290919F02019690932A
:102410009F0280939E029093CF028093D0021092ED
:10242000D6021092D5020E94BD0680959095909399
:10243000D6028093D502B2C08091CB02853409F0D8
:1024400077CEC090CD02D12CDC2CCC248091CE0252
:10245000C80ED11C8091B5029091B6028C159D05D5
:1024600008F466CED092B602C092B5028091D10235
:102470008F7309F05DCE1091D202111159CEA09048
:102480005A05B0905B05A114B10439F480915C0544
:1024900090915D05892B09F441C02091DB023091B8
:1024A000DC028091D402813149F52F3F320739F4A3
:1024B0008091DD029091DE02019609F47DC0809149
:1024C0002C0390912D03809590958A299B29821742
:1024D0009307A1F480912E0390912F0380959095FE
:1024E00040915C0550915D05842B952B4091DD0258
:1024F0005091DE024817590709F45EC0A216B306D0
:1025000009F016CE2091DD023091DE0280915C054B
:1025100090915D052817390709F00ACE0E94BD0683
:10252000019609F005CE8091D402863009F4BBC033
:10253000813109F441C0813009F0FACD8091DF0288
:10254000883009F0F5CD1092DF028091E102909180
:10255000E202873F4FEF940768F109969093E202F9
:102560008093E1028091D7029091D8029093DC028F
:102570008093DB028091D9029091DA029093DE027F
:102580008093DD02B092D802A092D70280915C05C0
:1025900090915D059093DA028093D9021092AC027B
:1025A000DF91CF911F91FF90EF90DF90CF90BF9080
:1025B000AF9008950896D2CF8CE1C81AD108D09276
:1025C000B602C092B50287EE92E09093B802809373
:1025D000B7028091E5029091E602892BE1F44091E7
:1025E000E1025091E2026091DF027091E002A0915D
:1025F000D702B091D802C091D902D091DA02E6E4B4
:10260000F4E022E734E02E173F0761F43093A7028D
:102610002093A6028DCD81E10E943C06019609F02F
:1026200087CDDDCF848195810097C1F1841795070F
:10263000A9F586819781009719F08617970771F59C
:10264000808191810097D1F4E280F380EF28F1F44A
:10265000F093A702E093A6021092AE021092AD0290
:1026600082E08093AC0287EE92E09093B002809378
:10267000AF021092B2021092B10257CE8F3F98076C
:1026800029F4E280F380EF20E09411F38A179B078E
:1026900029F482819381C817D907D1F23B96B3CF31
:1026A0008FEF9FEFA2CE86E00E943C06019609F0D4
:1026B0003FCD4091E1025091E2026091DF027091C2
:1026C000E0028091D7029091D802E091D902F09176
:1026D000DA02C4E7D4E0298D2223A9F0AC81BD81C0
:1026E0004A175B0781F4AE81BF816A177B0759F4F3
:1026F000A881B9818A179B0731F4AA81BB81EA17A7
:10270000FB0709F45BC16E9624E0CE3CD20719F3B7
:1027100010F38091EC028F73823061F45093A50224
:102720004093A402ECEEF4E080E0843009F091C024
:102730008093F4048091EC0282FDFACC84E18093D2
:10274000EC0288E290E09093B6028093B50280E5B7
:102750008093EB023091E6028091EA028093E602D8
:102760002091E5028091E9028093E5022093E9023D
:102770009091E4028091E8028093E4029093E80251
:102780008091E3028093F4044091E7024093E302D6
:102790008093E7023F5F3093EA0231110DC02F5F53
:1027A0002093E902211108C09F5F9093E8029111E4
:1027B00003C08F5F8093E7028091DF029091E00277
:1027C0009093A5028093A4022091E1023091E2024D
:1027D0003093E0022093DF029093E2028093E102C3
:1027E0008091D7029091D8029093DC028093DB0213
:1027F0008091D9029091DA029093DE028093DD02FB
:10280000B092D802A092D70280915C0590915D05AC
:102810009093DA028093D90280E48093D30280916E
:10282000B5029091B6029093CD028093CE021092A1
:10283000F2021092F1021092F0021092EF0286E082
:102840000E943C06809590959093F0028093EF0251
:10285000D0CD219131918F5F4217530709F065CF99
:102860001092F404E4E7F4E090E080E0D0E0C0E00F
:102870008430910531F484E08093F404209781F44E
:1028800057CC3E2F2F2FA18DA11163C08093F4044C
:102890002EE1289FE001299FD00D1124CC58DB4F59
:1028A000D093AE02C093AD0283E08A8F888F1E8AD8
:1028B00084E08F8B1B8E5D834C837F836E8380913E
:1028C000D7029091D802998388838091D902909100
:1028D000DA029B838A8381E0898F8091A8028C87AA
:1028E0008091A9028D878091AA028E878091AB0288
:1028F0008F8781E090E0998B888B8091E6028B87AF
:102900008091E5028A878091E40289878091E302C1
:10291000888781E090E00E9473238091EB02982FDA
:10292000907F913508F442C082958F708550990B45
:10293000880F991F880F991FE12FF0E0E817F9071A
:102940002CF4E354FD4F36A9311112C01093F40456
:102950002DC0A73031F4209731F0B28DAA8DAB177E
:1029600010F03C2F2D2F01967E96C32FD22F80CFB3
:10297000313011F41F5FE0CF27A93230D9F4243071
:10298000C9F41093F40480AD91AD89279827892765
:102990009093A5028093A402813042E0940710F046
:1029A00080E092E09B8B8A8B9D8B8C8B80E1809367
:1029B000EC02FACB222351F2120FBECFD093AE021B
:1029C000C093AD021092AC029091EC0292FF07C04E
:1029D000198E80E28093AC020E94100FA9CB8091E7
:1029E000EB0282958F70880F880F8093F404C81AC9
:1029F000D108760184E1E81AF108F092B602E0927B
:102A0000B5022F70223021F4892F8F738231D1F0DB
:102A1000E114F10419F4892F8370A1F039852A8516
:102A20008B855091E30248855413C0C14091E40264
:102A30004313BCC13091E5023213B8C12091E602C4
:102A40002813B4C194FF49C068897989611571055B
:102A500009F443C0CE010C960E9440233091E70256
:102A60008091A002381339C02091E8028091A10220
:102A7000281333C09091E9028091A20298132DC0CF
:102A80008091EA024091A302841327C03C872D87DE
:102A90009E878F87988D8B8D811118C08E892A8D86
:102AA000921B282F269526952695921B890F8E8B93
:102AB00097FD91952F89322F36953695231B920FCE
:102AC0009F8B869586958695890F888F81E0809368
:102AD000AC02888D8A8F198A188A298DE22FEF70AF
:102AE000E150E83008F024CBF0E0E758FA4E0C94BF
:102AF000782D81159A150416B916E216F316D61616
:102B0000B2168091AC0280FF13CB83E0898F80E402
:102B10008093AC02198A188AE114F10431F082E43E
:102B20008093AC02C7010E9473231092B2021092EC
:102B3000B102C2CA8091AC0280FF5FC08091EC02FA
:102B40008F73823109F059C08091EB02982F907FEA
:102B5000913598F182958F708550990B880F991F48
:102B6000880F991FE12FF0E0E817F9072CF4E354E0
:102B7000FD4F36A9311103C01093F4041EC031304B
:102B800011F41F5FEFCF27A9323099F5243089F572
:102B90001093F40480AD91AD8927982789279093ED
:102BA000A5028093A402813012E0910710F080E02A
:102BB00092E09B8B8A8B9D8B8C8B83E0898F80919D
:102BC000E30288878091E40289878091E5028A8701
:102BD0008091E6028B8781E090E00E94732382E47B
:102BE0008093AC02198A188A1092B6021092B5022C
:102BF0009CCF222309F2120FB5CF80E28093AC0262
:102C00000E94100F198E96CD8091EC0280FF20C09B
:102C100024FD1EC088899989892B09F089CAC601BB
:102C200043970E9473238091AC02982F90619093F8
:102C3000AC02EF2819F082618093AC020E94100F61
:102C400081E090E0998B888B88E0898F1B8E16CB72
:102C500085FF14C08091F1029091F2029827892794
:102C60009827AC014D505D4F5093B8024093B70286
:102C7000E81AF90AF092B602E092B5024091B50264
:102C80005091B6029091AC024115510541F024FDDE
:102C900006C092609093AC02CA010E947323809197
:102CA000ED02282F30E0322F22278091EE02820F92
:102CB000932F911D9093A5028093A4022C893D89A6
:102CC0002817390710F0892B21F43093A50220939F
:102CD000A4028091A4029091A5029B8B8A8B809183
:102CE000AC02837009F424CA20CF84FF0AC010927A
:102CF000B2021092B10281E090E0998B888B84E05F
:102D0000A4CF2091B1023091B20221153105B9F062
:102D100080FF02C0198A188A88899989009789F4E6
:102D20008A899B898217930720F49093B20280933B
:102D3000B1028091B1029091B202998B888B1B8E67
:102D4000ACCA9093B2028093B102F9CF8091AC02E9
:102D500081FFEEC988E290E09093B6028093B502BD
:102D600080E1B5CA8091AC0280FFE2C9198E80E192
:102D700031CEE114F10419F0C7010E947323809150
:102D8000AC0281709091EC0290FF15C0882381F015
:102D900087E0898F1A8E198A188A81E090E00E9454
:102DA000732380E18093AC020E94100F80E167CA18
:102DB00086E0898FF2CF882399F085E0898F198A80
:102DC000188AB6C9E114F10419F0C7010E947323EF
:102DD0008091EC0280FF04C087E0898F1A8EDDCFDE
:102DE000EF2821F7A5C98091AC0280FFA1C987E037
:102DF000898F1A8E9DC982E08093ED021092EE02B7
:102E00000BCDCF93DF93EC018C859D85009729F442
:102E100090E080E0DF91CF910895EA89EE23C1F33D
:102E200021E02B8B25E0E29FF0011124EC5CFC4FAC
:102E30002E853F85338322839093A7028093A60239
:102E400085E00E9433108091B5029091B602892BE3
:102E5000F9F2CE010E960E947A0E81E090E0DACF70
:102E60008F929F92AF92BF92CF92DF92EF92FF929A
:102E70000F931F93CF93DF9380913E04882309F42F
:102E800034C1D0919B02D11151C089E30E94D60375
:102E9000882309F449C060913F04709140046B019C
:102EA00026E0C20ED11CC11438E0D30628F06B0115
:102EB00049EFC41A47E0D40A80E00E94250360E08D
:102EC0008AE30E94B803E82E60E08AE30E94B80318
:102ED000F82EF0924004E0923F0460E08AE30E9402
:102EE000B803182F60E08AE30E94B803C82F60E09F
:102EF0008AE30E94B803082F40E46EE180E80E9454
:102F0000ED0207FFFFC0E11458E0F50608F0FAC033
:102F1000D0924204C09241049C2F812F0497909339
:102F2000440480934304DFEFD0939B02F0909B0214
:102F3000FF2009F472C081E080939C028F2D0E94D3
:102F4000CD02EC019093B6028093B502892B09F46F
:102F500006C142E650E06DEB72E08F2D0E947203D5
:102F6000C090C902D090CA0288E0C816D10409F006
:102F7000E4C0F0929D022E97D093B602C093B502A2
:102F80002091D7023091D802E0915A05F0915B056B
:102F9000C9018E279F2740912C0350912D03842334
:102FA0009523892B49F54091D9025091DA0260911D
:102FB0005C0570915D05CA0186279727A0912E03B5
:102FC000B0912F038A239B23892BB1F48091DB02DC
:102FD0009091DC02E817F90709F097C08091DD02B3
:102FE0009091DE026817790709F08FC063EC72E0F8
:102FF00087ED92E00E94C90C81E00E94331080911D
:10300000B5029091B602892B21F00E943E0D0E94DC
:10301000CE0680919C0280FDA2C00E94A1026B019D
:103020007C018091540590915505A0915605B09171
:10303000570546015701881A990AAA0ABB0AC4E72C
:10304000D4E0D093AE02C093AD0282E0B7FE14C0CC
:10305000EC8DFD8D309709F419C186859785A0897F
:10306000B189A7019601281B390B4A0B5B0BDA01CA
:10307000C901B7FD0DC083E00E9433108091B502F5
:103080009091B602892B21F00E943E0D0E94CE063F
:103090006E9634E0CC3ED307A1F6B7FC26C04AEFCB
:1030A000C40ED11CE11CF11CC0925405D0925505F0
:1030B000E0925605F0925705C6E4D4E002E714E02A
:1030C000D093A702C093A60285E00E94331080919E
:1030D000B5029091B602892B21F089859A850E94CC
:1030E0007A0E2B960C171D0759F7DF91CF911F9180
:1030F0000F91FF90EF90DF90CF90BF90AF909F9097
:103100008F9008950E949C030FCFE5EFF4E080E0DC
:10311000883019F480934D056FCF60817181261737
:10312000370741F4628173814617570719F480937A
:103130004D055CCF8F5F3B96EBCF28E0C21626E0B3
:10314000D20669F41092B6021092B502AA9760F402
:103150008091B5029091B602892B09F058CF0E9458
:103160009C0310929B0259CF8091D1029091D20280
:10317000811531E0930701F18115924049F72091C3
:10318000E3023091E40280915A0590915B05281783
:103190003907F1F62091E5023091E60280915C0555
:1031A00090915D052817390799F663ED72E089ED76
:1031B00092E00E94C90CCCCFE090E302F090E402D0
:1031C00080915A0590915B05E816F90609F6C091C1
:1031D000E502D091E60280915C0590915D05C817EB
:1031E000D90709F0B5CF63ED72E089ED92E00E9456
:1031F000C90C80E092E09093D2028093D10286E0E5
:10320000E3EDF2E0ADEDB2E001900D928A95E1F7C9
:1032100086E0EEE4F5E0A3EDB2E001900D928A9530
:10322000E1F786E0EEE4F5E0A3ECB2E001900D9268
:103230008A95E1F786E0EDEDF2E0ADEBB2E00190CA
:103240000D928A95E1F78091D9029091DA029093DC
:10325000E4028093E3028091DB029091DC02909380
:10326000E6028093E502F092DA02E092D902D0936E
:10327000DC02C093DB02D092CA02C092C9028AE289
:1032800090E09093B6028093B50262CF8E859F85C1
:10329000A889B989E6CECF93DF93EC010E9430175D
:1032A00089890E94AD02198ADF91CF9108950F9309
:1032B0001F93CF93DF931F92CDB7DEB78C010E948F
:1032C0003017F8018189882389F041E050E0BE0180
:1032D0006F5F7F4F0E947203019741F4898190E0F4
:1032E0000F90DF91CF911F910F9108958FEF9FEF76
:1032F000F7CFEF92FF920F931F93CF93DF937C0151
:103300008B01EA010E943017F7018189882369F156
:10331000AE01B8010E9472038C01F701C1898C2FA4
:103320000E94CD028017910769F48C2F0E94AD0294
:10333000F701118AC801DF91CF911F910F91FF9082
:10334000EF90089585E0C89FF0011124EC5CFC4FDC
:1033500080819181800F911F9183808382819381ED
:10336000801B910B93838283E5CF80E090E0E3CFD5
:10337000CF93DF93EC010E9430178989DF91CF91C1
:103380000C94CD02CF93DF93EC010E943017898912
:1033900081110E94AD028889898B188ADF91CF91B3
:1033A0000C94CD02CF92DF92EF92FF920F931F9376
:1033B000CF93DF9300D000D0CDB7DEB78C016B0187
:1033C0007A010E943017F60182819381A481B58130
:1033D000892B8A2B8B2BE9F0E114F104D1F0D80171
:1033E0001C96ED91FC91D60112962D913C9113976C
:1033F0003A83298314968D919C919C838B837E2D97
:103400006F2D309779F1778366833183208393839F
:103410008283F80184859585892BB1F18289811198
:1034200033C086E096E00E948204D80152968C93C5
:1034300052972AE230E01F963C932E931E9721E08C
:1034400090E0811101C020E0822F0F900F900F902B
:103450000F90DF91CF911F910F91FF90EF90DF9030
:10346000CF900895CE0101960E94F50BF801958743
:103470008487009749F09801225F3F4FDC011A963C
:103480003C932E931997C5CF80E090E0DECF4F920A
:103490005F926F927F928F929F92AF92BF92CF92E4
:1034A000DF92EF92FF920F931F93CF93DF93CDB7ED
:1034B000DEB763970FB6F894DEBF0FBECDBF6C01C9
:1034C0007B013A01FB01DB018D91882309F444C0A3
:1034D0008E32D1F380538A30B8F3F60142815381A2
:1034E0006481758180916E0690916F06A09170063F
:1034F000B0917106481759076A077B0709F455C24E
:103500008601085F1F4F0E94A1026F7077277C5FC2
:10351000C8010E945F0C813009F04CC281EA91E041
:103520009A838983F60182819381A481B5818B83FB
:103530009C83AD83BE8345E350E0BE016F5F7F4F48
:10354000C8010E94D219892B09F057C0F12CE12C37
:10355000C8010E94840C39C030E020E090E080E097
:103560005AE04191442309F1843091050CF0B5CF24
:103570004E3271F42F3F310511F00CF0AECFD30174
:10358000A80FB91F12962C93019630E020E0E9CFE6
:10359000529FB001539F700D1124242F440F330B01
:1035A00020533109260F371FDCCF2F3F310511F093
:1035B0000CF093CF843091050CF08FCF680E791EFC
:1035C000F3012283EE24E394F12CC70163960FB636
:1035D000F894DEBF0FBECDBFDF91CF911F910F9149
:1035E000FF90EF90DF90CF90BF90AF909F908F9023
:1035F0007F906F905F904F9008950E94A102F60116
:103600007783668342E050E0B6016A5F7F4FC8016E
:103610000E94E70581E090E09A83898342E050E0D0
:10362000BE016F5F7F4FC8010E94E70580E091E017
:103630009A83898342E050E0BE016F5F7F4FC801EB
:103640000E94E7051A82198242E050E0BE016F5FD6
:103650007F4FC8010E94E70542E050E0BE016F5F66
:103660007F4FC8010E94E70542E050E0BE016F5F56
:103670007F4FC8010E94E7055701F7018081882329
:1036800001F17501F70181912F01882311F08E322C
:10369000B1F447018A189B081814190474F48D8634
:1036A00041E050E0BE01635F7F4FC8010E94E70523
:1036B000A401B501C8010E94E7055201DECF7201E5
:1036C000E1CF1D8641E050E0BE01635F7F4FC8013E
:1036D0000E94E705E12CFF24F394FA82E98242E09C
:1036E00050E0BE016F5F7F4FC8010E94E705FA827C
:1036F000E98242E050E0BE016F5F7F4FC8010E9447
:10370000E705C8010E940117892B09F41FCFA3E028
:10371000AA2EB12C230122E0420E511C26C0F60134
:103720006280738084809580B801CE0101960E94EA
:10373000A4058B819C81AD81BE81681679068A06BD
:103740009B0629F4C8010E949505C59759F1FEEF23
:10375000EF2EFF24FA94E1E0AE1AB10809F4F8CE96
:10376000FFEFEF16FF0609F0F3CE0E94A1023B0126
:103770004C01C8010E94C2191816190684F20E9451
:10378000A102661977098809990969387341810589
:10379000910508F001C162E370E080E090E00E94D2
:1037A0006F02E7CFC8010E94B8190C970CF4F8C05B
:1037B0004CE050E0BE016F5F7F4FC8010E94EC08F3
:1037C0008B819C819827892798279A8B898BF60172
:1037D0004681578129813A814217530711F497FD99
:1037E00008C0C8010E944B19ECEFEE2EFF24FA949A
:1037F000B2CF8F709270892B41F0C8010E944B1993
:103800007BEFE72EFF24FA94A6CF6F80788476248E
:1038100067247624F12CE12C61147104D1F4C801E1
:103820000E944B196AEFE62EFF24FA9494CF8D85FF
:10383000811117C0C8010E94CA05C8010E94CA05AB
:10384000C8010E94CA05C8010E94CA05FFEFEF1A0D
:10385000FF0A8D819E81982789279827E816F90607
:10386000A8F441E050E0BE01635F7F4FC8010E94B1
:10387000EC088D858823D9F28D859FEF980F9D8761
:103880008823A9F2C8010E94CA05F6CF912C812C89
:1038900041E050E0BE016D5E7F4FC8010E94EC0820
:1038A0008B89982F907C61F4882389F08B899FEF16
:1038B000980F9B8B882341F0C8010E94CA05F6CF60
:1038C000C8010E94CA051B8A8B898111E1CF42E0A1
:1038D00050E0BE01615F7F4FC8010E94EC0842E0EA
:1038E00050E0BE01635F7F4FC8010E94EC08C80131
:1038F0000E94CA05C8010E94CA05C8010E94CA05E3
:10390000C8010E94CA0542E050E0BE016F5E7F4FD1
:10391000C8010E94EC088F85988981159140E1F4D7
:103920008D859E8581159140B9F489899A89811583
:10393000944041F0C8010E944B1957EFE52EFF2437
:10394000FA9409CF44E050E0B201C8010E94EC08AB
:10395000EE24E394F12CFFCEF12CE12C89899A8995
:10396000982789279827E816F90638F4C8010E9495
:10397000CA052FEFE21AF20AF1CF8FEF881A980AE0
:103980008614970409F084CFC8010E944B1936EFC2
:10399000E32EFF24FA94DFCEEE24EA94FE2CDBCE55
:1039A0009DEFE92EFF24FA94D6CE8EEFE82EFF2469
:1039B000FA940BCEF12CE12C08CEAF92BF92CF92AD
:1039C000DF92EF92FF920F931F93CF93DF93CDB7C8
:1039D000DEB7A8970FB6F894DEBF0FBECDBF7C014F
:1039E0005B016A0101EA11E01A8309831B821C82D0
:1039F0001D821E82CE0109960E94A50C1CA30BA35A
:103A00001DA21EA21FA218A680915C0690915D06C1
:103A1000A0915E06B0915F068F8F98A3A9A3BAA369
:103A20008B839C83AD83BE8318861F82AE014D5D60
:103A30005F4FB501CE0101960E94471A8130910572
:103A4000B1F4D701ED91FC910488F589E02D1E8F2A
:103A50000D8F8DA19EA1AFA1B8A58F8F98A3A9A30B
:103A6000BAA3A601BE01635E7F4FC7010995A89660
:103A70000FB6F894DEBF0FBECDBFDF91CF911F917F
:103A80000F91FF90EF90DF90CF90BF90AF9008958F
:103A9000AF92BF92CF92DF92EF92FF920F931F935C
:103AA000CF93DF93CDB7DEB7A8970FB6F894DEBFFC
:103AB0000FBECDBF7C015B016A0101EA11E01A83F0
:103AC00009831B821C821D821E82CE0109960E94E0
:103AD000A50C1CA30BA31DA21EA21FA218A68091B9
:103AE0005C0690915D06A0915E06B0915F068B83A7
:103AF0009C83AD83BE8318861F82AE014D5D5F4FF0
:103B0000B501CE0101960E94471A81309105B1F4AA
:103B1000D701ED91FC910684F785E02D1E8F0D8F66
:103B20008DA19EA1AFA1B8A58F8F98A3A9A3BAA379
:103B3000A601BE01635E7F4FC7010995A8960FB627
:103B4000F894DEBF0FBECDBFDF91CF911F910F91D3
:103B5000FF90EF90DF90CF90BF90AF900895AF921D
:103B6000BF92CF92DF92EF92FF920F931F93CF936A
:103B70008C015B017A016A010E9430170115110561
:103B800009F45AC0F8018181867009F055C0389651
:103B9000C1E08191811133C0C150F801EC0FF11DDA
:103BA000878181110DC080E092E00E948204F801BB
:103BB000EC0FF11D87838823F9F2F801158614862E
:103BC000A7014C195D094A0D5B1DF80164857585D7
:103BD0009601EC0FF11D87810E945305C81AD90A7E
:103BE000F80124853585820F931F958784871C14DF
:103BF0001D0454F4C43009F4BFCFCF5FD4CFCF5FDE
:103C0000C53039F6C4E0C9CF0E94A102665F7F4F7C
:103C10008F4F9F4FF80166877787808B918BC70105
:103C20008C199D09CF911F910F91FF90EF90DF901C
:103C3000CF90BF90AF90089590E080E0F3CFFC016B
:103C4000848595850C94AF1DCF93DF931F92CDB7DC
:103C5000DEB7698341E050E0BE016F5F7F4FFC013A
:103C6000848595850E94AF1D0F90DF91CF910895B7
:103C7000CF93DF93EC010E943017EC85FD853097E0
:103C800039F0818182FF08C081E09281911101C0E9
:103C900080E0DF91CF91089581E0FBCFCF93DF9358
:103CA000EC018C859D85009769F0FC012181222320
:103CB00049F002960E947207EC85FD85818182FFA2
:103CC00007C011821D861C86DF91CF910C9430179E
:103CD00082608183F7CFCF92DF92EF92FF920F93B2
:103CE0001F93CF93DF938C01EB016A01DC01ED910F
:103CF000FC910488F589E02D0995EA80FB806C81B0
:103D00007D815C2D4D2D80917204909173040196FC
:103D10008115BDE79B0710F080E090E1382F292F37
:103D2000E4E7F4E0DF01C0E0C430D1F49093730421
:103D3000809372041092F40480E0D0E0C0E08430FC
:103D4000F1F48093F404209711F590E080E0DF9186
:103D5000CF911F910F91FF90EF90DF90CF9008953A
:103D60005996DC915997DD2339F01496CD90DC906B
:103D70001597C216D30659F2CF5F5E96D5CFAE2FF8
:103D80009F2FB18DB1113CC08093F404EF0182E00C
:103D9000898F8091A8028C878091A9028D8780915C
:103DA000AA028E878091AB028F8780E092E09B8B86
:103DB0008A8B9D8B8C8B81E090E0998B888B1B8EFE
:103DC0008A8F83E0888F1E8A80E18F8B3D832C83CE
:103DD0005F834E83F982E8827B836A83898D8F704B
:103DE00009F4B3CF0E943017898D8F708330B1F7FB
:103DF0008C8D9D8DF8019587848781E090E0A7CF19
:103E0000B73031F4209731F0D28CBA8DBD1510F057
:103E1000AC2F9D2F8F5F7E96CA2FD92F90CF0E94F7
:103E2000AA2E2F923F924F925F926F927F928F9223
:103E30009F92AF92BF92DF92EF92FF920F931F93E8
:103E4000CF93DF93CDB7DEB7C254D1090FB6F89444
:103E5000DEBF0FBECDBF7C015B010E94A1022B0122
:103E60003C018701015C1F4FC8010E94C21918164E
:103E700019069CF00E94A102641975098609970928
:103E8000613A7F408105910508F0A5C162E370E0C9
:103E900080E090E00E946F02E7CF42E250E0BE0176
:103EA0006F5F7F4FC8010E94EC088981823009F062
:103EB0008DC1C8010E9495058334910509F086C122
:103EC0006D817E818F8198850E947E2D2B013C0122
:103ED000F501408251826282738246E050E0B70170
:103EE000685F7F4FCE014D960E94AF2E892B99F4CB
:103EF000F70180819181A281B381481659066A0633
:103F00007B0648F084819581A681B781841595054B
:103F1000A605B705F0F4C8010E944B19D12C8D2DD0
:103F2000CE5BDF4F0FB6F894DEBF0FBECDBFDF9183
:103F3000CF911F910F91FF90EF90DF90BF90AF90C6
:103F40009F908F907F906F905F904F903F902F90B9
:103F5000089589899A89AB89BC8986879787A08BC0
:103F6000B18B8EECA82EB12CC8010E94CA05F1E0DD
:103F7000AF1AB108C9F7D12CC70182969CAF8BAF9D
:103F8000F701B696FEAFEDAF089621969FAF8EAFC4
:103F9000219757019AE1A90EB11C74972396FFAFA0
:103FA000EEAF23971701F6E12F0E311C27012EE10A
:103FB000420E511CC8010E94B819181619060CF0BF
:103FC00006C1C8010E94CA058333910509F4E4C003
:103FD0009CF58130910509F480C074F4892B51F36C
:103FE000C8010E94CA05982E9A94FFEF9F1611F3FC
:103FF000C8010E94CA05F8CF8330910509F47AC040
:10400000069771F7C8010E94CA05882E44E050E067
:10401000B201C8010E94EC08712C612CE82DE4501B
:10402000FF0B4F01681479042CF6C8010E94CA05E1
:10403000FFEF6F1A7F0AF6CF8A33910509F47EC02D
:10404000DCF58533910509F440C0C69749F6C801EF
:104050000E94CA05982E1FAA18AE19AE1AAEB50155
:10406000CE018F960E94BD0C4FA958AD69AD7AADB7
:1040700089A99AA9ABA9BCA9481759076A077B0760
:10408000B9F0B801CE0189960E94A405B501CE0110
:1040900083960E94BD0C4DA15EA16FA178A58BA552
:1040A0009CA5ADA5BEA5481759076A077B07E9F58A
:1040B00044E050E0B5011AC08B33910509F454C0B7
:1040C0008F3F910509F476CF8BCFC8010E94CA05B6
:1040D000C8010E94CA05D82E6DCFC8010E94CA052A
:1040E00044E050E023966EAD7FAD2397C8010E9457
:1040F000EC0860CFC8010E94CA05882E44E050E059
:10410000B101C8010E94EC08712C612C882D8450EB
:10411000990B4C01681479040CF04CCFC8010E9433
:10412000CA059FEF691A790AF5CF9A942FEF921674
:1041300009F440CFC8010E94CA05F7CFC8010E9408
:10414000CA0544E050E06DAD7EADC8010E94EC08A8
:10415000F70166A177A180A591A50E947E2D66A397
:1041600077A380A791A726CFC8010E94CA0544E083
:1041700050E021966EAD7FAD2197C8010E94EC08FA
:10418000F70162A573A584A595A50E947E2D62A75F
:1041900073A784A795A70ECFC8010E94CA0544E063
:1041A00050E06BAD7CADC8010E94EC08F70162A144
:1041B00073A184A195A10E947E2D62A373A384A301
:1041C00095A366A777A780AB91ABF4CED12CC8019D
:1041D0000E944B19A4CEDD24DA94A1CE7F928F9257
:1041E0009F92AF92BF92CF92DF92EF92FF920F9386
:1041F0001F93CF93DF93CDB7DEB7A6970FB6F89492
:10420000DEBF0FBECDBF8C01762E942E852E20E210
:10421000A22ECE0101967C01DC01EA2D1D92EA95C9
:10422000E9F76801FFE3CF0ED11C81EA91E09AA380
:1042300089A38FEF8BA38CA38DA38EA343E450E0BF
:10424000BE016F5D7F4FC6010E94D219019609F42D
:10425000BFC081E089838A8386E0B82EBB821C823E
:10426000D80114966D917D918D919C9117970E9424
:104270007E2D6D837E838F83988789869A8680E8DA
:1042800090E09C878B874CE150E0B701C6010E940B
:10429000E705FE0137968AE1DF011D928A95E9F76D
:1042A0004801B8E08B0E911CF401D70101900D92EA
:1042B000BA94E1F740E150E0B701C6010E94E7057A
:1042C000F7011192AA94E9F796E0A92EB12C40E2E9
:1042D00050E0B701C6010E94E705F1E0AF1AB1084E
:1042E000B1F783E6898392E89A8393E59B838C8375
:1042F00085E38D8381E08E837F829DE3988797E0BD
:1043000099878A8786E0F401DE011B9601900D9261
:104310008A95E1F78CE0898B8A8B69EB71E0CE019D
:1043200043960E94FD2ED8011B966C91CE014996B2
:104330000E94C000F8016485CE014B960E94C00027
:10434000D8011D966C91CE014D960E94C0004EE1A1
:1043500050E0B701C6010E94E705B3E07B121EC022
:1043600082E3898384E08A83F80196859B8397851D
:104370009C8390899D8391899E8396E39F83888700
:10438000828D8987838D8A87848D8B87858D8C87A5
:104390004CE050E0B701C6010E94E70587E389833E
:1043A00086E08A8391E09B8393E09C838D838FE0FA
:1043B0008E838AE38F838BE388878FEF898749E039
:1043C00050E0B701C6010E94E705C6010E9401172F
:1043D000A6960FB6F894DEBF0FBECDBFDF91CF918A
:1043E0001F910F91FF90EF90DF90CF90BF90AF9013
:1043F0009F908F907F9008956F927F928F929F925F
:10440000AF92BF92CF92DF92EF92FF920F931F93E2
:10441000CF93DF938C017B016A0180EC91E00E94D5
:10442000A10BC8010E94A10B82ED91E00E94A10B9B
:1044300085ED91E00E94A10BA60170E060E02AE00A
:104440008EE595E00E942D0B89ED91E00E94A10B75
:10445000E7015601AE0CBF1CCA15DB0531F06991AE
:104460008EE595E00E949101F7CF63EA71E08EE559
:1044700095E00E941E0BC0912A03D0912B036FE29E
:1044800070E0C8010E94E92E5C01FE01E453FF4F79
:104490006080712CC653DF4F912C812C86149704B9
:1044A0007CF409911991B501D80114968D919C91D4
:1044B0000E94F42E892B31F4BFEF8B1A9B0AEECFAA
:1044C00010E000E0D801ED91FC91A080B180CEE732
:1044D000D6E0912C812C8BED91E00E94A10B88817C
:1044E00099810E94A10B68817981A601C7010E9470
:1044F000AF2E2396892BC9F4F401EE0FFF1FE80DB0
:10450000F91DE258F94F6281C801F501DF91CF91A1
:104510001F910F91FF90EF90DF90CF90BF90AF90E1
:104520009F908F907F906F900994BFEF8B1A9B0A9A
:10453000E7E08E16910479F664E0E6CF1F920F92C1
:104540000FB60F9211242F933F934F935F936F9366
:104550007F938F939F93AF93BF93EF93FF938EE5DA
:1045600095E00E946F01FF91EF91BF91AF919F91F4
:104570008F917F916F915F914F913F912F910F900C
:104580000FBE0F901F9018951F920F920FB60F92AB
:1045900011242F938F939F93EF93FF93E0916E05D8
:1045A000F0916F058081E0917405F091750582FDB1
:1045B0001BC09081809177058F5F8F732091780564
:1045C000821741F0E0917705F0E0E25AFA4F958FBB
:1045D00080937705FF91EF919F918F912F910F908D
:1045E0000FBE0F901F9018958081F4CF1F920F92ED
:1045F0000FB60F9211242F933F938F939F93AF93F6
:10460000BF938091220390912303A0912403B09142
:1046100025033091210323E0230F2D3758F5019610
:10462000A11DB11D209321038093220390932303A6
:10463000A0932403B0932503809126039091270330
:10464000A0912803B09129030196A11DB11D80936B
:10465000260390932703A0932803B0932903BF91C7
:10466000AF919F918F913F912F910F900FBE0F901F
:104670001F90189526E8230F0296A11DB11DD2CFD9
:10468000FC013381360F3093A302A72FBB27928101
:104690009A0F9093A20221812093A102408140931E
:1046A000A0029A171B0648F481E0820F8093A102B2
:1046B000811103C04F5F4093A0027727361717067A
:1046C00088F49F5F9093A20291110CC08091A10287
:1046D0008F5F8093A102811105C08091A0028F5F3E
:1046E0008093A0020895CF93DF93C091AD02D09143
:1046F000AE02BC01CE0108960E944023E0EAF2E03F
:10470000808188878181898782818A8783818B875D
:10471000DF91CF910895CF93DF93EEE5F5E013821B
:10472000128288EE93E0A0E0B0E084839583A683B4
:10473000B7838FE891E09183808385EC90E0958743
:10474000848784EC90E09787868780EC90E0918B5B
:10475000808B81EC90E0938B828B82EC90E0958B48
:10476000848B86EC90E0978B868B118E128E138E45
:10477000148EEBEFF5E0C1EAD1E0D183C083128261
:10478000138214821582E1E0F6E0D183C0831282A5
:10479000138214821582E0E6F6E0D183C083128290
:1047A000138214821582EAE5F6E0D183C083128277
:1047B00013821482158286E496E00E94A50CE6E638
:1047C000F6E0D183C0831282138214821582ECE654
:1047D000F6E0D183C0831282138214821582E2E74D
:1047E000F6E0D183C0831282138214821582E8E737
:1047F000F6E0D183C0831282138214821582EEE721
:10480000F6E085EB91E09183808312828CEA91E05F
:104810009483838381E085838AEE91E09783868306
:1048200082E080878FEE91E09287818783E08387A3
:1048300085EF91E09587848784E086878AEF91E011
:10484000908B878785E0818B82E092E0938B828BCF
:1048500086E0848BE3E9F6E0D183C0831282138281
:1048600014821582E9E9F6E0D183C08312821382B3
:1048700014821582DF91CF910895CF93DF93CDB746
:10488000DEB7C158D1400FB6F894DEBF0FBECDBF22
:10489000789484B5826084BD84B5816084BD85B51B
:1048A000826085BD85B5816085BD80916E00816027
:1048B00080936E00109281008091810082608093CD
:1048C00081008091810081608093810080918000CF
:1048D0008160809380008091B10084608093B100FA
:1048E0008091B00081608093B00080917A008460F4
:1048F00080937A0080917A00826080937A00809120
:104900007A00816080937A0080917A008068809339
:104910007A001092C100E0916E05F0916F0582E07F
:104920008083E0916A05F0916B051082E0916C053F
:10493000F0916D058FEC808310927605E091720501
:10494000F091730516E01083E0917005F091710508
:10495000808180618083E0917005F0917105808194
:1049600088608083E0917005F09171058081806896
:104970008083E0917005F091710580818F7D808347
:1049800082E192E00E94790B81EA91E09A83898327
:1049900030EC3B8328EA2C831D824AEA4E839887B9
:1049A0008F8339872A871B8629E32C87EBE0F1E088
:1049B000DE011D96212F01900D922A95E1F71E8AA6
:1049C0001D8A48EE53E060E070E04F8B588F698F8E
:1049D0007A8F2BE531E03C8B2B8B18A21F8E1CA20B
:1049E0001BA223E831E03AA329A3CC54DF4F9983DB
:1049F0008883C45BD040CA54DF4F188219821A8260
:104A00001B82C65BD0408FEF9FEFC054DF4F99836E
:104A10008883C05CD0401EA21DA2C254DF4F198201
:104A20001882CE5BD040CE54DF4F19821882C25B11
:104A3000D040EBE4F2E0DE01AE53BF4F01900D92A7
:104A40001A95E1F7C653DF4F1882CA5CD04086E062
:104A500090E00E94852DFC0112828AE083838DE123
:104A600092E0958384838DE791E091838083C553A1
:104A7000DF4FF983E883CB5CD04081E0C353DF4F45
:104A80008883CD5CD04080912A0390912B03892BA1
:104A900031F4CE01019690932B0380932A0387E093
:104AA00096E090935905809358050E94A1026650A4
:104AB0007F4F8F4F9F4F60935405709355058093A0
:104AC000560590935705109242041092410410929B
:104AD000440410924304E4E3F3E089E091E0DF0151
:104AE0009C011D9221503040E1F781E098E09093C5
:104AF0003503809334038AE00E94D20061E08AE0AB
:104B00000E94FE011FB7F89480913D04811124C0DA
:104B1000EAE9F0E08491EEEAF0E09491E82FF0E029
:104B2000EE0FFF1FEA57FF4FA591B491EC91E923D7
:104B300021F461E08AE00E94FE018AE00E94D20036
:104B40008CB580618CBD8CB580648CBD8DE00E947D
:104B5000D2008BE00E94D20080913D048F5F809351
:104B60003D041FBF8CB58C7F8CBD8DB581608DBD24
:104B70004FEF60E08FEF0E94ED0262E070E080E0B6
:104B800090E00E946F0262E370E080E090E00E949B
:104B90006F021092400410923F0400E110E06DE1BA
:104BA00080E00E94B80381110AC00150110939F058
:104BB0006AE070E080E090E00E946F02F0CF70E069
:104BC00060E088E00E94250370E060E08CE00E94D5
:104BD00025036FEF77E08AE00E94250361EB88E30D
:104BE0000E94AB036FE370E388E20E94250369EF44
:104BF00077EF80E30E9425036DE070E080EC0E9477
:104C0000250342E362EC80E80E94ED0262E17CE071
:104C100086EC0E94250362E184EC0E94AB036CEDFC
:104C200075E08AEC0E9425036D8584EE0E94AB033B
:104C30006E8585EE0E94AB036F8582EE0E94AB030A
:104C4000688983EE0E94AB03698980EE0E94AB0302
:104C50006A8981EE0E94AB0360E071E080E10E940E
:104C6000DF038FE10E94060340EC6BE180E80E94C5
:104C7000ED0244E06FE180E80E94ED0266E774E037
:104C800084E10E94DF0382E70E94D60380933E0402
:104C90008F3F11F410923E048D8580934E058E85D2
:104CA00080934F058F8580935005888980935105A7
:104CB0008989809352058A89809353051092ED0467
:104CC0001092EC041092EF041092EE041092F10492
:104CD0001092F0041092F3041092F20410928D04DA
:104CE0001092AB041092C9041092E70480E094E0A3
:104CF000909373048093720410924B0410924A04B0
:104D0000109256041092550410926104109260049F
:104D100010926C0410926B0484E08093F40410925F
:104D20004D059BE024E080914D05883008F46AC36E
:104D30000091580510915905D80192961D921D9227
:104D40001D921C929597F80116A217A210A611A603
:104D50009A961D921D921D921C929D9716AA17AAB3
:104D600010AE11AE189686E0FD01282F11922A95FB
:104D7000E9F79801225F3F4F94E1F90111929A956A
:104D8000E9F7FE013D9601900D928A95E1F7D80171
:104D9000DE961C920E94BD2C2FEC37E040E050E0E4
:104DA0000E94152DDC01CB010196A11DB11DF8015A
:104DB00084839583A683B78380839183A283B383FF
:104DC0006801FFE3CF0ED11CC6010E94840C64E48D
:104DD00070E0C6010E945F0C882309F4C9C00E94DC
:104DE000A1024B015C0148EE442E43E0542E612C9D
:104DF000712C52E0E52E312C212CD801DE968C91BD
:104E0000DE97833091F181110BC314968D919D91A2
:104E10000D90BC91A02D0196A11DB11DF8018483B8
:104E20009583A683B7830E94A102681979098A092C
:104E30009B09A30192010E94472DA90161E0C801CD
:104E40000E94EE2081E0D801DE968C93F1E02F16CF
:104E5000310499F20E94A102681979098A099B0913
:104E600061367A4E8105910530F2C6010E94840CAC
:104E7000F80184819581A681B7810196A11DB11D9C
:104E800084839583A683B7832A94232809F070C06E
:104E90000091580510915905B8016E5E7F4FCE0103
:104EA00085589E4F0E94BD0CB8016A5E7F4FCE01AF
:104EB0008B589E4F0E94BD0CB801625E7F4FCE01A1
:104EC00081599E4F0E94BD0CB801625F7F4FCE0199
:104ED00082539F4F0E94BD0CCE52DF4F8881998133
:104EE000C25DD040C053DF4F28813981C05DD040C2
:104EF00030935B0520935A0590935D0580935C0584
:104F0000C758DE4F88819981C957D140C958DE4FB3
:104F100028813981C757D140309331032093300322
:104F20009093330380933203C158DE4F8881998177
:104F3000CF57D140C358DE4F28813981CD57D1405A
:104F400030932D0320932C0390932F0380932E03F3
:104F5000CF58DE4F88819981AA81BB81C157D1404A
:104F600080935C0690935D06A0935E06B0935F0607
:104F700083E292E00E94790B30915A0520915B0503
:104F800090915C0580915D0501EA11E0C253DF4F0D
:104F900019830883CE5CD040C053DF4F3883C05D97
:104FA000D040CF52DF4F2883C15DD040CE52DF4F7B
:104FB0009883C25DD040CD52DF4F8883C35DD0401F
:104FC0006EE575E0CE0182539F4F0E94AB0B63EA02
:104FD00071E08EE595E00E941E0BC053DF4F1982F1
:104FE0001882C05DD04083E891E0C253DF4F9983BF
:104FF0008883CE5CD040CF59DE4F19830883C156D9
:10500000D140CD59DE4F188219821A821B82C356B5
:10501000D1408FEF9FEFC359DE4F99838883CD56E0
:10502000D140CE014396CE52DF4F99838883C25D33
:10503000D040C559DE4F19821882CB56D1401CA2F0
:105040001BA29EA38DA3AEECB0E0AC0FBD1F1696C5
:10505000FE01B7968C569F4F2D912193E817F907C3
:10506000D9F7CC5ADE4F88819981C455D1409183BC
:105070008083CA5ADE4F88819981AA81BB81C65537
:10508000D140C755DF4F88839983AA83BB83C95A10
:10509000D040C65ADE4F88819981AA81BB81CA550A
:1050A000D140C355DF4F88839983AA83BB83CD5AF0
:1050B000D040C25ADE4F8881CE55D140CF54DF4F09
:1050C0008883C15BD040C15ADE4F88819981CF551A
:1050D000D140CE54DF4F99838883C25BD040CD59F5
:1050E000DE4F88819981AA81BB81C356D140CA54C1
:1050F000DF4F88839983AA83BB83C65BD040C9599D
:10510000DE4F88819981C756D140C654DF4F9983BD
:105110008883CA5BD040C759DE4F88819981C956C0
:10512000D140C454DF4F99838883CC5BD040C559AC
:10513000DE4F88819981CB56D140C254DF4F99838D
:105140008883CE5BD040C359DE4F88819981CD568C
:10515000D140C054DF4F99838883C05CD040E1EADE
:10516000EE2EE1E0FE2EC253DF4FF982E882CE5CE4
:10517000D04089859A85AB85BC85C053DF4F888335
:105180009983AA83BB83C05DD040BE0162537F4F29
:10519000CE0181960E94A9008CEF91E2CE54DF4FA0
:1051A00099838883C25BD0408FE292E00E94790BA2
:1051B000CE0181960E94F3088E0102531F4F811188
:1051C00024C2C654DF4F68817981CA5BD0408DA16B
:1051D0009EA1DC01ED91FC91C454DF4F48815981BF
:1051E000CC5BD0406115710509F4D1C10088F1890B
:1051F000E02D09958130910509F00AC2C955DF4FAC
:1052000099838883C75AD04087E0E1E1F1E0D80173
:1052100001900D928A95E1F7F801DE019C96C80194
:10522000079621912D93E817F907D9F782E08BAB08
:105230001CAA8FE08DAB4FE050E0BE01695D7F4F4F
:1052400089E392E00E9487009C0125503109AE015C
:10525000495D5F4F60E1CE0181960E9429090E945D
:10526000A102C755DF4F688379838A839B83C95A1C
:10527000D040C355DF4F688379838A839B83CD5A9F
:10528000D0408DA19EA1DC01ED91FC910084F185BF
:10529000E02D0995892B09F095C10E94A102C35503
:1052A000DF4FC880D980EA80FB80CD5AD0406C198E
:1052B0007D098E099F0968397A438105910508F3B4
:1052C0008CEF9FEFC054DF4F99838883C05CD04040
:1052D0008DA19EA1DC01ED91FC910488F589E02D62
:1052E00009958AE092E00E94790BB12C6BE0A62E22
:1052F0007801B6E0EB0EF11CCC24C394D12CC3533F
:10530000DF4F8881CD5CD040B81608F08AC186E0B6
:10531000E8E1F1E0D80101900D928A95E1F7F701FB
:105320002A2D11922A95E9F7BE016E537F4FC801CD
:105330000E94DE2E61E472E0C8010E94DE2EEB2D99
:10534000F0E0EB59FF4FEE0FFF1F41E050E04C0F34
:105350005D1FE40FF51F0190F081E02D64817581E0
:10536000C8010E94DE2ED8010D900020E9F7CD0182
:10537000801B910B08968138910508F041C0CE0141
:1053800081960E94F3088823D9F1C955DF4F88819F
:105390009981C75AD0400196C955DF4F99838883B8
:1053A000C75AD040892B31F4C955DF4FD982C88202
:1053B000C75AD040C955DF4F8881C75AD040C85519
:1053C000DF4F9881C85AD0409CA78DA747E050E096
:1053D000BE01695D7F4FC8010E948700E7E2F0E0EF
:1053E000EC0FFD1FE80FF91F10829C0124503109BA
:1053F000AE01495D5F4F62E8CE0181960E942909A6
:10540000B3947DCF899FF0011124EB50FB4FDF0156
:10541000322F1D923A95E9F78F5F80934D0583CC2B
:105420008430F9F4F80184819581A681B7810196D1
:10543000A11DB11D84839583A683B7830E94A10219
:10544000681979098A099B09A30192010E94472DD5
:10545000A90163E0C8010E94EE20D801DE96EC921B
:10546000F5CC813051F5BE0162537F4FC8010E94D7
:10547000111FF82EB2E08B1384C0C253DF4F888116
:105480009981AA81BB81CE5CD040F8018483958349
:10549000A683B7830E94A102681979098A099B092A
:1054A000A30192010E94472DA90163E0C8010E9457
:1054B000EE20D801DE96FC92C9CC823009F0C6CC31
:1054C000BE0162537F4FC8010E94111FF82EB5E044
:1054D0008B1350C023E0F80126AF82A193A1A4A1B1
:1054E000B5A1892B8A2B8B2B41F484E893E0A0E0B3
:1054F000B0E082A393A3A4A3B5A3F80186A197A1CA
:10550000A0A5B1A5892B8A2B8B2B61F482A193A135
:10551000A4A1B5A1B695A7959795879586A397A3BE
:10552000A0A7B1A7F80186A197A1A0A5B1A542A502
:1055300053A564A575A5452B462B472B51F4AC010B
:10554000BD01440F551F661F771F42A753A764A7CD
:1055500075A7F80186A797A7A0ABB1AB82A593A5C5
:10556000A4A5B5A582AB93ABA4ABB5AB2224239481
:10557000312C6CCCF6E08F1304C0D801DE961C925F
:1055800065CCBFEFFB1262CCF80116AE5FCC06848F
:10559000F785E02DC253DF4FF982E882CE5CD04020
:1055A000CA54DF4FC880D980EA80FB80C65BD040F8
:1055B000C053DF4FC882D982EA82FB82C05DD040EF
:1055C000B80117CEBE0161597E4FCE0181960E946F
:1055D0000A0A049709F07CCE8AA590E0811172CE68
:1055E0000E94A102C355DF4F688379838A839B831E
:1055F000CD5AD040CF54DF4F1882C15BD040C05449
:10560000DF4F19821882C05CD0408DE092E06BCEF3
:105610008EEF9FEFC054DF4F99838883C05CD040EA
:1056200060CE83E492E00E94790B4CEF242E332469
:105630003A94CE0181960E94F3088823D1F30E9408
:10564000A1022B013C01C355DF4F88819981AA81BA
:10565000BB81CD5AD040A3019201281B390B4A0BC4
:105660005B0BDA01C90189399A43A105B105A8F498
:10567000C755DF4F88819981AA81BB81C95AD04023
:10568000A3019201281B390B4A0B5B0BDA01C901FC
:1056900089399A43A105B105E0F18DA19EA1CF54AE
:1056A000DF4F2881C15BD040222371F0C054DF4F0F
:1056B00039822882C05CD040DC01ED91FC910488E5
:1056C000F589E02D0995B5CF20EC2FA318A6DC01B4
:1056D000ED91FC910280F381E02D42E050E0BE01AB
:1056E000695D7F4F0995C755DF4F488259826A82AD
:1056F0007B82C95AD040C355DF4F488259826A82A3
:105700007B82CD5AD04081E0CF54DF4F8883C15B8C
:10571000D0408DA19EA1DC01ED91FC910084F1852A
:10572000E02D0995892B09F484CFB801CE0181962B
:105730000E940A0A4C01892B09F4CEC0C355DF4FE1
:10574000488259826A827B82CD5AD0408FA1807F65
:10575000803309F0A4C0CE54DF4F88819981C25BA9
:10576000D040892B09F465CFF801E080F12CE8E204
:10577000F0E0EC0FFD1FEE0DFF1DC080D12CDC2CE6
:10578000CC24E9E2F0E0EC0FFD1FEE0DFF1D80815F
:10579000C80ED11C5701F2E0AF0EB11C27E230E079
:1057A0002C0F3D1FA20EB31EB7016D5F7F4F620F1E
:1057B000731FA601C5010E94C52EB6016E0D7F1D87
:1057C000E9E2F0E0EC0FFD1FE60FF71F10828E18E4
:1057D0009F088FA18670CF57DE4F8883C158D14074
:1057E000CE54DF4FE881F981C25BD040823009F0AE
:1057F00045C0AAE2B0E0AC0FBD1FA60FB71F8C9149
:1058000090E0982F8827ABE2B0E0AC0FBD1FA60F49
:10581000B71FEC90E80EF92EF11C4BEF5FEF4C191F
:105820005D09480D591D6B5F7F4F87E290E08C0F3B
:105830009D1F680F791FC501099580E48FA3CF577D
:10584000DE4F9881C158D14098A7F9A6EAA68DA14C
:105850009EA1DC01ED91FC910280F381E02D44E0FA
:1058600050E0BE01695D7F4F0995C755DF4F488203
:1058700059826A827B82C95AD040DBCE4DEF5FEFFE
:105880004C195D09480D591D6D5F7F4F27E230E0CF
:105890002C0F3D1F620F731FC5010995CACE803CB6
:1058A00091F480ED8FA318A68DA19EA1DC01ED914E
:1058B000FC910280F381E02D42E050E0BE01695D81
:1058C0007F4F0995B6CE803D09F0B3CECF54DF4F60
:1058D0001882C15BD040ADCECE0181960E94F30804
:1058E000A8CE8F929F92AF92BF92CF92DF92EF920B
:1058F000FF92CF93DF93EC01688179818A819B814C
:10590000611571058105910521F464E279ED8BE55E
:1059100097E02DE133EF41E050E00E94152D490161
:105920005A019B01AC01A7EAB1E40E94342D6B013E
:105930007C01ACEEB4EFA50194010E94422DC60E8D
:10594000D71EE81EF91EF7FE06C081E0C81AD1086E
:10595000E10880E8F80AC882D982EA82FB82C7019E
:10596000B6019F77DF91CF91FF90EF90DF90CF90BE
:10597000BF90AF909F908F9008958F929F92AF921B
:10598000BF92CF92DF92EF92FF92609101017091EE
:105990000201809103019091040161157105810557
:1059A000910521F464E279ED8BE597E02DE133EF89
:1059B00041E050E00E94152D49015A019B01AC01C4
:1059C000A7EAB1E40E94342D6B017C01ACEEB4EF88
:1059D000A50194010E94422DC60ED71EE81EF91E95
:1059E000F7FE06C081E0C81AD108E10880E8F80A8D
:1059F000C0920101D0920201E0920301F0920401F1
:105A0000C701B6019F77FF90EF90DF90CF90BF90D6
:105A1000AF909F908F900895609301017093020161
:105A200080930301909304010895052E97FB1EF4C3
:105A300000940E942C2D57FD07D00E94472D07FC93
:105A400003D04EF40C942C2D509540953095219513
:105A50003F4F4F4F5F4F089590958095709561959A
:105A60007F4F8F4F9F4F08950E94692DA59F900DE6
:105A7000B49F900DA49F800D911D11240895B7FF30
:105A80000C94342D0E94342D821B930B0895A1E2B7
:105A90001A2EAA1BBB1BFD010DC0AA1FBB1FEE1FA8
:105AA000FF1FA217B307E407F50720F0A21BB30BF3
:105AB000E40BF50B661F771F881F991F1A9469F76F
:105AC00060957095809590959B01AC01BD01CF01CB
:105AD0000895A29FB001B39FC001A39F700D811DC7
