:100000000C94B5000C94141F0C94E61E0C94561E10
:100010000C94C61D0C941B1D0C94DD000C94DD008B
:100020000C94DD000C94DD000C94DD000C94DD00DC
:100030000C94DD000C94DD000C94DD000C94DD00CC
:100040000C94D11C0C94DD000C949F1C0C94791C16
:100050000C94DD000C94DD000C94DD000C94DD00AC
:100060000C94DD000C94DD006F66660052656C61D7
:1000700079206F6666006F6E0052656C6179206F43
:100080006E0000000000250028002B000000000882
:10009000000201000003040700000000000000004F
:1000A00000000000230026002900000102030405CF
:1000B00006070001020304050001020304056F6E38
:1000C000006F6666006F75742F617264312F636F05
:1000D0006E7400737461742F617264312F726C7965
:1000E0003100636D6E642F617264312F74657374B7
:1000F0000073746172742072656164004D515454D0
:1001000000657468007374617274696E6700000042
:100110000000240027002A0001020408102040806B
:100120000102040810200102040810200404040441
:100130000404040402020202020203030303030391
:100140007761726E696E670063617574696F6E00C6
:10015000696E666F00636C6F7365006F70656E002B
:100160006F6E006F666600008D1F11241FBECFEFFB
:10017000D8E0DEBFCDBF11E0A0E0B1E0ECE7F1E5F3
:1001800002C005900D92A439B107D9F725E0A4E982
:10019000B1E001C01D92A23BB207E1F710E0C5EB50
:1001A000D0E004C02197FE010E947428C43BD1070F
:1001B000C9F70E945F200C94BC280C940000CF93D8
:1001C000DF93EC01FA013296E60FF71FDC019D0187
:1001D0002C1B3D0BCF01861B970B4D91442311F037
:1001E0004193F5CFAC01421B530B640F751FFB010C
:1001F0003297308361507109FB012083DF91CF91E9
:100200000895FC01ED56FF4FDB0112964D915D9173
:100210006D917C91159742835383648375833896DF
:100220002BE537E0318320833297118210820895C5
:10023000AF92BF92CF92DF92EF92FF920F931F93F4
:10024000CF93DF936C017B018B01040F151FEB0132
:100250005E01AE18BF08C017D10759F06991D601E9
:10026000ED91FC910190F081E02DC6010995892B5B
:1002700079F7C501DF91CF911F910F91FF90EF901A
:10028000DF90CF90BF90AF90089580919501E0915D
:100290009401F0E0EE0FFF1FED55FD4F0190F0814E
:1002A000E02D91E0811101C090E0858190FB80F903
:1002B00085830895FC01538D448D252F30E0842FD4
:1002C00090E0821B930B541710F0CF96089501977E
:1002D0000895FC01918D828D981761F0A28DAE0F6B
:1002E000BF2FB11D5D968C91928D9F5F9F73928FF2
:1002F00090E008958FEF9FEF0895FC01918D828D1E
:10030000981731F0828DE80FF11D858D90E00895EA
:100310008FEF9FEF0895FC01918D228D892F90E042
:10032000805C9F4F821B91098F739927089582EA01
:1003300094E00E948B0121E0892B09F420E0822FB8
:10034000089580E090E0892B29F00E9497018111A7
:100350000C9400000895FC01A48DA80FB92FB11DC5
:10036000A35ABF4F2C91848D90E001968F739927EB
:10037000848FA689B7892C93A089B1898C918370C9
:1003800080648C93938D848D981306C00288F389C2
:10039000E02D80818F7D80830895EF92FF920F93EF
:1003A0001F93CF93DF93EC0181E0888F9B8D8C8D21
:1003B00098131AC0E889F989808185FF15C09FB715
:1003C000F894EE89FF896083E889F98980818370D8
:1003D000806480839FBF81E090E0DF91CF911F9187
:1003E0000F91FF90EF900895F62E0B8D10E00F5FA8
:1003F0001F4F0F731127E02E8C8D8E110CC00FB67E
:1004000007FCFACFE889F989808185FFF5CFCE0115
:100410000E94AB01F1CFEB8DEC0FFD2FF11DE35AE4
:10042000FF4FF0829FB7F8940B8FEA89FB89808198
:100430008062CFCFCF93DF93EC01888D8823B9F012
:10044000AA89BB89E889F9898C9185FD03C08081DF
:1004500086FD0DC00FB607FCF7CF8C9185FFF2CF5C
:10046000808185FFEDCFCE010E94AB01E9CFDF9106
:10047000CF91089590E0FC01E457FF4F2491FC01D7
:10048000E85EFE4F3491FC01E45DFE4FE491EE2303
:10049000C9F0222339F0233001F1A8F4213019F1F9
:1004A000223029F1F0E0EE0FFF1FEE57FF4FA5912C
:1004B000B4918FB7F894EC91611126C030953E232A
:1004C0003C938FBF08952730A9F02830C9F024301D
:1004D00049F7809180008F7D03C0809180008F77E5
:1004E00080938000DFCF84B58F7784BDDBCF84B568
:1004F0008F7DFBCF8091B0008F778093B000D2CFFB
:100500008091B0008F7DF9CF3E2BDACFCF93DF9370
:1005100090E0FC01E85EFE4F2491845D9E4FFC015B
:1005200084918823D1F090E0880F991FFC01E25F4D
:10053000FE4FA591B491FC01EE57FF4FC591D491A8
:10054000623071F49FB7F8943C91822F8095832399
:100550008C93E8812E2B28839FBFDF91CF91089544
:100560008FB7F894EC912E2B2C938FBFF6CF3FB71B
:10057000F8948091680290916902A0916A02B0910A
:100580006B0226B5A89B05C02F3F19F00196A11D4F
:10059000B11D3FBFBA2FA92F982F8827BC01CD01CD
:1005A000620F711D811D911D42E0660F771F881F2C
:1005B000991F4A95D1F708958F929F92AF92BF925B
:1005C000CF92DF92EF92FF924B015C010E94B70243
:1005D0006B017C010E94B7026C197D098E099F098D
:1005E000683E734081059105A8F321E0821A9108C5
:1005F000A108B10888EEC80E83E0D81EE11CF11CEA
:1006000081149104A104B10429F7FF90EF90DF90C9
:10061000CF90BF90AF909F908F9008952FB7F89490
:100620006091640270916502809166029091670208
:100630002FBF0895A6EEB2E025E014969C91149782
:1006400098130DC095E0899FF0011124EA51FD4FE8
:10065000848114968C9313821282148208959923B4
:1006600031F0929FD0011124AA51BD4FE6CF0895D9
:100670008823A1F09091B403992381F08F3F29F44E
:100680008091B9039091BA03089595E0899FF00194
:100690001124EA51FD4F82819381089590E080E01A
:1006A00008958EBD00000DB407FEFDCF8EB50895F0
:1006B0000F931F93CF93DF938C01EB0160E08AE0EF
:1006C0000E943A028AE30E9451030C0F1D1F0C176F
:1006D0001D0729F080E00E9451038993F8CF61E063
:1006E0008AE0DF91CF911F910F910C943A021F93F2
:1006F000CF93DF93182FC62FD42F60E08AE00E949B
:100700003A028C2F8F71812B0E9451038D2F0E94F2
:10071000510361E08AE0DF91CF911F910C943A027E
:10072000CF93DF93D82FD076909100019D17A1F041
:10073000C82F43E06FE180EA0E9477034C2F50E01E
:1007400085E0559547958A95E1F743706FE180E81C
:100750000E947703D0930001DF91CF9108951F93FA
:10076000CF93DF93C82F162FD72F0E949003412FCE
:100770006C2F80E40E94770361E06C0F4D2F80E4C2
:10078000DF91CF911F910C947703EF92FF920F931B
:100790001F93CF93DF938B017A018F3F59F095E040
:1007A000899FE0011124CA51DD4F68817981600F72
:1007B000711F10C06091B7037091B803600F711F73
:1007C000C7EBD3E0611588E0780778F36F5F774077
:1007D000C7EBD3E080E00E94AF038A819B81801B3E
:1007E000910BE816F90608F4C701DF91CF911F912C
:1007F0000F91FF90EF9008956091B5037091B6034B
:100800006115710529F0615071098CE00C94AF03FA
:100810006FEF77E0FACFCF93DF93C82FD62F0E94E8
:1008200090034D2F6C2F80E4DF91CF910C947703D0
:10083000CF93DF93D82FC62F60E08AE00E943A0260
:100840008C2F8F718D2B0E945103C7FF03C080E056
:100850000E94510380E00E945103C82F61E08AE0AA
:100860000E943A028C2FDF91CF910895CF93C82F29
:100870000E9490036C2F80E0CF910C941804CF93CA
:10088000DF9361E184ED0E940B0461E082ED0E9440
:100890000B04CFE0D0E08AEE0E94360480FF0BC04C
:1008A0006AE070E080E090E00E94DC02219799F716
:1008B00090E080E00DC060E082ED0E940B0488EDC6
:1008C0000E943604C82F89ED0E943604982F8C2F81
:1008D000DF91CF910895CF93DF93EB01682F84EDE3
:1008E0000E940B04BE0186ED0E94AF03CFE0D0E072
:1008F0008AEE0E94360480FF08C06AE070E080E063
:1009000090E00E94DC02219799F7DF91CF91089542
:10091000CF93C62FBC0182E00E94AF0360E08AE063
:100920000E943A028AE70E9451038C2F0E945103D1
:1009300061E08AE0CF910C943A02CF93BC0180E051
:100940000E94AF0360E08AE00E943A028AE30E94BC
:10095000510380E00E945103C82F61E08AE00E94A9
:100960003A028C2FCF910895CF92DF92EF92FF92AF
:100970000F931F93CF93DF936C018B01413051058F
:1009800079F4CB010E949D04682FC601DF91CF91BD
:100990001F910F91FF90EF90DF90CF900C948804FF
:1009A000EA01C60FD71F7E0181E0E81AF10880E155
:1009B0000E94AF03B60184E10E94AF030115184005
:1009C00048F4E11488E0F80628F07E0181E0E81A96
:1009D00088E0F80AB70182E10E94AF0340E16FE1CD
:1009E00080EA0E94770340E26FE180E80E9477038B
:1009F0006FE180E00E94180485FF07C061E070E0AD
:100A000080E090E00E94DC02F3CFDF91CF911F9154
:100A10000F91FF90EF90DF90CF900895CF92DF92EB
:100A2000EF92FF920F931F93CF93DF938C0160910E
:100A3000E6027091E7026150784EC12C98E1D92E00
:100A4000E6EEF2E020E0D0E0C0E045E03481CB010A
:100A5000332341F0439FC00111248A519D4FDC0193
:100A60008D919C91E080F1808E199F090280F38125
:100A7000E02D8E1B9F0B8017910799F4B5E02B9FFB
:100A8000E0011124CA51DD4FEBEEF2E081E022815A
:100A90003381232B09F453C035968F5F8932B9F720
:100AA00044C00817190748F48C159D0530F4249F9D
:100AB000E0011124CA51DD4F6C01311121C0209792
:100AC00019F7C6EED2E085E0D82E8C8128813981D5
:100AD000EA80FB808823D9F0E20EF31E8D9DE001B1
:100AE0001124CA51DD4F68817981E616F70669F352
:100AF0004A815B81C7010E94B404F982E882E5CF94
:100B0000349FF0011124EA51FD4F232F9FCF809194
:100B1000E6029091E702821B930B8E199F09815088
:100B2000984E8017910708F0AFCF80E0DF91CF910A
:100B30001F910F91FF90EF90DF90CF900895288143
:100B400039814A815B81240F351F318320831383D0
:100B500002839C8194838C83E9CF0F931F93DB01E5
:100B6000E42FA80190E0EF3FE9F065E0E69FF00197
:100B70001124EA51FD4F60817181620F731F02C021
:100B80006F5F774025E0289FF001299FF00D112429
:100B9000EA51FD4F808191818A0F9B1F1F910F9118
:100BA0000C94B4046091B7037091B803620F731F83
:100BB0006115E8E07E0720F7E7EBF3E0DCCFCF92AA
:100BC000DF92EF92FF920F931F93CF93DF936B010E
:100BD0008A01790195E0899FE0011124CA51DD4F16
:100BE000688179816C0D7D1D82E00E94AF030A80CF
:100BF000DB81C02DCC19DD09EC16FD0608F4E701F8
:100C000060E08AE00E943A028AE70E94510378017C
:100C1000EC0EFD1EE016F10631F0F80181918F0116
:100C20000E945103F7CF61E08AE00E943A02CE01B0
:100C3000DF91CF911F910F91FF90EF90DF90CF90B8
:100C40000895FB0141505109460F571FE417F5075E
:100C500078F4208130E0322F22276181260F311D68
:100C6000820F931F8217930708F401963296EECFF6
:100C7000E417F50751F4208130E0322F2227820F4C
:100C8000931F8217930708F401960895CF92DF927D
:100C9000EF92FF920F931F93CF93DF9380910F02F8
:100CA00090E0982F882720911002820F911D7C01DF
:100CB00024E1E21AF10848E050E069E172E00E97A1
:100CC0000E94210600912D02069506950C7310E0F6
:100CD000A80161E272E00E942106EC010E151F05D9
:100CE00008F042C0A701401B510BB8016E5D7F4F59
:100CF0008091E1010E94C50301977C0160E08AE0D8
:100D00000E943A028AE30E945103D12CC12CCE14D6
:100D1000DF04B8F480E00E945103082F10E0102F88
:100D2000002780E00E945103800F912F911DC80F72
:100D3000D91FC817D90708F4219682E0C80ED11C24
:100D4000E6CFEC14FD0461F480E00E94510390E0D2
:100D5000982F8827C80FD91FC817D90708F42196DC
:100D600061E08AE00E943A029C2F8D2FCD2B11F476
:100D70008FEF9FEFDF91CF911F910F91FF90EF9039
:100D8000DF90CF90089544E150E06DE072E090E094
:100D900080E00E942106009721F098278927982754
:100DA00008958FEF9FEF0895CF92DF92EF92FF9219
:100DB0000F931F93CF93DF93C091E001C1FF5EC0FB
:100DC0002091DF0130E04FEF51E070E060E0809172
:100DD000E1010E94DF05CD7FC093E001F090E101C9
:100DE0008091B403882309F474C085E0F89EF00173
:100DF0001124EA51FD4FC081D181219702811381D5
:100E00000C0F1D1FCE010E949D04E82E882321F0A7
:100E100060E0CE010E948804BE0184E00E94AF031E
:100E2000B80186E00E94AF038AE0C82ED12C40E8CA
:100E30006FE180E80E94770340E86FE180EA0E945A
:100E400077034AE06CE180EA0E94770348E06FE1B3
:100E500080E80E94770304E610E08CE10E943604EB
:100E60008A7029F50115110521F1015011096AE077
:100E700070E080E090E00E94DC02EFCFC091F701CB
:100E8000D091F801209721F41092E10180E029C06F
:100E9000CE010E940E058093E1018823B9F39E01E3
:100EA0004FEF51E070E060E00E94DF0597CF012B2B
:100EB00051F448E06FE180EA0E94770381E0C81AAC
:100EC000D10809F0B4CFEE2021F06E2DCE010E94A2
:100ED0008804FF2019F08F2D0E941A031092E1015F
:100EE00081E0DF91CF911F910F91FF90EF90DF9004
:100EF000CF9008950F931F93CF93DF93EC018C0154
:100F00000B5F1F4F899181110E941A03FE013197D7
:100F10001082C017D107B1F7DF91CF911F910F91C8
:100F20000895CF93DF93EC01888181110E941A0309
:100F3000FE01CE01049621812193E817F907D9F724
:100F40001C82DF91CF910895CF93DF93EC01E8816C
:100F5000F981008CF18DE02D0995882339F08C857D
:100F60009D850296DF91CF910C947A07DF91CF9106
:100F700008950F931F93CF93DF931F92CDB7DEB7E2
:100F80008C01DC01ED91FC91008CF18DE02D099537
:100F90008823D1F0D8011C96ED91FC9182818823A1
:100FA00099F041E050E070E060E00E94C503BE01AE
:100FB0006F5F7F4F0E945803898190E00F90DF910F
:100FC000CF911F910F9108958FEF9FEFF7CFCF93A0
:100FD000DF931F92CDB7DEB7DC01ED91FC91028863
:100FE000F389E02D41E050E0BE016F5F7F4F09952E
:100FF0001816190634F4898190E00F90DF91CF9193
:1010000008958FEF9FEFF9CF6F927F928F929F920B
:10101000AF92BF92CF92DF92EF92FF920F931F9306
:10102000CF93DF938C014B01EA01DC01ED91FC9140
:10103000008CF18DE02D0995882309F480C0D8013A
:101040001C96ED91FC918281882309F47BC07E017E
:101050008EE1682E5E01AE18BF08A80CB91CD8013D
:101060001C96ED91FC91A70170E060E082810E94E6
:10107000C5036C01B5010E945803F801A484B5842E
:10108000D50112967C90872D0E9438038C159D0502
:10109000E9F5E81AF90AC50102960E949107F801DC
:1010A000A485B585EC916E9EF0011124E254FC4FAD
:1010B000818D84FF09C011968C911197982F96709D
:1010C00019F4886011968C93D8011C96ED91FC91CF
:1010D0001D97828181112EC0818182FF05C01182FE
:1010E0001D961C921E921C97CE018E199F09DF91AE
:1010F000CF911F910F91FF90EF90DF90CF90BF9015
:10110000AF909F908F907F906F900895B5E07B9EF9
:10111000F0011124EA51FD4F808191818C0D9D1DBC
:1011200091838083828193818C199D09938382832B
:10113000CE01DDCFE114F10409F08CCFF9CF8FEFB0
:101140009FEFD5CF90E080E0D2CFEF92FF920F9348
:101150001F93CF93DF93EC01E881F981008CF18D2F
:10116000E02D09958823E1F00C851D85780182E04A
:10117000E80EF11C095F1F4FD0E0C0E0F70181913C
:101180007F010E943803C80FD91FE016F106B1F79E
:10119000CE01DF91CF911F910F91FF90EF900895B5
:1011A000D0E0C0E0F5CFFC014485558541155105DF
:1011B00051F0FB01248535852115310521F081E0B1
:1011C0004217530709F080E00895DC011C96ED9169
:1011D000FC91309731F08281811105C0818181704D
:1011E000089580E0089581E0089590E080E00895FA
:1011F000DC01ED91FC91028CF38DE02D099591E0DD
:1012000089270895CF93DF93FC01A481B5811097BE
:1012100021F480E0DF91CF910895EC01ED91FC91F4
:1012200011970688F789E02DCD01099581111EC01F
:10123000FE01E156FF4F80819181892B51F78DEF9F
:101240009FEF918380838C819D81DC01ED91FC91E6
:101250000680F781E02D09958C819D81DC01ED915F
:10126000FC910488F589E02D0995D3CF81E0D2CF98
:10127000CF92DF92EF92FF920F931F93CF93DF9362
:1012800000D000D0CDB7DEB78C01F90180E0DE01DF
:1012900011967D019E2F9F77EE0FEF2FEE1FFF0B14
:1012A000F195309709F09068D701A80FB11D9C9374
:1012B0008F5F309779F790E0FA01E81BF90B6483B0
:1012C000FA01E81BF90B3596D701BD016E197F09AC
:1012D000681779071CF46D916193F7CFFC01319683
:1012E000D80114968D919C917F01E20EF31EBA01F4
:1012F0006E1B7F0B6B5F7F4FDC01ED91FC910280D9
:10130000F381E02DA70109956C010E940E03F801FD
:10131000E857FF4F608371838283938381E0EC14ED
:10132000FD0409F080E00F900F900F900F90DF9177
:10133000CF911F910F91FF90EF90DF90CF90089584
:10134000EF92FF920F931F93CF93DF93EC018B01EA
:101350007A010E940E03FE01E857FF4F60837183FC
:10136000828393838C819D81DC01ED91FC910280CD
:10137000F381E02DA701B801DF91CF911F910F916B
:10138000FF90EF9009941F93CF93DF93EC01162FFA
:101390000E940E03FE01E857FF4F60837183828332
:1013A00093838C819D81DC01ED91FC910190F08112
:1013B000E02D612FDF91CF911F910994CF92DF92A1
:1013C000EF92FF920F931F93CF93DF93EC018B016A
:1013D0000E940E036B017C018C819D81DC01ED91EB
:1013E000FC910084F185E02D0995892B69F40E9418
:1013F0000E036C197D098E099F0968397A438105AE
:10140000910550F380E00CC08C819D81DC01ED9151
:10141000FC910284F385E02D0995F801808381E039
:10142000DF91CF911F910F91FF90EF90DF90CF90C0
:1014300008952F923F924F925F926F927F928F9278
:101440009F92AF92BF92CF92DF92EF92FF920F9353
:101450001F93CF93DF9300D0CDB7DEB78C014B0144
:101460006C0126E0C20ED11CB6010E94DE0981117A
:1014700018C0F12CE12CC7010F900F90DF91CF9194
:101480001F910F91FF90EF90DF90CF90BF90AF90A2
:101490009F908F907F906F905F904F903F902F9094
:1014A0000895D8011696BC91BA8319821801E7E015
:1014B0002E0E311CEE24E394F12CB12CA12C412CE6
:1014C000512C32014394BE016F5F7F4FC8010E94CF
:1014D000DE09882371F2B7016F5F7F4F8981F101C7
:1014E00081931F01282F2F7730E0249DA001259D97
:1014F000500D349D500D1124A40EB51E27E0440C50
:10150000551C661C771C2A95D1F787FD35C0FA81DA
:10151000F07FFA838FEF860FD4018C93F03309F0BC
:1015200043C06C0D7D1DC8010E94DE09882309F4AB
:10153000A0CFB7016E5F7F4F6C0D7D1DC8010E946B
:10154000DE09882309F495CFB7016D5F7F4FD40181
:10155000EC91E00FF12FF11DC780D12CDC2CCC24B5
:101560008085C80ED11CF801868181FF03C0F2E09E
:10157000CF0ED11C82E01BC07B016530710509F0E4
:10158000A2CFF801E156FF4F8FEF9FEF9183808349
:10159000D80114968D919C91DC01ED91FC91048809
:1015A000F589E02D099565CF80E0D12CC12C482E1E
:1015B000512C7B01461A570A18012DE9220E311CC5
:1015C0008EEF682E77247A94C2018E0D9F1D8A15A6
:1015D0009B0588F5BE016F5F7F4FC8010E94DE0941
:1015E000882309F446CFD1018D919C910097B1F0E9
:1015F000BA81B03399F4F4012081A301421B51094F
:101600009A012E0D3F1DC216D30640F4DC01ED9168
:10161000FC910190F081E02D69810995B0E8EB160D
:10162000F10428F48981F801EE0DFF1D8683EFEFA8
:10163000EE1AFE0AC9CFF801E356FF4F808191816F
:10164000892B09F018CFF1E8EF16F10408F011CF5B
:1016500012CF089590E080E00895CF92DF92EF924C
:10166000FF920F931F93CF93DF93CDB7DEB7C25492
:10167000D1090FB6F894DEBF0FBECDBF8C01FB01C0
:1016800082819381A481B58123968CAF9DAFAEAF4B
:10169000BFAF239721E023962FAF239723964CAD1E
:1016A0005DAD6EAD7FAD23974BAB5CAB6DAB7EABF1
:1016B00089AF9AAFABAFBCAF8DA79EA7AFA7B8ABB2
:1016C00028AB4DA55EA56FA578A94FA358A769A71C
:1016D0007AA72EAB4BA95CA96DA97EA949A35AA3F1
:1016E0006BA37CA38B8F9C8FAD8FBE8F2AA74FA13E
:1016F00058A569A57AA54D8B5E8B6F8B788F2CA32F
:1017000049A15AA16BA17CA14F87588B698B7A8B19
:1017100089879A87AB87BC870E940E0366507F4FEC
:101720008F4F9F4F60939E0470939F048093A004FB
:101730009093A1041092B8031092B7031092BA03C9
:101740001092B903E8EEF2E08BECDF011D928A956E
:10175000E9F781E098E09093E7028093E60261E088
:101760008AE00E94860261E08AE00E943A02FFB6A7
:10177000F8948091B303811127C0E6E3F1E08491EE
:10178000E2E2F1E09491E82FF0E0EE0FFF1FE25F5C
:10179000FE4FA591B491EC91E92321F461E08AE038
:1017A0000E943A0261E08AE00E9486028CB5806164
:1017B0008CBD8CB580648CBD61E08DE00E9486029A
:1017C00061E08BE00E9486028091B3038F5F80937B
:1017D000B303FFBE8CB58C7F8CBD8DB581608DBD94
:1017E0004FEF60E08FEF0E94770362E070E080E0EF
:1017F00090E00E94DC0262E370E080E090E00E94F2
:10180000DC021092B6031092B50380E1E82EF12CB1
:101810006DE180E00E94180481110BC0B1E0EB1A69
:10182000F10839F06AE070E080E090E00E94DC02AC
:10183000EFCF70E060E088E00E94AF0370E060E00E
:101840008CE00E94AF036FEF77E08AE00E94AF0365
:1018500061EB88E30E940B046FE370E388E20E946F
:10186000AF0369EF77EF80E30E94AF036DE070E0B4
:1018700080EC0E94AF0342E362EC80E80E947703B1
:1018800062E17CE086EC0E94AF0362E184EC0E949E
:101890000B046CED75E08AEC0E94AF03F8016081E7
:1018A00084EE0E940B04D80111966C9185EE0E9483
:1018B0000B04F801628182EE0E940B04D80113969A
:1018C0006C9183EE0E940B04F801648180EE0E940B
:1018D0000B04D80115966C9181EE0E940B0460E018
:1018E00071E080E10E946B048FE10E94900340EC64
:1018F0006BE180E80E94770344E06FE180E80E949A
:10190000770366E774E084E10E946B0482E70E943B
:1019100036048F3F09F48BC08093B403F8018081B3
:1019200080939804818180939904828180939A04A2
:10193000838180939B04848180939C048581809320
:101940009D041092370410923604109239041092BC
:10195000380410923B0410923A0410923D04109205
:101960003C041092D7031092F503109213041092C6
:10197000310484E080933E0480E094E09093BD03C2
:101980008093BC03109297049BE024E0809197041D
:10199000883008F44FC04D895E898F8921E02A8BF9
:1019A000CF84D888E988FA88CB82DC82ED82FE82F7
:1019B0006B857C85E985FA85F093E302E093E2028A
:1019C0007093E5026093E4025093DF024093DE02DD
:1019D00090E091609093E1028093E0028FEF9FEF9F
:1019E0009093DB028093DA028FEF90E09093DD0218
:1019F0008093DC022E838B819C81AD81BE8180939C
:101A00004D0590934E05A0934F05B0935005CE5BC6
:101A1000DF4F0FB6F894DEBF0FBECDBFDF91CF9181
:101A20001F910F91FF90EF90DF90CF90089510924B
:101A3000B40374CF899FF0011124E15CFB4FDF01F7
:101A4000322F1D923A95E9F78F5F809397049ECFCE
:101A5000AF92BF92CF92DF92EF92FF920F931F93BC
:101A6000CF93DF938C016B015A01E9010E940209B7
:101A70008823C9F1F60101900020E9F73197EC19AC
:101A8000FD09CE010796E80FF91FE138F10558F579
:101A9000780186E0E80EF11C45E050E0B701C60190
:101AA0000E94DF00F501DC011696A00FB11FA50111
:101AB0004C0F5D1FE417F50719F021912D93FACF14
:101AC00025979E01280F391FA70160E3C801DF9108
:101AD000CF911F910F91FF90EF90DF90CF90BF902B
:101AE000AF900C94380980E0DF91CF911F910F9156
:101AF000FF90EF90DF90CF90BF90AF9008958F92BE
:101B00009F92AF92BF92CF92DF92EF92FF920F938C
:101B10001F93CF93DF937C01CB014A016901FB0145
:101B200001900020E9F73197E61BF70B20E3D7017E
:101B300016962C938F010C0D1D1D98012E5F3F4FA3
:101B4000F701379641E050E0622F6F77220F232F85
:101B5000221F330B31952115310509F060684F5F65
:101B60005F4F61932115310579F7E7012696BE0194
:101B70000E94DF00F701A481B581ED91FC911197DE
:101B80000280F381E02DAC01BE01CD0109955C011D
:101B9000E401C80CD91CD70114968D919C91FE01CB
:101BA0006491DC01ED91FC910190F081E02D0995AB
:101BB000A80EB91E2196CC16DD0669F70E940E0309
:101BC000F701E857FF4F60837183828393830C5F33
:101BD0001F4F81E00A151B0509F080E0DF91CF91CE
:101BE0001F910F91FF90EF90DF90CF90BF90AF903B
:101BF0009F908F900895FB0101900020E9F73197A5
:101C0000AF01461B570BDC01ED91FC910280F38183
:101C1000E02D09948F929F92AF92BF92EF92FF9224
:101C20000F931F93CF93DF93CDB7DEB7A1970FB676
:101C3000F894DEBF0FBECDBF7C01FA01CB0119A223
:101C4000223008F42AE08E010F5D1F4F822E912C66
:101C5000B12CA12CBF01A50194010E945228F901C9
:101C6000CA016A300CF5605DD8016E938D01232B9B
:101C7000242B252B79F790E080E0109721F0BD010F
:101C8000C7010E94FB0DA1960FB6F894DEBF0FBEF0
:101C9000CDBFDF91CF911F910F91FF90EF90BF903B
:101CA000AF909F908F900895695CDECFEF92FF9286
:101CB0000F931F93CF93DF938C017B01D0E0C0E0A3
:101CC000F701EC0FFD1F6491662339F0C8010E94F3
:101CD000CD01892B11F02196F3CF6CE671E0C8019C
:101CE0000E94FB0D8C0F9D1FDF91CF911F910F91D3
:101CF000FF90EF9008950F931F93CF93DF938C0184
:101D0000EA01662319F16130E1F469E770E082EAE3
:101D100094E00E94560E61E0F80181850E943A022B
:101D2000F801678170858BEC92E00E944B288C0152
:101D3000CE010E94020923E030E046E750E0811125
:101D400021C0DF91CF911F910F9108956CE670E053
:101D500082EA94E00E94560E60E0F80181850E94BC
:101D60003A02F801678170858BEC92E00E944B2863
:101D70008C01CE010E940209882319F324E030E08F
:101D800048E650E0B801CE01DF91CF911F910F914D
:101D90000C947F0DCF92DF92EF92FF920F931F93DF
:101DA000CF93DF93EC019D8191708D818695817039
:101DB000981709F452C08B010E940E03CE80DF8079
:101DC000E884F9849B01AC012C193D094E095F0997
:101DD00069017A0135E6C316D104E104F104E8F1A2
:101DE0006E837F83888799876FE671E082EA94E04B
:101DF0000E94FB0D6CE671E082EA94E00E94FB0D0C
:101E00009D818D8190FB81F98D838D8180FF22C022
:101E10006A857B858BEC92E00E944B287C016F8564
:101E200078898BEC92E00E944B28F701019000200A
:101E3000E9F731979F012E193F09A701BC01C8019D
:101E4000DF91CF911F910F91FF90EF90DF90CF9096
:101E50000C94280D6C857D85DDCFDF91CF911F918E
:101E60000F91FF90EF90DF90CF9008958F929F9207
:101E7000AF92BF92CF92DF92EF92FF920F931F9398
:101E8000CF93DF937C01EB016C0182E0C80ED11C83
:101E90004701E5E08E0E911C10E000E0F601419153
:101EA0006F0150E070E060E02AE0CE010E940A0E6F
:101EB0005C01E881F9810190F081E02D6EE2CE01B4
:101EC00009958A0D9B1D080F191FC814D90431F7F5
:101ED000F701458150E070E060E02AE0CE010E9409
:101EE0000A0E800F911FDF91CF911F910F91FF90EC
:101EF000EF90DF90CF90BF90AF909F908F9008951C
:101F00000E947A28EF92FF920F931F93CF93DF9353
:101F1000FC0110929704CFE3D4E0DE0130E020E032
:101F20002830310569F490E0983009F042C01092F1
:101F3000F6011092F501109297042FE334E044C0AB
:101F4000CD018F5394400D911C91119701151105EE
:101F500061F112964D915C9113974115510529F14C
:101F6000E080F1800E151F0501F5028113814017F5
:101F70005107D9F420939704DC01AD5BBB4F86E099
:101F8000FB0101900D928A95E1F78BE0829FF001B1
:101F9000839FF00D1124E15CFB4F1286DF91CF91FE
:101FA0001F910F91FF90EF9008952F5F3F4F1B9669
:101FB000B7CF9E0148815981452BB1F44A815B819D
:101FC000452B91F49093970484E0D90101900D92F0
:101FD0008A95E1F7D901149686E0FB0101900D92F4
:101FE0008A95E1F7F901D9CF9F5F2B969DCFEF92AC
:101FF000FF920F931F93CF93DF9300D000D000D0B8
:10200000CDB7DEB740911D0250911E024F3F5407DD
:1020100031F480911F0290912002019619F1809174
:10202000E2029091E3026091DA027091DB029B017F
:1020300020953095282B392B42175307A9F520916D
:10204000DC023091DD0220953095E091E402F091C0
:10205000E5022E2B3F2BE0911F02F0912002E217A8
:10206000F30711F586E0E4E1F1E0AFEFB1E00190B4
:102070000D928A95E1F786E0E8E9F4E0A5E0B2E0A8
:1020800001900D928A95E1F788E090E090930C0220
:1020900080930B028091F7019091F8010E96909336
:1020A000F8018093F701A5C08427952786239723FD
:1020B000892B99F420911F02309120028091E40233
:1020C0009091E502822793276091DC027091DD02F6
:1020D00086239723892B09F499C08091DE02909181
:1020E000DF029093FC018093FB018091E0029091CC
:1020F000E1029093FE018093FD01E090FB01F090DE
:10210000FC010091FD011091FE01EFE3F4E080E09D
:10211000883009F084C08093970446E050E06FEF68
:1021200070E08FEF91E00E94A72886E0EFE1F2E0F7
:10213000DF01282F1D922A95E9F7E8E9F4E0A5E0F0
:10214000B2E0982F01900D929A95E1F7E8E9F4E05A
:10215000A5E1B2E0982F01900D929A95E1F7F092E7
:102160002602E09225021093280200932702209174
:10217000E2023091E30230931C0220931B02209173
:10218000E4023091E50230931E0220931D0220E00C
:1021900031E0309314022093130230930E02209307
:1021A0000D0228E030E03093100220930F0280935C
:1021B000110294E09093120228E036E030930C0272
:1021C00020930B0225E332E03093FA012093F901CA
:1021D0002AE230E03093F8012093F701BE016F5FEF
:1021E0007F4FDB011D928A95E9F78BEF91E00E940A
:1021F000820F26960FB6F894DEBF0FBECDBFDF91DB
:10220000CF911F910F91FF90EF9008955093FC0193
:102210004093FB013093FE012093FD016ECF20819E
:102220003181E216F306E1F42281338102171307AC
:10223000B9F49481911103C09581992329F0809379
:102240009704349686E011CF96819111F8CF97814B
:102250009111F5CF90859111F2CF91859111EFCF2A
:102260008F5F3B9655CFAF92BF92CF92DF92EF92A6
:10227000FF920F931F93CF93DF93E090F301F090C1
:10228000F401F701C48DD58DD090F001209781F530
:10229000D6FC03C0F12CE12CC6C0E6E9F1E090E0E9
:1022A00080E0218121117CC042E1489F9001499F3B
:1022B000300D1124E901CA56DE4FC7018E5B9340F1
:1022C000959587956FEE7EEE869FA001879F500DB6
:1022D000969F500D1124488381E0898328563E4FF4
:1022E00081E1F90111928A95E9F7F701D58FC48F41
:1022F000D1FE30C00091F7011091F80101151105D0
:1023000049F18981867031F55E01F2E0AF0EB11CB2
:10231000C12CF50181915F01811149C0C8010E9462
:102320000E05F50131978083882309F440C0209180
:10233000F9013091FA012F5F31404091DE0170E0E8
:1023400060E00E94AD05F4E0CF1204C0F701818D7A
:102350008061818F898183FF0AC0877F89838D2D6A
:1023600082608093F001F701818D8F7E818F1091C3
:10237000F00114FD02C017FF26C0CE0107960E948F
:102380007A078A818823E9F0F701848195819F8308
:102390008E83898184608983F701158E148E7ACFAC
:1023A000019672968430910509F07BCF73CFC39468
:1023B000F5E0CF12AECF8091E0018E7F8093E001F7
:1023C000C5CF1982E9CF10FF04C0CE0107960E9445
:1023D00091071C7009F465C08F81882309F461C0DE
:1023E0009885911144C0EC84FD84E114F10409F452
:1023F00051CF95E0899FF0011124EA51FD4FF382FE
:10240000E282C090F901D090FA01F601EF5FF1404D
:102410006F01E093DF01DD24C6018E0D9F1D009743
:1024200069F51092E1016091F9017091FA01F09261
:10243000EB01E092EA011E141F0454F48091F101B3
:102440009091F2016817790719F0A7010E948C2872
:10245000F092F801E092F701DF91CF911F910F9177
:10246000FF90EF90DF90CF90BF90AF9008950E94C3
:1024700038037C01892B09F40DCFC3CF0E940E05D0
:102480008093E101882379F2870130E020E04F81D9
:10249000B6010E94AD058091E00182608093E00169
:1024A000C2CF898181FFF6CE8F81811108C0198248
:1024B000F701158E148E80E18093F001EBCEF701C9
:1024C000818D8061818FE6CEAF92BF92CF92DF92F5
:1024D000EF92FF921F93CF93DF93C091F301D091BE
:1024E000F40125E332E03093FA012093F9013093AF
:1024F000F2012093F1018330C9F4898D8F7083300C
:1025000009F044C088899989892B09F03FC088E087
:102510008093F0010E9433118091F00185FFDFC4A8
:102520001092EB011092EA01198E51C0823009F02D
:1025300005C18091EF018F5F8093EF01811113C07E
:102540008091EE018F5F8093EE0181110CC080912C
:10255000ED018F5F8093ED01811105C08091EC0149
:102560008F5F8093EC011092F8011092F7011092A6
:10257000EB011092EA01898D982F9D7F953059F4D7
:102580008A8D8F5F8A8F883709F4198E1092F8012F
:102590001092F70154C18823C9F328893989232B64
:1025A00009F4C7C09A8D2FEF290F2A8F9111EECF12
:1025B0009B8D983031F02FEF280F223050F495305A
:1025C00041F4198E80E88093F0010E94331184E178
:1025D00084C0392F953008F034E023E001C0220F89
:1025E0003A95EAF72A8F9F5F9B8F8F70833009F4AB
:1025F0007DC008F06AC0813009F4D2C2823031F661
:1026000010922E0280912E02826080932E0282E030
:102610008093350294E090933602809337021092B3
:1026200038028CE290E09093F8018093F70180E605
:1026300080932D02888580932902898580932A02C0
:102640008A8580932B028B8580932C028C858093C6
:1026500025028D85809326028E85809327028F85A3
:102660008093280286E0809316028C819D8190934E
:102670002202809321028E819F8190932402809375
:1026800023028091E2029091E30290931A028093D8
:1026900019028091E4029091E50290931C028093CC
:1026A0001B028881998190931E0280931D028A816A
:1026B0009B819093200280931F02898D84FF95C493
:1026C0001092300210922F0280C1863029F088309B
:1026D00019F0843009F05ACF81E180932E0288E20C
:1026E00090E09093F8018093F70121C084E08093FB
:1026F000F0010E9433118091F1019091F2019093C9
:10270000FA018093F9018091EA019091EB01892B04
:1027100009F416C488899989009709F411C4889628
:102720009093F8018093F70188E180932E0280E571
:102730007FCF8F70833009F029CFE9CE80910D02D1
:10274000853409F023CFC0900F02D12CDC2CCC248F
:1027500080911002C80ED11C8091F7019091F80170
:102760008C159D0508F412CFD092F801C092F701A4
:10277000809113028F7309F009CF10911402111187
:1027800005CFA090E202B090E302A114B10431F4AD
:102790008091E4029091E502892BA1F080911D02C5
:1027A00090911E02A816B90609F0F0CE20911F02E2
:1027B000309120028091E4029091E50228173907B8
:1027C00009F0E4CE0E94C306019609F0DFCE8091A5
:1027D0001602863009F441C0813009F0D7CE8091CD
:1027E0002102883009F0D2CE10922102809123027A
:1027F00090912402873F2FEF920768F109969093FA
:102800002402809323028091190290911A029093DE
:102810001E0280931D0280911B0290911C029093D6
:10282000200280931F02B0921A02A0921902809196
:10283000E4029091E50290931C0280931B02109297
:10284000F001DF91CF911F91FF90EF90DF90CF903B
:10285000BF90AF9008950896D2CF0E944606019689
:1028600009F094CE409123025091240260912102FC
:10287000709122028091190290911A02E0911B023C
:10288000F0911C02CEEBD3E0298D2223A9F0AC817C
:10289000BD814A175B0781F4AE81BF816A177B0750
:1028A00059F4A881B9818A179B0731F4AA81BB81A9
:1028B000EA17FB0709F47CC16E9624E0C831D20701
:1028C00019F310F380912E028F73823061F45093CC
:1028D000E9014093E801E6E3F4E080E0843009F0A8
:1028E000B2C080933E0480912E0282FD4FCE84E1DF
:1028F00080932E0288E290E09093F8018093F70194
:1029000080E580932D023091280280912C028093E3
:1029100028022091270280912B0280932702209386
:102920002B029091260280912A0280932602909396
:102930002A028091250280933E044091290240930F
:102940002502809329023F5F30932C0231110DC084
:102950002F5F20932B02211108C09F5F90932A02C2
:10296000911103C08F5F8093290280912102909181
:1029700022029093E9018093E80120912302309193
:102980002402309322022093210290932402809308
:1029900023028091190290911A0290931E02809353
:1029A0001D0280911B0290911C0290932002809343
:1029B0001F02B0921A02A09219028091E402909133
:1029C000E50290931C0280931B0280E48093150221
:1029D0008091F7019091F80190930F02809310027B
:1029E000109234021092330210923202109231028D
:1029F0000E94460680959095909332028093310212
:102A000085E480930D0210920E021092140210922F
:102A100013028091E2019091E30101969093E3010A
:102A20008093E20190931102809312021092180297
:102A3000109217020E94C3068095909590931802F9
:102A400080931702FCCE219131918F5F421753077B
:102A500009F044CF10923E04EEEBF3E090E080E00A
:102A6000D0E0C0E08430910531F484E080933E04EE
:102A7000209781F48BCD3E2F2F2FA18DA11163C004
:102A800080933E042EE1289FE001299FD00D112460
:102A9000C254DC4FD093F401C093F30183E08A8FDA
:102AA000888F1E8A84E08F8B1B8E5D834C837F838F
:102AB0006E838091190290911A0299838883809184
:102AC0001B0290911C029B838A8381E0898F8091F5
:102AD000EC018C878091ED018D878091EE018E87CE
:102AE0008091EF018F8781E090E0998B888B8091B6
:102AF00028028B87809127028A8780912602898706
:102B000080912502888781E090E00E94751F809166
:102B10002D02982F907F913508F442C082958F70D6
:102B20008550990B880F991F880F991FE12FF0E0AE
:102B3000E817F9072CF4E150FE4F36A9311112C005
:102B400010933E042DC0A73031F4209731F0B28DA0
:102B5000AA8DAB1710F03C2F2D2F01967E96C32F18
:102B6000D22F80CF313011F41F5FE0CF27A9323050
:102B7000D9F42430C9F410933E0480AD91AD892777
:102B8000982789279093E9018093E801813022E01A
:102B9000920710F080E092E09B8B8A8B9D8B8C8B50
:102BA00080E180932E022ECD222351F2120FBECF50
:102BB000D093F401C093F3011092F00190912E0292
:102BC00092FF07C0198E80E28093F0010E943311BA
:102BD000DDCC80912D0282958F70880F880F8093B5
:102BE0003E04C81AD108760184E1E81AF108F0928F
:102BF000F801E092F7012F70223021F4892F8F73B2
:102C00008231D1F0E114F10419F4892F8370A1F01D
:102C100039852A858B855091250248855413C0C17A
:102C2000409126024313BCC1309127023213B8C130
:102C3000209128022813B4C194FF49C0688979897A
:102C40006115710509F443C0CE010C960E94421F24
:102C5000309129028091E401381339C020912A0271
:102C60008091E501281333C090912B028091E601F9
:102C700098132DC080912C024091E701841327C046
:102C80003C872D879E878F87988D8B8D811118C0EB
:102C90008E892A8D921B282F269526952695921B84
:102CA000890F8E8B97FD91952F89322F369536950A
:102CB000231B920F9F8B869586958695890F888F0B
:102CC00081E08093F001888D8A8F198A188A298D76
:102CD000E22FEF70E150E83008F058CCF0E0ED580A
:102CE000F94E0C9474287B169416FE16B317DC1755
:102CF000ED17D017AC178091F00180FF47CC83E02F
:102D0000898F80E48093F001198A188AE114F10414
:102D100031F082E48093F001C7010E94751F109288
:102D2000EB011092EA01F6CB8091F00180FF5FC0C9
:102D300080912E028F73823109F059C080912D024B
:102D4000982F907F913598F182958F708550990BCF
:102D5000880F991F880F991FE12FF0E0E817F907F6
:102D60002CF4E150FE4F36A9311103C010933E04FC
:102D70001EC0313011F41F5FEFCF27A9323099F513
:102D8000243089F510933E0480AD91AD89279827B2
:102D900089279093E9018093E801813022E092072E
:102DA00010F080E092E09B8B8A8B9D8B8C8B83E074
:102DB000898F80912502888780912602898780915A
:102DC00027028A87809128028B8781E090E00E9409
:102DD000751F82E48093F001198A188A1092F80115
:102DE0001092F7019CCF222309F2120FB5CF80E297
:102DF0008093F0010E943311198E75CD80912E02BF
:102E000080FF20C024FD1EC088899989892B09F084
:102E1000BDCBC60143970E94751F8091F001982F8A
:102E200090619093F001EF2819F082618093F00196
:102E30000E94331181E090E0998B888B88E0898F24
:102E40001B8E4ACC85FF14C08091330290913402CE
:102E5000982789279827AC014B5C5D4F5093FA0166
:102E60004093F901E81AF90AF092F801E092F701AB
:102E70004091F7015091F8019091F00141155105F1
:102E800041F024FD06C092609093F001CA010E94B7
:102E9000751F80912F02282F30E0322F222780913A
:102EA0003002820F932F911D9093E9018093E801E6
:102EB0002C893D892817390710F0892B21F430938C
:102EC000E9012093E8018091E8019091E9019B8B51
:102ED0008A8B8091F001837009F458CB20CF84FF56
:102EE0000AC01092EB011092EA0181E090E0998B08
:102EF000888B84E0A4CF2091EA013091EB01211569
:102F00003105B9F080FF02C0198A188A8889998929
:102F1000009789F48A899B898217930720F49093FC
:102F2000EB018093EA018091EA019091EB01998B8A
:102F3000888B1B8EE0CB9093EB018093EA01F9CF55
:102F40008091F00181FF22CB88E290E09093F8011C
:102F50008093F70180E1E9CB8091F00180FF16CBEF
:102F6000198E80E131CEE114F10419F0C7010E94FD
:102F7000751F8091F001817090912E0290FF15C015
:102F8000882381F087E0898F1A8E198A188A81E058
:102F900090E00E94751F80E18093F0010E94331140
:102FA00080E19BCB86E0898FF2CF882399F085E082
:102FB000898F198A188AEACAE114F10419F0C70145
:102FC0000E94751F80912E0280FF04C087E0898FC8
:102FD0001A8EDDCFEF2821F7D9CA8091F00180FF4A
:102FE000D5CA87E0898F1A8ED1CA82E080932F02DA
:102FF00010923002EACC8F929F92AF92BF92CF9202
:10300000DF92EF92FF920F931F93CF93DF93809104
:10301000B403882309F420C1D091DE01D11151C03D
:1030200089E30E943604882309F449C06091B503FE
:103030007091B6036B0126E0C20ED11CC11438E0BA
:10304000D30628F06B0149EFC41A47E0D40A80E0A8
:103050000E94AF0360E08AE30E941804E82E60E05B
:103060008AE30E941804F82EF092B603E092B503AA
:1030700060E08AE30E941804182F60E08AE30E944F
:103080001804C82F60E08AE30E941804082F40E467
:103090006EE180E80E94770307FFEBC0E11458E07F
:1030A000F50608F0E6C0D092B803C092B7039C2F93
:1030B000812F04979093BA038093B903DFEFD093E5
:1030C000DE01F090DE01FF2009F476C081E08093FC
:1030D000E0018F2D0E943803EC019093F80180935A
:1030E000F701892B09F4F2C042E650E070E060E09D
:1030F0008F2D0E94C5036FEF71E00E945803C090AE
:103100000B02D0900C0288E0C816D10409F0CCC0A4
:10311000F092E1012E97D093F801C093F70120912E
:10312000190230911A02E091E202F091E302C90122
:103130008E279F274091DA025091DB02842395234A
:10314000892B49F540911B0250911C026091E402C9
:103150007091E502CA0186279727A091DC02B09101
:10316000DD028A239B23892BB1F480911D0290916B
:103170001E02E817F90709F07FC080911F029091A5
:1031800020026817790709F077C065E072E089E1ED
:1031900092E00E94820F81E00E9464128091F70108
:1031A0009091F801892B21F00E94F70F0E94D4061C
:1031B0008091E00180FD8AC00E940E036B017C01BA
:1031C00080919E0490919F04A091A004B091A104CD
:1031D00046015701881A990AAA0ABB0ACEEBD3E026
:1031E00006E314E0D093F401C093F30182E0B7FE4C
:1031F00014C0EC8DFD8D309709F4FFC0868597854E
:10320000A089B189A7019601281B390B4A0B5B0BDA
:10321000DA01C901B7FD0DC083E00E9464128091FC
:10322000F7019091F801892B21F00E94F70F0E947D
:10323000D4066E960C171D07A9F6B7FC0DC03AEF21
:10324000C30ED11CE11CF11CC0929E04D0929F04BD
:10325000E092A004F092A104DF91CF911F910F9111
:10326000FF90EF90DF90CF90BF90AF909F908F90A6
:1032700008950E94FC0323CFEFE3F4E080E0883060
:1032800019F48093970487CF6081718126173707DF
:1032900041F4628173814617570719F480939704AC
:1032A00074CF8F5F3B96EBCF28E0C21626E0D206A4
:1032B00069F41092F8011092F701AA9760F48091D6
:1032C000F7019091F801892B09F070CF0E94FC035F
:1032D0001092DE0171CF809113029091140281153A
:1032E00031E0930701F18115924049F720912502C1
:1032F000309126028091E2029091E302281739076B
:10330000F1F620912702309128028091E4029091F9
:10331000E5022817390799F665E172E08BE192E042
:103320000E94820FCCCF009125021091260280913D
:10333000E2029091E3020817190709F6C0912702EB
:10334000D09128028091E4029091E502C817D90734
:1033500009F0B5CF65E172E08BE192E00E94820F47
:1033600080E092E0909314028093130286E0E5E1FE
:10337000F2E0AFE1B2E001900D928A95E1F786E0CC
:10338000E8E9F4E0A5E1B2E001900D928A95E1F759
:1033900086E0E8E9F4E0A5E0B2E001900D928A95BC
:1033A000E1F786E0EFE1F2E0AFEFB1E001900D92DE
:1033B0008A95E1F780911B0290911C02909326025E
:1033C0008093250280911D0290911E029093280205
:1033D0008093270210931C0200931B02D0931E02BD
:1033E000C0931D02D0920C02C0920B028AE290E0C0
:1033F0009093F8018093F70162CF8E859F85A8890D
:10340000B98900CFAF92BF92CF92DF92EF92FF9235
:103410000F931F93CF938C015B017A016A010E9485
:10342000FB170115110509F45AC0F8018181867056
:1034300009F055C03896C1E08191811133C0C15067
:10344000F801EC0FF11D878181110DC080E092E041
:103450000E940E05F801EC0FF11D87838823F9F215
:10346000F80115861486A7014C195D094A0D5B1DEC
:10347000F801648575859601EC0FF11D87810E9426
:10348000DF05C81AD90AF80124853585820F931FF4
:10349000958784871C141D0454F4C43009F4BFCFED
:1034A000CF5FD4CFCF5FC53039F6C4E0C9CF0E941B
:1034B0000E03665F7F4F8F4F9F4FF80166877787B8
:1034C000808B918BC7018C199D09CF911F910F9112
:1034D000FF90EF90DF90CF90BF90AF90089590E075
:1034E00080E0F3CFFC01848595850C94021ACF937C
:1034F000DF931F92CDB7DEB7698341E050E0BE0194
:103500006F5F7F4FFC01848595850E94021A0F90A2
:10351000DF91CF910895CF93DF93EC010E94FB17C9
:10352000EC85FD85309739F0818182FF08C081E00C
:103530009281911101C080E0DF91CF91089581E0E7
:10354000FBCFCF93DF93EC018C859D85009769F0CD
:10355000FC012181222349F002960E947A07EC8522
:10356000FD85818182FF07C011821D861C86DF9147
:10357000CF910C94FB1782608183F7CFCF92DF92BB
:10358000EF92FF920F931F93CF93DF938C01EB0188
:103590006A01DC01ED91FC910488F589E02D099523
:1035A000EA80FB806C817D815C2D4D2D8091BC0378
:1035B0009091BD0301968115BDE79B0710F080E057
:1035C00090E1382F292FEEEBF3E0DF01C0E0C430AB
:1035D000D1F49093BD038093BC0310923E0480E02D
:1035E000D0E0C0E08430F1F480933E04209711F5E0
:1035F00090E080E0DF91CF911F910F91FF90EF90CD
:10360000DF90CF9008955996DC915997DD2339F0DA
:103610001496CD90DC901597C216D30659F2CF5F61
:103620005E96D5CFAE2F9F2FB18DB1113CC0809348
:103630003E04EF0182E0898F8091EC018C878091BC
:10364000ED018D878091EE018E878091EF018F874C
:1036500080E092E09B8B8A8B9D8B8C8B81E090E04D
:10366000998B888B1B8E8A8F83E0888F1E8A80E1DE
:103670008F8B3D832C835F834E83F982E8827B832B
:103680006A83898D8F7009F4B3CF0E94FB17898DEF
:103690008F708330B1F78C8D9D8DF801958784876D
:1036A00081E090E0A7CFB73031F4209731F0D28C91
:1036B000BA8DBD1510F0AC2F9D2F8F5F7E96CA2F4F
:1036C000D92F90CF5F926F927F928F929F92AF92FD
:1036D000BF92CF92DF92EF92FF920F931F93CF93FF
:1036E000DF93CDB7DEB7C15AD1090FB6F894DEBF6C
:1036F0000FBECDBF4C016B015A010091C902109160
:10370000CA02512C380186EE680E711CD3018C91CF
:10371000581608F0E0C0E52CF12CBEE6EB0EF11CCB
:10372000EE0CFF1CE00EF11ED701ED91FC916581BE
:1037300076818BEC92E00E944B2842E050E0B4018D
:103740000E94AE28892B09F0C4C0F701E080F18007
:10375000D701ED91FC9160807180F80182A193A165
:103760009C838B838CE491E09A83898384A195A1C7
:103770009E838D8380E8B696DE01179601900D92A8
:103780008A95E1F7F801EA55FF4F80819181C95789
:10379000DF4F99838883C758D040329680819181CA
:1037A000A281B381C757DF4F88839983AA83BB83E4
:1037B000C958D040349680819181A281B381C3578A
:1037C000DF4F88839983AA83BB83CD58D04034963A
:1037D0008081CF56DF4F8883C159D0403196808198
:1037E0009181CE56DF4F99838883C259D0408AE6B3
:1037F00091E0CC56DF4F99838883C459D0403296EC
:1038000082819381A481B581CA56DF4F88839983D1
:10381000AA83BB83C659D040369680819181C65613
:10382000DF4F99838883CA59D04032968081918135
:10383000C456DF4F99838883CC59D040329680811B
:103840009181C256DF4F99838883CE59D0403296FA
:1038500080819181C056DF4F99838883C05AD040C0
:1038600095E7892E95E0992E10E000E0D4016D9146
:103870007C918BEC92E00E944B28A501BC01C60113
:103880000E947F28892B51F5F801EE0FFF1FE00FF2
:10389000F11FEB58FA4F6281AE014F5F5F4FC701D6
:1038A000F3010995CF55DF4F0FB6F894DEBF0FBE79
:1038B000CDBFDF91CF911F910F91FF90EF90DF90DF
:1038C000CF90BF90AF909F908F907F906F905F90C0
:1038D000089553941BCFF12CE12C3ACF0F5F1F4F6B
:1038E000B3E08B0E911C0730110509F0BFCF64E0E7
:1038F000D3CF1F920F920FB60F9211242F933F93A5
:103900004F935F936F937F938F939F93AF93BF93E7
:10391000EF93FF9382EA94E00E94AB01FF91EF9155
:10392000BF91AF919F918F917F916F915F914F91D7
:103930003F912F910F900FBE0F901F9018951F92DF
:103940000F920FB60F9211242F938F939F93EF93A3
:10395000FF93E091B204F091B3048081E091B80448
:10396000F091B90482FD1BC090818091BB048F5FF0
:103970008F732091BC04821741F0E091BB04F0E00A
:10398000EE55FB4F958F8093BB04FF91EF919F9174
:103990008F912F910F900FBE0F901F9018958081DF
:1039A000F4CF1F920F920FB60F9211242F933F93D3
:1039B0008F939F93AF93BF93809164029091650220
:1039C000A0916602B09167023091630223E0230F59
:1039D0002D3758F50196A11DB11D209363028093E8
:1039E000640290936502A0936602B093670280918F
:1039F000680290916902A0916A02B0916B020196EF
:103A0000A11DB11D8093680290936902A0936A0280
:103A1000B0936B02BF91AF919F918F913F912F9186
:103A20000F900FBE0F901F90189526E8230F029657
:103A3000A11DB11DD2CF1F920F920FB60F9211246C
:103A40002F933F934F935F936F937F938F939F93A6
:103A5000AF93BF93CF93DF93EF93FF93D9B190913F
:103A60007002C091A00220919D028D2F809582232B
:103A7000CD238C2B20916D00C92FCD27C223C823C5
:103A8000D0937002CC2309F46EC0C0FF0BC010921B
:103A900094018D2F817080939501E0917102F091D6
:103AA00072020995C1FF0CC081E0809394018D2FB3
:103AB000827080939501E0917302F09174020995F0
:103AC000C2FF0CC082E0809394018D2F847080939C
:103AD0009501E0917502F09176020995C3FF0CC043
:103AE00083E0809394018D2F887080939501E091FD
:103AF0007702F09178020995C4FF0CC084E08093AE
:103B000094018D2F807180939501E0917902F0915D
:103B10007A020995C5FF0CC085E0809394018D2F32
:103B2000807280939501E0917B02F0917C0209956F
:103B3000C6FF0CC086E0809394018D2F8074809323
:103B40009501E0917D02F0917E020995C7FF0BC0BF
:103B500087E080939401D078D0939501E0917F0223
:103B6000F09180020995FF91EF91DF91CF91BF9184
:103B7000AF919F918F917F916F915F914F913F9105
:103B80002F910F900FBE0F901F9018951F920F92BC
:103B90000FB60F9211242F933F934F935F936F9320
:103BA0007F938F939F93AF93BF93CF93DF93EF93C5
:103BB000FF93D6B190918102C091A10220919E0203
:103BC0008D2F80958223CD238C2B20916C00C92FC3
:103BD000CD27C223C823D0938102CC2309F453C03C
:103BE000C0FF0CC08EE0809394018D2F8170809374
:103BF0009501E0918202F09183020995C1FF0CC00A
:103C00008FE0809394018D2F827080939501E091D5
:103C10008402F09185020995C2FF0CC080E1809377
:103C200094018D2F847080939501E0918602F0912C
:103C300087020995C3FF0CC081E1809394018D2F09
:103C4000887080939501E0918802F091890209952E
:103C5000C4FF0CC082E1809394018D2F807180930A
:103C60009501E0918A02F0918B020995C5FF0BC086
:103C700083E180939401D072D0939501E0918C02FE
:103C8000F0918D020995FF91EF91DF91CF91BF9156
:103C9000AF919F918F917F916F915F914F913F91E4
:103CA0002F910F900FBE0F901F9018951F920F929B
:103CB0000FB60F9211242F933F934F935F936F93FF
:103CC0007F938F939F93AF93BF93CF93DF93EF93A4
:103CD000FF93D3B190919002C091A20220919F02D4
:103CE0008D2F80958223CD238C2B20916B00C92FA3
:103CF000CD27C223C823D0939002CC2309F453C00C
:103D0000C0FF0CC088E0809394018D2F8170809358
:103D10009501E0919102F09192020995C1FF0CC0CA
:103D200089E0809394018D2F827080939501E091BA
:103D30009302F09194020995C2FF0CC08AE080932F
:103D400094018D2F847080939501E0919502F091FC
:103D500096020995C3FF0CC08BE0809394018D2FD0
:103D6000887080939501E0919702F09198020995EF
:103D7000C4FF0CC08CE0809394018D2F80718093E0
:103D80009501E0919902F0919A020995C5FF0BC047
:103D90008DE080939401D072D0939501E0919B02C5
:103DA000F0919C020995FF91EF91DF91CF91BF9126
:103DB000AF919F918F917F916F915F914F913F91C3
:103DC0002F910F900FBE0F901F9018951F920F927A
:103DD0000FB60F9211242F933F934F935F936F93DE
:103DE0007F938F939F93AF93BF93EF93FF9383E062
:103DF0008093940189B1887080939501E0916E025F
:103E0000F0916F020995FF91EF91BF91AF919F9152
:103E10008F917F916F915F914F913F912F910F9073
:103E20000FBE0F901F9018951F920F920FB60F9212
:103E300011242F933F934F935F936F937F938F93AF
:103E40009F93AF93BF93EF93FF9382E0809394018E
:103E500089B1847080939501E0916C02F0916D02BC
:103E60000995FF91EF91BF91AF919F918F917F91B4
:103E70006F915F914F913F912F910F900FBE0F90D7
:103E80001F901895FC013381360F3093E701A72F5F
:103E9000BB2792819A0F9093E60121812093E5013F
:103EA00040814093E4019A171B0648F481E0820F99
:103EB0008093E501811103C04F5F4093E4017727B0
:103EC0003617170688F49F5F9093E60191110CC096
:103ED0008091E5018F5F8093E501811105C080919C
:103EE000E4018F5F8093E4010895CF93DF93C09145
:103EF000F301D091F401BC01CE0108960E94421F4B
:103F0000E4EEF1E0808188878181898782818A87D8
:103F100083818B87DF91CF910895E2EAF4E01382E9
:103F2000128288EE93E0A0E0B0E084839583A683BC
:103F3000B78388E591E09183808385EC90E0958755
:103F4000848784EC90E09787868780EC90E0918B63
:103F5000808B81EC90E0938B828B82EC90E0958B50
:103F6000848B86EC90E0978B868B118E128E138E4D
:103F7000148EEFE3F5E08AE691E09183808312826C
:103F8000138214821582E5E4F5E091838083128226
:103F9000138214821582E1E5F5E091838083128219
:103FA000138214821582EBE4F5E091838083128200
:103FB000138214821582E7E5F5E0918380831282F3
:103FC000138214821582EDE5F5E0918380831282DD
:103FD000138214821582E3E6F5E0918380831282D6
:103FE000138214821582E9E6F5E0918380831282C0
:103FF000138214821582EFE6F5E0918380831282AA
:10400000138214821582E5E7F5E023E631E031837F
:104010002083128220E631E03483238321E025834C
:104020002BE531E03783268322E0208725E531E048
:104030003287218723E0238720E531E035872487F5
:1040400024E0268728E431E0308B278725E0218B88
:1040500020E431E0338B228B26E0248BEAE8F5E084
:10406000918380831282138214821582E0E9F5E045
:10407000918380831282138214821582E6E9F5E02F
:10408000918380831282138214821582ECE9F5E019
:10409000918380831282138214821582E2EAF5E012
:1040A000918380831282138214821582E8EAF5E0FC
:1040B0009183808312821382148215820895CF9394
:1040C000DF93CDB7DEB7C958D1400FB6F894DEBF45
:1040D0000FBECDBF789484B5826084BD84B5816005
:1040E00084BD85B5826085BD85B5816085BD8091C3
:1040F0006E00816080936E0010928100809181003B
:104100008260809381008091810081608093810032
:10411000809180008160809380008091B1008460F4
:104120008093B1008091B00081608093B000809155
:104130007A00846080937A0080917A008260809314
:104140007A0080917A00816080937A0080917A0071
:10415000806880937A001092C100E091B204F091DF
:10416000B30482E08083E091AE04F091AF0410824A
:10417000E091B004F091B1048FEC80831092BA0406
:10418000E091B604F091B704A6E0FA2EF082E09137
:10419000B404F091B504808180618083E091B4041F
:1041A000F091B504808188608083E091B404F0913F
:1041B000B504808180688083E091B404F091B504F7
:1041C00080818F7D808365E071E082EA94E00E94C7
:1041D000560E8AE691E09A83898330EC3B8328EA85
:1041E0002C831D824AEA4E8398878F8339872A87DA
:1041F0001B8629E32C87E7E0F1E0DE011D962F2DD9
:1042000001900D922A95E1F71E8A1D8A48EE53E02F
:1042100060E070E04F8B588F698F7A8F2EE131E02C
:104220003C8B2B8B18A21F8E1CA21BA22CE431E00E
:104230003AA329A3CC54DF4F99838883C45BD04031
:10424000CA54DF4F188219821A821B82C65BD04083
:104250008FEF9FEFC054DF4F99838883C05CD040BD
:104260001EA21DA2C254DF4F19821882CE5BD0401D
:10427000CE54DF4F19821882C25BD040EDE8F1E0E6
:10428000DE01AE53BF4F8F2D01900D928A95E1F75D
:10429000C452DF4F1882CC5DD0408AE090E00E948B
:1042A0002627FC0181E0848322EE30E036832583DB
:1042B00023ED30E03087278320E431E03183208311
:1042C00098E09187C352DF4FF983E883CD5DD040FA
:1042D000C951DF4F8883C75ED04081E190E00E94E2
:1042E00026278C0184E0D80114968C931497159698
:1042F0008C9115978E7F15968C93159715968C91AA
:1043000015978D7F15968C93F8011682178210866B
:10431000118686E491E09183808381EC90E093871D
:1043200082878EEB90E095878487F68685EC90E017
:10433000908B87871093B0020093AF0262E086E013
:104340000E94860267E771E082EA94E00E94FB0D1A
:104350002AE046E050E060E070E082EA94E00E94EB
:104360000A0E6CE671E082EA94E00E94FB0DEEE139
:10437000F1E08491E2E3F1E09491923009F08DC193
:104380002091A202282B2093A20220919F02282B89
:1043900020939F02E0EBF0E0A491923009F08BC1F2
:1043A000B0E0AA0FBB1FAF56BD4F25E431E02D93FF
:1043B0003C93E4EAF0E0A591B4919C919093900233
:1043C0002BE630E030938F0220938E0290916800AC
:1043D000916090936800A0918E02B0918F02EC9151
:1043E0008E2B8C93C853DF4F19830883C85CD04051
:1043F000C452DF4F8881CC5DD0408F5FC452DF4F05
:104400008883CC5DD0408091C9029091CA02892BEB
:1044100031F4CE0101969093CA028093C902C6512D
:10442000DF4F19821882CA5ED0408CE491E0C851F7
:10443000DF4F99838883C85ED0408AE691E0C558F3
:10444000DE4F99838883CB57D140C358DE4F188203
:1044500019821A821B82CD57D1408FEF9FEFC95727
:10446000DE4F99838883C758D140CE014396C4510B
:10447000DF4F99838883CC5ED040CB57DE4F1982C3
:104480001882C558D1401CA21BA29EA38DA3A8EEE2
:10449000B0E0AC0FBD1F1696FE01B7968C569F4F2D
:1044A0002D912193E817F907D9F76E0122E9C21A75
:1044B0002EEFD20AD6018D919C91918380831E01AB
:1044C000B9EA2B0E311C7E01E0E9EE1AEEEFFE0A8E
:1044D000F70180819181A281B381F1018083918371
:1044E000A283B3834E01FDEA8F0E911C8E010C58FE
:1044F0001E4FF80180819181A281B381F4018083F4
:104500009183A283B383C858DE4F8881C857D140B6
:10451000CF54DF4F8883C15BD040C758DE4F8881BE
:104520009981C957D140CE54DF4F99838883C25BAC
:10453000D040C358DE4F88819981AA81BB81CD5775
:10454000D140CA54DF4F88839983AA83BB83C65B5B
:10455000D040CF57DE4F88819981C158D140C65491
:10456000DF4F99838883CA5BD040CD57DE4F888167
:104570009981C358D140C454DF4F99838883CC5B61
:10458000D040C254DF4F19821882CE5BD0408FEFEB
:104590009FEFC054DF4F99838883C05CD0408AE688
:1045A00091E0C851DF4F99838883C85ED0408985E8
:1045B0009A85AB85BC85C651DF4F88839983AA83D2
:1045C000BB83CA5ED040BE0168517F4FCE01819649
:1045D0000E94010182E69BE1CE54DF4F99838883DC
:1045E000C25BD0408091B40381119EC061E071E054
:1045F00082EA94E00E94560E0AE611E0C851DF4FAD
:1046000019830883C85ED0408B819C81AD81BE81B7
:10461000C651DF4F88839983AA83BB83CA5ED0408B
:10462000BE0168517F4FCE010D960E942D0B309137
:10463000E2022091E3029091E4028091E502C851E8
:10464000DF4F19830883C85ED040C651DF4F3883DF
:10465000CA5ED040C551DF4F2883CB5ED040C451E5
:10466000DF4F9883CC5ED040C351DF4F8883CD5E4F
:10467000D04062EA74E0CE0188519F4F0E94360F0D
:104680006CE671E082EA94E00E94FB0D6CED75E04F
:1046900080E090E00E94DC02A5CF933009F0C8C30F
:1046A0002091A102282B2093A10220919E02282B69
:1046B00020939E026FCE9330D1F4B0E0AA0FBB1FBF
:1046C000AE57BD4F25E431E02D933C93E6EAF0E090
:1046D000A591B4919C91909381022CE630E03093A7
:1046E0008F0220938E0290916800926072CE943077
:1046F00009F071CEB0E0AA0FBB1FAF58BD4F25E443
:1047000031E02D933C93E8EAF0E0A591B4919C91BF
:10471000909370022DE630E030938F0220938E024A
:1047200090916800946055CE0E943F0492FF5ECF46
:104730000E943F04CE0181960E940209811171C13D
:104740006CEF70E082EA94E00E94560ECE018196F2
:104750000E940209CE0181960E9402098111DBC0EC
:10476000C654DF4F68817981CA5BD0408DA19EA17C
:10477000DC01ED91FC91C454DF4F48815981CC5B41
:10478000D0406115710509F442C00088F189E02D1F
:1047900009958130910509F034C1C955DF4F9983DE
:1047A0008883C75AD04087E0EDE0F1E0DE01A851F0
:1047B000BF4F01900D928A95E1F7FE01E851FF4F3E
:1047C000DE019C96CF01079621912D938E179F07AE
:1047D000D9F782E08BAB1CAA8FE08DABCE018E5354
:1047E0009F4FFC0101900020E9F79F01281B390B26
:1047F000205F3F4F2138310548F18DA19EA1DC019A
:10480000ED91FC910488F589E02D099584C006841A
:10481000F785E02D2AE631E0C851DF4F3983288340
:10482000C85ED040CA54DF4F088119812A813B817C
:10483000C65BD040C651DF4F088319832A833B8370
:10484000CA5ED040BE0168517F4FA2CF4FE050E01A
:10485000BE01695D7F4F0E94DF009C012550310938
:10486000AE01495D5F4F60E1CE0181960E9438093B
:104870000E940E03F1016083718382839383C35589
:10488000DF4F688379838A839B83CD5AD0408DA183
:104890009EA1DC01ED91FC910084F185E02D09954C
:1048A000892BC9F40E940E03F40100811181228139
:1048B0003381601B710B820B930B68397A4381053E
:1048C000910528F38CEF9FEFC054DF4F99838883C5
:1048D000C05CD04092CFBE0167577E4FCE0181961B
:1048E0000E94190A049709F088CF8AA590E08111E7
:1048F000EBCF0E940E03F401608371838283938364
:10490000CF54DF4F1882C15BD040C054DF4F1982B3
:104910001882C05CD040CE0181960E940209882393
:1049200009F460CE61EF70E082EA94E00E94560ED6
:10493000D12CEE24E394F12CC951DF4F8881C75E5E
:10494000D040D81608F04ECEED2DF0E0E259FF4FE2
:10495000EE0FFF1F21E030E02C0F3D1FE20FF31F91
:104960000190F081E02D658176818BEC92E00E94D0
:104970004B288C01DC010D900020E9F7CD01801B54
:10498000910B089681389105D0F5CE0181960E9451
:1049900002098823A1F1C955DF4F88819981C75A3F
:1049A000D0400196B9F1C955DF4F99838883C75A22
:1049B000D040C955DF4F8881C75AD040C855DF4F16
:1049C0009881C85AD0409CA78DA747E050E0BE010F
:1049D000695D7F4FC8010E94DF00E7E2F0E0EC0F65
:1049E000FD1FE80FF91F10829C0124503109AE0110
:1049F000495D5F4F62E8CE0181960E943809D394E9
:104A00009BCF8EEF9FEFC054DF4F99838883C05CAC
:104A1000D04081CFC955DF4FF982E882C75AD040D4
:104A2000C8CF10E0C452DF4F8881CC5DD04018174A
:104A300008F0C1C0E12FF0E0EE0FFF1FEC0FFD1FEB
:104A4000E853FF4F80819181DC01ED91FC91208141
:104A500031814BA15CA1C651DF4F59834883CA5EA7
:104A6000D0404CE451E0C851DF4F59834883C85EC1
:104A7000D0404DA15EA1C451DF4F59834883CC5E25
:104A8000D04040E8FE01B796A8EEB0E0AC0FBD1FE5
:104A9000169601900D924A95E1F7C955DF4F48816E
:104AA0005981C75AD040C259DE4F59834883CE56E8
:104AB000D140F1014081518162817381C059DE4F43
:104AC000488359836A837B83C057D140C355DF4FE6
:104AD000488159816A817B81CD5AD040CC58DE4FC4
:104AE000488359836A837B83C457D140CF54DF4FB7
:104AF0004881C15BD040C858DE4F4883C857D14079
:104B0000CE54DF4F48815981C25BD040C758DE4F39
:104B100059834883C957D1404AE651E0C558DE4F12
:104B200059834883CB57D140CA54DF4F48815981BC
:104B30006A817B81C65BD040C358DE4F488359836E
:104B40006A837B83CD57D140C654DF4F488159815A
:104B5000CA5BD040CF57DE4F59834883C158D140FC
:104B6000C454DF4F48815981CC5BD040CD57DE4FD4
:104B700059834883C358D140C254DF4F488159817B
:104B8000CE5BD040CB57DE4F59834883C558D140C8
:104B9000C054DF4F48815981C05CD040C957DE4FB7
:104BA00059834883C758D140BE0168517F4FF901EE
:104BB00009951F5F37CFCE0181960E940209882395
:104BC00009F443C00E940E032B013C01C355DF4F83
:104BD00088819981AA81BB81CD5AD040A3019201DD
:104BE000281B390B4A0B5B0BDA01C90189399A433F
:104BF000A105B10590F4F10180819181A281B38179
:104C0000A3019201281B390B4A0B5B0BDA01C90186
:104C100089399A43A105B105D8F18DA19EA1CF5440
:104C2000DF4F2881C15BD040222391F02CEF3FEF72
:104C3000C054DF4F39832883C05CD040DC01ED9144
:104C4000FC910488F589E02D09950E94FB17CACCD8
:104C500020EC2FA318A6DC01ED91FC910280F381DA
:104C6000E02D42E050E0BE01695D7F4F0995F10102
:104C70004082518262827382D4014D925D926D9224
:104C80007C92139781E0CF54DF4F8883C15BD04083
:104C90008DA19EA1DC01ED91FC910084F185E02DB8
:104CA0000995892B91F2BE0168517F4FCE01819603
:104CB0000E94190A8C01892B09F4B5C0F4014082C5
:104CC0005182628273828FA1807F803309F08EC00F
:104CD000CE54DF4F88819981C25BD040892B09F483
:104CE000B4CFC851DF4FE880C85ED040F12CFE0140
:104CF000EE0DFF1DC0A4D12CDC2CCC24E9E2F0E0A9
:104D0000EC0FFD1FEE0DFF1D8081C80ED11C570159
:104D1000F2E0AF0EB11C27E230E02C0F3D1FA20ED7
:104D2000B31EB7016D5F7F4F620F731FA601C501F0
:104D30000E949528B6016E0D7F1DE9E2F0E0EC0FB0
:104D4000FD1FE60FF71F1082A8014E195F091FA172
:104D50001670CE54DF4FE881F981C25BD04012302B
:104D6000B1F5DE01A60FB71F9A96EC90F12CFE2C40
:104D7000EE24DE01A60FB71F9B968C91E80EF11C66
:104D80004C195D09455051096B5F7F4F87E290E0F8
:104D90008C0F9D1F680F791FC501099580E48FA3B3
:104DA00018A7F9A6EAA68DA19EA1DC01ED91FC91C0
:104DB0000280F381E02D44E050E0BE01695D7F4F49
:104DC0000995F10140825182628273823ECF4C1973
:104DD0005D09435051096D5F7F4F27E230E02C0F92
:104DE0003D1F620F731FC50109952FCF803C91F4C1
:104DF00080ED8FA318A68DA19EA1DC01ED91FC9101
:104E00000280F381E02D42E050E0BE01695D7F4FFA
:104E100009951BCF803D09F018CFCF54DF4F188282
:104E2000C15BD04012CFCE0181960E9402090DCF06
:104E3000943009F0AFCA2091A002282B2093A00241
:104E400020919D02282B20939D02A4CA0F931F93AB
:104E5000CF93DF938230910510F482E090E0E091EF
:104E6000B005F091B10530E020E0B0E0A0E030976F
:104E700099F42115310509F44AC0281B390B243057
:104E80003105D8F58A819B816115710589F1FB0196
:104E900093838283FE0111C040815181028113817D
:104EA00048175907E0F04817590799F4109761F02F
:104EB00012960C93129713961C933296CF01DF91A2
:104EC000CF911F910F9108950093B0051093B105F4
:104ED000F4CF2115310551F04217530738F0A901DD
:104EE000DB019A01BD01DF01F801C1CFEF01F9CF6C
:104EF0009093B1058093B005CDCFFE01E20FF31F73
:104F0000819391932250310939832883D7CF2091FF
:104F1000AE053091AF05232B41F420910301309170
:104F200004013093AF052093AE052091010130912B
:104F300002012115310541F42DB73EB7409105011D
:104F400050910601241B350BE091AE05F091AF05A1
:104F5000E217F307A0F42E1B3F0B2817390778F050
:104F6000AC014E5F5F4F2417350748F04E0F5F1FAF
:104F70005093AF054093AE05819391939FCFF0E09E
:104F8000E0E09CCFCF93DF930097E9F0FC013297EC
:104F900013821282A091B005B091B105ED0130E00D
:104FA00020E01097A1F420813181820F931F20917E
:104FB000AE053091AF052817390709F061C0F093AD
:104FC000AF05E093AE05DF91CF910895EA01CE17CA
:104FD000DF07E8F54A815B819E0141155105B1F774
:104FE000E901FB83EA8349915991C40FD51FEC175E
:104FF000FD0761F4808191810296840F951FE9017C
:1050000099838883828193819B838A83F0E0E0E0A7
:1050100012968D919C9113970097B9F52D913C9123
:105020001197CD010296820F931F2091AE0530910A
:10503000AF052817390739F6309751F51092B105A9
:105040001092B005B093AF05A093AE05BCCFD3834B
:10505000C28340815181840F951FC817D90761F41D
:105060004E5F5F4F88819981480F591F518340835C
:105070008A819B81938382832115310509F0B0CF0A
:10508000F093B105E093B0059ECFFD01DC01C0CFE8
:1050900013821282D7CFFB01DC0105900D92002014
:1050A000E1F70895A1E21A2EAA1BBB1BFD010DC05A
:1050B000AA1FBB1FEE1FFF1FA217B307E407F507C8
:1050C00020F0A21BB30BE40BF50B661F771F881FA4
:1050D000991F1A9469F760957095809590959B013A
:1050E000AC01BD01CF010895EE0FFF1F0590F491B3
:1050F000E02D099481E090E0F8940C94BC28FB0129
:10510000DC0104C08D910190801921F44150504080
:10511000C8F7881B990B0895FB01DC0102C00190C0
:105120000D9241505040D8F708956817790768F4F8
:10513000FB01DC01E40FF51FA40FB51F02C00290B4
:105140000E9241505040D8F708950C948C28DC0101
:1051500001C06D9341505040E0F70895FB01DC0120
:105160004150504030F08D910190801919F4002089
:0C517000B9F7881B990B0895F894FFCF45
:10517C00FF0000B205800000010203040500044D8D
:10518C0051545404FFFFFFFFFFFF00000000771A8B
:10519C00721A2A0BA407A508E707B907BE1AF50867
:1051AC000408A11AE5088B1AD308F80800000000BF
:1051BC007B0E00000000CA0E00000000C309A0090D
:1051CC002A0B290B00000000CD0118015A011A020C
:1051DC008B0169017D0100000000360F0D0A007380
:1051EC00656E64696E6700416464656420636F6E0C
:1051FC007461637420746F2070696E20004D51547B
:04520C005431000019
:107E0000112484B714BE81FFF0D085E080938100F7
:107E100082E08093C00088E18093C10086E0809377
:107E2000C20080E18093C4008EE0C9D0259A86E02C
:107E300020E33CEF91E0309385002093840096BBD3
:107E4000B09BFECF1D9AA8958150A9F7CC24DD24C4
:107E500088248394B5E0AB2EA1E19A2EF3E0BF2EE7
:107E6000A2D0813461F49FD0082FAFD0023811F036
:107E7000013811F484E001C083E08DD089C08234E0
:107E800011F484E103C0853419F485E0A6D080C0E4
:107E9000853579F488D0E82EFF2485D0082F10E0AE
:107EA000102F00270E291F29000F111F8ED06801E7
:107EB0006FC0863521F484E090D080E0DECF843638
:107EC00009F040C070D06FD0082F6DD080E0C81688
:107ED00080E7D80618F4F601B7BEE895C0E0D1E017
:107EE00062D089930C17E1F7F0E0CF16F0E7DF06D8
:107EF00018F0F601B7BEE89568D007B600FCFDCFD4
:107F0000A601A0E0B1E02C9130E011968C91119780
:107F100090E0982F8827822B932B1296FA010C0160
:107F200087BEE89511244E5F5F4FF1E0A038BF0790
:107F300051F7F601A7BEE89507B600FCFDCF97BE46
:107F4000E89526C08437B1F42ED02DD0F82E2BD052
:107F50003CD0F601EF2C8F010F5F1F4F84911BD097
:107F6000EA94F801C1F70894C11CD11CFA94CF0C13
:107F7000D11C0EC0853739F428D08EE10CD085E9AC
:107F80000AD08FE07ACF813511F488E018D01DD067
:107F900080E101D065CF982F8091C00085FFFCCF94
:107FA0009093C60008958091C00087FFFCCF809118
:107FB000C00084FD01C0A8958091C6000895E0E648
:107FC000F0E098E1908380830895EDDF803219F02E
:107FD00088E0F5DFFFCF84E1DECF1F93182FE3DFCA
:107FE0001150E9F7F2DF1F91089580E0E8DFEE27F6
:047FF000FF270994CA
:027FFE00040479
:0400000300007E007B
:00000001FF