:100000000C945D000C940C250C94E0240C945D245D
:100010000C94DA230C9440230C9485000C948500F6
:100020000C9485000C9485000C9485000C9485003C
:100030000C9485000C9485000C9485000C9485002C
:100040000C94F6220C9485000C94C4220C949E22ED
:100050000C9485000C9485000C9485000C9485000C
:100060000C9485000C94850000000008000201003B
:100070000003040700000000000000000000000072
:10008000250028002B0000000000240027002A0083
:10009000040404040404040402020202020203032E
:1000A0000303030301020408102040800102040836
:1000B0001020010204081020832511241FBECFEF59
:1000C000D8E0DEBFCDBF12E0A0E0B1E0EAE3F2E6A7
:1000D00002C005900D92AA34B107D9F726E0AAE430
:1000E000B2E001C01D92A63AB207E1F710E0CDE5FB
:1000F000D0E004C02197FE010E948F2FCC35D1079C
:10010000C9F70E9435260C941B310C940000CF9344
:10011000DF93EC01FA013296E60FF71FDC019D0137
:100120002C1B3D0BCF01861B970B4D91442311F0E7
:100130004193F5CFAC01421B530B640F751FFB01BC
:100140003297308361507109FB012083DF91CF9199
:100150000895FC01ED56FF4FDB0112964D915D9124
:100160006D917C9115974283538364837583389690
:100170002BE537E031832083329711821082089576
:1001800020E3FC0120833296862F82958F706F705A
:100190006A3030F4605D6293682F8111F5CF089565
:1001A000695CF9CF90E0FC01EC55FF4F249180573A
:1001B0009F4FFC018491882399F090E0880F991F4C
:1001C000FC01EA57FF4FA591B491FC01E458FF4FA1
:1001D000859194918FB7F894EC91E22BEC938FBFBB
:1001E0000895AF92BF92CF92DF92EF92FF920F935A
:1001F0001F93CF93DF936C017B018B01040F151FBD
:10020000EB015E01AE18BF08C017D10759F0699124
:10021000D601ED91FC910190F081E02DC601099588
:10022000892B79F7C501DF91CF911F910F91FF9035
:10023000EF90DF90CF90BF90AF900895FC01538D69
:10024000448D252F30E0842F90E0821B930B5417B0
:1002500010F0CF96089501970895FC01918D828D3D
:10026000981761F0A28DAE0FBF2FB11D5D968C91D6
:10027000928D9F5F9F73928F90E008958FEF9FEF15
:100280000895FC01918D828D981731F0828DE80FD1
:10029000F11D858D90E008958FEF9FEF0895FC018B
:1002A000918D228D892F90E0805C9F4F821B910958
:1002B0008F739927089581E695E00E944F0121E010
:1002C000892B09F420E0822F089580E090E0892BAB
:1002D00029F00E945B0181110C9400000895FC013B
:1002E000A48DA80FB92FB11DA35ABF4F2C91848D97
:1002F00090E001968F739927848FA689B7892C93F4
:10030000A089B1898C91837080648C93938D848D46
:10031000981306C00288F389E02D80818F7D808349
:100320000895EF92FF920F931F93CF93DF93EC0109
:1003300081E0888F9B8D8C8D98131AC0E889F9898C
:10034000808185FF15C09FB7F894EE89FF8960838F
:10035000E889F98980818370806480839FBF81E010
:1003600090E0DF91CF911F910F91FF90EF90089552
:10037000F62E0B8D10E00F5F1F4F0F731127E02E2D
:100380008C8D8E110CC00FB607FCFACFE889F98965
:10039000808185FFF5CFCE010E946F01F1CFEB8DFB
:1003A000EC0FFD2FF11DE35AFF4FF0829FB7F89439
:1003B0000B8FEA89FB8980818062CFCFCF93DF9357
:1003C000EC01888D8823B9F0AA89BB89E889F9896D
:1003D0008C9185FD03C0808186FD0DC00FB607FCA2
:1003E000F7CF8C9185FFF2CF808185FFEDCFCE01D5
:1003F0000E946F01E9CFDF91CF91089590E0FC0159
:10040000E859FF4F2491FC01EC55FF4F3491FC015A
:10041000E057FF4FE491EE23C9F0222339F0233057
:1004200001F1A8F4213019F1223029F1F0E0EE0FAA
:10043000FF1FE458FF4FA591B4918FB7F894EC914A
:10044000611126C030953E233C938FBF089527301D
:10045000A9F02830C9F0243049F7809180008F7DC1
:1004600003C0809180008F7780938000DFCF84B5B8
:100470008F7784BDDBCF84B58F7DFBCF8091B000BB
:100480008F778093B000D2CF8091B0008F7DF9CF6D
:100490003E2BDACF3FB7F8948091290390912A033D
:1004A000A0912B03B0912C0326B5A89B05C02F3F2C
:1004B00019F00196A11DB11D3FBFBA2FA92F982F8A
:1004C0008827BC01CD01620F711D811D911D42E085
:1004D000660F771F881F991F4A95D1F708958F924D
:1004E0009F92AF92BF92CF92DF92EF92FF924B0119
:1004F0005C010E944A026B017C010E944A026C1955
:100500007D098E099F09683E734081059105A8F316
:1005100021E0821A9108A108B10888EEC80E83E094
:10052000D81EE11CF11C81149104A104B10429F727
:10053000FF90EF90DF90CF90BF90AF909F908F9003
:1005400008952FB7F8946091250370912603809148
:100550002703909128032FBF08958823E9F0A7E38C
:10056000B3E025E014969C91149789130DC095E093
:10057000899FF0011124E95CFC4F848114968C93CF
:100580001382128214820895992331F0929FD00130
:100590001124A95CBC4FE6CF08958823A1F0909167
:1005A0004104992381F08F3F29F480914604909172
:1005B0004704089595E0899FF0011124E95CFC4F00
:1005C00082819381089590E080E008958EBD0000BF
:1005D0000DB407FEFDCF8EB508951F93CF93DF9323
:1005E000182FC62FD42F60E08AE00E94FE018C2FC6
:1005F0008F71812B0E94E6028D2F0E94E60261E03E
:100600008AE0DF91CF911F910C94FE01CF93DF938D
:10061000D82FD076909100019D17A1F0C82F43E00C
:100620006FE180EA0E94ED024C2F50E085E0559585
:1006300047958A95E1F743706FE180E80E94ED02EB
:10064000D0930001DF91CF9108951F93CF93DF9353
:10065000C82F162FD72F0E940603412F6C2F80E43E
:100660000E94ED0261E06C0F4D2F80E4DF91CF918D
:100670001F910C94ED02EF92FF920F931F93CF9373
:10068000DF938B017A018F3F59F095E0899FE0015C
:100690001124C95CDC4F68817981600F711F10C023
:1006A0006091440470914504600F711FC4E4D4E06C
:1006B000611588E0780778F36F5F7740C4E4D4E091
:1006C00080E00E9425038A819B81801B910BE816A4
:1006D000F90608F4C701DF91CF911F910F91FF90A8
:1006E000EF900895EF92FF920F931F93CF93DF93B4
:1006F000EB0170E060E00E943B038C0160E08AE067
:100700000E94FE018AE30E94E6027E01E00EF11ED5
:10071000EC16FD0629F080E00E94E6028993F8CFEE
:1007200061E08AE00E94FE01C801DF91CF911F9134
:100730000F91FF90EF9008956091420470914304EF
:100740006115710529F0615071098CE00C94250345
:100750006FEF77E0FACFCF93DF93C82FD62F0E94A9
:1007600006034D2F6C2F80E4DF91CF910C94ED02A6
:10077000CF93DF93D82FC62F60E08AE00E94FE015E
:100780008C2F8F718D2B0E94E602C7FF03C080E083
:100790000E94E60280E00E94E602C82F61E08AE043
:1007A0000E94FE018C2FDF91CF910895CF93C82F27
:1007B0000E9406036C2F80E0CF910C94B803CF9376
:1007C000DF93EB01682F84ED0E94AB03BE0186ED41
:1007D0000E942503CFE0D0E08AEE0E94D60380FF7E
:1007E00008C06AE070E080E090E00E946F0221970C
:1007F00099F7DF91CF910895CF93C62FBC0182E086
:100800000E94250360E08AE00E94FE018AE70E94C0
:10081000E6028C2F0E94E60261E08AE0CF910C9400
:10082000FE01CF93BC0180E00E94250360E08AE0D6
:100830000E94FE018AE30E94E60280E00E94E60236
:10084000C82F61E08AE00E94FE018C2FCF910895AD
:10085000CF92DF92EF92FF920F931F93CF93DF938C
:100860006C018B014130510579F4CB010E941104D8
:10087000682FC601DF91CF911F910F91FF90EF90EC
:10088000DF90CF900C94FC03EA01C60FD71F7E01C6
:1008900081E0E81AF10880E10E942503B60184E1B5
:1008A0000E9425030115184048F4E11488E0F80679
:1008B00028F07E0181E0E81A88E0F80AB70182E1B9
:1008C0000E94250340E16FE180EA0E94ED0240E2D0
:1008D0006FE180E80E94ED026FE180E00E94B803C2
:1008E00085FF07C061E070E080E090E00E946F0249
:1008F000F3CFDF91CF911F910F91FF90EF90DF9099
:10090000CF900895CF92DF92EF92FF920F931F93B3
:10091000CF93DF938C01609137037091380361505E
:10092000784EC12C98E1D92EE7E3F3E020E0D0E047
:10093000C0E045E03481CB01332341F0439FC00147
:100940001124895C9C4FDC018D919C91E080F180A9
:100950008E199F090280F381E02D8E1B9F0B80175B
:10096000910799F4B5E02B9FE0011124C95CDC4F9D
:10097000ECE3F3E081E022813381232B09F453C0BF
:1009800035968F5F8533B9F744C00817190748F4C7
:100990008C159D0530F4249FE0011124C95CDC4FC7
:1009A0006C01311121C0209719F7C7E3D3E085E02E
:1009B000D82E8C8128813981EA80FB808823D9F068
:1009C000E20EF31E8D9DE0011124C95CDC4F6881AD
:1009D0007981E616F70669F34A815B81C7010E94B7
:1009E0002804F982E882E5CF349FF0011124E95C04
:1009F000FC4F232F9FCF8091370390913803821BA8
:100A0000930B8E199F098150984E8017910708F01B
:100A1000AFCF80E0DF91CF911F910F91FF90EF90CA
:100A2000DF90CF900895288139814A815B81240F1E
:100A3000351F31832083138302839C8194838C83AD
:100A4000E9CF0F931F93DB01E42FA80190E0EF3F64
:100A5000E9F065E0E69FF0011124E95CFC4F60815C
:100A60007181620F731F02C06F5F774025E0289F7E
:100A7000F001299FF00D1124E95CFC4F80819181E8
:100A80008A0F9B1F1F910F910C94280460914404BE
:100A900070914504620F731F6115E8E07E0720F72F
:100AA000E4E4F4E0DCCFCF92DF92EF92FF920F9379
:100AB0001F93CF93DF936B018A01790195E0899FA2
:100AC000E0011124C95CDC4F688179816C0D7D1DCA
:100AD00082E00E9425030A80DB81C02DCC19DD094C
:100AE000EC16FD0608F4E70160E08AE00E94FE01D2
:100AF0008AE70E94E6027801EC0EFD1EE016F10680
:100B000031F0F80181918F010E94E602F7CF61E098
:100B10008AE00E94FE01CE01DF91CF911F910F91DB
:100B2000FF90EF90DF90CF900895DC011C96ED913F
:100B3000FC91309731F086819781982789279827F3
:100B4000089590E080E00895CF93DF93FC01EB01DE
:100B5000AC85BD851097A9F012969C9112971396BB
:100B60008C9113973C9111962C9141EA51E051835D
:100B700040833283238394838583CF01DF91CF9198
:100B8000089581EA91E09183808312821382148216
:100B90001582F3CFCF93DF931F92CDB7DEB7DC0181
:100BA000ED91FC91048CF58DE02D41E050E0BE010B
:100BB0006F5F7F4F09951816190634F4898190E00C
:100BC0000F90DF91CF9108958FEF9FEFF9CFCF93E3
:100BD000DF93EC018A89882379F09A01AB016E8555
:100BE0007F850E9453052E853F85280F391F3F873B
:100BF0002E87DF91CF91089590E080E0FACFCF93D8
:100C0000DF931F92CDB7DEB76983DC01ED91FC91D4
:100C10000280F381E02D41E050E0BE016F5F7F4F25
:100C200009950F90DF91CF91089580E00895FB0121
:100C300041505109460F571FE417F50778F42081FA
:100C400030E0322F22276181260F311D820F931F42
:100C50008217930708F401963296EECFE417F50752
:100C600051F4208130E0322F2227820F931F821708
:100C7000930708F401960895CF92DF92EF92FF92C6
:100C80000F931F93CF93DF93C82FE090D002F12CE6
:100C9000FE2CEE244091D1024451550BE40EF51E7A
:100CA00048E050E06AED72E0C7018C0F911D0E9490
:100CB000170608E0C13129F00091EE02069506956D
:100CC0000C7310E0A80162EE72E00E941706EC01BE
:100CD0000E151F0508F042C0A701401B510BB801BB
:100CE0006E5D7F4F8091A0020E943B0301977C01C3
:100CF00060E08AE00E94FE018AE30E94E602D12CB5
:100D0000C12CCE14DF04B8F480E00E94E602082F64
:100D100010E0102F002780E00E94E602800F912F44
:100D2000911DC80FD91FC817D90708F4219682E072
:100D3000C80ED11CE6CFEC14FD0461F480E00E94E3
:100D4000E60290E0982F8827C80FD91FC817D90747
:100D500008F4219661E08AE00E94FE019C2F8D2F0D
:100D6000CD2B11F48FEF9FEFDF91CF911F910F915A
:100D7000FF90EF90DF90CF90089544E150E06EEC4B
:100D800072E090E080E00E941706009721F098271B
:100D90008927982708958FEF9FEF0895CF92DF92CC
:100DA000EF92FF920F931F93CF93DF93C0919F0217
:100DB000C1FF5EC020919D0230E040EC52E070E047
:100DC00060E08091A0020E945305CD7FC0939F02F6
:100DD000E090A00280914104882309F474C085E06A
:100DE000E89EF0011124E95CFC4FC081D18121977C
:100DF000028113810C0F1D1FCE010E941104F82ED9
:100E0000882321F060E0CE010E94FC03BE0184E053
:100E10000E942503B80186E00E9425038AE0C82EBF
:100E2000D12C40E86FE180E80E94ED0240E86FE1DC
:100E300080EA0E94ED024AE06CE180EA0E94ED0245
:100E400048E06FE180E80E94ED0204E610E08CE1EA
:100E50000E94D6038A7029F50115110521F1015070
:100E600011096AE070E080E090E00E946F02EFCF2D
:100E7000C091B802D091B902209721F41092A0023B
:100E800080E027C0CE010E9482048093A0028823C4
:100E9000B9F39E0140EC52E070E060E00E9453051F
:100EA00097CF012B51F448E06FE180EA0E94ED02F8
:100EB00081E0C81AD10809F0B4CFFF2021F06F2DCE
:100EC000CE010E94FC038E2D0E94AD021092A00262
:100ED00081E0DF91CF911F910F91FF90EF90DF9014
:100EE000CF9008950F931F93CF93DF93EC018C0164
:100EF0000B5F1F4F89910E94AD02FE013197108256
:100F0000C017D107B9F7DF91CF911F910F910895C5
:100F1000CF93DF93EC0188810E94AD02FE01CE01E8
:100F2000049621812193E817F907D9F71C82DF91F4
:100F3000CF910895CF93DF93EC01E881F981008C84
:100F4000F18DE02D0995882339F08C859D850296D9
:100F5000DF91CF910C947207DF91CF9108950F9399
:100F60001F93CF93DF931F92CDB7DEB78C01DC01C7
:100F7000ED91FC91008CF18DE02D09958823B1F065
:100F8000D8011C96ED91FC918281882379F041E093
:100F900050E0BE016F5F7F4F0E947203898190E035
:100FA0000F90DF91CF911F910F9108958FEF9FEFD9
:100FB000F7CFCF93DF931F92CDB7DEB7DC01ED9172
:100FC000FC910288F389E02D41E050E0BE016F5FA3
:100FD0007F4F09951816190634F4898190E00F9017
:100FE000DF91CF9108958FEF9FEFF9CF6F927F92AE
:100FF0008F929F92AF92BF92CF92DF92EF92FF9229
:101000000F931F93CF93DF938C014B01EA01DC0117
:10101000ED91FC91008CF18DE02D0995882309F468
:101020007BC0D8011C96ED91FC918281882309F444
:1010300076C07E018EE1682EBE016E197F09680DB3
:10104000791DD8011C96ED91FC91A70182810E9427
:1010500072036C01F801A484B584D50112967C90CA
:10106000872D0E94CD02C816D906E9F5EC18FD08B7
:10107000C50102960E948807F801A485B585EC9108
:101080006E9EF0011124E958FB4F818D84FF09C049
:1010900011968C911197982F967019F4886011967B
:1010A0008C93D8011C96ED91FC911D978281811142
:1010B0002EC0818182FF05C011821D961C921E9256
:1010C0001C97CE018E199F09DF91CF911F910F912F
:1010D000FF90EF90DF90CF90BF90AF909F908F9058
:1010E0007F906F900895B5E07B9EF0011124E95C3C
:1010F000FC4F808191818C0D9D1D91838083828125
:1011000093818C199D0993838283CE01DDCFE114F5
:10111000F10409F091CFF9CF8FEF9FEFD5CF90E099
:1011200080E0D2CFEF92FF920F931F93CF93DF9384
:10113000EC01E881F981008CF18DE02D099588237F
:10114000E1F00C851D85780182E0E80EF11C095F55
:101150001F4FD0E0C0E0F70181917F010E94CD02D6
:10116000C80FD91FE016F106B1F7CE01DF91CF917C
:101170001F910F91FF90EF900895D0E0C0E0F5CF60
:10118000FC01448555854115510551F0FB0124852D
:1011900035852115310521F081E04217530709F00B
:1011A00080E00895DC011C96ED91FC91309731F0C0
:1011B0008281811105C081818170089580E0089548
:1011C00081E00895DC01ED91FC91028CF38DE02D1E
:1011D000099591E089270895DC01ED91FC91048C3B
:1011E000F58DE02D0994CF93DF93FC01A481B581A7
:1011F000109721F480E0DF91CF910895EC01ED91FB
:10120000FC9111970688F789E02DCD010995811190
:101210001EC0FE01E156FF4F80819181892B51F75D
:101220008DEF9FEF918380838C819D81DC01ED9117
:10123000FC910680F781E02D09958C819D81DC0170
:10124000ED91FC910488F589E02D0995D3CF81E0DB
:10125000D2CFCF92DF92EF92FF920F931F93CF9353
:10126000DF9300D000D0CDB7DEB78C01F90180E06C
:10127000DE0111967D019E2F9F77EE0FEF2FEE1F5F
:10128000FF0BF195309709F09068D701A80FB11DB9
:101290009C938F5F309779F790E0FA01E81BF90B88
:1012A0006483FA01E81BF90B3596D701BD016E196D
:1012B0007F09681779071CF46D916193F7CFFC01E2
:1012C0003196D80114968D919C917F01E20EF31E08
:1012D000BA016E1B7F0B6B5F7F4FDC01ED91FC91C0
:1012E0000280F381E02DA70109956C010E94A10203
:1012F000F801E857FF4F608371838283938381E015
:10130000EC14FD0409F080E00F900F900F900F9007
:10131000DF91CF911F910F91FF90EF90DF90CF90D1
:101320000895EF92FF920F931F93CF93DF93EC01F9
:101330008B017A010E94A102FE01E857FF4F6083F2
:101340007183828393838C819D81DC01ED91FC917B
:101350000280F381E02DA701B801DF91CF911F91A9
:101360000F91FF90EF9009941F93CF93DF93EC01BF
:10137000162F0E94A102FE01E857FF4F6083718380
:10138000828393838C819D81DC01ED91FC9101909E
:10139000F081E02D612FDF91CF911F910994CF92C1
:1013A000DF92EF92FF920F931F93CF93DF93EC01A5
:1013B0008B010E94A1026B017C018C819D81DC016B
:1013C000ED91FC910084F185E02D0995892B69F45C
:1013D0000E94A1026C197D098E099F0968397A4320
:1013E0008105910550F380E00CC08C819D81DC016A
:1013F000ED91FC910284F385E02D0995F80180833D
:1014000081E0DF91CF911F910F91FF90EF90DF90DE
:10141000CF9008952F923F924F925F926F927F925A
:101420008F929F92AF92BF92CF92DF92EF92FF92F4
:101430000F931F93CF93DF9300D0CDB7DEB78C010E
:101440004B016C0126E0C20ED11CB6010E94CF09EF
:10145000811118C0F12CE12CC7010F900F90DF9182
:10146000CF911F910F91FF90EF90DF90CF90BF90A1
:10147000AF909F908F907F906F905F904F903F9034
:101480002F900895D8011696BC91BA83198218013D
:10149000E7E02E0E311CEE24E394F12CB12CA12CAC
:1014A000412C512C32014394BE016F5F7F4FC80124
:1014B0000E94CF09882371F2B7016F5F7F4F898146
:1014C000F10181931F01282F2F7730E0249DA00187
:1014D000259D500D349D500D1124A40EB51E27E0FE
:1014E000440C551C661C771C2A95D1F787FD35C026
:1014F000FA81F07FFA838FEF860FD4018C93F0335B
:1015000009F043C06C0D7D1DC8010E94CF098823DE
:1015100009F4A0CFB7016E5F7F4F6C0D7D1DC80130
:101520000E94CF09882309F495CFB7016D5F7F4FE3
:10153000D401EC91E00FF12FF11DC780D12CDC2CF0
:10154000CC248085C80ED11CF801868181FF03C0A0
:10155000F2E0CF0ED11C82E01BC07B01653071052B
:1015600009F0A2CFF801E156FF4F8FEF9FEF918373
:101570008083D80114968D919C91DC01ED91FC91B2
:101580000488F589E02D099565CF80E0D12CC12C28
:10159000482E512C7B01461A570A18012DE9220EBC
:1015A000311C8EEF682E77247A94C2018E0D9F1D18
:1015B0008A159B0588F5BE016F5F7F4FC8010E94A9
:1015C000CF09882309F446CFD1018D919C910097D2
:1015D000B1F0BA81B03399F4F4012081A301421B28
:1015E00051099A012E0D3F1DC216D30640F4DC01AD
:1015F000ED91FC910190F081E02D69810995B0E8B1
:10160000EB16F10428F48981F801EE0DFF1D8683A5
:10161000EFEFEE1AFE0AC9CFF801E356FF4F8081C3
:101620009181892B09F018CFF1E8EF16F10408F049
:1016300011CF12CF089590E080E00895FB01019052
:101640000020E9F73197AF01461B570BDC01ED9104
:10165000FC910280F381E02D09948F929F92AF92CA
:10166000BF92EF92FF920F931F93CF93DF93CDB76B
:10167000DEB7A1970FB6F894DEBF0FBECDBF7C01D9
:10168000FA01CB0119A2223008F42AE08E010F5D85
:101690001F4F822E912CB12CA12CBF01A5019401CA
:1016A0000E945E2FF901CA016A300CF5605DD80115
:1016B0006E938D01232B242B252B79F790E080E06E
:1016C000109721F0BD01C7010E941E0BA1960FB615
:1016D000F894DEBF0FBECDBFDF91CF911F910F9168
:1016E000FF90EF90BF90AF909F908F900895695CAE
:1016F000DECFCF93DF93BC0181E695E00E941E0B05
:10170000EC0163EA71E081E695E00E941E0B8C0F0C
:101710009D1FDF91CF910895662351F0613081F4D0
:10172000FC0183810E94FE0186EA91E00C94790B12
:1017300060E0FC0183810E94FE018FEA91E0F6CF18
:101740000895009729F0BC0181E695E00C941E0BEA
:1017500090E080E008958F929F92AF92BF92CF92D7
:10176000DF92EF92FF920F931F93CF93DF937C0151
:10177000EB016C0182E0C80ED11C4701E5E08E0E42
:10178000911C10E000E0F60141916F0150E070E023
:1017900060E02AE0CE010E942D0B5C01E881F98116
:1017A0000190F081E02D6EE2CE0109958A0D9B1D1E
:1017B000080F191FC814D90431F7F701458150E00B
:1017C00070E060E02AE0CE010E942D0B800F911F97
:1017D000DF91CF911F910F91FF90EF90DF90CF900D
:1017E000BF90AF909F908F9008950F931F93CF93CA
:1017F000DF93DC0120917504309176042F5F3F4F19
:1018000021158DE7380710F020E030E1522F432FEB
:10181000E9E4F4E0EF0180E08430A1F43093760451
:101820002093750430E020E02430310599F484E001
:101830008093F704F0E0E0E0CF01DF91CF911F91BA
:101840000F9108950C811D818F5F2B96041715074A
:1018500019F7D4CFC481D581C90101963B96CD2B10
:1018600009F52093F7048BE0829FF001839FF00D30
:101870001124E75BFB4F558344837783668310977E
:1018800099F484E0DF011D928A95E9F78BE0829F4D
:10189000D001839FB00D1124A75BBB4F80E4189645
:1018A0008C93CACF9C01C0CF8D919C91119791834D
:1018B000808312968D919C9193838283E7CF0F93BF
:1018C0001F93CF93DF93EC018B018C859D85892B32
:1018D00041F470E060E090E080E00E94F50B9D87AD
:1018E0008C87EC85FD8580E0309749F01027012733
:1018F0001027158304832E96D287C18781E0DF915C
:10190000CF911F910F910895CF93DF93DC011C9627
:10191000ED91FC913097B1F0EC01158214821286A2
:1019200011861D861C8689890E94AD0288890E94C5
:10193000AD028A890E94AD022E9686E0FE011192C8
:101940008A95E9F7DF91CF910895FC011382128205
:1019500088EE93E0A0E0B0E084839583A683B7830C
:101960008DE291E091838083158614863E9686E011
:10197000DF011D928A95E9F70895DC0181EA91E083
:101980008D939D9384E0FB0101900D928A95E1F780
:101990000895EF92FF920F931F93CF93DF93FC0173
:1019A00010925005C8EFD4E0DE0130E020E028308E
:1019B000310569F490E0983009F042C01092B70206
:1019C0001092B6021092500528EF34E044C0CD01C9
:1019D000885F94400D911C9111970115110561F1DB
:1019E00012964D915C9113974115510529F1E080B4
:1019F000F1800E151F0501F5028113814017510773
:101A0000D9F420935005DC01A450BB4F86E0FB01C4
:101A100001900D928A95E1F78BE0829FF001839F00
:101A2000F00D1124E850FB4F1286DF91CF911F91EA
:101A30000F91FF90EF9008952F5F3F4F1B96B7CF08
:101A40009E0148815981452BB1F44A815B81452B28
:101A500091F49093500584E0D90101900D928A95FC
:101A6000E1F7D901149686E0FB0101900D928A9569
:101A7000E1F7F901D9CF9F5F2B969DCFEF92FF92AF
:101A80000F931F93CF93DF9300D000D000D0CDB73A
:101A9000DEB74091DE025091DF024F3F540731F430
:101AA0008091E0029091E102019619F180915D052B
:101AB00090915E0560912F03709130039B012095FA
:101AC0003095282B392B42175307A9F52091310364
:101AD0003091320320953095E0915F05F0916005DB
:101AE0002E2B3F2BE091E002F091E102E217F30789
:101AF00011F586E0E1E5F1E0A0ECB2E001900D9295
:101B00008A95E1F786E0E1E5F5E0A6ECB2E0019028
:101B10000D928A95E1F788E090E09093CD02809352
:101B2000CC028091B8029091B9020E969093B902BE
:101B30008093B802A5C08427952786239723892BF5
:101B400099F42091E0023091E10280915F0590913B
:101B500060058227932760913103709132038623B9
:101B60009723892B09F499C0809133039091340312
:101B70009093BD028093BC0280913503909136030F
:101B80009093BF028093BE02E090BC02F090BD0231
:101B90000091BE021091BF02E8EFF4E080E08830CF
:101BA00009F084C08093500546E050E06FEF70E08C
:101BB00080EC92E00E94EE3086E0E0EEF2E0DF01A1
:101BC000282F1D922A95E9F7E1E5F5E0A6ECB2E0B1
:101BD000982F01900D929A95E1F7E1E5F5E0A6EDD9
:101BE000B2E0982F01900D929A95E1F7F092E702FA
:101BF000E092E6021093E9020093E80220915D056D
:101C000030915E053093DD022093DC0220915F0568
:101C1000309160053093DF022093DE0220E031E056
:101C20003093D5022093D4023093CF022093CE027A
:101C300028E030E03093D1022093D0028093D2028A
:101C400094E09093D30228E036E03093CD022093C5
:101C5000CC0226EF32E03093BB022093BA022AE294
:101C600030E03093B9022093B802BE016F5F7F4F1E
:101C7000DB011D928A95E9F78CEB92E00E94C90C7A
:101C800026960FB6F894DEBF0FBECDBFDF91CF9181
:101C90001F910F91FF90EF9008955093BD024093D4
:101CA000BC023093BF022093BE026ECF20813181EF
:101CB000E216F306E1F42281338102171307B9F427
:101CC0009481911103C09581992329F08093500547
:101CD000349686E011CF96819111F8CF97819111BA
:101CE000F5CF90859111F2CF91859111EFCF8F5F54
:101CF0003B9655CFCF93DF93EC010E943E0D809130
:101D00009F022091B8023091B9022A32310549F47C
:101D10001092A0028D7F80939F02DF91CF910C944F
:101D2000CE061D821C828260F6CF9C01AB017093AF
:101D3000B5026093B4021616170654F48091B202ED
:101D40009091B3028217930719F0B9010C94D33024
:101D50000895EF92FF920F931F93CF93DF93E0913B
:101D6000A902F091AA02C185D285209709F451C039
:101D7000E090AF02E1FE1FC08A8181111CC08091FA
:101D8000E2029091E302978386838091DA02909138
:101D9000DB02918380838091DC029091DD0293834A
:101DA00082838091E6029091E702982789279827FD
:101DB0000897E1F41A82E3FE2CC08D81882349F153
:101DC0008C818093A0028AE280939D026881798150
:101DD0006A5271098091BA029091BB02DF91CF9152
:101DE0001F910F91FF90EF900C94950E0E9482042A
:101DF000F82E8A838823F9F20E94CD028C012AE210
:101E000030E040919E0270E060E08F2D0E9421053D
:101E1000D2CFDF91CF911F910F91FF90EF90089556
:101E2000AF92BF92CF92DF92EF92FF920F931F93E8
:101E3000CF93DF93E090B002F090B102F701C48D30
:101E4000D58DD090AF02209781F5D6FC03C0F12C40
:101E5000E12CC6C0E5E5F2E090E080E021812111AF
:101E60007CC042E1489F9001499F300D1124E90157
:101E7000CB5ADD4FC70187579440959587956FEEF4
:101E80007EEE869FA001879F500D969F500D1124D6
:101E9000488381E08983295A3D4F81E1F9011192FC
:101EA0008A95E9F7F701D58FC48FD1FE30C0009134
:101EB000B8021091B9020115110549F189818670A6
:101EC00031F55E01F2E0AF0EB11CC12CF50181913C
:101ED0005F01811149C0C8010E948204F501319758
:101EE0008083882309F440C02091BA023091BB025C
:101EF000205C324040919E0270E060E00E9421052B
:101F0000F4E0CF1204C0F701818D8061818F898157
:101F100083FF0AC0877F89838D2D82608093AF0203
:101F2000F701818D8F7E818F1091AF0214FD02C069
:101F300017FF26C0CE0107960E9472078A81882368
:101F4000E9F0F701848195819F838E838981846084
:101F50008983F701158E148E7ACF0196729684309C
:101F6000910509F07BCF73CFC394F5E0CF12AECFCC
:101F700080919F028E7F80939F02C5CF1982E9CF07
:101F800010FF04C0CE0107960E9488071C7009F458
:101F900057C08F81882309F453C09885911136C0AA
:101FA000EC84FD84E114F10409F451CF95E0899F9C
:101FB000F0011124E95CFC4FF382E282C090BA0286
:101FC000D090BB02F601E05CF2406F01E0939D020D
:101FD000DD24C6018E0D9F1D0097F9F41092A0021A
:101FE000B7018091BA029091BB020E94950EF092C7
:101FF000B902E092B802DF91CF911F910F91FF904B
:10200000EF90DF90CF90BF90AF9008950E94CD02E7
:102010007C01892B09F41BCFD1CF0E9482048093CD
:10202000A0028823E9F2870130E020E04F81B60169
:102030000E94210580919F02826080939F02D0CFF1
:10204000898181FF04CF8F81811108C01982F70136
:10205000158E148E80E18093AF02F9CEF701818D49
:102060008061818FF4CEAF92BF92CF92DF92EF92D8
:10207000FF921F93CF93DF93843009F458C1C0912E
:10208000B002D091B10226EF32E03093BB02209330
:10209000BA023093B3022093B2028330C9F4898D1F
:1020A0008F70833009F044C088899989892B09F0A1
:1020B0003FC088E08093AF020E94100F8091AF0272
:1020C00085FF13C61092B5021092B402198E51C04A
:1020D000823009F005C18091AE028F5F8093AE021D
:1020E000811113C08091AD028F5F8093AD02811189
:1020F0000CC08091AC028F5F8093AC02811105C04F
:102100008091AB028F5F8093AB021092B902109264
:10211000B8021092B5021092B402898D982F9D7F5B
:10212000953059F48A8D8F5F8A8F883709F4198E1C
:102130001092B9021092B80231C28823C9F32889DB
:102140003989232B09F4C7C09A8D2FEF290F2A8FC5
:102150009111EECF9B8D983031F02FEF280F223068
:1021600050F4953041F4198E80E88093AF020E94BC
:10217000100F84E184C0392F953008F034E023E05B
:1021800001C0220F3A95EAF72A8F9F5F9B8F8F70CD
:10219000833009F47DC008F06AC0813009F406C4B8
:1021A000823031F61092EF028091EF0282608093CC
:1021B000EF0282E08093F60294E09093F70280931E
:1021C000F8021092F9028CE290E09093B9028093A9
:1021D000B80280E68093EE0288858093EA028985C2
:1021E0008093EB028A858093EC028B858093ED02CD
:1021F0008C858093E6028D858093E7028E8580939F
:10220000E8028F858093E90286E08093D7028C8173
:102210009D819093E3028093E2028E819F8190934F
:10222000E5028093E40280915D0590915E059093B4
:10223000DB028093DA0280915F05909160059093B4
:10224000DD028093DC02888199819093DF02809384
:10225000DE028A819B819093E1028093E002898D66
:1022600084FFC9C51092F1021092F002D5C28630E7
:1022700029F0883019F0843009F05ACF81E1809339
:10228000EF0288E290E09093B9028093B80221C0F7
:1022900084E08093AF020E94100F8091B20290916F
:1022A000B3029093BB028093BA028091B4029091E2
:1022B000B502892B09F44AC588899989009709F4E0
:1022C00045C588969093B9028093B80288E18093BF
:1022D000EF0280E57FCF8F70833009F029CFE9CE00
:1022E000853009F0A9C0E091A902F091AA02848189
:1022F0009581892B09F41CCF1092B1021092B00283
:102300008AEE92E09093BB028093BA029093B3025C
:102310008093B2021092B5021092B4021092B902E8
:102320001092B80288E08093AF020E94A90E8091BB
:10233000B4029091B502009709F4FACE9C01245E94
:102340003F4F3093B9022093B8023093D0022093CC
:10235000D102E091A902F091AA0220852093D60231
:1023600021E12093D70208969827892798279093F0
:10237000E7028093E6021092E9021092E80284815B
:1023800095819093E3028093E202868197819093F6
:10239000E5028093E40280915D0590915E05909343
:1023A000DB028093DA0280915F0590916005909343
:1023B000DD028093DC02808191819093DF02809323
:1023C000DE02828193819093E1028093E00286EFA6
:1023D00092E09093BB028093BA0281E10E943C0696
:1023E00080959095009709F45BC19093E9028093E2
:1023F000E80285E48093CE021092CF021092D502BB
:102400001092D4028091A1029091A2020196909321
:10241000A2028093A1029093D2028093D3021092E1
:10242000D9021092D8020E94BD0680959095909393
:10243000D9028093D802B2C08091CE02853409F0CF
:1024400077CEC090D002D12CDC2CCC248091D1024C
:10245000C80ED11C8091B8029091B9028C159D05CF
:1024600008F466CED092B902C092B8028091D4022C
:102470008F7309F05DCE1091D502111159CEA09045
:102480005D05B0905E05A114B10439F480915F053B
:1024900090916005892B09F441C02091DE023091B2
:1024A000DF028091D702813149F52F3F320739F49D
:1024B0008091E0029091E102019609F47DC0809143
:1024C0002F0390913003809590958A299B2982173C
:1024D0009307A1F4809131039091320380959095F8
:1024E00040915F0550916005842B952B4091E0024F
:1024F0005091E1024817590709F45EC0A216B306CD
:1025000009F016CE2091E0023091E10280915F0542
:10251000909160052817390709F00ACE0E94BD0680
:10252000019609F005CE8091D702863009F4BBC030
:10253000813109F441C0813009F0FACD8091E20285
:10254000883009F0F5CD1092E2028091E40290917A
:10255000E502873F4FEF940768F109969093E502F3
:102560008093E4028091DA029091DB029093DF0283
:102570008093DE028091DC029091DD029093E10273
:102580008093E002B092DB02A092DA0280915F05B4
:10259000909160059093DD028093DC021092AF026F
:1025A000DF91CF911F91FF90EF90DF90CF90BF9080
:1025B000AF9008950896D2CF8CE1C81AD108D09276
:1025C000B902C092B8028AEE92E09093BB02809367
:1025D000BA028091E8029091E902892BE1F44091DE
:1025E000E4025091E5026091E2027091E302A09151
:1025F000DA02B091DB02C091DC02D091DD02E9E4A5
:10260000F4E025E734E02E173F0761F43093AA0287
:102610002093A9028DCD81E10E943C06019609F02C
:1026200087CDDDCF848195810097C1F1841795070F
:10263000A9F586819781009719F08617970771F59C
:10264000808191810097D1F4E280F380EF28F1F44A
:10265000F093AA02E093A9021092B1021092B00284
:1026600082E08093AF028AEE92E09093B30280936F
:10267000B2021092B5021092B40257CE8F3F980763
:1026800029F4E280F380EF20E09411F38A179B078E
:1026900029F482819381C817D907D1F23B96B3CF31
:1026A0008FEF9FEFA2CE86E00E943C06019609F0D4
:1026B0003FCD4091E4025091E5026091E2027091B9
:1026C000E3028091DA029091DB02E091DC02F0916A
:1026D000DD02C7E7D4E0298D2223A9F0AC81BD81BA
:1026E0004A175B0781F4AE81BF816A177B0759F4F3
:1026F000A881B9818A179B0731F4AA81BB81EA17A7
:10270000FB0709F45BC16E9624E0C13DD20719F3C3
:1027100010F38091EF028F73823061F45093A8021E
:102720004093A702EFEEF4E080E0843009F091C01E
:102730008093F7048091EF0282FDFACC84E18093CC
:10274000EF0288E290E09093B9028093B80280E5AE
:102750008093EE023091E9028091ED028093E902CC
:102760002091E8028091EC028093E8022093EC0231
:102770009091E7028091EB028093E7029093EB0245
:102780008091E6028093F7044091EA024093E602CA
:102790008093EA023F5F3093ED0231110DC02F5F4D
:1027A0002093EC02211108C09F5F9093EB029111DE
:1027B00003C08F5F8093EA028091E2029091E3026E
:1027C0009093A8028093A7022091E4023091E50241
:1027D0003093E3022093E2029093E5028093E402B7
:1027E0008091DA029091DB029093DF028093DE0207
:1027F0008091DC029091DD029093E1028093E002EF
:10280000B092DB02A092DA0280915F0590916005A0
:102810009093DD028093DC0280E48093D602809165
:10282000B8029091B9029093D0028093D102109295
:10283000F5021092F4021092F3021092F20286E076
:102840000E943C06809590959093F3028093F2024B
:10285000D0CD219131918F5F4217530709F065CF99
:102860001092F704E7E7F4E090E080E0D0E0C0E009
:102870008430910531F484E08093F704209781F44B
:1028800057CC3E2F2F2FA18DA11163C08093F70449
:102890002EE1289FE001299FD00D1124C958DB4F5C
:1028A000D093B102C093B00283E08A8F888F1E8AD2
:1028B00084E08F8B1B8E5D834C837F836E8380913E
:1028C000DA029091DB02998388838091DC029091F7
:1028D000DD029B838A8381E0898F8091AB028C87A4
:1028E0008091AC028D878091AD028E878091AE027F
:1028F0008F8781E090E0998B888B8091E9028B87AC
:102900008091E8028A878091E70289878091E602B8
:10291000888781E090E00E946B258091EE02982FDD
:10292000907F913508F442C082958F708550990B45
:10293000880F991F880F991FE12FF0E0E817F9071A
:102940002CF4E054FD4F36A9311112C01093F70456
:102950002DC0A73031F4209731F0B28DAA8DAB177E
:1029600010F03C2F2D2F01967E96C32FD22F80CFB3
:10297000313011F41F5FE0CF27A93230D9F4243071
:10298000C9F41093F70480AD91AD89279827892762
:102990009093A8028093A702813042E0940710F040
:1029A00080E092E09B8B8A8B9D8B8C8B80E1809367
:1029B000EF02FACB222351F2120FBECFD093B10215
:1029C000C093B0021092AF029091EF0292FF07C045
:1029D000198E80E28093AF020E94100FA9CB8091E4
:1029E000EE0282958F70880F880F8093F704C81AC3
:1029F000D108760184E1E81AF108F092B902E09278
:102A0000B8022F70223021F4892F8F738231D1F0D8
:102A1000E114F10419F4892F8370A1F039852A8516
:102A20008B855091E60248855413C0C14091E7025E
:102A30004313BCC13091E8023213B8C12091E902BE
:102A40002813B4C194FF49C068897989611571055B
:102A500009F443C0CE010C960E9438253091EA0259
:102A60008091A302381339C02091EB028091A40217
:102A7000281333C09091EC028091A50298132DC0C9
:102A80008091ED024091A602841327C03C872D87D8
:102A90009E878F87988D8B8D811118C08E892A8D86
:102AA000921B282F269526952695921B890F8E8B93
:102AB00097FD91952F89322F36953695231B920FCE
:102AC0009F8B869586958695890F888F81E0809368
:102AD000AF02888D8A8F198A188A298DE22FEF70AC
:102AE000E150E83008F024CBF0E0E758FA4E0C94BF
:102AF0008F2F81159A150416B916E216F316D616FD
:102B0000B2168091AF0280FF13CB83E0898F80E4FF
:102B10008093AF02198A188AE114F10431F082E43B
:102B20008093AF02C7010E946B251092B5021092EC
:102B3000B402C2CA8091AF0280FF5FC08091EF02F1
:102B40008F73823109F059C08091EE02982F907FE7
:102B5000913598F182958F708550990B880F991F48
:102B6000880F991FE12FF0E0E817F9072CF4E054E3
:102B7000FD4F36A9311103C01093F7041EC0313048
:102B800011F41F5FEFCF27A9323099F5243089F572
:102B90001093F70480AD91AD8927982789279093EA
:102BA000A8028093A702813012E0910710F080E024
:102BB00092E09B8B8A8B9D8B8C8B83E0898F80919D
:102BC000E60288878091E70289878091E8028A87F8
:102BD0008091E9028B8781E090E00E946B2582E47E
:102BE0008093AF02198A188A1092B9021092B80223
:102BF0009CCF222309F2120FB5CF80E28093AF025F
:102C00000E94100F198E96CD8091EF0280FF20C098
:102C100024FD1EC088899989892B09F089CAC601BB
:102C200043970E946B258091AF02982F90619093FB
:102C3000AF02EF2819F082618093AF020E94100F5B
:102C400081E090E0998B888B88E0898F1B8E16CB72
:102C500085FF14C08091F4029091F502982789278E
:102C60009827AC014A505D4F5093BB024093BA0283
:102C7000E81AF90AF092B902E092B8024091B8025B
:102C80005091B9029091AF024115510541F024FDD8
:102C900006C092609093AF02CA010E946B2580919A
:102CA000F002282F30E0322F22278091F102820F8C
:102CB000932F911D9093A8028093A7022C893D89A0
:102CC0002817390710F0892B21F43093A80220939C
:102CD000A7028091A7029091A8029B8B8A8B80917A
:102CE000AF02837009F424CA20CF84FF0AC0109277
:102CF000B5021092B40281E090E0998B888B84E059
:102D0000A4CF2091B4023091B50221153105B9F05C
:102D100080FF02C0198A188A88899989009789F4E6
:102D20008A899B898217930720F49093B502809338
:102D3000B4028091B4029091B502998B888B1B8E5E
:102D4000ACCA9093B5028093B402F9CF8091AF02E0
:102D500081FFEEC988E290E09093B9028093B802B7
:102D600080E1B5CA8091AF0280FFE2C9198E80E18F
:102D700031CEE114F10419F0C7010E946B25809156
:102D8000AF0281709091EF0290FF15C0882381F00F
:102D900087E0898F1A8E198A188A81E090E00E9454
:102DA0006B2580E18093AF020E94100F80E167CA1B
:102DB00086E0898FF2CF882399F085E0898F198A80
:102DC000188AB6C9E114F10419F0C7010E946B25F5
:102DD0008091EF0280FF04C087E0898F1A8EDDCFDB
:102DE000EF2821F7A5C98091AF0280FFA1C987E034
:102DF000898F1A8E9DC982E08093F0021092F102B1
:102E00000BCDCF93DF93EC018C859D85009729F442
:102E100090E080E0DF91CF910895EA89EE23C1F33D
:102E200021E02B8B25E0E29FF0011124E95CFC4FAF
:102E30002E853F85338322839093AA028093A90233
:102E400085E00E9433108091B8029091B902892BDD
:102E5000F9F2CE010E960E947A0E81E090E0DACF70
:102E60008F929F92AF92BF92CF92DF92EF92FF929A
:102E70000F931F93CF93DF9380914104882309F42C
:102E800034C1D0919E02D11151C089E30E94D60372
:102E9000882309F449C060914204709143046B0196
:102EA00026E0C20ED11CC11438E0D30628F06B0115
:102EB00049EFC41A47E0D40A80E00E94250360E08D
:102EC0008AE30E94B803E82E60E08AE30E94B80318
:102ED000F82EF0924304E092420460E08AE30E94FC
:102EE000B803182F60E08AE30E94B803C82F60E09F
:102EF0008AE30E94B803082F40E46EE180E80E9454
:102F0000ED0207FFFFC0E11458E0F50608F0FAC033
:102F1000D0924504C09244049C2F812F0497909333
:102F2000470480934604DFEFD0939E02F0909E0208
:102F3000FF2009F472C081E080939F028F2D0E94D0
:102F4000CD02EC019093B9028093B802892B09F469
:102F500006C142E650E060EC72E08F2D0E947203E1
:102F6000C090CC02D090CD0288E0C816D10409F000
:102F7000E4C0F092A0022E97D093B902C093B80299
:102F80002091DA023091DB02E0915D05F0915E055F
:102F9000C9018E279F2740912F035091300384232E
:102FA0009523892B49F54091DC025091DD02609117
:102FB0005F0570916005CA0186279727A0913103AC
:102FC000B09132038A239B23892BB1F48091DE02D6
:102FD0009091DF02E817F90709F097C08091E002AD
:102FE0009091E1026817790709F08FC066EC72E0F2
:102FF0008AED92E00E94C90C81E00E94331080911A
:10300000B8029091B902892B21F00E943E0D0E94D6
:10301000CE0680919F0280FDA2C00E94A1026B019A
:103020007C018091570590915805A0915905B09168
:103030005A0546015701881A990AAA0ABB0AC7E726
:10304000D4E0D093B102C093B00282E0B7FE14C0C6
:10305000EC8DFD8D309709F419C186859785A0897F
:10306000B189A7019601281B390B4A0B5B0BDA01CA
:10307000C901B7FD0DC083E00E9433108091B802F2
:103080009091B902892B21F00E943E0D0E94CE063C
:103090006E9634E0CF3ED307A1F6B7FC26C04AEFC8
:1030A000C40ED11CE11CF11CC0925705D0925805EA
:1030B000E0925905F0925A05C9E4D4E005E714E01E
:1030C000D093AA02C093A90285E00E943310809198
:1030D000B8029091B902892B21F089859A850E94C6
:1030E0007A0E2B960C171D0759F7DF91CF911F9180
:1030F0000F91FF90EF90DF90CF90BF90AF909F9097
:103100008F9008950E949C030FCFE8EFF4E080E0D9
:10311000883019F4809350056FCF60817181261734
:10312000370741F4628173814617570719F480937A
:1031300050055CCF8F5F3B96EBCF28E0C21626E0B0
:10314000D20669F41092B9021092B802AA9760F4FC
:103150008091B8029091B902892B09F058CF0E9452
:103160009C0310929E0259CF8091D4029091D50277
:10317000811531E0930701F18115924049F72091C3
:10318000E6023091E70280915D0590915E05281777
:103190003907F1F62091E8023091E90280915F054C
:1031A000909160052817390799F666ED72E08CED6D
:1031B00092E00E94C90CCCCFE090E602F090E702CA
:1031C00080915D0590915E05E816F90609F6C091BB
:1031D000E802D091E90280915F0590916005C817DF
:1031E000D90709F0B5CF66ED72E08CED92E00E9450
:1031F000C90C80E092E09093D5028093D40286E0DF
:10320000E6EDF2E0A0EEB2E001900D928A95E1F7D2
:1032100086E0E1E5F5E0A6EDB2E001900D928A9539
:10322000E1F786E0E1E5F5E0A6ECB2E001900D9271
:103230008A95E1F786E0E0EEF2E0A0ECB2E00190E2
:103240000D928A95E1F78091DC029091DD029093D6
:10325000E7028093E6028091DE029091DF02909374
:10326000E9028093E802F092DD02E092DC02D09362
:10327000DF02C093DE02D092CD02C092CC028AE27D
:1032800090E09093B9028093B80262CF8E859F85BB
:10329000A889B989E6CECF93DF93EC010E9430175D
:1032A00089890E94AD02198ADF91CF9108950F9309
:1032B0001F93CF93DF931F92CDB7DEB78C010E948F
:1032C0003017F8018189882389F041E050E0BE0180
:1032D0006F5F7F4F0E947203019741F4898190E0F4
:1032E0000F90DF91CF911F910F9108958FEF9FEF76
:1032F000F7CFEF92FF920F931F93CF93DF937C0151
:103300008B01EA010E943017F7018189882369F156
:10331000AE01B8010E9472038C01F701C1898C2FA4
:103320000E94CD028017910769F48C2F0E94AD0294
:10333000F701118AC801DF91CF911F910F91FF9082
:10334000EF90089585E0C89FF0011124E95CFC4FDF
:1033500080819181800F911F9183808382819381ED
:10336000801B910B93838283E5CF80E090E0E3CFD5
:10337000CF93DF93EC010E9430178989DF91CF91C1
:103380000C94CD02CF93DF93EC010E943017898912
:1033900081110E94AD028889898B188ADF91CF91B3
:1033A0000C94CD02CF92DF92EF92FF920F931F9376
:1033B000CF93DF9300D000D0CDB7DEB78C016B0187
:1033C0007A010E943017F60182819381A481B58130
:1033D000892B8A2B8B2BE9F0E114F104D1F0D80171
:1033E0001C96ED91FC91D60112962D913C9113976C
:1033F0003A83298314968D919C919C838B837E2D97
:103400006F2D309779F1778366833183208393839F
:103410008283F80184859585892BB1F18289811198
:1034200033C086E096E00E948204D80152968C93C5
:1034300052972AE230E01F963C932E931E9721E08C
:1034400090E0811101C020E0822F0F900F900F902B
:103450000F90DF91CF911F910F91FF90EF90DF9030
:10346000CF900895CE0101960E94F50BF801958743
:103470008487009749F09801225F3F4FDC011A963C
:103480003C932E931997C5CF80E090E0DECF4F920A
:103490005F926F927F928F929F92AF92BF92CF92E4
:1034A000DF92EF92FF920F931F93CF93DF93CDB7ED
:1034B000DEB763970FB6F894DEBF0FBECDBF6C01C9
:1034C0007B013A01FB01DB018D91882309F444C0A3
:1034D0008E32D1F380538A30B8F3F60142815381A2
:1034E000648175818091710690917206A091730636
:1034F000B0917406481759076A077B0709F455C24B
:103500008601085F1F4F0E94A1026F7077277C5FC2
:10351000C8010E945F0C813009F04CC281EA91E041
:103520009A838983F60182819381A481B5818B83FB
:103530009C83AD83BE8345E350E0BE016F5F7F4F48
:10354000C8010E94D219892B09F057C0F12CE12C37
:10355000C8010E94840C39C030E020E090E080E097
:103560005AE04191442309F1843091050CF0B5CF24
:103570004E3271F42F3F310511F00CF0AECFD30174
:10358000A80FB91F12962C93019630E020E0E9CFE6
:10359000529FB001539F700D1124242F440F330B01
:1035A00020533109260F371FDCCF2F3F310511F093
:1035B0000CF093CF843091050CF08FCF680E791EFC
:1035C000F3012283EE24E394F12CC70163960FB636
:1035D000F894DEBF0FBECDBFDF91CF911F910F9149
:1035E000FF90EF90DF90CF90BF90AF909F908F9023
:1035F0007F906F905F904F9008950E94A102F60116
:103600007783668342E050E0B6016A5F7F4FC8016E
:103610000E94E70581E090E09A83898342E050E0D0
:10362000BE016F5F7F4FC8010E94E70580E091E017
:103630009A83898342E050E0BE016F5F7F4FC801EB
:103640000E94E7051A82198242E050E0BE016F5FD6
:103650007F4FC8010E94E70542E050E0BE016F5F66
:103660007F4FC8010E94E70542E050E0BE016F5F56
:103670007F4FC8010E94E7055701F7018081882329
:1036800001F17501F70181912F01882311F08E322C
:10369000B1F447018A189B081814190474F48D8634
:1036A00041E050E0BE01635F7F4FC8010E94E70523
:1036B000A401B501C8010E94E7055201DECF7201E5
:1036C000E1CF1D8641E050E0BE01635F7F4FC8013E
:1036D0000E94E705E12CFF24F394FA82E98242E09C
:1036E00050E0BE016F5F7F4FC8010E94E705FA827C
:1036F000E98242E050E0BE016F5F7F4FC8010E9447
:10370000E705C8010E940117892B09F41FCFA3E028
:10371000AA2EB12C230122E0420E511C26C0F60134
:103720006280738084809580B801CE0101960E94EA
:10373000A4058B819C81AD81BE81681679068A06BD
:103740009B0629F4C8010E949505C59759F1FEEF23
:10375000EF2EFF24FA94E1E0AE1AB10809F4F8CE96
:10376000FFEFEF16FF0609F0F3CE0E94A1023B0126
:103770004C01C8010E94C2191816190684F20E9451
:10378000A102661977098809990969387341810589
:10379000910508F001C162E370E080E090E00E94D2
:1037A0006F02E7CFC8010E94B8190C970CF4F8C05B
:1037B0004CE050E0BE016F5F7F4FC8010E94EC08F3
:1037C0008B819C819827892798279A8B898BF60172
:1037D0004681578129813A814217530711F497FD99
:1037E00008C0C8010E944B19ECEFEE2EFF24FA949A
:1037F000B2CF8F709270892B41F0C8010E944B1993
:103800007BEFE72EFF24FA94A6CF6F80788476248E
:1038100067247624F12CE12C61147104D1F4C801E1
:103820000E944B196AEFE62EFF24FA9494CF8D85FF
:10383000811117C0C8010E94CA05C8010E94CA05AB
:10384000C8010E94CA05C8010E94CA05FFEFEF1A0D
:10385000FF0A8D819E81982789279827E816F90607
:10386000A8F441E050E0BE01635F7F4FC8010E94B1
:10387000EC088D858823D9F28D859FEF980F9D8761
:103880008823A9F2C8010E94CA05F6CF912C812C89
:1038900041E050E0BE016D5E7F4FC8010E94EC0820
:1038A0008B89982F907C61F4882389F08B899FEF16
:1038B000980F9B8B882341F0C8010E94CA05F6CF60
:1038C000C8010E94CA051B8A8B898111E1CF42E0A1
:1038D00050E0BE01615F7F4FC8010E94EC0842E0EA
:1038E00050E0BE01635F7F4FC8010E94EC08C80131
:1038F0000E94CA05C8010E94CA05C8010E94CA05E3
:10390000C8010E94CA0542E050E0BE016F5E7F4FD1
:10391000C8010E94EC088F85988981159140E1F4D7
:103920008D859E8581159140B9F489899A89811583
:10393000944041F0C8010E944B1957EFE52EFF2437
:10394000FA9409CF44E050E0B201C8010E94EC08AB
:10395000EE24E394F12CFFCEF12CE12C89899A8995
:10396000982789279827E816F90638F4C8010E9495
:10397000CA052FEFE21AF20AF1CF8FEF881A980AE0
:103980008614970409F084CFC8010E944B1936EFC2
:10399000E32EFF24FA94DFCEEE24EA94FE2CDBCE55
:1039A0009DEFE92EFF24FA94D6CE8EEFE82EFF2469
:1039B000FA940BCEF12CE12C08CEAF92BF92CF92AD
:1039C000DF92EF92FF920F931F93CF93DF93CDB7C8
:1039D000DEB7A8970FB6F894DEBF0FBECDBF7C014F
:1039E0005B016A0101EA11E01A8309831B821C82D0
:1039F0001D821E82CE0109960E94A50C1CA30BA35A
:103A00001DA21EA21FA218A680915F0690916006BB
:103A1000A0916106B09162068F8F98A3A9A3BAA363
:103A20008B839C83AD83BE8318861F82AE014D5D60
:103A30005F4FB501CE0101960E94471A8130910572
:103A4000B1F4D701ED91FC910488F589E02D1E8F2A
:103A50000D8F8DA19EA1AFA1B8A58F8F98A3A9A30B
:103A6000BAA3A601BE01635E7F4FC7010995A89660
:103A70000FB6F894DEBF0FBECDBFDF91CF911F917F
:103A80000F91FF90EF90DF90CF90BF90AF9008958F
:103A9000AF92BF92CF92DF92EF92FF920F931F935C
:103AA000CF93DF93CDB7DEB7A8970FB6F894DEBFFC
:103AB0000FBECDBF7C015B016A0101EA11E01A83F0
:103AC00009831B821C821D821E82CE0109960E94E0
:103AD000A50C1CA30BA31DA21EA21FA218A68091B9
:103AE0005F0690916006A0916106B09162068B839B
:103AF0009C83AD83BE8318861F82AE014D5D5F4FF0
:103B0000B501CE0101960E94471A81309105B1F4AA
:103B1000D701ED91FC910684F785E02D1E8F0D8F66
:103B20008DA19EA1AFA1B8A58F8F98A3A9A3BAA379
:103B3000A601BE01635E7F4FC7010995A8960FB627
:103B4000F894DEBF0FBECDBFDF91CF911F910F91D3
:103B5000FF90EF90DF90CF90BF90AF900895AF921D
:103B6000BF92CF92DF92EF92FF920F931F93CF936A
:103B70008C015B017A016A010E9430170115110561
:103B800009F45AC0F8018181867009F055C0389651
:103B9000C1E08191811133C0C150F801EC0FF11DDA
:103BA000878181110DC080E092E00E948204F801BB
:103BB000EC0FF11D87838823F9F2F801158614862E
:103BC000A7014C195D094A0D5B1DF80164857585D7
:103BD0009601EC0FF11D87810E945305C81AD90A7E
:103BE000F80124853585820F931F958784871C14DF
:103BF0001D0454F4C43009F4BFCFCF5FD4CFCF5FDE
:103C0000C53039F6C4E0C9CF0E94A102665F7F4F7C
:103C10008F4F9F4FF80166877787808B918BC70105
:103C20008C199D09CF911F910F91FF90EF90DF901C
:103C3000CF90BF90AF90089590E080E0F3CFFC016B
:103C4000848595850C94AF1DCF93DF931F92CDB7DC
:103C5000DEB7698341E050E0BE016F5F7F4FFC013A
:103C6000848595850E94AF1D0F90DF91CF910895B7
:103C7000CF93DF93EC010E943017EC85FD853097E0
:103C800039F0818182FF08C081E09281911101C0E9
:103C900080E0DF91CF91089581E0FBCFCF93DF9358
:103CA000EC018C859D85009769F0FC012181222320
:103CB00049F002960E947207EC85FD85818182FFA2
:103CC00007C011821D861C86DF91CF910C9430179E
:103CD00082608183F7CFCF92DF92EF92FF920F93B2
:103CE0001F93CF93DF938C01EB016A01DC01ED910F
:103CF000FC910488F589E02D0995EA80FB806C81B0
:103D00007D815C2D4D2D80917504909176040196F6
:103D10008115BDE79B0710F080E090E1382F292F37
:103D2000E7E7F4E0DF01C0E0C430D1F4909376041B
:103D3000809375041092F70480E0D0E0C0E08430F6
:103D4000F1F48093F704209711F590E080E0DF9183
:103D5000CF911F910F91FF90EF90DF90CF9008953A
:103D60005996DC915997DD2339F01496CD90DC906B
:103D70001597C216D30659F2CF5F5E96D5CFAE2FF8
:103D80009F2FB18DB1113CC08093F704EF0182E009
:103D9000898F8091AB028C878091AC028D87809156
:103DA000AD028E878091AE028F8780E092E09B8B80
:103DB0008A8B9D8B8C8B81E090E0998B888B1B8EFE
:103DC0008A8F83E0888F1E8A80E18F8B3D832C83CE
:103DD0005F834E83F982E8827B836A83898D8F704B
:103DE00009F4B3CF0E943017898D8F708330B1F7FB
:103DF0008C8D9D8DF8019587848781E090E0A7CF19
:103E0000B73031F4209731F0D28CBA8DBD1510F057
:103E1000AC2F9D2F8F5F7E96CA2FD92F90CF0E94F7
:103E2000C1302F923F924F925F926F927F928F920A
:103E30009F92AF92BF92DF92EF92FF920F931F93E8
:103E4000CF93DF93CDB7DEB7C254D1090FB6F89444
:103E5000DEBF0FBECDBF7C015B010E94A1022B0122
:103E60003C018701015C1F4FC8010E94C21918164E
:103E700019069CF00E94A102641975098609970928
:103E8000613A7F408105910508F0A5C162E370E0C9
:103E900080E090E00E946F02E7CF42E250E0BE0176
:103EA0006F5F7F4FC8010E94EC088981823009F062
:103EB0008DC1C8010E9495058334910509F086C122
:103EC0006D817E818F8198850E94952F2B013C0109
:103ED000F501408251826282738246E050E0B70170
:103EE000685F7F4FCE014D960E94C630892B99F4B2
:103EF000F70180819181A281B381481659066A0633
:103F00007B0648F084819581A681B781841595054B
:103F1000A605B705F0F4C8010E944B19D12C8D2DD0
:103F2000CE5BDF4F0FB6F894DEBF0FBECDBFDF9183
:103F3000CF911F910F91FF90EF90DF90BF90AF90C6
:103F40009F908F907F906F905F904F903F902F90B9
:103F5000089589899A89AB89BC8986879787A08BC0
:103F6000B18B8EECA82EB12CC8010E94CA05F1E0DD
:103F7000AF1AB108C9F7D12CC70182969CAF8BAF9D
:103F8000F701B696FEAFEDAF089621969FAF8EAFC4
:103F9000219757019AE1A90EB11C74972396FFAFA0
:103FA000EEAF23971701F6E12F0E311C27012EE10A
:103FB000420E511CC8010E94B819181619060CF0BF
:103FC00006C1C8010E94CA058333910509F4E4C003
:103FD0009CF58130910509F480C074F4892B51F36C
:103FE000C8010E94CA05982E9A94FFEF9F1611F3FC
:103FF000C8010E94CA05F8CF8330910509F47AC040
:10400000069771F7C8010E94CA05882E44E050E067
:10401000B201C8010E94EC08712C612CE82DE4501B
:10402000FF0B4F01681479042CF6C8010E94CA05E1
:10403000FFEF6F1A7F0AF6CF8A33910509F47EC02D
:10404000DCF58533910509F440C0C69749F6C801EF
:104050000E94CA05982E1FAA18AE19AE1AAEB50155
:10406000CE018F960E94BD0C4FA958AD69AD7AADB7
:1040700089A99AA9ABA9BCA9481759076A077B0760
:10408000B9F0B801CE0189960E94A405B501CE0110
:1040900083960E94BD0C4DA15EA16FA178A58BA552
:1040A0009CA5ADA5BEA5481759076A077B07E9F58A
:1040B00044E050E0B5011AC08B33910509F454C0B7
:1040C0008F3F910509F476CF8BCFC8010E94CA05B6
:1040D000C8010E94CA05D82E6DCFC8010E94CA052A
:1040E00044E050E023966EAD7FAD2397C8010E9457
:1040F000EC0860CFC8010E94CA05882E44E050E059
:10410000B101C8010E94EC08712C612C882D8450EB
:10411000990B4C01681479040CF04CCFC8010E9433
:10412000CA059FEF691A790AF5CF9A942FEF921674
:1041300009F440CFC8010E94CA05F7CFC8010E9408
:10414000CA0544E050E06DAD7EADC8010E94EC08A8
:10415000F70166A177A180A591A50E94952F66A37E
:1041600077A380A791A726CFC8010E94CA0544E083
:1041700050E021966EAD7FAD2197C8010E94EC08FA
:10418000F70162A573A584A595A50E94952F62A746
:1041900073A784A795A70ECFC8010E94CA0544E063
:1041A00050E06BAD7CADC8010E94EC08F70162A144
:1041B00073A184A195A10E94952F62A373A384A3E8
:1041C00095A366A777A780AB91ABF4CED12CC8019D
:1041D0000E944B19A4CEDD24DA94A1CE7F928F9257
:1041E0009F92AF92BF92CF92DF92EF92FF920F9386
:1041F0001F93CF93DF93CDB7DEB7A6970FB6F89492
:10420000DEBF0FBECDBF8C01762E942E852E20E210
:10421000A22ECE0101967C01DC01EA2D1D92EA95C9
:10422000E9F76801FFE3CF0ED11C81EA91E09AA380
:1042300089A38FEF8BA38CA38DA38EA343E450E0BF
:10424000BE016F5D7F4FC6010E94D219019609F42D
:10425000BFC081E089838A8386E0B82EBB821C823E
:10426000D80114966D917D918D919C9117970E9424
:10427000952F6D837E838F83988789869A8680E8C1
:1042800090E09C878B874CE150E0B701C6010E940B
:10429000E705FE0137968AE1DF011D928A95E9F76D
:1042A0004801B8E08B0E911CF401D70101900D92EA
:1042B000BA94E1F740E150E0B701C6010E94E7057A
:1042C000F7011192AA94E9F796E0A92EB12C40E2E9
:1042D00050E0B701C6010E94E705F1E0AF1AB1084E
:1042E000B1F783E6898392E89A8393E59B838C8375
:1042F00085E38D8381E08E837F829DE3988797E0BD
:1043000099878A8786E0F401DE011B9601900D9261
:104310008A95E1F78CE0898B8A8B69EB71E0CE019D
:1043200043960E941431D8011B966C91CE01499698
:104330000E94C000F8016485CE014B960E94C00027
:10434000D8011D966C91CE014D960E94C0004EE1A1
:1043500050E0B701C6010E94E705B3E07B121EC022
:1043600082E3898384E08A83F80196859B8397851D
:104370009C8390899D8391899E8396E39F83888700
:10438000828D8987838D8A87848D8B87858D8C87A5
:104390004CE050E0B701C6010E94E70587E389833E
:1043A00086E08A8391E09B8393E09C838D838FE0FA
:1043B0008E838AE38F838BE388878FEF898749E039
:1043C00050E0B701C6010E94E705C6010E9401172F
:1043D000A6960FB6F894DEBF0FBECDBFDF91CF918A
:1043E0001F910F91FF90EF90DF90CF90BF90AF9013
:1043F0009F908F907F9008956F927F928F929F925F
:10440000AF92BF92CF92DF92EF92FF920F931F93E2
:10441000CF93DF938C017B016A0180EC91E00E94D5
:10442000A10BC8010E94A10B82ED91E00E94A10B9B
:1044300085ED91E00E94A10BA60170E060E02AE00A
:1044400081E695E00E942D0B89ED91E00E94A10B81
:10445000E7015601AE0CBF1CCA15DB0531F06991AE
:1044600081E695E00E949101F7CF63EA71E081E671
:1044700095E00E941E0BC0912D03D0912E036FE298
:1044800070E0C8010E9400315C01FE01E453FF4F5F
:104490006080712CC653DF4F912C812C86149704B9
:1044A0007CF409911991B501D80114968D919C91D4
:1044B0000E940B31892B31F4BFEF8B1A9B0AEECF90
:1044C00010E000E0D801ED91FC91A080B180C1E83E
:1044D000D6E0912C812C8BED91E00E94A10B88817C
:1044E00099810E94A10B68817981A601C7010E9470
:1044F000C6302396892BC9F4F401EE0FFF1FE80D97
:10450000F91DEF57F94F6281C801F501DF91CF9195
:104510001F910F91FF90EF90DF90CF90BF90AF90E1
:104520009F908F907F906F900994BFEF8B1A9B0A9A
:10453000E7E08E16910479F664E0E6CF1F920F92C1
:104540000FB60F9211242F933F934F935F936F9366
:104550007F938F939F93AF93BF93EF93FF9381E6E6
:1045600095E00E946F01FF91EF91BF91AF919F91F4
:104570008F917F916F915F914F913F912F910F900C
:104580000FBE0F901F9018951F920F920FB60F92AB
:1045900011242F938F939F93EF93FF93E0917105D5
:1045A000F09172058081E0917705F091780582FDA8
:1045B0001BC0908180917A058F5F8F7320917B055E
:1045C000821741F0E0917A05F0E0EF59FA4F958FAC
:1045D00080937A05FF91EF919F918F912F910F908A
:1045E0000FBE0F901F9018958081F4CF1F920F92ED
:1045F0000FB60F9211242F933F938F939F93AF93F6
:10460000BF938091250390912603A0912703B09139
:1046100028033091240323E0230F2D3758F501960A
:10462000A11DB11D2093240380932503909326039D
:10463000A0932703B09328038091290390912A0324
:10464000A0912B03B0912C030196A11DB11D809365
:10465000290390932A03A0932B03B0932C03BF91BB
:10466000AF919F918F913F912F910F900FBE0F901F
:104670001F90189526E8230F0296A11DB11DD2CFD9
:104680001F920F920FB60F9211242F933F934F93C7
:104690005F936F937F938F939F93AF93BF93CF93CA
:1046A000DF93EF93FF93D9B1C091540280915302ED
:1046B000209152029D2F909592238D23892B9091CA
:1046C0006D00CD27C923C823D0935402CC2309F40D
:1046D0005EC0C0FF09C0109251028D2F817080937F
:1046E0005002F0E0E0E00995C1FF0AC081E080934C
:1046F00051028D2F827080935002F0E0E0E0099526
:10470000C2FF0AC082E0809351028D2F8470809393
:104710005002F0E0E0E00995C3FF0AC083E0809317
:1047200051028D2F887080935002F0E0E0E00995EF
:10473000C4FF0AC084E0809351028D2F8071809362
:104740005002F0E0E0E00995C5FF0AC085E08093E3
:1047500051028D2F807280935002F0E0E0E00995C5
:10476000C6FF0AC086E0809351028D2F807480932B
:104770005002F0E0E0E00995C7FF09C087E08093B0
:104780005102D078D0935002F0E0E0E00995FF911B
:10479000EF91DF91CF91BF91AF919F918F917F91D9
:1047A0006F915F914F913F912F910F900FBE0F909E
:1047B0001F9018951F920F920FB60F9211242F93EE
:1047C0003F934F935F936F937F938F939F93AF9399
:1047D000BF93CF93DF93EF93FF93D6B1C0914F0276
:1047E00080914E0220914D029D2F909592238D2312
:1047F000892B90916C00CD27C923C823D0934F02F9
:10480000CC2309F447C0C0FF0AC08EE08093510258
:104810008D2F817080935002F0E0E0E00995C1FF98
:104820000AC08FE0809351028D2F827080935002D6
:10483000F0E0E0E00995C2FF0AC080E180935102F8
:104840008D2F847080935002F0E0E0E00995C3FF63
:104850000AC081E1809351028D2F887080935002AD
:10486000F0E0E0E00995C4FF0AC082E180935102C4
:104870008D2F807180935002F0E0E0E00995C5FF34
:1048800009C083E180935102D072D0935002F0E0CE
:10489000E0E00995FF91EF91DF91CF91BF91AF914A
:1048A0009F918F917F916F915F914F913F912F9148
:1048B0000F900FBE0F901F9018951F920F920FB67A
:1048C0000F9211242F933F934F935F936F937F9396
:1048D0008F939F93AF93BF93CF93DF93EF93FF9308
:1048E000D3B1C0914C0280914B0220914A029D2F7E
:1048F000909592238D23892B90916B00CD27C9230E
:10490000C823D0934C02CC2309F447C0C0FF0AC08F
:1049100088E0809351028D2F817080935002F0E0E7
:10492000E0E00995C1FF0AC089E0809351028D2F14
:10493000827080935002F0E0E0E00995C2FF0AC067
:104940008AE0809351028D2F847080935002F0E0B2
:10495000E0E00995C3FF0AC08BE0809351028D2FE0
:10496000887080935002F0E0E0E00995C4FF0AC02F
:104970008CE0809351028D2F807180935002F0E083
:10498000E0E00995C5FF09C08DE080935102D07227
:10499000D0935002F0E0E0E00995FF91EF91DF91B4
:1049A000CF91BF91AF919F918F917F916F915F91C7
:1049B0004F913F912F910F900FBE0F901F90189520
:1049C0001F920F920FB60F9211242F933F934F9384
:1049D0005F936F937F938F939F93AF93BF93EF9367
:1049E000FF9383E08093510289B1887080935002D5
:1049F000F0E0E0E00995FF91EF91BF91AF919F91B9
:104A00008F917F916F915F914F913F912F910F9077
:104A10000FBE0F901F9018951F920F920FB60F9216
:104A200011242F933F934F935F936F937F938F93B3
:104A30009F93AF93BF93EF93FF9382E080935102D4
:104A400089B1847080935002F0E0E0E00995FF9115
:104A5000EF91BF91AF919F918F917F916F915F91F6
:104A60004F913F912F910F900FBE0F901F9018956F
:104A7000FC013381360F3093A602A72FBB2792810A
:104A80009A0F9093A50221812093A4024081409324
:104A9000A3029A171B0648F481E0820F8093A402B8
:104AA000811103C04F5F4093A30277273617170683
:104AB00088F49F5F9093A50291110CC08091A4028D
:104AC0008F5F8093A402811105C08091A3028F5F44
:104AD0008093A3020895CF93DF93C091B002D09149
:104AE000B102BC01CE0108960E943825E3EAF2E04B
:104AF000808188878181898782818A8783818B876A
:104B0000DF91CF910895CF93DF93E1E6F5E0138233
:104B1000128288EE93E0A0E0B0E084839583A683C0
:104B2000B7838FE891E09183808385EC90E095874F
:104B3000848784EC90E09787868780EC90E0918B67
:104B4000808B81EC90E0938B828B82EC90E0958B54
:104B5000848B86EC90E0978B868B118E128E138E51
:104B6000148EEEEFF5E0C1EAD1E0D183C08312826A
:104B7000138214821582E4E0F6E0D183C0831282AE
:104B8000138214821582E3E6F6E0D183C083128299
:104B9000138214821582EDE5F6E0D183C083128280
:104BA00013821482158289E496E00E94A50CE9E63E
:104BB000F6E0D183C0831282138214821582EFE65D
:104BC000F6E0D183C0831282138214821582E5E756
:104BD000F6E0D183C0831282138214821582EBE740
:104BE000F6E0D183C0831282138214821582E1E839
:104BF000F6E085EB91E09183808312828CEA91E06C
:104C00009483838381E085838AEE91E09783868312
:104C100082E080878FEE91E09287818783E08387AF
:104C200085EF91E09587848784E086878AEF91E01D
:104C3000908B878785E0818B82E092E0938B828BDB
:104C400086E0848BE6E9F6E0D183C083128213828A
:104C500014821582ECE9F6E0D183C08312821382BC
:104C600014821582DF91CF910895CF93DF93CDB752
:104C7000DEB7C358D1400FB6F894DEBF0FBECDBF2C
:104C8000789484B5826084BD84B5816084BD85B527
:104C9000826085BD85B5816085BD80916E00816033
:104CA00080936E00109281008091810082608093D9
:104CB00081008091810081608093810080918000DB
:104CC0008160809380008091B10084608093B10006
:104CD0008091B00081608093B00080917A00846000
:104CE00080937A0080917A00826080937A0080912C
:104CF0007A00816080937A0080917A008068809346
:104D00007A001092C100E0917105F091720582E085
:104D10008083E0916D05F0916E051082E0916F0542
:104D2000F09170058FEC808310927905E091750504
:104D3000F091760516E01083E0917305F09174050B
:104D4000808180618083E0917305F091740580819A
:104D500088608083E0917305F0917405808180689C
:104D60008083E0917305F091740580818F7D80834D
:104D700082E192E00E94790B81EA91E09A83898333
:104D800030EC3B8328EA2C831D824AEA4E839887C5
:104D90008F8339872A871B8629E32C87EBE0F1E094
:104DA000DE011D96212F01900D922A95E1F71E8AB2
:104DB0001D8A48EE53E060E070E04F8B588F698F9A
:104DC0007A8F2BE531E03C8B2B8B18A21F8E1CA217
:104DD0001BA223E831E03AA329A3CC54DF4F9983E7
:104DE0008883C45BD040CA54DF4F188219821A826C
:104DF0001B82C65BD0408FEF9FEFC054DF4F99837B
:104E00008883C05CD0401EA21DA2C254DF4F19820D
:104E10001882CE5BD040CE54DF4F19821882C25B1D
:104E2000D0409E012E533F4FCF57DE4F398328830A
:104E3000C158D140E3E4F2E0D90101900D921A95F6
:104E4000E1F7C653DF4F1882CA5CD04086E090E09D
:104E50000E949C2FFC0112828AE083838DE192E004
:104E6000958384838DE791E091838083C553DF4FE1
:104E7000F983E883CB5CD04081E0C353DF4F888364
:104E8000CD5CD04080912D0390912E03892B31F47D
:104E9000CE01019690932E0380932D038AE096E035
:104EA00090935C0580935B050E94A10266507F4F42
:104EB0008F4F9F4F60935705709358058093590506
:104EC00090935A051092450410924404109247049E
:104ED00010924604E7E3F3E089E091E0DF019C01F2
:104EE0001D9221503040E1F781E098E09093380323
:104EF000809337038AE00E94D20061E08AE00E943A
:104F0000FE011FB7F89480914004811124C0EAE9A2
:104F1000F0E08491EEEAF0E09491E82FF0E0EE0FFB
:104F2000FF1FEA57FF4FA591B491EC91E92321F4BB
:104F300061E08AE00E94FE018AE00E94D2008CB506
:104F400080618CBD8CB580648CBD8DE00E94D200E8
:104F50008BE00E94D200809140048F5F80934004D8
:104F60001FBF8CB58C7F8CBD8DB581608DBD4FEF23
:104F700060E08FEF0E94ED0262E070E080E090E080
:104F80000E946F0262E370E080E090E00E946F0296
:104F9000109243041092420400E110E06DE180E0C1
:104FA0000E94B80381110AC00150110939F06AE06A
:104FB00070E080E090E00E946F02F0CF70E060E06F
:104FC00088E00E94250370E060E08CE00E942503E9
:104FD0006FEF77E08AE00E94250361EB88E30E948F
:104FE000AB036FE370E388E20E94250369EF77EF7C
:104FF00080E30E9425036DE070E080EC0E942503B1
:1050000042E362EC80E80E94ED0262E17CE086EC23
:105010000E94250362E184EC0E94AB036CED75E015
:105020008AEC0E9425036D8584EE0E94AB036E8599
:1050300085EE0E94AB036F8582EE0E94AB03688908
:1050400083EE0E94AB03698980EE0E94AB036A89FC
:1050500081EE0E94AB0360E071E080E10E94DF031B
:105060008FE10E94060340EC6BE180E80E94ED02B4
:1050700044E06FE180E80E94ED0266E774E084E1BD
:105080000E94DF0382E70E94D603809341048F3F92
:1050900011F4109241048D85809351058E85809383
:1050A00052058F858093530588898093540589899B
:1050B000809355058A89809356051092F0041092CA
:1050C000EF041092F2041092F1041092F404109282
:1050D000F3041092F6041092F504109290041092CA
:1050E000AE041092CC041092EA0480E094E0909315
:1050F00076048093750410924E0410924D04109221
:10510000590410925804109264041092630410928F
:105110006F0410926E0484E08093F704109250059F
:105120009BE024E080915005883008F434C300915E
:105130005B0510915C05D80192961D921D921D92FF
:105140001C929597F80116A217A210A611A69A967E
:105150001D921D921D921C929D9716AA17AA10AE21
:1051600011AE189686E0FD01282F11922A95E9F7D5
:105170009801225F3F4F94E1F90111929A95E9F766
:10518000FE013D9601900D928A95E1F7D801DE96D9
:105190001C920E94D42E2FEC37E040E050E00E9499
:1051A0002C2FDC01CB010196A11DB11DF8018483D8
:1051B0009583A683B78380839183A283B3835801A9
:1051C000FFE3AF0EB11CC5010E94840C64E470E0E3
:1051D000C5010E945F0C882309F4C9C00E94A10286
:1051E0002B013C0148EEC42E43E0D42EE12CF12CDF
:1051F00052E0252E912C812CD801DE968C91DE97E1
:10520000833091F18111D5C214968D919D910D90AD
:10521000BC91A02D0196A11DB11DF8018483958339
:10522000A683B7830E94A1026419750986099709AC
:10523000A70196010E945E2FA90161E0C8010E94AA
:10524000EE2081E0D801DE968C93F1E08F16910478
:1052500099F20E94A10264197509860997096136BD
:105260007A4E8105910530F2C5010E94840CF80147
:1052700084819581A681B7810196A11DB11D84838A
:105280009583A683B7838A94892809F070C000911A
:105290005B0510915C05B8016E5E7F4FCE018558AD
:1052A0009E4F0E94BD0CB8016A5E7F4FCE018B58A5
:1052B0009E4F0E94BD0CB801625E7F4FCE018159A6
:1052C0009E4F0E94BD0CB801625F7F4FCE0182539A
:1052D0009F4F0E94BD0CCE52DF4F88819981C25DE5
:1052E000D040C053DF4F28813981C05DD04030931A
:1052F0005E0520935D059093600580935F05C75818
:10530000DE4F88819981C957D140C958DE4F288125
:105310003981C757D140309334032093330390939E
:10532000360380933503C158DE4F88819981CF576A
:10533000D140C358DE4F28813981CD57D1403093B9
:10534000300320932F039093320380933103CF587F
:10535000DE4F88819981AA81BB81C157D14080935A
:105360005F0690936006A0936106B093620683E2A5
:1053700092E00E94790B30915D0520915E0590913D
:105380005F058091600501EA11E0C253DF4F198388
:105390000883CE5CD040C053DF4F3883C05DD0401F
:1053A000CF52DF4F2883C15DD040CE52DF4F98836C
:1053B000C25DD040CD52DF4F8883C35DD04061E6EF
:1053C00075E0CE0182539F4F0E94AB0B63EA71E000
:1053D00081E695E00E941E0BC053DF4F19821882B0
:1053E000C05DD04083E891E0C253DF4F998388834A
:1053F000CE5CD040CF59DE4F19830883C156D140CF
:10540000CD59DE4F188219821A821B82C356D140B1
:105410008FEF9FEFC359DE4F99838883CD56D140DC
:10542000CE014396CE52DF4F99838883C25DD04030
:10543000C559DE4F19821882CB56D1401CA21BA23F
:105440009EA38DA3AEECB0E0AC0FBD1F1696FE017F
:10545000B7968C569F4F2D912193E817F907D9F7EE
:10546000CC5ADE4F88819981C455D1409183808385
:10547000CA5ADE4F88819981AA81BB81C655D14025
:10548000C755DF4F88839983AA83BB83C95AD0400D
:10549000C65ADE4F88819981AA81BB81CA55D14005
:1054A000C355DF4F88839983AA83BB83CD5AD040ED
:1054B000C25ADE4F8881CE55D140CF54DF4F88830A
:1054C000C15BD040C15ADE4F88819981CF55D14010
:1054D000CE54DF4F99838883C25BD040CD59DE4FD5
:1054E00088819981AA81BB81C356D140CA54DF4FBC
:1054F00088839983AA83BB83C65BD040C959DE4F9A
:1055000088819981C756D140C654DF4F99838883DB
:10551000CA5BD040C759DE4F88819981C956D140B6
:10552000C454DF4F99838883CC5BD040C559DE4F8C
:1055300088819981CB56D140C254DF4F99838883AB
:10554000CE5BD040C359DE4F88819981CD56D14082
:10555000C054DF4F99838883C05CD040E1EAEE2ECF
:10556000E1E0FE2EC253DF4FF982E882CE5CD040EC
:1055700089859A85AB85BC85C053DF4F8883998325
:10558000AA83BB83C05DD040BE0162537F4FCE0172
:1055900081960E94A9008CEF91E2CE54DF4F99834F
:1055A0008883C25BD0408FE292E00E94790BCE01EB
:1055B00081960E94F3088E0102531F4F81113CC255
:1055C000C654DF4F68817981CA5BD0408DA19EA10E
:1055D000DC01ED91FC91C454DF4F48815981CC5BD3
:1055E000D0406115710509F49BC10088F189E02D57
:1055F00009958130910509F022C2C955DF4F998381
:105600008883C75AD04087E0E1E1F1E0D8010190FA
:105610000D928A95E1F7F801DE019C96C801079684
:1056200021912D93E817F907D9F782E08BAB1CAADB
:105630008FE08DABCF57DE4FE881F981C158D14063
:1056400001900020E9F7CF01CF57DE4F2881398143
:10565000C158D140821B930B40968138910508F4C4
:105660007AC18DA19EA1DC01ED91FC910488F589A0
:10567000E02D09958AE092E00E94790B912C6BE075
:10568000862E7801B6E0EB0EF11CAA24A394B12C6F
:10569000C353DF4F8881CD5CD040981608F0D8C145
:1056A00086E0E8E1F1E0D80101900D928A95E1F7FA
:1056B000F701282D11922A95E9F7BE016E537F4F0D
:1056C000C8010E94F53069E372E0C8010E94F5301C
:1056D000E92DF0E0EB59FF4FEE0FFF1F41E050E0E6
:1056E0004C0F5D1FE40FF51F0190F081E02D6481E8
:1056F0007581C8010E94F530D8010D900020E9F7AE
:10570000CD01801B910B08968138910508F041C0AE
:10571000CE0181960E94F3088823D9F1C955DF4F45
:1057200088819981C75AD0400196C955DF4F998326
:105730008883C75AD040892B31F4C955DF4FB982CD
:10574000A882C75AD040C955DF4F8881C75AD04078
:10575000C855DF4F9881C85AD0409CA78DA747E015
:1057600050E0BE01695D7F4FC8010E948700E7E2FB
:10577000F0E0EC0FFD1FE80FF91F10829C01245090
:105780003109AE01495D5F4F62E8CE0181960E940A
:10579000290993947DCF899FF0011124E850FB4F94
:1057A000DF01322F1D923A95E9F78F5F8093500504
:1057B000B9CC8430F9F4F80184819581A681B78150
:1057C0000196A11DB11D84839583A683B7830E9492
:1057D000A1026419750986099709A70196010E941B
:1057E0005E2FA90163E0C8010E94EE20D801DE9679
:1057F0002C922BCD813051F5BE0162537F4FC801F1
:105800000E94111F382EB2E08B1384C0C253DF4FA9
:1058100088819981AA81BB81CE5CD040F8018483C4
:105820009583A683B7830E94A1026419750986092E
:105830009709A70196010E945E2FA90163E0C801A4
:105840000E94EE20D801DE963C92FFCC823009F017
:10585000FCCCBE0162537F4FC8010E94111F382E3D
:10586000B5E08B1350C023E0F80126AF82A193A1CD
:10587000A4A1B5A1892B8A2B8B2B41F484E893E05A
:10588000A0E0B0E082A393A3A4A3B5A3F80186A1EE
:1058900097A1A0A5B1A5892B8A2B8B2B61F482A19E
:1058A00093A1A4A1B5A1B695A7959795879586A331
:1058B00097A3A0A7B1A7F80186A197A1A0A5B1A51C
:1058C00042A553A564A575A5452B462B472B51F43E
:1058D000AC01BD01440F551F661F771F42A753A798
:1058E00064A775A7F80186A797A7A0ABB1AB82A55F
:1058F00093A5A4A5B5A582AB93ABA4ABB5AB882407
:105900008394912CA2CCF6E08F1304C0D801DE96CC
:105910001C929BCCBFEF3B1298CCF80116AE95CCF5
:105920000684F785E02DC253DF4FF982E882CE5C12
:10593000D040CA54DF4F88809980AA80BB80C65B64
:10594000D040C053DF4F88829982AA82BB82C05D5B
:10595000D040B8014DCE4FE050E0BE01695D7F4FB1
:10596000CE018E539F4F0E9487009C012550310924
:10597000AE01495D5F4F60E1CE0181960E94290929
:105980000E94A102C755DF4F688379838A839B8376
:10599000C95AD040C355DF4F688379838A839B837C
:1059A000CD5AD0408DA19EA1DC01ED91FC910084E7
:1059B000F185E02D0995892BE1F40E94A102C355E0
:1059C000DF4F88809980AA80BB80CD5AD04068196B
:1059D00079098A099B0968397A438105910510F391
:1059E0008CEF9FEFC054DF4F99838883C05CD04019
:1059F00038CEBE0161597E4FCE0181960E940A0ABF
:105A0000049709F02ECE8AA590E08111EBCF0E9479
:105A1000A102C355DF4F688379838A839B83CD5A64
:105A2000D040CF54DF4F1882C15BD040C054DF4F0D
:105A300019821882C05CD0408DE092E01DCE8EEFBE
:105A40009FEFC054DF4F99838883C05CD04012CE53
:105A50008BE392E00E94790B4CEF242E33243A948E
:105A6000CE0181960E94F3088823D1F30E94A102FF
:105A70002B013C01C355DF4F88819981AA81BB81ED
:105A8000CD5AD040A3019201281B390B4A0B5B0B66
:105A9000DA01C90189399A43A105B105A8F4C755AE
:105AA000DF4F88819981AA81BB81C95AD040A30167
:105AB0009201281B390B4A0B5B0BDA01C9018939AA
:105AC0009A43A105B105E0F18DA19EA1CF54DF4F0E
:105AD0002881C15BD040222371F0C054DF4F39824E
