:100000000C947A000C941D1D0C94F11C0C946E1C25
:100010000C94EB1B0C94511B0C94A2000C94A200AA
:100020000C94A2000C94A2000C94A2000C94A200C8
:100030000C94A2000C94A2000C94A2000C94A200B8
:100040000C94071B0C94A2000C94D51A0C94AF1AB4
:100050000C94A2000C94A2000C94A2000C94A20098
:100060000C94A2000C94A2000000000025002800BF
:100070002B0000000008000201000003040700003C
:100080000000000000006F75742F617264312F63EF
:100090006F6E7400636D6E642F617264312F7465CE
:1000A00073740073746172742072656164004D51E1
:1000B000545400657468007374617274696E6700EB
:1000C00000000000240027002A000102040810207C
:1000D00040800102040810200102040810200404DA
:1000E00004040404040402020202020203030303E0
:1000F0000303941D11241FBECFEFD8E0DEBFCDBF98
:1001000011E0A0E0B1E0E2E4FCE402C005900D9251
:10011000A03BB107D9F725E0A0EBB1E001C01D92EB
:10012000A236B207E1F710E0CAE7D0E004C0219799
:10013000FE010E94AC24C937D107C9F70E94461EB0
:100140000C941F260C940000CF93DF93EC01FA016E
:100150003296E60FF71FDC019D012C1B3D0BCF01F2
:10016000861B970B4D91442311F04193F5CFAC01C1
:10017000421B530B640F751FFB0132973083615094
:100180007109FB012083DF91CF910895FC01ED56A9
:10019000FF4FDB0112964D915D916D917C9115970A
:1001A000428353836483758338962BE537E031832C
:1001B00020833297118210820895AF92BF92CF921E
:1001C000DF92EF92FF920F931F93CF93DF936C0117
:1001D0007B018B01040F151FEB015E01AE18BF08F8
:1001E000C017D10759F06991D601ED91FC910190AA
:1001F000F081E02DC6010995892B79F7C501DF91C2
:10020000CF911F910F91FF90EF90DF90CF90BF9013
:10021000AF900895FC01538D448D252F30E0842F3D
:1002200090E0821B930B541710F0CF96089501971E
:100230000895FC01918D828D981761F0A28DAE0F0B
:10024000BF2FB11D5D968C91928D9F5F9F73928F92
:1002500090E008958FEF9FEF0895FC01918D828DBE
:10026000981731F0828DE80FF11D858D90E008958B
:100270008FEF9FEF0895FC01918D228D892F90E0E3
:10028000805C9F4F821B91098F73992708958AE69E
:1002900094E00E943B0121E0892B09F420E0822FA9
:1002A000089580E090E0892B29F00E944701811198
:1002B0000C9400000895FC01A48DA80FB92FB11D66
:1002C000A35ABF4F2C91848D90E001968F7399278C
:1002D000848FA689B7892C93A089B1898C9183706A
:1002E00080648C93938D848D981306C00288F38963
:1002F000E02D80818F7D80830895EF92FF920F9390
:100300001F93CF93DF93EC0181E0888F9B8D8C8DC1
:1003100098131AC0E889F989808185FF15C09FB7B5
:10032000F894EE89FF896083E889F9898081837078
:10033000806480839FBF81E090E0DF91CF911F9127
:100340000F91FF90EF900895F62E0B8D10E00F5F48
:100350001F4F0F731127E02E8C8D8E110CC00FB61E
:1003600007FCFACFE889F989808185FFF5CFCE01B6
:100370000E945B01F1CFEB8DEC0FFD2FF11DE35AD5
:10038000FF4FF0829FB7F8940B8FEA89FB89808139
:100390008062CFCFCF93DF93EC01888D8823B9F0B3
:1003A000AA89BB89E889F9898C9185FD03C0808180
:1003B00086FD0DC00FB607FCF7CF8C9185FFF2CFFD
:1003C000808185FFEDCFCE010E945B01E9CFDF91F7
:1003D000CF91089590E0FC01EE58FF4F2491FC016D
:1003E000E653FF4F3491FC01E252FF4FE491EE23BC
:1003F000C9F0222339F0233001F1A8F4213019F19A
:10040000223029F1F0E0EE0FFF1FE859FF4FA591D0
:10041000B4918FB7F894EC91611126C030953E23CA
:100420003C938FBF08952730A9F02830C9F02430BD
:1004300049F7809180008F7D03C0809180008F7785
:1004400080938000DFCF84B58F7784BDDBCF84B508
:100450008F7DFBCF8091B0008F778093B000D2CF9B
:100460008091B0008F7DF9CF3E2BDACFCF93DF9311
:1004700090E0FC01E653FF4F249182529F4FFC0114
:1004800084918823D1F090E0880F991FFC01E054FB
:10049000FF4FA591B491FC01E859FF4FC591D4914C
:1004A00061110EC09FB7F8948C91E22FE0958E23D6
:1004B0008C932881E223E8839FBFDF91CF91089539
:1004C0008FB7F894EC91E22BEC938FBFF6CF3FB748
:1004D000F89480918D0290918E02A0918F02B0913C
:1004E000900226B5A89B05C02F3F19F00196A11DCB
:1004F000B11D3FBFBA2FA92F982F8827BC01CD016E
:10050000620F711D811D911D42E0660F771F881FCC
:10051000991F4A95D1F708958F929F92AF92BF92FB
:10052000CF92DF92EF92FF924B015C010E94670233
:100530006B017C010E9467026C197D098E099F097D
:10054000683E734081059105A8F321E0821A910865
:10055000A108B10888EEC80E83E0D81EE11CF11C8A
:1005600081149104A104B10429F7FF90EF90DF906A
:10057000CF90BF90AF909F908F9008952FB7F89431
:100580006091890270918A0280918B0290918C0215
:100590002FBF0895AEEAB2E025E014969C9114971F
:1005A00098130DC095E0899FF0011124E255FD4F8D
:1005B000848114968C931382128214820895992355
:1005C00031F0929FD0011124A255BD4FE6CF08957E
:1005D0008823A1F090917C03992381F08F3F29F427
:1005E0008091810390918203089595E0899FF001A5
:1005F0001124E255FD4F82819381089590E080E0BF
:1006000008958EBD00000DB407FEFDCF8EB5089590
:100610000F931F93CF93DF938C01EB0160E08AE08F
:100620000E94EA018AE30E9401030C0F1D1F0C17B0
:100630001D0729F080E00E9401038993F8CF61E053
:100640008AE0DF91CF911F910F910C94EA011F93E3
:10065000CF93DF93182FC62FD42F60E08AE00E943B
:10066000EA018C2F8F71812B0E9401038D2F0E9434
:10067000010361E08AE0DF91CF911F910C94EA01C0
:10068000CF93DF93D82FD076909100019D17A1F0E2
:10069000C82F43E06FE180EA0E9427034C2F50E00F
:1006A00085E0559547958A95E1F743706FE180E8BD
:1006B0000E942703D0930001DF91CF9108951F93EB
:1006C000CF93DF93C82F162FD72F0E944003412FBF
:1006D0006C2F80E40E94270361E06C0F4D2F80E4B3
:1006E000DF91CF911F910C942703EF92FF920F930C
:1006F0001F93CF93DF938B017A018F3F59F095E0E1
:10070000899FE0011124C255DD4F68817981600F16
:10071000711F10C060917F0370918003600F711F83
:10072000CFE7D3E0611588E0780778F36F5F774013
:10073000CFE7D3E080E00E945F038A819B81801B2A
:10074000910BE816F90608F4C701DF91CF911F91CC
:100750000F91FF90EF90089560917D0370917E035B
:100760006115710529F0615071098CE00C945F03EB
:100770006FEF77E0FACFCF93DF93C82FD62F0E9489
:1007800040034D2F6C2F80E4DF91CF910C94270311
:10079000CF93DF93D82FC62F60E08AE00E94EA0152
:1007A0008C2F8F718D2B0E940103C7FF03C080E047
:1007B0000E94010380E00E940103C82F61E08AE0EB
:1007C0000E94EA018C2FDF91CF910895CF93C82F1B
:1007D0000E9440036C2F80E0CF910C94C803CF930C
:1007E000DF9361E184ED0E94BB0361E082ED0E9432
:1007F000BB03CFE0D0E08AEE0E94E60380FF0BC08F
:100800006AE070E080E090E00E948C02219799F706
:1008100090E080E00DC060E082ED0E94BB0388EDB7
:100820000E94E603C82F89ED0E94E603982F8C2FC3
:10083000DF91CF910895CF93DF93EB01682F84ED83
:100840000E94BB03BE0186ED0E945F03CFE0D0E0B3
:100850008AEE0E94E60380FF08C06AE070E080E054
:1008600090E00E948C02219799F7DF91CF91089533
:10087000CF93C62FBC0182E00E945F0360E08AE054
:100880000E94EA018AE70E9401038C2F0E94010363
:1008900061E08AE0CF910C94EA01CF93BC0180E043
:1008A0000E945F0360E08AE00E94EA018AE30E94FE
:1008B000010380E00E940103C82F61E08AE00E94EA
:1008C000EA018C2FCF910895CF92DF92EF92FF92A1
:1008D0000F931F93CF93DF936C018B014130510530
:1008E00079F4CB010E944D04682FC601DF91CF91AE
:1008F0001F910F91FF90EF90DF90CF900C943804F0
:10090000EA01C60FD71F7E0181E0E81AF10880E1F5
:100910000E945F03B60184E10E945F030115184045
:1009200048F4E11488E0F80628F07E0181E0E81A36
:1009300088E0F80AB70182E10E945F0340E16FE1BD
:1009400080EA0E94270340E26FE180E80E942703CB
:100950006FE180E00E94C80385FF07C061E070E09E
:1009600080E090E00E948C02F3CFDF91CF911F9145
:100970000F91FF90EF90DF90CF900895CF92DF928C
:10098000EF92FF920F931F93CF93DF938C016091AF
:10099000AE027091AF026150784EC12C98E1D92E11
:1009A000EEEAF2E020E0D0E0C0E045E03481CB01A7
:1009B000332341F0439FC001112482559D4FDC0138
:1009C0008D919C91E080F1808E199F090280F381C6
:1009D000E02D8E1B9F0B8017910799F4B5E02B9F9C
:1009E000E0011124C255DD4FE3EBF2E081E022810A
:1009F0003381232B09F453C035968F5F8932B9F7C1
:100A000044C00817190748F48C159D0530F4249F3D
:100A1000E0011124C255DD4F6C01311121C0209736
:100A200019F7CEEAD2E085E0D82E8C812881398171
:100A3000EA80FB808823D9F0E20EF31E8D9DE00151
:100A40001124C255DD4F68817981E616F70669F3F6
:100A50004A815B81C7010E946404F982E882E5CF84
:100A6000349FF0011124E255FD4F232F9FCF809139
:100A7000AE029091AF02821B930B8E199F09815099
:100A8000984E8017910708F0AFCF80E0DF91CF91AB
:100A90001F910F91FF90EF90DF90CF9008952881E4
:100AA00039814A815B81240F351F31832083138371
:100AB00002839C8194838C83E9CF0F931F93DB0186
:100AC000E42FA80190E0EF3FE9F065E0E69FF00138
:100AD0001124E255FD4F60817181620F731F02C0C6
:100AE0006F5F774025E0289FF001299FF00D1124CA
:100AF000E255FD4F808191818A0F9B1F1F910F91BD
:100B00000C94640460917F0370918003620F731FE3
:100B10006115E8E07E0720F7EFE7F3E0DCCFCF9246
:100B2000DF92EF92FF920F931F93CF93DF936B01AE
:100B30008A01790195E0899FE0011124C255DD4FBA
:100B4000688179816C0D7D1D82E00E945F030A80BF
:100B5000DB81C02DCC19DD09EC16FD0608F4E70198
:100B600060E08AE00E94EA018AE70E9401037801BE
:100B7000EC0EFD1EE016F10631F0F80181918F01B7
:100B80000E940103F7CF61E08AE00E94EA01CE01F2
:100B9000DF91CF911F910F91FF90EF90DF90CF9059
:100BA0000895FB0141505109460F571FE417F507FF
:100BB00078F4208130E0322F22276181260F311D09
:100BC000820F931F8217930708F401963296EECF97
:100BD000E417F50751F4208130E0322F2227820FED
:100BE000931F8217930708F401960895CF92DF921E
:100BF000EF92FF920F931F93CF93DF938091340274
:100C000090E0982F882720913502820F911D7C015A
:100C100024E1E21AF10848E050E06EE372E00E973A
:100C20000E94D10500915202069506950C7310E0C2
:100C3000A80166E472E00E94D105EC010E151F05C3
:100C400008F042C0A701401B510BB8016E5D7F4FF9
:100C5000809106020E94750301977C0160E08AE0A2
:100C60000E94EA018AE30E940103D12CC12CCE1418
:100C7000DF04B8F480E00E940103082F10E0102F79
:100C8000002780E00E940103800F912F911DC80F63
:100C9000D91FC817D90708F4219682E0C80ED11CC5
:100CA000E6CFEC14FD0461F480E00E94010390E0C3
:100CB000982F8827C80FD91FC817D90708F421967D
:100CC00061E08AE00E94EA019C2F8D2FCD2B11F468
:100CD0008FEF9FEFDF91CF911F910F91FF90EF90DA
:100CE000DF90CF90089544E150E062E372E090E03D
:100CF00080E00E94D105009721F098278927982746
:100D000008958FEF9FEF0895CF92DF92EF92FF92B9
:100D10000F931F93CF93DF93C0910502C1FF5EC075
:100D20002091040230E044E252E070E060E0809103
:100D300006020E948F05CD7FC0930502F090060247
:100D400080917C03882309F474C085E0F89EF0014B
:100D50001124E255FD4FC081D18121970281138179
:100D60000C0F1D1FCE010E944D04E82E882321F098
:100D700060E0CE010E943804BE0184E00E945F035F
:100D8000B80186E00E945F038AE0C82ED12C40E8BB
:100D90006FE180E80E94270340E86FE180EA0E944B
:100DA00027034AE06CE180EA0E94270348E06FE1F4
:100DB00080E80E94270304E610E08CE10E94E6032D
:100DC0008A7029F50115110521F1015011096AE018
:100DD00070E080E090E00E948C02EFCFC0911C0296
:100DE000D0911D02209721F41092060280E029C0C4
:100DF000CE010E94BE04809306028823B9F39E01AF
:100E000044E252E070E060E00E948F0597CF012B32
:100E100051F448E06FE180EA0E94270381E0C81A9C
:100E2000D10809F0B4CFEE2021F06E2DCE010E9442
:100E30003804FF2019F08F2D0E94CA02109206027A
:100E400081E0DF91CF911F910F91FF90EF90DF90A4
:100E5000CF9008950F931F93CF93DF93EC018C01F4
:100E60000B5F1F4F899181110E94CA02FE013197C9
:100E70001082C017D107B1F7DF91CF911F910F9169
:100E80000895CF93DF93EC01888181110E94CA02FB
:100E9000FE01CE01049621812193E817F907D9F7C5
:100EA0001C82DF91CF910895CF93DF93EC01E8810D
:100EB000F981008CF18DE02D0995882339F08C851E
:100EC0009D850296DF91CF910C942A07DF91CF91F7
:100ED00008950F931F93CF93DF931F92CDB7DEB783
:100EE0008C01DC01ED91FC91008CF18DE02D0995D8
:100EF0008823D1F0D8011C96ED91FC918281882342
:100F000099F041E050E070E060E00E947503BE019E
:100F10006F5F7F4F0E940803898190E00F90DF91FF
:100F2000CF911F910F9108958FEF9FEFF7CFCF9340
:100F3000DF931F92CDB7DEB7DC01ED91FC91028803
:100F4000F389E02D41E050E0BE016F5F7F4F0995CE
:100F50001816190634F4898190E00F90DF91CF9133
:100F600008958FEF9FEFF9CF6F927F928F929F92AC
:100F7000AF92BF92CF92DF92EF92FF920F931F93A7
:100F8000CF93DF938C014B01EA01DC01ED91FC91E1
:100F9000008CF18DE02D0995882309F480C0D801DB
:100FA0001C96ED91FC918281882309F47BC07E011F
:100FB0008EE1682E5E01AE18BF08A80CB91CD801DE
:100FC0001C96ED91FC91A70170E060E082810E9487
:100FD00075036C01B5010E940803F801A484B5846F
:100FE000D50112967C90872D0E94E8028C159D05F4
:100FF000E9F5E81AF90AC50102960E944107F801CD
:10100000A485B585EC916E9EF0011124EA57FC4F42
:10101000818D84FF09C011968C911197982F96703D
:1010200019F4886011968C93D8011C96ED91FC916F
:101030001D97828181112EC0818182FF05C011829E
:101040001D961C921E921C97CE018E199F09DF914E
:10105000CF911F910F91FF90EF90DF90CF90BF90B5
:10106000AF909F908F907F906F900895B5E07B9E9A
:10107000F0011124E255FD4F808191818C0D9D1D61
:1010800091838083828193818C199D0993838283CC
:10109000CE01DDCFE114F10409F08CCFF9CF8FEF51
:1010A0009FEFD5CF90E080E0D2CFEF92FF920F93E9
:1010B0001F93CF93DF93EC01E881F981008CF18DD0
:1010C000E02D09958823E1F00C851D85780182E0EB
:1010D000E80EF11C095F1F4FD0E0C0E0F7018191DD
:1010E0007F010E94E802C80FD91FE016F106B1F790
:1010F000CE01DF91CF911F910F91FF90EF90089556
:10110000D0E0C0E0F5CFFC0144855585411551057F
:1011100051F0FB01248535852115310521F081E051
:101120004217530709F080E00895DC011C96ED9109
:10113000FC91309731F08281811105C081818170ED
:10114000089580E0089581E0089590E080E008959A
:10115000DC01ED91FC91028CF38DE02D099591E07D
:1011600089270895CF93DF93FC01A481B58110975F
:1011700021F480E0DF91CF910895EC01ED91FC9195
:1011800011970688F789E02DCD01099581111EC0C0
:10119000FE01E156FF4F80819181892B51F78DEF40
:1011A0009FEF918380838C819D81DC01ED91FC9187
:1011B0000680F781E02D09958C819D81DC01ED9100
:1011C000FC910488F589E02D0995D3CF81E0D2CF39
:1011D000CF92DF92EF92FF920F931F93CF93DF9303
:1011E00000D000D0CDB7DEB78C01F90180E0DE0180
:1011F00011967D019E2F9F77EE0FEF2FEE1FFF0BB5
:10120000F195309709F09068D701A80FB11D9C9314
:101210008F5F309779F790E0FA01E81BF90B648350
:10122000FA01E81BF90B3596D701BD016E197F094C
:10123000681779071CF46D916193F7CFFC01319623
:10124000D80114968D919C917F01E20EF31EBA0194
:101250006E1B7F0B6B5F7F4FDC01ED91FC91028079
:10126000F381E02DA70109956C010E94BE02F801EF
:10127000E857FF4F608371838283938381E0EC148E
:10128000FD0409F080E00F900F900F900F90DF9118
:10129000CF911F910F91FF90EF90DF90CF90089525
:1012A000EF92FF920F931F93CF93DF93EC018B018B
:1012B0007A010E94BE02FE01E857FF4F60837183EE
:1012C000828393838C819D81DC01ED91FC9102806E
:1012D000F381E02DA701B801DF91CF911F910F910C
:1012E000FF90EF9009941F93CF93DF93EC01162F9B
:1012F0000E94BE02FE01E857FF4F60837183828324
:1013000093838C819D81DC01ED91FC910190F081B2
:10131000E02D612FDF91CF911F910994CF92DF9241
:10132000EF92FF920F931F93CF93DF93EC018B010A
:101330000E94BE026B017C018C819D81DC01ED91DC
:10134000FC910084F185E02D0995892B69F40E94B8
:10135000BE026C197D098E099F0968397A4381059F
:10136000910550F380E00CC08C819D81DC01ED91F2
:10137000FC910284F385E02D0995F801808381E0DA
:10138000DF91CF911F910F91FF90EF90DF90CF9061
:1013900008952F923F924F925F926F927F928F9219
:1013A0009F92AF92BF92CF92DF92EF92FF920F93F4
:1013B0001F93CF93DF9300D0CDB7DEB78C014B01E5
:1013C0006C0126E0C20ED11CB6010E948E0981116B
:1013D00018C0F12CE12CC7010F900F90DF91CF9135
:1013E0001F910F91FF90EF90DF90CF90BF90AF9043
:1013F0009F908F907F906F905F904F903F902F9035
:101400000895D8011696BC91BA8319821801E7E0B5
:101410002E0E311CEE24E394F12CB12CA12C412C86
:10142000512C32014394BE016F5F7F4FC8010E946F
:101430008E09882371F2B7016F5F7F4F8981F101B7
:1014400081931F01282F2F7730E0249DA001259D37
:10145000500D349D500D1124A40EB51E27E0440CF0
:10146000551C661C771C2A95D1F787FD35C0FA817B
:10147000F07FFA838FEF860FD4018C93F03309F05D
:1014800043C06C0D7D1DC8010E948E09882309F49C
:10149000A0CFB7016E5F7F4F6C0D7D1DC8010E940C
:1014A0008E09882309F495CFB7016D5F7F4FD40172
:1014B000EC91E00FF12FF11DC780D12CDC2CCC2456
:1014C0008085C80ED11CF801868181FF03C0F2E03F
:1014D000CF0ED11C82E01BC07B016530710509F085
:1014E000A2CFF801E156FF4F8FEF9FEF91838083EA
:1014F000D80114968D919C91DC01ED91FC910488AA
:10150000F589E02D099565CF80E0D12CC12C482EBE
:10151000512C7B01461A570A18012DE9220E311C65
:101520008EEF682E77247A94C2018E0D9F1D8A1546
:101530009B0588F5BE016F5F7F4FC8010E948E0931
:10154000882309F446CFD1018D919C910097B1F089
:10155000BA81B03399F4F4012081A301421B5109EF
:101560009A012E0D3F1DC216D30640F4DC01ED9109
:10157000FC910190F081E02D69810995B0E8EB16AE
:10158000F10428F48981F801EE0DFF1D8683EFEF49
:10159000EE1AFE0AC9CFF801E356FF4F8081918110
:1015A000892B09F018CFF1E8EF16F10408F011CFFC
:1015B00012CF662331F0613031F4FC0183810C9449
:1015C000EA0160E0FACF0895089590E080E0089580
:1015D000CF92DF92EF92FF920F931F93CF93DF93FF
:1015E000CDB7DEB7C254D1090FB6F894DEBF0FBE37
:1015F000CDBF8C01FB0182819381A481B5812396AB
:101600008CAF9DAFAEAFBFAF239721E023962FAF36
:10161000239723964CAD5DAD6EAD7FAD23974BAB5D
:101620005CAB6DAB7EAB89AF9AAFABAFBCAF8DA7F8
:101630009EA7AFA7B8AB28AB4DA55EA56FA578A9AF
:101640004FA358A769A77AA72EAB4BA95CA96DA990
:101650007EA949A35AA36BA37CA38B8F9C8FAD8FCC
:10166000BE8F2AA74FA158A569A57AA54D8B5E8B81
:101670006F8B788F2CA349A15AA16BA17CA14F87B6
:10168000588B698B7A8B89879A87AB87BC870E9436
:10169000BE0266507F4F8F4F9F4F609366047093DA
:1016A00067048093680490936904109280031092F9
:1016B0007F031092820310928103E0EBF2E08BEC47
:1016C000DF011D928A95E9F781E098E09093AF02DF
:1016D0008093AE0261E08AE00E94360261E08AE017
:1016E0000E94EA01FFB6F89480917B03811127C024
:1016F000E8EEF0E08491E4EDF0E09491E82FF0E082
:10170000EE0FFF1FE054FF4FA591B491EC91E92338
:1017100021F461E08AE00E94EA0161E08AE00E942F
:1017200036028CB580618CBD8CB580648CBD61E067
:101730008DE00E94360261E08BE00E9436028091CB
:101740007B038F5F80937B03FFBE8CB58C7F8CBD4A
:101750008DB581608DBD4FEF60E08FEF0E94270354
:1017600062E070E080E090E00E948C0262E370E052
:1017700080E090E00E948C0210927E0310927D0324
:1017800080E1E82EF12C6DE180E00E94C803811118
:101790000BC0B1E0EB1AF10839F06AE070E080E0CC
:1017A00090E00E948C02EFCF70E060E088E00E9441
:1017B0005F0370E060E08CE00E945F036FEF77E012
:1017C0008AE00E945F0361EB88E30E94BB036FE342
:1017D00070E388E20E945F0369EF77EF80E30E9485
:1017E0005F036DE070E080EC0E945F0342E362EC17
:1017F00080E80E94270362E17CE086EC0E945F03A0
:1018000062E184EC0E94BB036CED75E08AEC0E94FF
:101810005F03F801608184EE0E94BB03D80111963A
:101820006C9185EE0E94BB03F801628182EE0E94FA
:10183000BB03D80113966C9183EE0E94BB03F801A1
:10184000648180EE0E94BB03D80115966C9181EEF5
:101850000E94BB0360E071E080E10E941B048FE105
:101860000E94400340EC6BE180E80E94270344E0C3
:101870006FE180E80E94270366E774E084E10E943C
:101880001B0482E70E94E6038F3F09F48BC080931C
:101890007C03F801808180936004818180936104DE
:1018A0008281809362048381809363048481809326
:1018B00064048581809365041092FF031092FE03F7
:1018C000109201041092000410920304109202047A
:1018D000109205041092040410929F031092BD030D
:1018E0001092DB031092F90384E08093060480E0F9
:1018F00094E0909385038093840310925F049BE0AF
:1019000024E080915F04883008F44FC04D895E89DF
:101910008F8921E02A8BCF84D888E988FA88CB8206
:10192000DC82ED82FE826B857C85E985FA85F09309
:10193000AB02E093AA027093AD026093AC025093A5
:10194000A7024093A60290E091609093A902809331
:10195000A8028FEF9FEF9093A3028093A2028FEFD4
:1019600090E09093A5028093A4022E838B819C81AA
:10197000AD81BE818093150590931605A093170540
:10198000B0931805CE5BDF4F0FB6F894DEBF0FBEE5
:10199000CDBFDF91CF911F910F91FF90EF90DF901E
:1019A000CF90089510927C0374CF899FF001112489
:1019B000E95FFB4FDF01322F1D923A95E9F78F5F08
:1019C00080935F049ECFCF92DF92EF92FF920F93AE
:1019D0001F93CF93DF938C016B01EA010E94B20841
:1019E0008823C1F183E992E0FC0101900020E9F72E
:1019F000CF018C0F9D1F8D5892408138910550F575
:101A00007801F6E0EF0EF11C45E050E0B70183E904
:101A100092E00E94A400F601DC011696A00FB11F0F
:101A2000A6014C0F5D1FE417F50719F021912D93C6
:101A3000FACF25979E01280F391FA70160E3C8013F
:101A4000DF91CF911F910F91FF90EF90DF90CF909A
:101A50000C94E80880E0DF91CF911F910F91FF90E7
:101A6000EF90DF90CF900895FB0101900020E9F7FF
:101A70003197AF01461B570BDC01ED91FC910280C1
:101A8000F381E02D09948F929F92AF92BF92EF92D3
:101A9000FF920F931F93CF93DF93CDB7DEB7A1973C
:101AA0000FB6F894DEBF0FBECDBF7C01FA01CB01AB
:101AB00019A2223008F42AE08E010F5D1F4F822EFA
:101AC000912CB12CA12CBF01A50194010E948A2464
:101AD000F901CA016A300CF5605DD8016E938D0181
:101AE000232B242B252B79F790E080E0109721F011
:101AF000BD01C7010E94340DA1960FB6F894DEBF58
:101B00000FBECDBFDF91CF911F910F91FF90EF904E
:101B1000BF90AF909F908F900895695CDECFEF9259
:101B2000FF920F931F93CF93DF938C017B01D0E043
:101B3000C0E0F701EC0FFD1F6491662339F0C80186
:101B40000E947D01892B11F02196F3CF6CE671E0A4
:101B5000C8010E94340D8C0F9D1FDF91CF911F9102
:101B60000F91FF90EF9008958F929F92AF92BF9246
:101B7000CF92DF92EF92FF920F931F93CF93DF9359
:101B80007C01EB016C0182E0C80ED11C4701E5E04D
:101B90008E0E911C10E000E0F60141916F0150E0C3
:101BA00070E060E02AE0CE010E94430D5C01E88114
:101BB000F9810190F081E02D6EE2CE0109958A0D48
:101BC0009B1D080F191FC814D90431F7F70145816F
:101BD00050E070E060E02AE0CE010E94430D800FEB
:101BE000911FDF91CF911F910F91FF90EF90DF90A8
:101BF000CF90BF90AF909F908F9008950F931F93B9
:101C0000CF93DF938C01EB010E94BE0264E670E08B
:101C100080E090E00E948C02F801648175814FE0C1
:101C200050E083E992E00E947B246FE671E08AE64F
:101C300094E00E94340D6CE671E08AE694E00E9424
:101C4000340DF801868181FF13C0609134057091D5
:101C50003505FB0101900020E9F73197AF01461BE4
:101C6000570BCE01DF91CF911F910F910C94E30C94
:101C70006091310570913205FB0101900020E9F778
:101C80003197AF01461B570BCE010E94E30C482F42
:101C900050E070E060E02AE08AE694E00E94430DA4
:101CA0006CE671E08AE694E0DF91CF911F910F918D
:101CB0000C94340D0E94D725EF92FF920F931F933F
:101CC000CF93DF93FC0110925F04C7E0D4E0DE0104
:101CD00030E020E02830310569F490E0983009F0D8
:101CE00042C010921B0210921A0210925F0427E069
:101CF00034E044C0CD01875094400D911C91119760
:101D00000115110561F112964D915C9113974115E2
:101D1000510529F1E080F1800E151F0501F50281C2
:101D2000138140175107D9F420935F04DC01A55FAC
:101D3000BB4F86E0FB0101900D928A95E1F78BE0A5
:101D4000829FF001839FF00D1124E95FFB4F128603
:101D5000DF91CF911F910F91FF90EF9008952F5F2A
:101D60003F4F1B96B7CF9E0148815981452BB1F457
:101D70004A815B81452B91F490935F0484E0D90103
:101D800001900D928A95E1F7D901149686E0FB0146
:101D900001900D928A95E1F7F901D9CF9F5F2B96BB
:101DA0009DCFEF92FF920F931F93CF93DF9300D0BD
:101DB00000D000D0CDB7DEB740914202509143022F
:101DC0004F3F540731F480914402909145020196AF
:101DD00019F18091AA029091AB026091A2027091D8
:101DE000A3029B0120953095282B392B42175307CE
:101DF000A9F52091A4023091A50220953095E0919B
:101E0000AC02F091AD022E2B3F2BE0914402F091F9
:101E10004502E217F30711F586E0E4E1F1E0A4E200
:101E2000B2E001900D928A95E1F786E0E0E6F4E0F9
:101E3000AAE2B2E001900D928A95E1F788E090E085
:101E4000909331028093300280911C0290911D0288
:101E50000E9690931D0280931C02A5C0842795279F
:101E600086239723892B99F42091440230914502CF
:101E70008091AC029091AD02822793276091A402D9
:101E80007091A50286239723892B09F499C080912C
:101E9000A6029091A7029093210280932002809144
:101EA000A8029091A9029093230280932202E090CD
:101EB0002002F09021020091220210912302E7E01B
:101EC000F4E080E0883009F084C080935F0446E04D
:101ED00050E06FEF70E084E292E00E94042686E01A
:101EE000E4E4F2E0DF01282F1D922A95E9F7E0E60D
:101EF000F4E0AAE2B2E0982F01900D929A95E1F7F2
:101F0000E0E6F4E0AAE3B2E0982F01900D929A95F2
:101F1000E1F7F0924B02E0924A0210934D020093D7
:101F20004C022091AA023091AB02309341022093DF
:101F300040022091AC023091AD02309343022093D5
:101F4000420220E031E0309339022093380230938E
:101F500033022093320228E030E0309335022093A0
:101F600034028093360294E09093370228E036E002
:101F700030933102209330022AE532E030931F0281
:101F800020931E022AE230E030931D0220931C02AF
:101F9000BE016F5F7F4FDB011D928A95E9F780E2FA
:101FA00092E00E945C0E26960FB6F894DEBF0FBE3C
:101FB000CDBFDF91CF911F910F91FF90EF900895CA
:101FC0005093210240932002309323022093220257
:101FD0006ECF20813181E216F306E1F42281338154
:101FE00002171307B9F49481911103C095819923C5
:101FF00029F080935F04349686E011CF9681911189
:10200000F8CF97819111F5CF90859111F2CF9185FD
:102010009111EFCF8F5F3B9655CFAF92BF92CF928A
:10202000DF92EF92FF920F931F93CF93DF93E09095
:102030001802F0901902F701C48DD58DD0901502C9
:10204000209781F5D6FC03C0F12CE12CC6C0EBEB48
:10205000F1E090E080E0218121117CC042E1489FC5
:102060009001499F300D1124E901C554DE4FC7018D
:1020700086589340959587956FEE7EEE869FA001DA
:10208000879F500D969F500D1124488381E08983CE
:1020900023543E4F81E1F90111928A95E9F7F70146
:1020A000D58FC48FD1FE30C000911C0210911D024B
:1020B0000115110549F18981867031F55E01F2E063
:1020C000AF0EB11CC12CF50181915F01811149C096
:1020D000C8010E94BE04F50131978083882309F46A
:1020E00040C020911E0230911F0224523240409184
:1020F000030270E060E00E945D05F4E0CF1204C0CE
:10210000F701818D8061818F898183FF0AC0877F7C
:1021100089838D2D826080931502F701818D8F7EDA
:10212000818F1091150214FD02C017FF26C0CE0149
:1021300007960E942A078A818823E9F0F7018481A3
:1021400095819F838E83898184608983F701158EB1
:10215000148E7ACF019672968430910509F07BCF68
:1021600073CFC394F5E0CF12AECF809105028E7F7E
:1021700080930502C5CF1982E9CF10FF04C0CE01BC
:1021800007960E9441071C7009F465C08F8188235F
:1021900009F461C09885911144C0EC84FD84E11478
:1021A000F10409F451CF95E0899FF0011124E25523
:1021B000FD4FF382E282C0901E02D0901F02F60112
:1021C000E452F2406F01E0930402DD24C6018E0D5B
:1021D0009F1D009769F51092060260911E02709192
:1021E0001F02F0921002E0920F021E141F0454F41A
:1021F00080911602909117026817790719F0A701CC
:102200000E94E925F0921D02E0921C02DF91CF911D
:102210001F910F91FF90EF90DF90CF90BF90AF9004
:1022200008950E94E8027C01892B09F40DCFC3CFE9
:102230000E94BE0480930602882379F2870130E071
:1022400020E04F81B6010E945D0580910502826009
:1022500080930502C2CF898181FFF6CE8F818111E3
:1022600008C01982F701158E148E80E18093150243
:10227000EBCEF701818D8061818FE6CEAF92BF9268
:10228000CF92DF92EF92FF921F93CF93DF93C09193
:102290001802D09119022AE532E030931F022093F0
:1022A0001E0230931702209316028330C9F4898DE1
:1022B0008F70833009F044C088899989892B09F08F
:1022C0003FC088E0809315020E940D108091150296
:1022D00085FFDFC41092100210920F02198E51C0B8
:1022E000823009F005C1809114028F5F809314023F
:1022F000811113C0809113028F5F809313028111AB
:102300000CC0809112028F5F80931202811105C070
:10231000809111028F5F8093110210921D02109222
:102320001C021092100210920F02898D982F9D7F2F
:10233000953059F48A8D8F5F8A8F883709F4198E0A
:1023400010921D0210921C0254C18823C9F32889DF
:102350003989232B09F4C7C09A8D2FEF290F2A8FB3
:102360009111EECF9B8D983031F02FEF280F223056
:1023700050F4953041F4198E80E8809315020E9444
:102380000D1084E184C0392F953008F034E023E04B
:1023900001C0220F3A95EAF72A8F9F5F9B8F8F70BB
:1023A000833009F47DC008F06AC0813009F4D2C2DC
:1023B000823031F6109253028091530282608093F2
:1023C000530282E080935A0294E090935B028093E0
:1023D0005C0210925D028CE290E090931D0280936B
:1023E0001C0280E680935202888580934E02898584
:1023F00080934F028A85809350028B85809351028F
:102400008C8580934A028D8580934B028E858093C4
:102410004C028F8580934D0286E080933B028C8135
:102420009D8190934702809346028E819F81909375
:102430004902809348028091AA029091AB02909346
:102440003F0280933E028091AC029091AD02909346
:102450004102809340028881998190934302809346
:1024600042028A819B819093450280934402898D28
:1024700084FF95C4109255021092540280C1863098
:1024800029F0883019F0843009F05ACF81E1809327
:10249000530288E290E090931D0280931C0221C0B9
:1024A00084E0809315020E940D1080911602909195
:1024B000170290931F0280931E0280910F02909149
:1024C0001002892B09F416C488899989009709F4A8
:1024D00011C4889690931D0280931C0288E180931A
:1024E000530280E57FCF8F70833009F029CFE9CE8A
:1024F00080913202853409F023CFC0903402D12C70
:10250000DC2CCC2480913502C80ED11C80911C0299
:1025100090911D028C159D0508F412CFD0921D02DA
:10252000C0921C02809138028F7309F009CF10917C
:102530003902111105CFA090AA02B090AB02A114EC
:10254000B10431F48091AC029091AD02892BA1F0DD
:102550008091420290914302A816B90609F0F0CE8C
:1025600020914402309145028091AC029091AD02DD
:102570002817390709F0E4CE0E947306019609F086
:10258000DFCE80913B02863009F441C0813009F0F2
:10259000D7CE80914602883009F0D2CE1092460202
:1025A0008091480290914902873F2FEF920768F18E
:1025B0000996909349028093480280913E0290913F
:1025C0003F02909343028093420280914002909197
:1025D00041029093450280934402B0923F02A09240
:1025E0003E028091AC029091AD02909341028093A3
:1025F000400210921502DF91CF911F91FF90EF9052
:10260000DF90CF90BF90AF9008950896D2CF0E94F0
:10261000F605019609F094CE409148025091490286
:10262000609146027091470280913E0290913F0274
:10263000E0914002F0914102C6E8D3E0298D2223C7
:10264000A9F0AC81BD814A175B0781F4AE81BF81DF
:102650006A177B0759F4A881B9818A179B0731F45F
:10266000AA81BB81EA17FB0709F47CC16E9623E0BF
:10267000C03ED20719F310F3809153028F7382305A
:1026800061F450930E0240930D02EEEFF3E080E010
:10269000843009F0B2C0809306048091530282FD19
:1026A0004FCE84E18093530288E290E090931D0224
:1026B00080931C0280E58093520230914D028091FC
:1026C000510280934D0220914C02809150028093E0
:1026D0004C022093500290914B0280914F028093C4
:1026E0004B0290934F0280914A02809306044091DE
:1026F0004E0240934A0280934E023F5F3093510254
:1027000031110DC02F5F20935002211108C09F5F2F
:1027100090934F02911103C08F5F80934E0280917E
:1027200046029091470290930E0280930D022091F1
:102730004802309149023093470220934602909319
:1027400049028093480280913E0290913F0290930B
:102750004302809342028091400290914102909303
:10276000450280934402B0923F02A0923E028091C3
:10277000AC029091AD02909341028093400280E4BC
:1027800080933A0280911C0290911D029093340232
:1027900080933502109259021092580210925702FB
:1027A000109256020E94F6058095909590935702DC
:1027B0008093560285E48093320210923302109285
:1027C0003902109238028091070290910802019616
:1027D0009093080280930702909336028093370209
:1027E00010923D0210923C020E94730680959095D3
:1027F00090933D0280933C02FCCE219131918F5FFA
:102800004217530709F044CF10920604E6E8F3E0BC
:1028100090E080E0D0E0C0E08430910531F484E0C5
:1028200080930604209781F48BCD3E2F2F2FA18D0E
:10283000A11163C0809306042EE1289FE001299F27
:10284000D00D1124CA57DC4FD0931902C09318023F
:1028500083E08A8F888F1E8A84E08F8B1B8E5D8336
:102860004C837F836E8380913E0290913F029983D7
:10287000888380914002909141029B838A8381E00A
:10288000898F809111028C87809112028D878091AF
:1028900013028E87809114028F8781E090E0998BDC
:1028A000888B80914D028B8780914C028A87809122
:1028B0004B02898780914A02888781E090E00E94DC
:1028C0007C1D80915202982F907F913508F442C070
:1028D00082958F708550990B880F991F880F991FCB
:1028E000E12FF0E0E817F9072CF4EC5DFD4F36A975
:1028F000311112C0109306042DC0A73031F4209777
:1029000031F0B28DAA8DAB1710F03C2F2D2F019610
:102910007E96C32FD22F80CF313011F41F5FE0CFCE
:1029200027A93230D9F42430C9F41093060480ADBD
:1029300091AD89279827892790930E0280930D02E5
:10294000813022E0920710F080E092E09B8B8A8B2E
:102950009D8B8C8B80E1809353022ECD222351F2EC
:10296000120FBECFD0931902C09318021092150215
:102970009091530292FF07C0198E80E28093150256
:102980000E940D10DDCC8091520282958F70880FCD
:10299000880F80930604C81AD108760184E1E81AEA
:1029A000F108F0921D02E0921C022F70223021F4F7
:1029B000892F8F738231D1F0E114F10419F4892F3A
:1029C0008370A1F039852A858B8550914A0248850C
:1029D0005413C0C140914B024313BCC130914C020F
:1029E0003213B8C120914D022813B4C194FF49C0DD
:1029F000688979896115710509F443C0CE010C9687
:102A00000E94491D30914E0280910902381339C04D
:102A100020914F0280910A02281333C090915002F6
:102A200080910B0298132DC08091510240910C02AD
:102A3000841327C03C872D879E878F87988D8B8D29
:102A4000811118C08E892A8D921B282F26952695D4
:102A50002695921B890F8E8B97FD91952F89322F8A
:102A600036953695231B920F9F8B86958695869576
:102A7000890F888F81E080931502888D8A8F198A4B
:102A8000188A298DE22FEF70E150E83008F058CC19
:102A9000F0E0E35BFA4E0C94AC2455156E15D81596
:102AA0008D16B616C716AA1686168091150280FFD7
:102AB00047CC83E0898F80E480931502198A188AB5
:102AC000E114F10431F082E480931502C7010E9401
:102AD0007C1D1092100210920F02F6CB809115020D
:102AE00080FF5FC0809153028F73823109F059C01B
:102AF00080915202982F907F913598F182958F7036
:102B00008550990B880F991F880F991FE12FF0E0CE
:102B1000E817F9072CF4EC5DFD4F36A9311103C01D
:102B2000109306041EC0313011F41F5FEFCF27A9A8
:102B3000323099F5243089F51093060480AD91ADBB
:102B400089279827892790930E0280930D02813060
:102B500022E0920710F080E092E09B8B8A8B9D8BA5
:102B60008C8B83E0898F80914A02888780914B0209
:102B7000898780914C028A8780914D028B8781E002
:102B800090E00E947C1D82E480931502198A188AC5
:102B900010921D0210921C029CCF222309F2120FE8
:102BA000B5CF80E2809315020E940D10198E75CD6D
:102BB0008091530280FF20C024FD1EC0888999891E
:102BC000892B09F0BDCBC60143970E947C1D8091E3
:102BD0001502982F906190931502EF2819F08261E9
:102BE000809315020E940D1081E090E0998B888BF4
:102BF00088E0898F1B8E4ACC85FF14C080915802D3
:102C000090915902982789279827AC01465A5D4F21
:102C100050931F0240931E02E81AF90AF0921D0217
:102C2000E0921C0240911C0250911D0290911502ED
:102C30004115510541F024FD06C0926090931502A4
:102C4000CA010E947C1D80915402282F30E0322F4F
:102C5000222780915502820F932F911D90930E028F
:102C600080930D022C893D892817390710F0892B94
:102C700021F430930E0220930D0280910D02909169
:102C80000E029B8B8A8B80911502837009F458CBBE
:102C900020CF84FF0AC01092100210920F0281E030
:102CA00090E0998B888B84E0A4CF20910F02309123
:102CB000100221153105B9F080FF02C0198A188A67
:102CC00088899989009789F48A899B898217930753
:102CD00020F49093100280930F0280910F02909144
:102CE0001002998B888B1B8EE0CB909310028093FF
:102CF0000F02F9CF8091150281FF22CB88E290E08C
:102D000090931D0280931C0280E1E9CB8091150213
:102D100080FF16CB198E80E131CEE114F10419F059
:102D2000C7010E947C1D8091150281709091530211
:102D300090FF15C0882381F087E0898F1A8E198A49
:102D4000188A81E090E00E947C1D80E1809315024A
:102D50000E940D1080E19BCB86E0898FF2CF882303
:102D600099F085E0898F198A188AEACAE114F1047A
:102D700019F0C7010E947C1D8091530280FF04C09E
:102D800087E0898F1A8EDDCFEF2821F7D9CA80918D
:102D9000150280FFD5CA87E0898F1A8ED1CA82E0DA
:102DA0008093540210925502EACC8F929F92AF9278
:102DB000BF92CF92DF92EF92FF920F931F93CF9328
:102DC000DF9380917C03882309F420C1D091030212
:102DD000D11151C089E30E94E603882309F449C058
:102DE00060917D0370917E036B0126E0C20ED11CC1
:102DF000C11438E0D30628F06B0149EFC41A47E04C
:102E0000D40A80E00E945F0360E08AE30E94C80366
:102E1000E82E60E08AE30E94C803F82EF0927E0359
:102E2000E0927D0360E08AE30E94C803182F60E00F
:102E30008AE30E94C803C82F60E08AE30E94C803A7
:102E4000082F40E46EE180E80E94270307FFEBC0F3
:102E5000E11458E0F50608F0E6C0D0928003C09275
:102E60007F039C2F812F049790938203809381038B
:102E7000DFEFD0930302F0900302FF2009F476C045
:102E800081E0809305028F2D0E94E802EC0190936F
:102E90001D0280931C02892B09F4F2C042E650E027
:102EA00070E060E08F2D0E94750364E272E00E9482
:102EB0000803C0903002D090310288E0C816D104D7
:102EC00009F0CCC0F09206022E97D0931D02C09359
:102ED0001C0220913E0230913F02E091AA02F09143
:102EE000AB02C9018E279F274091A2025091A302F5
:102EF00084239523892B49F540914002509141024A
:102F00006091AC027091AD02CA0186279727A0910B
:102F1000A402B091A5028A239B23892BB1F480914E
:102F2000420290914302E817F90709F07FC08091AF
:102F30004402909145026817790709F077C06AE268
:102F400072E08EE392E00E945C0E81E00E943E11EE
:102F500080911C0290911D02892B21F00E94D10EBC
:102F60000E9484068091050280FD8AC00E94BE02F4
:102F70006B017C018091660490916704A0916804C4
:102F8000B091690446015701881A990AAA0ABB0A36
:102F9000C6E8D3E00EEF13E0D0931902C0931802F5
:102FA00082E0B7FE14C0EC8DFD8D309709F4FFC0B0
:102FB00086859785A089B189A7019601281B390BC1
:102FC0004A0B5B0BDA01C901B7FD0DC083E00E941B
:102FD0003E1180911C0290911D02892B21F00E94CC
:102FE000D10E0E9484066E960C171D07A9F6B7FC39
:102FF0000DC03AEFC30ED11CE11CF11CC092660457
:10300000D0926704E0926804F0926904DF91CF9156
:103010001F910F91FF90EF90DF90CF90BF90AF90F6
:103020009F908F9008950E94AC0323CFE7E0F4E0D7
:1030300080E0883019F480935F0487CF60817181CC
:103040002617370741F4628173814617570719F431
:1030500080935F0474CF8F5F3B96EBCF28E0C2165E
:1030600026E0D20669F410921D0210921C02AA9763
:1030700060F480911C0290911D02892B09F070CFA1
:103080000E94AC031092030271CF8091380290919C
:103090003902811531E0930701F18115924049F71A
:1030A00020914A0230914B028091AA029091AB028A
:1030B00028173907F1F620914C0230914D0280918A
:1030C000AC029091AD022817390799F66AE372E0D5
:1030D00080E492E00E945C0ECCCF00914A021091F5
:1030E0004B028091AA029091AB020817190709F6CA
:1030F000C0914C02D0914D028091AC029091AD02F2
:10310000C817D90709F0B5CF6AE372E080E492E00E
:103110000E945C0E80E092E0909339028093380226
:1031200086E0EAE3F2E0A4E4B2E001900D928A9531
:10313000E1F786E0E0E6F4E0AAE3B2E001900D9268
:103140008A95E1F786E0E0E6F4E0AAE2B2E00190D9
:103150000D928A95E1F786E0E4E4F2E0A4E2B2E0C1
:1031600001900D928A95E1F7809140029091410281
:1031700090934B0280934A028091420290914302C5
:1031800090934D0280934C021093410200934002B1
:10319000D0934302C0934202D0923102C0923002D7
:1031A0008AE290E090931D0280931C0262CF8E858C
:1031B0009F85A889B98900CFAF92BF92CF92DF9245
:1031C000EF92FF920F931F93CF938C015B017A01D3
:1031D0006A010E94D5160115110509F45AC0F801BB
:1031E0008181867009F055C03896C1E081918111C6
:1031F00033C0C150F801EC0FF11D878181110DC062
:1032000080E092E00E94BE04F801EC0FF11D87837C
:103210008823F9F2F80115861486A7014C195D0977
:103220004A0D5B1DF801648575859601EC0FF11D53
:1032300087810E948F05C81AD90AF801248535852F
:10324000820F931F958784871C141D0454F4C43087
:1032500009F4BFCFCF5FD4CFCF5FC53039F6C4E01C
:10326000C9CF0E94BE02665F7F4F8F4F9F4FF8010C
:1032700066877787808B918BC7018C199D09CF91C9
:103280001F910F91FF90EF90DF90CF90BF90AF9084
:10329000089590E080E0F3CFFC01848595850C943F
:1032A000DC18CF93DF931F92CDB7DEB7698341E07F
:1032B00050E0BE016F5F7F4FFC01848595850E94C1
:1032C000DC180F90DF91CF910895CF93DF93EC013D
:1032D0000E94D516EC85FD85309739F0818182FFFB
:1032E00008C081E09281911101C080E0DF91CF910F
:1032F000089581E0FBCFCF93DF93EC018C859D8512
:10330000009769F0FC012181222349F002960E9476
:103310002A07EC85FD85818182FF07C011821D8609
:103320001C86DF91CF910C94D51682608183F7CFF4
:10333000CF92DF92EF92FF920F931F93CF93DF9381
:103340008C01EB016A01DC01ED91FC910488F589A7
:10335000E02D0995EA80FB806C817D815C2D4D2DEF
:10336000809184039091850301968115BDE79B07A9
:1033700010F080E090E1382F292FE6E8F3E0DF013C
:10338000C0E0C430D1F490938503809384031092FD
:10339000060480E0D0E0C0E08430F1F480930604BD
:1033A000209711F590E080E0DF91CF911F910F9170
:1033B000FF90EF90DF90CF9008955996DC91599748
:1033C000DD2339F01496CD90DC901597C216D30604
:1033D00059F2CF5F5E96D5CFAE2F9F2FB18DB11131
:1033E0003CC080930604EF0182E0898F8091110236
:1033F0008C87809112028D87809113028E87809135
:1034000014028F8780E092E09B8B8A8B9D8B8C8B44
:1034100081E090E0998B888B1B8E8A8F83E0888F68
:103420001E8A80E18F8B3D832C835F834E83F982DC
:10343000E8827B836A83898D8F7009F4B3CF0E9401
:10344000D516898D8F708330B1F78C8D9D8DF801E5
:103450009587848781E090E0A7CFB73031F420973B
:1034600031F0D28CBA8DBD1510F0AC2F9D2F8F5F2F
:103470007E96CA2FD92F90CF8F929F92AF92BF92F4
:10348000CF92DF92EF92FF920F931F93CF93DF9330
:103490006B015A01C0919102D09192026FE270E0EB
:1034A0000E940B264C01FE01EA51FF4FE080C452FE
:1034B000DF4FF12CEF1469F009911991B401D80193
:1034C00014968D919C910E941626892B21F4F394D9
:1034D000F1CF10E000E0D801ED91FC918080918067
:1034E00031E3E32E35E0F32ED0E0C0E067E771E092
:1034F0008AE694E00E94340DF701608171816115C4
:10350000710521F08AE694E00E94340DD7016D9197
:103510007C91A501C6010E94DC25892BB9F4CE015E
:10352000880F991FC80FD91FCF5CDA4F6A81C80175
:10353000F401DF91CF911F910F91FF90EF90DF90F9
:10354000CF90BF90AF909F908F9009942196B3E059
:10355000EB0EF11CC730D10549F664E0E8CF1F92AD
:103560000F920FB60F9211242F933F934F935F93B7
:103570006F937F938F939F93AF93BF93EF93FF933B
:103580008AE694E00E945B01FF91EF91BF91AF91B9
:103590009F918F917F916F915F914F913F912F916B
:1035A0000F900FBE0F901F9018951F920F920FB69D
:1035B0000F9211242F938F939F93EF93FF93E0919A
:1035C0007A04F0917B048081E0918004F091810481
:1035D00082FD1BC09081809183048F5F8F73209147
:1035E0008404821741F0E0918304F0E0E659FB4F38
:1035F000958F80938304FF91EF919F918F912F91ED
:103600000F900FBE0F901F9018958081F4CF1F92DE
:103610000F920FB60F9211242F933F938F939F9386
:10362000AF93BF938091890290918A02A0918B02FF
:10363000B0918C023091880223E0230F2D3758F58A
:103640000196A11DB11D2093880280938902909359
:103650008A02A0938B02B0938C0280918D0290918C
:103660008E02A0918F02B09190020196A11DB11D12
:1036700080938D0290938E02A0938F02B09390025C
:10368000BF91AF919F918F913F912F910F900FBE5E
:103690000F901F90189526E8230F0296A11DB11DCB
:1036A000D2CF1F920F920FB60F9211242F933F93F8
:1036B0004F935F936F937F938F939F93AF93BF933A
:1036C000CF93DF93EF93FF93D9B1C091BA0180916B
:1036D000B9012091B8019D2F909592238D23892BBC
:1036E00090916D00CD27C923C823D093BA01CC2374
:1036F00009F45EC0C0FF09C01092B7018D2F817020
:103700008093B601F0E0E0E00995C1FF0AC081E0D6
:103710008093B7018D2F82708093B601F0E0E0E0D6
:103720000995C2FF0AC082E08093B7018D2F847093
:103730008093B601F0E0E0E00995C3FF0AC083E0A2
:103740008093B7018D2F88708093B601F0E0E0E0A0
:103750000995C4FF0AC084E08093B7018D2F807162
:103760008093B601F0E0E0E00995C5FF0AC085E06E
:103770008093B7018D2F80728093B601F0E0E0E076
:103780000995C6FF0AC086E08093B7018D2F80742B
:103790008093B601F0E0E0E00995C7FF09C087E03B
:1037A0008093B701D078D093B601F0E0E0E00995BE
:1037B000FF91EF91DF91CF91BF91AF919F918F9149
:1037C0007F916F915F914F913F912F910F900FBE1D
:1037D0000F901F9018951F920F920FB60F92112401
:1037E0002F933F934F935F936F937F938F939F9309
:1037F000AF93BF93CF93DF93EF93FF93D6B1C09175
:10380000B5018091B4012091B3019D2F9095922331
:103810008D23892B90916C00CD27C923C823D09389
:10382000B501CC2309F447C0C0FF0AC08EE08093E5
:10383000B7018D2F81708093B601F0E0E0E009952B
:10384000C1FF0AC08FE08093B7018D2F82708093F3
:10385000B601F0E0E0E00995C2FF0AC080E1809384
:10386000B7018D2F84708093B601F0E0E0E00995F8
:10387000C3FF0AC081E18093B7018D2F88708093C8
:10388000B601F0E0E0E00995C4FF0AC082E1809350
:10389000B7018D2F80718093B601F0E0E0E00995CB
:1038A000C5FF09C083E18093B701D072D093B60100
:1038B000F0E0E0E00995FF91EF91DF91CF91BF91AA
:1038C000AF919F918F917F916F915F914F913F91B8
:1038D0002F910F900FBE0F901F9018951F920F926F
:1038E0000FB60F9211242F933F934F935F936F93D3
:1038F0007F938F939F93AF93BF93CF93DF93EF9378
:10390000FF93D3B1C091B2018091B1012091B00178
:103910009D2F909592238D23892B90916B00CD271D
:10392000C923C823D093B201CC2309F447C0C0FFF8
:103930000AC088E08093B7018D2F81708093B60113
:10394000F0E0E0E00995C1FF0AC089E08093B7018B
:103950008D2F82708093B601F0E0E0E00995C2FF00
:103960000AC08AE08093B7018D2F84708093B601DE
:10397000F0E0E0E00995C3FF0AC08BE08093B70157
:103980008D2F88708093B601F0E0E0E00995C4FFC8
:103990000AC08CE08093B7018D2F80718093B601AF
:1039A000F0E0E0E00995C5FF09C08DE08093B70124
:1039B000D072D093B601F0E0E0E00995FF91EF916D
:1039C000DF91CF91BF91AF919F918F917F916F9137
:1039D0005F914F913F912F910F900FBE0F901F90CD
:1039E00018951F920F920FB60F9211242F933F93A9
:1039F0004F935F936F937F938F939F93AF93BF93F7
:103A0000EF93FF9383E08093B70189B1887080932F
:103A1000B601F0E0E0E00995FF91EF91BF91AF9121
:103A20009F918F917F916F915F914F913F912F91D6
:103A30000F900FBE0F901F9018951F920F920FB608
:103A40000F9211242F933F934F935F936F937F9324
:103A50008F939F93AF93BF93EF93FF9382E08093F5
:103A6000B70189B184708093B601F0E0E0E0099578
:103A7000FF91EF91BF91AF919F918F917F916F9146
:103A80005F914F913F912F910F900FBE0F901F901C
:103A90001895FC013381360F30930C02A72FBB27FA
:103AA00092819A0F90930B02218120930A02408108
:103AB000409309029A171B0648F481E0820F809315
:103AC0000A02811103C04F5F40930902772736171E
:103AD000170688F49F5F90930B0291110CC08091A0
:103AE0000A028F5F80930A02811105C0809109024A
:103AF0008F5F809309020895CF93DF93C0911802DE
:103B0000D0911902BC01CE0108960E94491DE9E03E
:103B1000F2E0808188878181898782818A87838199
:103B20008B87DF91CF910895EAE6F4E01382128249
:103B300088EE93E0A0E0B0E084839583A683B7830A
:103B400088E591E09183808385EC90E09587848778
:103B500084EC90E09787868780EC90E0918B808B57
:103B600081EC90E0938B828B82EC90E0958B848B40
:103B700086EC90E0978B868B118E128E138E148EAE
:103B8000E7E0F5E08AE691E0918380831282138278
:103B900014821582EDE0F5E0918380831282138216
:103BA00014821582E9E1F5E0918380831282138209
:103BB00014821582E3E1F5E09183808312821382FF
:103BC00014821582EFE1F5E09183808312821382E3
:103BD00014821582E5E2F5E09183808312821382DC
:103BE00014821582EBE2F5E09183808312821382C6
:103BF00014821582E1E3F5E026E831E03183208389
:103C000012822FE931E03483238321E025832AE8DF
:103C100031E03783268322E020872FE831E03287A6
:103C2000218723E0238725E931E03587248724E0B5
:103C300026872AE931E0308B278725E0218B22EA8D
:103C400031E0338B228B26E0248BE6E4F5E0918390
:103C500080831282138214821582ECE4F5E0918352
:103C600080831282138214821582E2E5F5E091834B
:103C700080831282138214821582E8E5F5E0918335
:103C8000808312821382148215820895CF93DF936A
:103C9000CDB7DEB7CA58D1400FB6F894DEBF0FBE1D
:103CA000CDBF789484B5826084BD84B5816084BDC5
:103CB00085B5826085BD85B5816085BD80916E00CA
:103CC000816080936E0010928100809181008260FB
:103CD0008093810080918100816080938100809138
:103CE00080008160809380008091B1008460809327
:103CF000B1008091B00081608093B00080917A0023
:103D0000846080937A0080917A00826080937A0048
:103D100080917A00816080937A0080917A00806837
:103D200080937A001092C100E0917A04F0917B04B4
:103D300082E08083E0917604F09177041082E09134
:103D40007804F09179048FEC808310928204E091E2
:103D50007E04F0917F0476E0F72EF082E0917C04FF
:103D6000F0917D04808180618083E0917C04F091FA
:103D70007D04808188608083E0917C04F0917D04E3
:103D8000808180688083E0917C04F0917D04808153
:103D90008F7D808367EB70E08AE694E00E948F0D50
:103DA0008AE691E09A83898330EC3B8328EA2C836E
:103DB0001D824AEA4E8398878F8339872A871B861C
:103DC00029E32C87E7E0F1E0DE011D962F2D01901D
:103DD0000D922A95E1F71E8A1D8A48EE53E060E0B5
:103DE00070E04F8B588F698F7A8F2EE131E03C8BDA
:103DF0002B8B18A21F8E1CA21BA22CE431E03AA32D
:103E000029A3CC54DF4F99838883C45BD040CA5424
:103E1000DF4F188219821A821B82C65BD0408FEF57
:103E20009FEFC054DF4F99838883C05CD0401EA2AF
:103E30001DA2C254DF4F19821882CE5BD040CE54EF
:103E4000DF4F19821882C25BD040EAEAF1E0DE015E
:103E5000AE53BF4F8F2D01900D928A95E1F7C4525A
:103E6000DF4F1882CC5DD04086E090E00E94B22403
:103E7000FC01128288E0838384E990E09583848347
:103E800080E491E091838083C352DF4FF983E8831C
:103E9000CD5DD04081E0C951DF4F8883C75ED040FF
:103EA00087E090E00E94B2248C0184E0D801129651
:103EB0008C9312971396FC92139786E890E01596D0
:103EC0009C938E93149716968C9116978E7F1696C8
:103ED0008C93169716968C9116978D7F16968C93C9
:103EE000169786E491E08D939C9360E086E00E94B3
:103EF000360261E086E00E94EA01C853DF4F198371
:103F00000883C85CD040C452DF4F8881CC5DD0406C
:103F10008F5FC452DF4F8883CC5DD0408091910287
:103F200090919202892B31F4CE01019690939202E6
:103F300080939102C651DF4F19821882CA5ED04029
:103F40008CE491E0C851DF4F99838883C85ED040EC
:103F50008AE691E0C558DE4F99838883CB57D140DC
:103F6000C358DE4F188219821A821B82CD57D14066
:103F70008FEF9FEFC957DE4F99838883C758D14091
:103F8000CE014396C451DF4F99838883CC5ED040E5
:103F9000CB57DE4F19821882C558D1401CA21BA2F4
:103FA0009EA38DA3A8EEB0E0AC0FBD1F1696FE0138
:103FB000B7968C569F4F2D912193E817F907D9F7A3
:103FC0007E01B2E9EB1ABEEFFB0AD7018D919C91FD
:103FD000918380831E01B9EA2B0E311C8E0100599A
:103FE0001E4FF80180819181A281B381F10180830C
:103FF0009183A283B3836E01FDEACF0ED11CCC580E
:10400000DE4F88819981AA81BB81C457D140F601D6
:1040100080839183A283B383C858DE4F8881C857B9
:10402000D140CF54DF4F8883C15BD040C758DE4FAB
:1040300088819981C957D140CE54DF4F99838883B5
:10404000C25BD040C358DE4F88819981AA81BB8171
:10405000CD57D140CA54DF4F88839983AA83BB834D
:10406000C65BD040CF57DE4F88819981C158D1407F
:10407000C654DF4F99838883CA5BD040CD57DE4F4B
:1040800088819981C358D140C454DF4F9983888374
:10409000CC5BD040C254DF4F19821882CE5BD04037
:1040A0008FEF9FEFC054DF4F99838883C05CD0406F
:1040B0008AE691E0C851DF4F99838883C85ED0407B
:1040C00089859A85AB85BC85C651DF4F88839983E6
:1040D000AA83BB83CA5ED040BE0168517F4FCE0128
:1040E00081960E94C6008CE39AE1CE54DF4F9983FB
:1040F0008883C25BD04080917C03811157C063EB01
:1041000070E08AE694E00E948F0D0AE611E0C85143
:10411000DF4F19830883C85ED0408B819C81AD81BD
:10412000BE81C651DF4F88839983AA83BB83CA5E51
:10413000D040BE0168517F4FCE010D960E94E80A23
:104140003091AA022091AB029091AC028091AD0215
:10415000C851DF4F19830883C85ED040C651DF4F76
:104160003883CA5ED040C551DF4F2883CB5ED04034
:10417000C451DF4F9883CC5ED040C351DF4F88835A
:10418000CD5ED0406AE674E0CE0188519F4F0E9418
:10419000B40D6CE671E08AE694E00E94340D6CED9B
:1041A00075E080E090E00E948C02A5CF0E94EF03B2
:1041B00092FFA5CF0E94EF037E01B1E2EB0EF11C4E
:1041C000C7010E94B208882309F4CFC0C452DF4F50
:1041D0008881CC5DD040882309F444C2C853DF4FA6
:1041E00088819981C85CD040DC01ED91FC912081EF
:1041F00031814BA15CA1C651DF4F59834883CA5E10
:10420000D0404CE451E0C851DF4F59834883C85E29
:10421000D0404DA15EA1C451DF4F59834883CC5E8D
:10422000D04040E8FE01B796A8EEB0E0AC0FBD1F4D
:10423000169601900D924A95E1F7C955DF4F4881D6
:104240005981C75AD040C259DE4F59834883CE5650
:10425000D140F1014081518162817381C059DE4FAB
:10426000488359836A837B83C057D140C355DF4F4E
:10427000488159816A817B81CD5AD040CC58DE4F2C
:10428000488359836A837B83C457D140CF54DF4F1F
:104290004881C15BD040C858DE4F4883C857D140E1
:1042A000CE54DF4F48815981C25BD040C758DE4FA2
:1042B00059834883C957D1404AE651E0C558DE4F7B
:1042C00059834883CB57D140CA54DF4F4881598125
:1042D0006A817B81C65BD040C358DE4F48835983D7
:1042E0006A837B83CD57D140C654DF4F48815981C3
:1042F000CA5BD040CF57DE4F59834883C158D14065
:10430000C454DF4F48815981CC5BD040CD57DE4F3C
:1043100059834883C358D140C254DF4F48815981E3
:10432000CE5BD040CB57DE4F59834883C558D14030
:10433000C054DF4F48815981C05CD040C957DE4F1F
:1043400059834883C758D140BE0168517F4FF90156
:104350000995C452DF4F8881CC5DD0408F5FC45235
:10436000DF4F8883CC5DD04031CF6EEA70E08AE6C3
:1043700094E00E948F0DC7010E94B2081E2D0F2DE0
:104380006EEFA62EBB24BA947E01F2ECEF0EF11C68
:10439000812F902F0E94B2088111EBC0812F902FA6
:1043A0000E94B2088111D7C0C654DF4F688179815D
:1043B000CA5BD0408DA19EA1DC01ED91FC91C4545B
:1043C000DF4F48815981CC5BD04061157105F1F117
:1043D0000088F189E02D09958130910509F0C2C06E
:1043E000C955DF4F99838883C75AD04087E0EDE0F5
:1043F000F1E0DE01A851BF4F01900D928A95E1F7DF
:10440000FE01E851FF4FDE019C96CF0107962191F6
:104410002D938E179F07D9F782E08BAB1CAA8FE0F4
:104420008DABF70101900020E9F7CF018E199F09AC
:1044300040968138910548F18DA19EA1DC01ED9156
:10444000FC910488F589E02D099585C00684F785DF
:10445000E02D2AE631E0C851DF4F39832883C85E5A
:10446000D040CA54DF4F488059806A807B80C65B49
:10447000D040C651DF4F488259826A827B82CA5E31
:10448000D040BE0168517F4FA6CF4FE050E0BE0143
:10449000695D7F4FC7010E94A4009C01255031092E
:1044A000AE01495D5F4F60E1812F902F0E94E808C7
:1044B0000E94BE02F1016083718382839383C3559E
:1044C000DF4F688379838A839B83CD5AD0408DA147
:1044D0009EA1DC01ED91FC910084F185E02D099510
:1044E000892BC9F40E94BE02F6014080518062808F
:1044F0007380641975098609970968397A438105BB
:10450000910528F38CEF9FEFC054DF4F9983888388
:10451000C05CD04091CFBE0167577E4F812F902F56
:104520000E94C909049709F087CF8AA590E08111FC
:10453000EBCF0E94BE02F601608371838283938376
:10454000CF54DF4F1882C15BD040C054DF4F198277
:104550001882C05CD04060ED77E080E090E00E947F
:104560008C0216CFC054DF4FB982A882C05CD04005
:10457000F2CF63EA70E08AE694E00E948F0DB12CDE
:10458000EE24E394F12CC951DF4F8881C75ED040FF
:10459000B81608F0B0CDEB2DF0E0E259FF4FEE0F6A
:1045A000FF1F21E030E02C0F3D1FE20FF31F0190B1
:1045B000F081E02D648175814FE050E083E992E065
:1045C0000E947B2483E992E0DC010D900020E9F752
:1045D000CD018B58924081389105D8F5812F902FCD
:1045E0000E94B2088823A9F1C955DF4F88819981BB
:1045F000C75AD040019679F1C955DF4F9983888316
:10460000C75AD040C955DF4F8881C75AD040C855D6
:10461000DF4F9881C85AD0409CA78DA747E050E053
:10462000BE01695D7F4F83E992E00E94A400E7E24A
:10463000F0E0EC0FFD1FE80FF91F10829C012450E1
:104640003109AE01495D5F4F62E8812F902F0E94D2
:10465000E808B39498CFC955DF4FF982E882C75A6A
:10466000D040D0CFCE0181960E94B208882309F4B1
:1046700043C00E94BE022B013C01C355DF4F88811D
:104680009981AA81BB81CD5AD040A3019201281BF8
:10469000390B4A0B5B0BDA01C90189399A43A10531
:1046A000B10590F4F10180819181A281B381A301D0
:1046B0009201281B390B4A0B5B0BDA01C9018939BE
:1046C0009A43A105B105D8F18DA19EA1CF54DF4F2A
:1046D0002881C15BD040222391F02CEF3FEFC054E2
:1046E000DF4F39832883C05CD040DC01ED91FC9121
:1046F0000488F589E02D09950E94D516FCCC20ECA4
:104700002FA318A6DC01ED91FC910280F381E02D2E
:1047100042E050E0BE01695D7F4F0995F1014082A2
:10472000518262827382D6014D925D926D927C922B
:10473000139781E0CF54DF4F8883C15BD0408DA1B8
:104740009EA1DC01ED91FC910084F185E02D09959D
:10475000892B91F2BE0168517F4FCE0181960E9454
:10476000C9098C01892B09F4C1C0F601408251822C
:10477000628273828FA1807F803309F09AC0CE5409
:10478000DF4F88819981C25BD040892B09F4B4CF77
:10479000C851DF4FE880C85ED040F12CFE01EE0D1D
:1047A000FF1DA0A4B12CBA2CAA24E9E2F0E0EC0F82
:1047B000FD1FEE0DFF1D8081A80EB11C4701F2E028
:1047C0008F0E911C27E230E02C0F3D1F820E931EAE
:1047D000B7016D5F7F4F620F731FA501C4010E9477
:1047E000F225B5016E0D7F1DE9E2F0E0EC0FFD1F33
:1047F000E60FF71F10820E191F098FA18670C6578A
:10480000DE4F8883CA58D140CE54DF4FE881F9810A
:10481000C25BD0408230E9F5DE01A60FB71F9A9641
:104820008C9190E0982F8827DE01A60FB71F9B96EA
:10483000EC90E80EF92EF11C0A191B09A80145504D
:1048400051096B5F7F4F87E290E08C0F9D1F680FCF
:10485000791FC401099580E48FA3C657DE4F988164
:10486000CA58D14098A7F9A6EAA68DA19EA1DC015D
:10487000ED91FC910280F381E02D44E050E0BE0117
:10488000695D7F4F0995F101408251826282738296
:1048900033CF0A191B09A801435051096D5F7F4F9F
:1048A00027E230E02C0F3D1F620F731FC4010995F2
:1048B00023CF803C91F480ED8FA318A68DA19EA1FB
:1048C000DC01ED91FC910280F381E02D42E050E0AB
:1048D000BE01695D7F4F09950FCF803D09F00CCF78
:1048E000CF54DF4F1882C15BD04006CFCE018196F6
:1048F0000E94B20801CFFB01DC014150504048F05A
:1049000005900D920020C9F701C01D924150504002
:10491000E0F70895A1E21A2EAA1BBB1BFD010DC0F2
:10492000AA1FBB1FEE1FFF1FA217B307E407F5075F
:1049300020F0A21BB30BE40BF50B661F771F881F3B
:10494000991F1A9469F760957095809590959B01D1
:10495000AC01BD01CF010895EE0FFF1F0590F4914A
:10496000E02D09940F931F93CF93DF93823091052D
:1049700010F482E090E0E0916005F091610530E094
:1049800020E0B0E0A0E0309799F42115310509F45A
:104990004AC0281B390B24303105D8F58A819B8108
:1049A0006115710589F1FB0193838283FE0111C0BA
:1049B000408151810281138148175907E0F048175F
:1049C000590799F4109761F012960C931297139669
:1049D0001C933296CF01DF91CF911F910F910895D3
:1049E0000093600510936105F4CF2115310551F056
:1049F0004217530738F0A901DB019A01BD01DF011D
:104A0000F801C1CFEF01F9CF909361058093600564
:104A1000CDCFFE01E20FF31F819391932250310914
:104A200039832883D7CF20915E0530915F05232BF2
:104A300041F4209103013091040130935F052093EC
:104A40005E0520910101309102012115310541F4EB
:104A50002DB73EB74091050150910601241B350B3F
:104A6000E0915E05F0915F05E217F307A0F42E1BBD
:104A70003F0B2817390778F0AC014E5F5F4F2417C2
:104A8000350748F04E0F5F1F50935F0540935E055A
:104A9000819391939FCFF0E0E0E09CCFCF93DF93A1
:104AA0000097E9F0FC01329713821282A091600511
:104AB000B0916105ED0130E020E01097A1F4208174
:104AC0003181820F931F20915E0530915F05281779
:104AD000390709F061C0F0935F05E0935E05DF914F
:104AE000CF910895EA01CE17DF07E8F54A815B818F
:104AF0009E0141155105B1F7E901FB83EA83499114
:104B00005991C40FD51FEC17FD0761F48081918185
:104B10000296840F951FE90199838883828193818E
:104B20009B838A83F0E0E0E012968D919C9113972D
:104B30000097B9F52D913C911197CD010296820F06
:104B4000931F20915E0530915F052817390739F6CC
:104B5000309751F51092610510926005B0935F0592
:104B6000A0935E05BCCFD383C28340815181840F63
:104B7000951FC817D90761F44E5F5F4F88819981EF
:104B8000480F591F518340838A819B81938382837D
:104B90002115310509F0B0CFF0936105E093600570
:104BA0009ECFFD01DC01C0CF13821282D7CF81E0FE
:104BB00090E0F8940C941F26FB01DC0104C08D9159
:104BC0000190801921F441505040C8F7881B990B7F
:104BD0000895FB01DC0102C001900D92415050404C
:104BE000D8F708956817790768F4FB01DC01E40F32
:104BF000F51FA40FB51F02C002900E924150504005
:104C0000D8F708950C94E925DC0101C06D9341505B
:104C10005040E0F70895FC018191861721F0882328
:104C2000D9F7992708953197CF010895FB01DC0149
:104C30008D91019080190110D9F3990B0895F89482
:024C4000FFCFA4
:104C4200FF00006205800000010203040500044D1C
:104C520051545404FFFFFFFFFFFF000000005119F1
:104C62004C19E50A54075508970769079819A508CA
:104C7200B4077B19950865198308A808000000008D
:104C8200D90A00000000FE0D00000000730950095F
:104C9200E50AE40A000000007D01DD000A01CA0104
:104CA2003B0119012D0100000000B40D0D0A007333
:104CB200656E64696E670063757272656E742069F1
:104CC2007465723A20006F6666006F70656E0063ED
:104CD2006C6F736500696E666F0063617574696FEE
:104CE2006E007761726E696E67004D5154543100E7
:107E0000112484B714BE81FFF0D085E080938100F7
:107E100082E08093C00088E18093C10086E0809377
:107E2000C20080E18093C4008EE0C9D0259A86E02C
:107E300020E33CEF91E0309385002093840096BBD3
:107E4000B09BFECF1D9AA8958150A9F7CC24DD24C4
:107E500088248394B5E0AB2EA1E19A2EF3E0BF2EE7
:107E6000A2D0813461F49FD0082FAFD0023811F036
:107E7000013811F484E001C083E08DD089C08234E0
:107E800011F484E103C0853419F485E0A6D080C0E4
:107E9000853579F488D0E82EFF2485D0082F10E0AE
:107EA000102F00270E291F29000F111F8ED06801E7
:107EB0006FC0863521F484E090D080E0DECF843638
:107EC00009F040C070D06FD0082F6DD080E0C81688
:107ED00080E7D80618F4F601B7BEE895C0E0D1E017
:107EE00062D089930C17E1F7F0E0CF16F0E7DF06D8
:107EF00018F0F601B7BEE89568D007B600FCFDCFD4
:107F0000A601A0E0B1E02C9130E011968C91119780
:107F100090E0982F8827822B932B1296FA010C0160
:107F200087BEE89511244E5F5F4FF1E0A038BF0790
:107F300051F7F601A7BEE89507B600FCFDCF97BE46
:107F4000E89526C08437B1F42ED02DD0F82E2BD052
:107F50003CD0F601EF2C8F010F5F1F4F84911BD097
:107F6000EA94F801C1F70894C11CD11CFA94CF0C13
:107F7000D11C0EC0853739F428D08EE10CD085E9AC
:107F80000AD08FE07ACF813511F488E018D01DD067
:107F900080E101D065CF982F8091C00085FFFCCF94
:107FA0009093C60008958091C00087FFFCCF809118
:107FB000C00084FD01C0A8958091C6000895E0E648
:107FC000F0E098E1908380830895EDDF803219F02E
:107FD00088E0F5DFFFCF84E1DECF1F93182FE3DFCA
:107FE0001150E9F7F2DF1F91089580E0E8DFEE27F6
:047FF000FF270994CA
:027FFE00040479
:0400000300007E007B
:00000001FF